:10000000ABC100000C9494400C9469400C943E40A9
:100010000C9413400C94E83F0C94BD3F0C94923F19
:100020000C94673F0C94EA400C94EA400C94EA402C
:10003000C4C10000C2C10000C0C10000BEC10000B8
:10004000BCC100000C94CA42B8C10000B6C1000097
:10005000B4C10000B2C10000B0C100000C94A047C0
:10006000ACC100000C94F648A8C10000A6C1000075
:10007000A4C10000A2C10000A0C100009EC10000F8
:100080000C949D429AC1000098C1000096C10000E6
:1000900094C1000092C1000090C100008EC1000018
:1000A0008CC100008AC100000C94704286C100001F
:1000B00084C1000082C1000080C100000C94434252
:1000C0007CC100007AC1000078C1000076C1000048
:1000D00074C1000072C1000070C100006EC1000058
:1000E0006CC100001302C7021A0389032904D40556
:1000F000860639079A09DE07CF0C810D4113F10EF0
:1001000059102C11DE118F12AE14DE14AC15B81676
:100110004C17C41FC41FC41FC41FC41FC41FC41F47
:10012000C41FC41FC41FEE171618E51876199D19B1
:10013000591943192A1F621AA31A451B141CFC1CC7
:10014000C41F4A1EF21DB01E0615381594156A15F7
:100150006F15741579157E15821587158C158C1AF7
:10016000831A851A8C1A8E1A901A921A981A9A1A49
:100170002C4D384D444D8A4D524D604D6E4D7C4D49
:10018000B44DC04DD94DE74DF54DBA4E504EAE4E23
:10019000424E2F4E5E4E6C4E7A4E874E944EA14E7E
:1001A000923C993C763C7D3C843C8B3CA03CA73CFB
:1001B000D940CF40D140D340D540DB40DD40E5457C
:1001C000E845D745DB45E1451F46EC45F045F6459A
:1001D000FA45FE45044608460C461F46124616469A
:1001E0001A46844689468E469846A2461B47AC4628
:1001F000B446BC46C646D046DA46E946F3461B47F7
:10020000FD4607471147084AD73B3BCE016E84BCE9
:10021000BFFDC12F3D6C74319ABD56833DDA3D0060
:10022000C77F11BED9E4BB4C3E916BAAAABE0000A9
:1002300000803F0000000A0B02090C0D0E080703A6
:1002400004010000000000000000000000000000A9
:10025000000000000000000000000000000000009E
:10026000121110000000000000000000000000005B
:10027000000000000000000000000000200023003B
:10028000260029002C002F0032000001000003018D
:100290000601090100002200250028002B002E0085
:1002A0003100340002010000050108010B010505C1
:1002B0000505070508080808020202020A0A0808DC
:1002C000040404040101010101010101030303030A
:1002D00003030303040707070C0C0C0C0C0C0C0C99
:1002E0000202020206060606060606060B0B0B0BAA
:1002F0000B0B0B0B010210202008081020401020CF
:1003000040800201020108040201010204081020D9
:1003100040808040201008040201800402018040D7
:100320002010080402010804020101020408102040
:1003300040800102040810204080000021002400B9
:1003400027002A002D0030003300010100000401C5
:1003500007010A012653055211241FBECFEFD1E237
:10036000DEBFCDBF00E00CBF12E0A0E0B2E0E8E6E7
:10037000F5EB00E00BBF02C007900D92AA3BB1075E
:10038000D9F729E0AAEBB2E001C01D92A13CB20767
:10039000E1F711E0CBEAD1E000E006C021970109C6
:1003A000802FFE010E943259CA3AD10780E0080727
:1003B000A9F70E942D4A0C94A35A22CE2F923F9265
:1003C0004F925F926F927F928F929F92AF92BF9265
:1003D000CF92DF92EF92FF920F931F93CF93DF9311
:1003E000CDB7DEB762970FB6F894DEBF0FBECDBFB4
:1003F0001092B209E82EF12C28EC829FF001112412
:10040000EF5DF74FE4818E2F90E0FC01E15AF10996
:10041000E231F10510F00C9464148827EE58FF4F78
:100420008F4F0C94325988EC8E9D80018F9D100D5A
:1004300011240F5D174FD80115968C910E94733DC2
:10044000029711F00C94641480915C0490915D0407
:10045000009741F480E190E00E944E596C01F80150
:10046000658116C0DC0112964C9150E0F80125819F
:10047000022E000C330B4217530789F00E94E659F5
:1004800080E190E00E944E596C01D80115966C9164
:10049000C6010E948545D0925D04C0925C048091A3
:1004A0005C0490915D040E946C3B20E030E040E2EF
:1004B00051E40E9464580E94FE56AB013091B2098B
:1004C000E32F032E000CFF0BEA51FB4F22E52083A4
:1004D000E1E0E30F0E2E000CFF0BEA51FB4F22E48C
:1004E0002083E2E0E30F0E2E000CFF0BEA51FB4FDE
:1004F0001082E3E0E30F0E2E000CFF0BEA51FB4FDE
:1005000028EC2E9DD0012F9DB00D1124AF5DB74F6B
:1005100013962C912083E4E0E30F0E2E000CFF0BCA
:10052000EA51FB4F21E02083E5E0E30F0E2E000CA3
:10053000FF0BEA51FB4FDB0177FF02C0A150BF4F19
:10054000B08327E0230FE6E0E30F0E2E000CFF0B35
:10055000EA51FB4FCA0160E071E00E941F5980839D
:1005600088E0830F8093E80460E090E0022E000CA6
:10057000330B462F50E04217530714F00C944C14E1
:10058000FA01EA51FB4F4081940F6F5FF2CF88EC84
:100590008E9DF0018F9DF00D1124EF5DF74F858149
:1005A000893F11F00C94641482E58093E60482E4A0
:1005B0008093E7041092E80483818093E90485E046
:1005C0008093B20911E01093EA0483E20E94AE3CEA
:1005D000E091B209019759F481E08E0F8093B2093E
:1005E0000E2E000CFF0BEA51FB4F10820AC081E077
:1005F0008E0F8093B2090E2E000CFF0BEA51FB4FB9
:1006000010832091B20981E0820F8093E80460E0BA
:1006100090E0022E000C330B462F50E04217530798
:1006200014F00C944C14FA01EA51FB4F4081940FE2
:100630006F5FF2CF88EC8E9D80018F9D100D11248D
:100640000F5D174FF80185818D3F11F00C946414F4
:100650008DE30E94244722E3AC01249FC001259F23
:10066000900D11243091B209E32F032E000CFF0BE3
:10067000EA51FB4F22E52083E1E0E30F0E2E000C50
:10068000FF0BEA51FB4F22E42083E2E0E30F0E2E42
:10069000000CFF0BEA51FB4F1082E3E0E30F0E2E3C
:1006A000000CFF0BEA51FB4FD80113962C912083CD
:1006B000E4E0E30F0E2E000CFF0BEA51FB4F21E0AC
:1006C000208326E0230FE5E0E30F0E2E000CFF0B46
:1006D000EA51FB4F6FEF73E00E941F59862F880F7E
:1006E000680F608387E0830F8093E80460E090E008
:1006F000022E000C330B462F50E04217530714F024
:100700000C944C14FA01EA51FB4F4081940F6F5F37
:10071000F2CF80915F04909160040097B1F485E07E
:1007200090E00E944E598C0188EC8E9DF0018F9DC7
:10073000F00D1124EF5DF74F6581C8010E94D021B3
:100740001093600400935F0423C0FC01428150E0D9
:1007500028EC2E9D80012F9D100D11240F5D174F49
:10076000D80115962C91022E000C330B421753071B
:1007700079F00E94E65985E090E00E944E596C01A4
:10078000F80165810E94D021D0926004C0925F047C
:100790001091B209E12F012E000CFF0BEA51FB4F23
:1007A00082E58083E1E0E10F0E2E000CFF0BEA51A1
:1007B000FB4F82E48083E2E0E10F0E2E000CFF0B82
:1007C000EA51FB4F1082E3E0E10F0E2E000CFF0B0D
:1007D000EA51FB4F88EC8E9DD0018F9DB00D112406
:1007E000AF5DB74F13968C918083E4E0E10F0E2E3E
:1007F000000CFF0BEA51FB4F81E0808386E0810F04
:100800008093B20980915F04909160040E94B121AD
:10081000E5E0E10F0E2E000CFF0BEA51FB4F808349
:100820002091B20981E0820F8093E80460E090E0BB
:10083000022E000C330B462F50E04217530714F0E2
:100840000C944C14FA01EA51FB4F4081940F6F5FF6
:10085000F2CF88EC8E9D80018F9D100D11240F5DCD
:10086000174FD80115968C910E94733D069711F091
:100870000C9464148091580490915904009771F07D
:10088000FC01428150E0D80115962C91022E000CFB
:10089000330B42175307D1F00E94E65986E090E0EF
:1008A0000E944E596C01F8011581612F0E94FA1FB8
:1008B000E12FF0E0EE0FFF1FE557FD4F8181D601DC
:1008C00015968C93D0925904C09258040091580404
:1008D00010915904FE0131961F0185E0DF011D9240
:1008E0008A95E9F761E0F80185810E94204661E080
:1008F000D80115968C910E94D73C6AEF70E080E099
:1009000090E00E94684760E0F80185810E94D73C32
:1009100064E170E080E090E00E94684761E0D80107
:1009200015968C910E94D73C8BE990E00197F1F7E6
:1009300060E0F80185810E94D73C83E290E0019756
:10094000F1F70E94BE454B015C0162E0D8011596AB
:100950008C910E942046F80185810E94AE3C01974F
:1009600091F00E94BE45DC01CB0188199909AA09C2
:10097000BB090597A105B10570F3D80113961C9228
:10098000139714961C920E94BE454B015C0162E0D5
:10099000F80185810E942046D80115968C910E940D
:1009A000AE3C892B19F4C12CD12C53C00E94BE45FA
:1009B000DC01CB0188199909AA09BB090597A10592
:1009C000B10550F3F0CF0E94BE45DC01CB01881980
:1009D0009909AA09BB090597A105B10538F4D80101
:1009E00015968C910E94AE3C892B69F30E94434777
:1009F0004B015C010E94BE452B013C0162E0F80105
:100A000085810E942046D80115968C910E94AE3CAB
:100A1000019749F10E944347DC01CB0188199909EC
:100A2000AA09BB09F60123E0F595E7952A95E1F7B8
:100A30008997A105B10520F1E20DF31D8081880F92
:100A400081608083BFEFCB1ADB0AE8E2CE16D104C7
:100A5000E1F00E94BE454B015C0162E0F801858136
:100A60000E942046BCCF0E94BE45DC01CB01841908
:100A70009509A609B7090597A105B10520F2CACFC6
:100A8000E20DF31D8081880FDCCF59814B812D81D0
:100A900030E06A81852F90E0860F911D840F911DB3
:100AA0006C81860F911D99272817390731F4D801D9
:100AB00013965C93139714964C938091B209E82F88
:100AC000082E000CFF0BEA51FB4F92E59083E1E00A
:100AD000E80F0E2E000CFF0BEA51FB4F92E49083BF
:100AE000E2E0E80F0E2E000CFF0BEA51FB4F1082E4
:100AF000E3E0E80F0E2E000CFF0BEA51FB4F98ECE1
:100B00009E9DD0019F9DB00D1124AF5DB74F1396F0
:100B10009C919083E4E0E80F0E2E000CFF0BEA514D
:100B2000FB4F91E09083A0915804B0915904E5E007
:100B3000E80F0E2E000CFF0BEA51FB4F13969C9111
:100B400013979083E6E0E80F0E2E000CFF0BEA519E
:100B5000FB4F1082E7E0E80F0E2E000CFF0BEA516E
:100B6000FB4F14969C91908329E0280FE8E0E80F52
:100B70000E2E000CFF0BEA51FB4F1082865F809314
:100B8000E80460E090E0022E000C330B462F50E0AA
:100B90004217530714F00C944C14FA01EA51FB4F1E
:100BA0004081940F6F5FF2CF80915604909157046B
:100BB0000097B1F484E090E00E944E598C0188ECDB
:100BC0008E9DF0018F9DF00D1124EF5DF74F658133
:100BD000C8010E944B43109357040093560423C04E
:100BE000FC01428150E028EC2E9D80012F9D100DCC
:100BF00011240F5D174FD80115962C91022E000C71
:100C0000330B4217530779F00E94E65984E090E0D5
:100C10000E944E596C01F80165810E944B43D092AD
:100C20005704C09256041091B209E12F012E000C16
:100C3000FF0BEA51FB4F82E58083E1E0E10F0E2ECE
:100C4000000CFF0BEA51FB4F82E48083E2E0E10FEE
:100C50000E2E000CFF0BEA51FB4F1082E3E0E10F78
:100C60000E2E000CFF0BEA51FB4F88EC8E9DD0013D
:100C70008F9DB00D1124AF5DB74F13968C9180837B
:100C8000E4E0E10F0E2E000CFF0BEA51FB4F81E078
:100C9000808386E0810F8093B20980915604909101
:100CA00057040E94EB21E5E0E10F0E2E000CFF0B34
:100CB000EA51FB4F90831091B20981E0810F80933C
:100CC000B20980915604909157040E94EB21E12FC4
:100CD000110FFF0BEA51FB4F80832091B20981E095
:100CE000820F8093E80460E090E0022E000C330B4A
:100CF000462F50E04217530714F00C944C14FA019D
:100D0000EA51FB4F4081940F6F5FF2CF8091540402
:100D1000909155040097B1F484E090E00E944E5900
:100D20008C0188EC8E9DF0018F9DF00D1124EF5DFC
:100D3000F74F6581C8010E944B43109355040093FF
:100D4000540424C0DC0112964C9150E028EC2E9DF6
:100D500080012F9D100D11240F5D174FF801258183
:100D6000022E000C330B4217530781F00E94E65904
:100D700084E090E00E944E596C01D80115966C9168
:100D80000E944B43D0925504C09254041091B20972
:100D9000E12F012E000CFF0BEA51FB4F82E580830F
:100DA000E1E0E10F0E2E000CFF0BEA51FB4F82E455
:100DB0008083E2E0E10F0E2E000CFF0BEA51FB4FA7
:100DC0001082E3E0E10F0E2E000CFF0BEA51FB4F07
:100DD00088EC8E9DD0018F9DB00D1124AF5DB74F73
:100DE00013968C918083E4E0E10F0E2E000CFF0B34
:100DF000EA51FB4F81E0808386E0810F8093B20946
:100E000080915404909155040E941343E5E0E10F52
:100E10000E2E000CFF0BEA51FB4F90831091B2098C
:100E200081E0810F8093B209809154049091550420
:100E30000E941343E12F110FFF0BEA51FB4F8083F8
:100E40002091B20981E0820F8093E80460E090E095
:100E5000022E000C330B462F50E04217530714F0BC
:100E60000C944C14FA01EA51FB4F4081940F6F5FD0
:100E7000F2CF80914E0490914F040097B1F485E039
:100E800090E00E944E598C0188EC8E9DF0018F9D60
:100E9000F00D1124EF5DF74F6581C8010E943520E8
:100EA00010934F0400934E0423C0FC01428150E094
:100EB00028EC2E9D80012F9D100D11240F5D174FE2
:100EC000D80115962C91022E000C330B42175307B4
:100ED00079F00E94E65985E090E00E944E596C013D
:100EE000F80165810E943520D0924F04C0924E04D3
:100EF0001091B209E12F012E000CFF0BEA51FB4FBC
:100F000082E58083E1E0E10F0E2E000CFF0BEA5139
:100F1000FB4F82E48083E2E0E10F0E2E000CFF0B1A
:100F2000EA51FB4F1082E3E0E10F0E2E000CFF0BA5
:100F3000EA51FB4F88EC8E9DD0018F9DB00D11249E
:100F4000AF5DB74F13968C918083E4E0E10F0E2ED6
:100F5000000CFF0BEA51FB4F81E0808386E0810F9C
:100F60008093B209E0914E04F0914F0483810E9476
:100F7000AE3CE5E0E10F0E2E000CFF0BEA51FB4FFB
:100F800021E0892B09F020E020832091B20981E043
:100F9000820F8093E80460E090E0022E000C330B97
:100FA000462F50E04217530714F00C944C14FA01EA
:100FB000EA51FB4F4081940F6F5FF2CF28EC2E9DDA
:100FC000C0012F9D900D11249C012F5D374F6901A9
:100FD000D90115968C910E94733D0D9711F00C94D8
:100FE0006414E0914804F09149043097E1F4F6016B
:100FF00085810E94733D0D9709F04BC08BE090E016
:101000000E944E598C01D60115966C910E9469453B
:10101000F80116828BEE90E09287818781E090E064
:10102000908787832FC0D60115968C91228130E05E
:10103000482F082E000C550B2417350751F10E943C
:10104000733D0D9731F580914804909149040E94B9
:10105000E6598BE090E00E944E598C01F6016581C3
:101060000E946945D80116961C9216978BEE90E067
:101070001A969C938E93199781E090E018969C9312
:101080008E9317971093490400934804C8010E9457
:10109000922728EC2E9DC0012F9D900D1124FC015C
:1010A000EF5DF74F5F01D680F1E0DF12A8C08E013F
:1010B0000F5E1F4F9E012F5F3F4FAE01435F5F4F9B
:1010C000BE01615F7F4F80914804909149040E9466
:1010D000F1278091B209E82F082E000CFF0BEA518E
:1010E000FB4F92E59083E1E0E80F0E2E000CFF0B22
:1010F000EA51FB4F92E49083E2E0E80F0E2E000CE1
:10110000FF0BEA51FB4F1082E3E0E80F0E2E000CBC
:10111000FF0BEA51FB4FD50113969C919083E4E0BD
:10112000E80F0E2E000CFF0BEA51FB4FD082E5E0DA
:10113000E80F0E2E000CFF0BEA51FB4FD0829F856B
:101140002889E6E0E80F0E2E000CFF0BEA51FB4F5A
:101150002083E7E0E80F0E2E000CFF0BEA51FB4F57
:1011600090839D852E85E8E0E80F0E2E000CFF0B86
:10117000EA51FB4F2083E9E0E80F0E2E000CFF0B35
:10118000EA51FB4F908399812A81EAE0E80F0E2E05
:10119000000CFF0BEA51FB4F2083EBE0E80F0E2E13
:1011A000000CFF0BEA51FB4F908399892A89ECE0F0
:1011B000E80F0E2E000CFF0BEA51FB4F20832EE0B0
:1011C000280FEDE0E80F0E2E000CFF0BEA51FB4F4D
:1011D0009083815F8093E80460E090E0022E000C31
:1011E000330B462F50E04217530714F00C944C1465
:1011F000FA01EA51FB4F4081940F6F5FF2CFB2E0EA
:10120000DB120C9464146090480470904904E6E08A
:101210009E2EA12CB12CC12CD12C8E010F5F1F4F03
:101220009E01235F3F4FAE01415F5F4FBE016F5E86
:101230007F4FC3010E94F12789819A81C816D90680
:1012400008F46C01A80EB91E9A949110E6CFC5015E
:101250008C199D09AC0156954795569547955A832B
:1012600049838091B209E82F082E000CFF0BEA5148
:10127000FB4F22E52083E1E0E80F0E2E000CFF0B70
:10128000EA51FB4F22E42083E2E0E80F0E2E000C2F
:10129000FF0BEA51FB4F1082E3E0E80F0E2E000C2B
:1012A000FF0BEA51FB4F28EC2E9DD0012F9DB00D76
:1012B0001124AF5DB74F13962C912083E4E0E80F23
:1012C0000E2E000CFF0BEA51FB4F21E02083E5E0DE
:1012D000E80F0E2E000CFF0BEA51FB4F22E020839B
:1012E000E6E0E80F0E2E000CFF0BEA51FB4F96953F
:1012F0009695908328E0280FE7E0E80F0E2E000C6B
:10130000FF0BEA51FB4F4083875F8093E80460E066
:1013100090E0022E000C330B462F50E0421753078B
:1013200014F00C944C14FA01EA51FB4F4081940FD5
:101330006F5FF2CF28EC2E9DC0012F9D900D1124E0
:10134000FC01EF5DF74F6F0185810E94733D0E97A1
:1013500011F00C946414D60115968C9185300CF024
:101360008FC1E0914604F0914704309729F40E9420
:10137000733D0E9779F513C0228130E0482F082E77
:10138000000C550B2417350729F10E94733D0E9769
:1013900009F580914604909147040E94E65984E43F
:1013A00090E00E944E598C01F60165810E946945CA
:1013B00081E0D80115968C93F801EE5BFF4F88E62B
:1013C00090E0918380831093470400934604C80102
:1013D0000E94C95380914604909147040E94B8220C
:1013E0001091B209E12F012E000CFF0BEA51FB4FC7
:1013F00082E58083E1E0E10F0E2E000CFF0BEA5145
:10140000FB4F82E48083E2E0E10F0E2E000CFF0B25
:10141000EA51FB4F1082E3E0E10F0E2E000CFF0BB0
:10142000EA51FB4F88EC8E9DD0018F9DB00D1124A9
:10143000AF5DB74F13968C9113978083E4E0E10F73
:101440000E2E000CFF0BEA51FB4F81E0808306E07B
:10145000010F0093B20916968C91E5E0E10F0E2E74
:10146000000CFF0BEA51FB4F8083813009F0EFC085
:10147000A0904604B0904704F50182859385A48529
:10148000B585BC01CD01905820E030E048EC52E435
:101490000E9464580E94FE562B013C01F50186858E
:1014A0009785A089B189BC01CD01905820E030E03A
:1014B00048EC52E40E9464580E94FE566B017C0185
:1014C00020E030E048EC52E4D50152966D917D91D8
:1014D0008D919C9155970E9464580E94FE56AB01D5
:1014E000BC01802F000F990B07E0010FA9E0A10FAD
:1014F000185F920114141504160417045CF057FECB
:1015000004C022273327241935098A519B4FFC0137
:1015100010820BC057FE04C0222733272419350937
:101520008A519B4FB1E0FC01B083E02F000FFF0B0D
:10153000EA51FB4F4901330FAA08BB089082A093E0
:10154000B209E12F110FFF0BEA51FB4F2083E0910D
:10155000B209C6011C141D041E041F0474F0D7FE3A
:1015600004C0882799278C199D09AE2F0E2E000CD8
:10157000BB0BAA51BB4F1C920EC0D7FE04C08827DC
:1015800099278C199D09AE2F0E2E000CBB0BAA516A
:10159000BB4F21E02C93A1E0AE0F0A2E000CBB0B39
:1015A000AA51BB4F8C01990F220B330B1C9393E074
:1015B0009E0F9093B209EE5F0E2E000CFF0BEA51C6
:1015C000FB4F8083E091B20977FD1CC0AE2F0E2E39
:1015D000000CBB0BAA51BB4F81E08C93A1E0AE0F76
:1015E0000A2E000CBB0BAA51BB4F5C9383E08E0FFD
:1015F0008093B209EE5F0E2E000CFF0BEA51FB4FF9
:10160000408325C0CA0157FF04C088279927841B3F
:10161000950BAE2F0E2E000CBB0BAA51BB4F1C928C
:10162000A1E0AE0F0A2E000CBB0BAA51BB4FAC01C0
:10163000990F660B770B5C9393E09E0F9093B20922
:10164000EE5F0E2E000CFF0BEA51FB4F80832091C2
:10165000B20981E0820F8093E80460E090E0022EFE
:10166000000C330B462F50E04217530714F00C9434
:101670004C14FA01EA51FB4F4081940F6F5FF2CF97
:10168000E0914404F0914504309729F40E94733DA1
:101690000E9771F513C0228130E0482F082E000C00
:1016A000550B2417350721F10E94733D0E9701F564
:1016B00080914404909145040E94E65984E490E0AE
:1016C0000E944E598C01D60115966C910E94694575
:1016D00081E0F8018583EE5BFF4F88E690E091831F
:1016E00080831093450400934404C8010E94C953A9
:1016F00080914404909145040E94B8221091B2094F
:10170000E12F012E000CFF0BEA51FB4F82E5808395
:10171000E1E0E10F0E2E000CFF0BEA51FB4F82E4DB
:101720008083E2E0E10F0E2E000CFF0BEA51FB4F2D
:101730001082E3E0E10F0E2E000CFF0BEA51FB4F8D
:1017400088EC8E9DD0018F9DB00D1124AF5DB74FF9
:1017500013968C9113978083E4E0E10F0E2E000C1A
:10176000FF0BEA51FB4F81E0808306E0010F0093FD
:10177000B20916968C91E5E0E10F0E2E000CFF0BDE
:10178000EA51FB4F8083813009F0F1C0A0904404FE
:10179000B0904504F50182859385A485B585BC018B
:1017A000CD01905820E030E048EC52E40E946458AB
:1017B0000E94FE562B013C01F50186859785A08984
:1017C000B189BC01CD01905820E030E048EC52E4F2
:1017D0000E9464580E94FE566B017C0120E030E0BC
:1017E00048EC52E4D50152966D917D918D919C917A
:1017F00055970E9464580E94FE56AB01BC01802F91
:10180000000F990BF7E0F10F09E0010FE8E0E10F9D
:10181000920114141504160417045CF057FE04C05A
:1018200022273327241935098A519B4FDC011C924A
:101830000BC057FE04C022273327241935098A51CB
:101840009B4F11E0DC011C938F2FFF0F990B8A51E6
:101850009B4F4901330FAA08BB08DC019C920093FF
:10186000B2090E2E000CFF0BEA51FB4F2083E091D2
:10187000B209C6011C141D041E041F0474F0D7FE17
:1018800004C0882799278C199D09AE2F0E2E000CB5
:10189000BB0BAA51BB4F1C920EC0D7FE04C08827B9
:1018A00099278C199D09AE2F0E2E000CBB0BAA5147
:1018B000BB4F21E02C93A1E0AE0F0A2E000CBB0B16
:1018C000AA51BB4F8C01990F220B330B1C9393E051
:1018D0009E0F9093B209EE5F0E2E000CFF0BEA51A3
:1018E000FB4F8083E091B20977FD1CC0AE2F0E2E16
:1018F000000CBB0BAA51BB4F81E08C93A1E0AE0F53
:101900000A2E000CBB0BAA51BB4F5C9383E08E0FD9
:101910008093B209EE5F0E2E000CFF0BEA51FB4FD5
:10192000408325C0CA0157FF04C088279927841B1C
:10193000950BAE2F0E2E000CBB0BAA51BB4F1C9269
:10194000A1E0AE0F0A2E000CBB0BAA51BB4FAC019D
:10195000990F660B770B5C9393E09E0F9093B209FF
:10196000EE5F0E2E000CFF0BEA51FB4F808320919F
:10197000B20981E0820F8093E80460E090E0022EDB
:10198000000C330B462F50E0421753070CF084C76E
:10199000FA01EA51FB4F4081940F6F5FF3CF8091C2
:1019A000BE029091BF02009779F488E090E00E9417
:1019B0004E598C0188EC8E9DF0018F9DF00D112405
:1019C000EF5DF74F65811FC0DC0112964C9150E02E
:1019D00068EC6E9D90016F9D300D1124F901EF5D53
:1019E000F74F6F012581022E000C330B421753076E
:1019F000B1F00E94E65988E090E00E944E598C01B7
:101A0000D60115966C91C8010E94694581E0F801E4
:101A10008583178216821093BF020093BE02109135
:101A2000B209E12F012E000CFF0BEA51FB4F82E5BA
:101A30008083E1E0E10F0E2E000CFF0BEA51FB4F1B
:101A400082E48083E2E0E10F0E2E000CFF0BEA51EE
:101A5000FB4F1082E3E0E10F0E2E000CFF0BEA516A
:101A6000FB4F88EC8E9DD0018F9DB00D1124AF5D92
:101A7000B74F13968C918083E4E0E10F0E2E000C9B
:101A8000FF0BEA51FB4F81E0808386E0810F80935A
:101A9000B2098091BE029091BF020E941045E5E01C
:101AA000E10F0E2E000CFF0BEA51FB4F90831091BB
:101AB000B20981E0810F8093B2098091BE029091BA
:101AC000BF020E941045E12F110FFF0BEA51FB4F9F
:101AD00080832091B20981E0820F8093E80460E066
:101AE00090E0022E000C330B462F50E042175307B4
:101AF0000CF0D2C6FA01EA51FB4F4081940F6F5FA0
:101B0000F3CF80913E0490913F04009771F489E0F7
:101B100090E00E944E596C0188EC8E9DF0018F9DE3
:101B2000F00D1124EF5DF74F1CC0FC01428150E025
:101B300028EC2E9D80012F9D100D11240F5D174F55
:101B4000D80115962C91022E000C330B4217530727
:101B5000F9F00E94E65989E090E00E944E596C012C
:101B6000F8011581612FC6010E94FA1FE12FF0E0F4
:101B7000EE0FFF1FE557FD4F8081D60115968C9320
:101B80001597818114968C93D0923F04C0923E04A5
:101B900088EC8E9DF0018F9DF00D1124EF5DF74FC5
:101BA000868100913E0410913F04813019F4F801C0
:101BB000648105C0823031F4D80115966C91C8015A
:101BC0000E94F7426801B6E0CB0ED11CC6010E940C
:101BD0005420811104C060E070E0CB0178C06CEC4F
:101BE000C6010E94A23A64E4C6010E94A23A0E9481
:101BF000BE452B013C0153E2A52EB12CF8012681F4
:101C00000780F085E02D9181822F80959823918324
:101C1000C5010197F1F78081822309F446C6C60108
:101C20000E9454206CECC6010E94A23A6EEBC601E1
:101C30000E94A23A9E012F5F3F4F29016E0136E0BC
:101C4000C30ED11C67E070E043E250E08FECA82E99
:101C5000B12C88E090E0812C77247394D8011696FB
:101C60006C9016971796ED91FC911897F894218136
:101C7000262921832281962C909429212283DB011D
:101C80001197F1F7218192229182DA011197F1F7F0
:101C900020817894F5013197F1F7622209F08728C5
:101CA000770C0197D9F6F20181922F01CE16DF064B
:101CB00081F669817A81072E000C880B990B0E94AE
:101CC000315720E030E040E85DE30E94645820E0B6
:101CD00030E048EC52E40E9464584B015C011091E2
:101CE000B209E12F012E000CFF0BEA51FB4F82E5F8
:101CF0008083E1E0E10F0E2E000CFF0BEA51FB4F59
:101D000082E48083E2E0E10F0E2E000CFF0BEA512B
:101D1000FB4F1082E3E0E10F0E2E000CFF0BEA51A7
:101D2000FB4F88EC8E9DD0018F9DB00D1124AF5DCF
:101D3000B74F13968C91808305E0010FE4E0E10F2B
:101D40000E2E000CFF0BEA51FB4FFF24F394F082A0
:101D500020E030E0A901C501B4010E9459581A5F82
:101D6000202F000F330B1093B209F901EA51FB4FFA
:101D700087FD02C0F08201C010821091B209C50136
:101D8000B4010E94FE56AB0177FF04C044275527DB
:101D9000461B570BE12F012E000CFF0BEA51FB4FA6
:101DA000508322E0210FE1E0E10F0E2E000CFF0B2B
:101DB000EA51FB4F408383E0810F8093E80460E0A9
:101DC00090E0022E000C330B462F50E042175307D1
:101DD0000CF062C5FA01EA51FB4F4081940F6F5F2E
:101DE000F3CF80913C0490913D04009771F485E01D
:101DF00090E00E944E596C0188EC8E9DF0018F9D01
:101E0000F00D1124EF5DF74F1CC0FC01428150E042
:101E100028EC2E9D80012F9D100D11240F5D174F72
:101E2000D80115962C91022E000C330B4217530744
:101E3000F9F00E94E65985E090E00E944E596C014D
:101E4000F8011581612FC6010E94FA1FE12FF0E011
:101E5000EE0FFF1FE557FD4F8181D60113968C933E
:101E60001397808114968C93D0923D04C0923C04C9
:101E700000913C0410913D0460E0F80183810E94D0
:101E80002046D80113968C910E9424479C01205D26
:101E90003240121613064CF44BE0429FC001439FA0
:101EA000900D112466E070E008C047E0429FC00139
:101EB000439F900D11246AE070E00E941F598091A9
:101EC000BA029091BB028C01060F171F013EB1E0D0
:101ED0001B0764F40032EEEF1E075CF0C801C196E8
:101EE0008336910540F400E010E005C000EE11E0FB
:101EF00002C000E21EEFC0903C04D0903D0460E0C0
:101F0000D60114968C910E942046F60184810E948D
:101F100024479C01205D3240121613064CF445EF15
:101F20004203C001439F900D112466E070E008C099
:101F300049EF4203C001439F900D11246AE070E015
:101F40000E941F598091BC029091BD02680F791FB9
:101F5000613EF1E07F0764F460322EEF72075CF0BF
:101F6000CB01C1968336910540F460E070E005C076
:101F700060EE71E002C060E27EEF8091B209E82F6E
:101F8000082E000CFF0BEA51FB4F92E59083E1E035
:101F9000E80F0E2E000CFF0BEA51FB4F92E49083EA
:101FA000E2E0E80F0E2E000CFF0BEA51FB4F10820F
:101FB000E3E0E80F0E2E000CFF0BEA51FB4F98EC0C
:101FC0009E9DD0019F9DB00D1124AF5DB74F13961C
:101FD0009C91908325E0280FE4E0E80F0E2E000C82
:101FE000FF0BEA51FB4F91E090838A5F022E000CB9
:101FF000330B8093B209F901EA51FB4F17FD02C080
:10200000908302C082E080832091B209C80117FF4B
:1020100003C0919581959109E22F022E000CFF0BD0
:10202000EA51FB4F908392E0920FE1E0E20F0E2E17
:10203000000CFF0BEA51FB4F80832D5F892F990F16
:10204000990B2093B209FC01EA51FB4F77FD02C0C6
:1020500021E001C022E020838091B20977FF03C014
:10206000719561957109E82F082E000CFF0BEA515C
:10207000FB4F708322E0280FE1E0E80F0E2E000CEA
:10208000FF0BEA51FB4F60838D5F8093E80460E0B3
:1020900090E0022E000C330B462F50E042175307FE
:1020A0000CF0FAC3FA01EA51FB4F4081940F6F5FC5
:1020B000F3CF80913A0490913B04009771F485E04E
:1020C00090E00E944E596C0188EC8E9DF0018F9D2E
:1020D000F00D1124EF5DF74F1CC0FC01428150E070
:1020E00028EC2E9D80012F9D100D11240F5D174FA0
:1020F000D80115962C91022E000C330B4217530772
:10210000F9F00E94E65985E090E00E944E596C017A
:10211000F8011581612FC6010E94FA1FE12FF0E03E
:10212000EE0FFF1FE557FD4F8081D60113968C936C
:102130001397818114968C93D0923B04C0923A04F9
:102140001091B209E12F012E000CFF0BEA51FB4F59
:1021500082E58083E1E0E10F0E2E000CFF0BEA51D7
:10216000FB4F82E48083E2E0E10F0E2E000CFF0BB8
:10217000EA51FB4F1082E3E0E10F0E2E000CFF0B43
:10218000EA51FB4F88EC8E9DD0018F9DB00D11243C
:10219000AF5DB74F13968C918083E4E0E10F0E2E74
:1021A000000CFF0BEA51FB4F81E0808386E0810F3A
:1021B0008093B209E0903A04F0903B0460E0F701AC
:1021C00084810E942046D70114968C910E94244756
:1021D000E5E0E10F0E2E000CFF0BEA51FB4FEE2461
:1021E000EA9423E0F22E9701281B390BC901908352
:1021F0001091B20981E0810F8093B209C0903A0436
:10220000D0903B0460E0D60114968C910E94204649
:10221000F60184810E942447E12F110FFF0BEA5140
:10222000FB4FE81AF90AE0822091B20981E0820F9F
:102230008093E80460E090E0022E000C330B462F00
:1022400050E0421753070CF027C3FA01EA51FB4F45
:102250004081940F6F5FF3CF8091380490913904DF
:102260000097B1F484E090E00E944E598C0188EC14
:102270008E9DF0018F9DF00D1124EF5DF74F65816C
:10228000C8010E944B43109339040093380424C0C2
:10229000DC0112964C9150E028EC2E9D80012F9D80
:1022A000100D11240F5D174FF8012581022E000C2F
:1022B000330B4217530781F00E94E65984E090E007
:1022C0000E944E596C01D80115966C910E944B43A7
:1022D000D0923904C09238041091B209E12F012E36
:1022E000000CFF0BEA51FB4F82E58083E1E0E10F38
:1022F0000E2E000CFF0BEA51FB4F82E48083E2E0DC
:10230000E10F0E2E000CFF0BEA51FB4F1082E3E0B1
:10231000E10F0E2E000CFF0BEA51FB4F88EC8E9D57
:10232000D0018F9DB00D1124AF5DB74F13968C91E6
:102330008083E4E0E10F0E2E000CFF0BEA51FB4F0F
:1023400081E0808386E0810F8093B2098091380418
:10235000909139040E94A521E5E0E10F0E2E000CBA
:10236000FF0BEA51FB4F90831091B20981E0810F7E
:102370008093B20980913804909139040E94A5217C
:10238000E12F110FFF0BEA51FB4F80832091B2091F
:1023900081E0820F8093E80460E090E0022E000C60
:1023A000330B462F50E0421753070CF075C2FA0169
:1023B000EA51FB4F4081940F6F5FF3CF8091360459
:1023C000909137040097B1F484E090E00E944E5958
:1023D0008C0188EC8E9DF0018F9DF00D1124EF5D36
:1023E000F74F6581C8010E944B4310933704009357
:1023F000360423C0FC01428150E028EC2E9D800170
:102400002F9D100D11240F5D174FD80115962C919B
:10241000022E000C330B4217530779F00E94E65945
:1024200084E090E00E944E596C01F80165810E94A1
:102430004B43D0923704C09236041091B209E12F79
:10244000012E000CFF0BEA51FB4F82E58083E1E097
:10245000E10F0E2E000CFF0BEA51FB4F82E480834C
:10246000E2E0E10F0E2E000CFF0BEA51FB4F108251
:10247000E3E0E10F0E2E000CFF0BEA51FB4F88EC5E
:102480008E9DD0018F9DB00D1124AF5DB74F139677
:102490008C918083E4E0E10F0E2E000CFF0BEA51DB
:1024A000FB4F81E0808386E0810F8093B2098091A9
:1024B0003604909137040E941343E5E0E10F0E2E9D
:1024C000000CFF0BEA51FB4F90831091B20981E0A1
:1024D000810F8093B20980913604909137040E9455
:1024E0001343E12F110FFF0BEA51FB4F8083209123
:1024F000B20981E0820F8093E80460E090E0022E50
:10250000000C330B462F50E0421753070CF0C4C1A8
:10251000FA01EA51FB4F4081940F6F5FF3CF809136
:102520003404909135040097B1F484E090E00E9467
:102530004E598C0188EC8E9DF0018F9DF00D112479
:10254000EF5DF74F6581C8010E944B43109335043E
:102550000093340424C0DC0112964C9150E028EC26
:102560002E9D80012F9D100D11240F5D174FF80136
:102570002581022E000C330B4217530781F00E9475
:10258000E65984E090E00E944E596C01D8011596FE
:102590006C910E944B43D0923504C0923404109148
:1025A000B209E12F012E000CFF0BEA51FB4F82E52F
:1025B0008083E1E0E10F0E2E000CFF0BEA51FB4F90
:1025C00082E48083E2E0E10F0E2E000CFF0BEA5163
:1025D000FB4F1082E3E0E10F0E2E000CFF0BEA51DF
:1025E000FB4F88EC8E9DD0018F9DB00D1124AF5D07
:1025F000B74F13968C918083E4E0E10F0E2E000C10
:10260000FF0BEA51FB4F81E0808386E0810F8093CE
:10261000B20980913404909135040E941343E5E09F
:10262000E10F0E2E000CFF0BEA51FB4F908310912F
:10263000B20981E0810F8093B209809134049091B6
:1026400035040E941343E12F110FFF0BEA51FB4F9A
:1026500080832091B20981E0820F8093E80460E0DA
:1026600090E0022E000C330B462F50E04217530728
:102670000CF012C1FA01EA51FB4F4081940F6F5FD9
:10268000F3CF8091300490913104009779F487E082
:1026900090E00E944E598C0188EC8E9DF0018F9D38
:1026A000F00D1124EF5DF74F65811FC0DC0112961C
:1026B0004C9150E068EC6E9D90016F9D300D11249F
:1026C000F901EF5DF74F6F012581022E000C330BEE
:1026D00042175307A9F00E94E65987E090E00E9454
:1026E0004E598C01D60115966C91C8010E9469451E
:1026F00081E0F80185831682109331040093300441
:10270000009130041091310460E7C8010E94FE443A
:1027100060EBC8010E94A544C8010E945F43C80144
:102720000E94BA4461EEC8010E945B44C8010E9445
:10273000D543C8010E941544B82E60E0C8010E942C
:102740009B43C8010E941544D82E60E0C8010E9436
:102750009B43C8010E941544C82E61E0C8010E9435
:102760009B43C8010E945F43FAEABF1207C02BEBEC
:10277000C21204C0D8011696DC9201C0D12C8091FF
:10278000B209E82F082E000CFF0BEA51FB4F92E52F
:102790009083E1E0E80F0E2E000CFF0BEA51FB4F97
:1027A00092E49083E2E0E80F0E2E000CFF0BEA515A
:1027B000FB4F1082E3E0E80F0E2E000CFF0BEA51F6
:1027C000FB4F98EC9E9DD0019F9DB00D1124AF5DF5
:1027D000B74F13969C919083E4E0E80F0E2E000C07
:1027E000FF0BEA51FB4F91E09083E5E0E80F0E2EDE
:1027F000000CFF0BEA51FB4FD5FA992790F9908313
:10280000E6E0E80F0E2E000CFF0BEA51FB4FD4FA66
:10281000992790F99083E7E0E80F0E2E000CFF0B4C
:10282000EA51FB4FD3FA992790F99083E8E0E80F3B
:102830000E2E000CFF0BEA51FB4FD2FA992790F9AC
:102840009083E9E0E80F0E2E000CFF0BEA51FB4FDE
:10285000D1FA992790F990832BE0280FEAE0E80F4E
:102860000E2E000CFF0BEA51FB4F9D2D91709083B3
:10287000845F8093E80460E090E0022E000C330B4C
:10288000462F50E0421753073CF4FA01EA51FB4F40
:102890004081940F6F5FF4CF8093B209F901EA5140
:1028A000FB4F90830E94E1390FC00E94BE45DC01BE
:1028B000CB0184199509A609B70981399140A10571
:1028C000B10508F49BC987C962960FB6F894DEBFBC
:1028D0000FBECDBFDF91CF911F910F91FF90EF9071
:1028E000DF90CF90BF90AF909F908F907F906F9030
:1028F0005F904F903F902F9008958F929F92AF924C
:10290000BF92CF92DF92EF92FF920F931F93CF93DC
:10291000DF93CDB7DEB764970FB6F894DEBF0FBE76
:10292000CDBF1092B209E82EF12C28EC829FF00165
:102930001124EF5DF74FE4818E2FEE0F990BAA0B58
:10294000BB0BFC013197E032F10510F00C94C41F71
:102950008827EC57FF4F8F4F0C94325982E58093B4
:10296000E60482E48093E70488EC8E9DF0018F9D5D
:10297000F00D1124EF5DF74F83818093E90481E02E
:102980008093EA0482E08093EB048DE08093EC0472
:1029900088E08093E804E6EEF4E02DEE34E080E099
:1029A0002E173F0719F09191890FFACF98E0909375
:1029B000B2098093ED0488E00C94271F82E5809390
:1029C000E60482E48093E7041092E80484E08093B4
:1029D000B20988EC8E9DF0018F9DF00D1124EF5D02
:1029E000F74F83818093E904E5818E2FEE0F990BD9
:1029F000AA0BBB0BFC013296EB30F10508F094C03A
:102A00008827EC55FF4F8F4F0C94325911E01093EB
:102A1000B30985E08093B2091092EA048EEF0E9418
:102A2000733D892BB1F443E650E060E070E085E44B
:102A300096E00E94D52464E670E080E090E00E9479
:102A4000684740E050E0BA0185E496E00E94D52452
:102A50000CC0E091B20981E08E0F8093B2090E2E76
:102A6000000CFF0BEA51FB4F10831092B3095CC0BE
:102A700011E01093B10985E08093B2091092EA0445
:102A80008FEF0E94733D892BB1F443E650E060E084
:102A900070E083E097E00E94D52464E670E080E077
:102AA00090E00E94684740E050E0BA0183E097E080
:102AB0000E94D5240CC0E091B20981E08E0F809372
:102AC000B2090E2E000CFF0BEA51FB4F108310923F
:102AD000B1092AC085E08093B20981E021C085E078
:102AE0008093B20982E01CC085E08093B20983E044
:102AF00017C085E08093B20984E012C085E080931E
:102B0000B2090EC085E08093B20986E009C085E075
:102B10008093B20987E004C085E08093B20988E021
:102B20000E94733D8093EA042091B20981E0820FF4
:102B30008093E80460E090E0022E000C330B462FF7
:102B400050E0421753070CF042C2FA01EA51FB4F22
:102B50004081940F6F5FF3CF82E58093E60482E4B7
:102B60008093E7041092E80488EC8E9DF0018F9D1D
:102B7000F00D1124EF5DF74F83818093E90411E09C
:102B80001093B30985E08093B2091092EA048EEFA6
:102B90000E94733D892BB1F443E650E060E070E0A1
:102BA00085E496E00E94D52464E670E080E090E041
:102BB0000E94684740E050E0BA0185E496E00E9438
:102BC000D5240CC0E091B20981E08E0F8093B20948
:102BD0000E2E000CFF0BEA51FB4F10831092B3092D
:102BE00011E01093B109E091B20981E08E0F80935A
:102BF000B2090E2E000CFF0BEA51FB4F10828FEF33
:102C00000E94733D892BB1F443E650E060E070E030
:102C100083E097E00E94D52464E670E080E090E0D5
:102C20000E94684740E050E0BA0183E097E00E94CC
:102C3000D5240CC0E091B20981E08E0F8093B209D7
:102C40000E2E000CFF0BEA51FB4F10831092B109BE
:102C50001091B20981E0810F8093B20981E00E9456
:102C6000733DE12F110FFF0BEA51FB4F8083109151
:102C7000B20981E0810F8093B20982E00E94733D26
:102C8000E12F110FFF0BEA51FB4F80831091B20926
:102C900081E0810F8093B20983E00E94733DE12FB0
:102CA000110FFF0BEA51FB4F80831091B20981E0B5
:102CB000810F8093B20984E00E94733DE12F110FD0
:102CC000FF0BEA51FB4F80831091B20981E0810F25
:102CD0008093B20985E00E94733DE12F110FFF0B35
:102CE000EA51FB4F80831091B20981E0810F8093FC
:102CF000B20986E00E94733DE12F110FFF0BEA51EC
:102D0000FB4F80831091B20981E0810F8093B2095B
:102D100087E00E94733DE12F110FFF0BEA51FB4F3B
:102D200080831091B20981E0810F8093B20988E01D
:102D30000E94733DE12F110FFF0BEA51FB4F80837F
:102D40002091B20981E0820F8093E80460E090E076
:102D5000022E000C330B462F50E0421753070CF0A5
:102D600036C1FA01EA51FB4F4081940F6F5FF3CFF8
:102D700082E58093E60482E48093E7041092E804FD
:102D800088EC8E9DF0018F9DF00D1124EF5DF74FC3
:102D900083818093E90411E01093B30985E0809367
:102DA000B2091092EA048EEF0E94733D892BB1F4B0
:102DB00043E650E060E070E085E496E00E94D524B0
:102DC00064E670E080E090E00E94684740E050E0F8
:102DD000BA0185E496E00E94D5240CC0E091B209C6
:102DE00081E08E0F8093B2090E2E000CFF0BEA518A
:102DF000FB4F10831092B30911E01093B109E091D9
:102E0000B20981E08E0F8093B2090E2E000CFF0BE9
:102E1000EA51FB4F10828FEF0E94733D892BB1F472
:102E200043E650E060E070E083E097E00E94D52444
:102E300064E670E080E090E00E94684740E050E087
:102E4000BA0183E097E00E94D5240CC0E091B2095A
:102E500081E08E0F8093B2090E2E000CFF0BEA5119
:102E6000FB4F10831092B1092091B20981E0820FCB
:102E70008093E80460E090E0022E000C330B462FB4
:102E800050E0421753070CF0A2C0FA01EA51FB4F81
:102E90004081940F6F5FF3CF82E58093E60482E474
:102EA0008093E7041092E80488EC8E9DF0018F9DDA
:102EB000F00D1124EF5DF74F83818093E90485E0E5
:102EC0008093B20981E00E94733D8093EA041091DF
:102ED000B20981E0810F8093B20982E00E94733DC4
:102EE000E12F110FFF0BEA51FB4F80831091B209C4
:102EF00081E0810F8093B20983E00E94733DE12F4E
:102F0000110FFF0BEA51FB4F80831091B20981E052
:102F1000810F8093B20984E00E94733DE12F110F6D
:102F2000FF0BEA51FB4F80831091B20981E0810FC2
:102F30008093B20985E00E94733DE12F110FFF0BD2
:102F4000EA51FB4F80831091B20981E0810F809399
:102F5000B20986E00E94733DE12F110FFF0BEA5189
:102F6000FB4F80831091B20981E0810F8093B209F9
:102F700087E00E94733DE12F110FFF0BEA51FB4FD9
:102F800080831091B20981E0810F8093B20988E0BB
:102F90000E94733DE12F110FFF0BEA51FB4F80831D
:102FA0002091B20981E0820F8093E80460E090E014
:102FB000022E000C330B462F50E0421753073CF40F
:102FC000FA01EA51FB4F4081940F6F5FF4CF809379
:102FD000B209F901EA51FB4F908339C788EC8E9D05
:102FE000F0018F9DF00D1124EF5DF74F85818C3F2F
:102FF00099F0882341F08B3F09F02CC70085278189
:10300000468161E00DC000852781468160E084EC47
:1030100097E00E941F3807C000852781468160E045
:1030200084EC97E0C4D784EC97E031C688EC8E9DA1
:10303000F0018F9DF00D1124EF5DF74F85818F3FDB
:1030400009F46DC0882321F08E3F09F003C792C0B8
:103050002681822F022E000C990B40E050E060E0A8
:1030600070E440930307509304076093050770933F
:1030700006078D393FEF930754F08436910514F01D
:1030800083E690E0092E000CAA0BBB0B04C08DE96F
:103090009FEFAFEFBFEF8093100790931107A093BE
:1030A0001207B093130788EC8E9DF0018F9DF00DF1
:1030B0001124EF5DF74F3781832F032E000C990BFE
:1030C00040E050E060E070E44093450650934606CF
:1030D00060934706709348068D394FEF940754F07C
:1030E0008436910514F083E690E0092E000CAA0BBB
:1030F000BB0B04C08DE99FEFAFEFBFEF809352068B
:1031000090935306A0935406B09355063111A2C66E
:103110002111A0C610925E04109262049BC68681A3
:10312000082E000C990B40E050E060E070E4409302
:1031300003075093040760930507709306078D39C2
:10314000AFEF9A0754F08436910514F083E690E0CF
:10315000092E000CAA0BBB0B04C08DE99FEFAFEF4B
:10316000BFEF8093100790931107A0931207B093BD
:10317000130770C68681082E000C990B40E050E0C2
:1031800060E070E44093450650934606609347061E
:10319000709348068D39BFEF9B0754F08436910534
:1031A00014F083E690E0092E000CAA0BBB0B04C0C0
:1031B0008DE99FEFAFEFBFEF8093520690935306D8
:1031C000A0935406B093550645C688EC8E9D8001A9
:1031D0008F9D100D11240F5D174FF80185810E94FE
:1031E000733D029709F036C680915C0490915D04AE
:1031F000009749F480E190E00E944E596C01D8019B
:1032000015966C9115C0FC01428150E0D8011596CD
:103210002C91022E000C330B4217530781F00E94B1
:10322000E65980E190E00E944E596C01F8016581F9
:10323000C6010E948545D0925D04C0925C0488EC72
:103240008E9DF0018F9DF00D1124EF5DF74FD0841E
:10325000C780B68000915C0410915D0460E4C801F1
:103260000E94FE4461EAC8010E94A5446B2DC8017A
:103270000E94A5446C2DC8010E94A5446D2DC80173
:103280000E94A5441BC188EC8E9DF0018F9DF00D1E
:103290001124EF5DF74F8581893F09F0DBC58681F9
:1032A000882321F081E080932A04D4C510922A0457
:1032B000D1C588EC8E9DF0018F9DF00D1124EF5D3E
:1032C000F74F8681882329F0813029F480936304A5
:1032D00002C01092630410922C0410922D041092DC
:1032E0002E0410922F0410922B04B4C588EC8E9DEE
:1032F000F0018F9DF00D1124EF5DF74F85818A3F1E
:1033000009F0A8C5408550E0542F44278185482BFB
:1033100060E070E0868190E0982F88272781822BDB
:103320000E94063D61E08091C3070E94204660E054
:103330008091C3070E94D73C8DC588EC8E9D80018B
:103340008F9D100D11240F5D174FD80115968C918C
:103350000E94733D039709F0CAC580915A04909169
:103360005B04009741F486E090E00E944E596C01A6
:10337000F801658116C0DC0112964C9150E0F8010D
:103380002581022E000C330B4217530789F00E944F
:10339000E65986E090E00E944E596C01D8011596DE
:1033A0006C91C6010E943522D0925B04C0925A04EF
:1033B00000915A0410915B0488EC8E9DF0018F9D62
:1033C000F00D1124E95DF74F63E1808190E0982FC3
:1033D00088272181822BAC014A7A5A7A56954795E3
:1033E00085759575880F991F482B592B9A012C7C50
:1033F0003C7C369527953695279543735373440F38
:10340000551F440F551F242B352BC901807F907FFA
:1034100044E0969587954A95E1F72F703F7054E008
:10342000220F331F5A95E1F7822B932B9827892778
:103430009827880F991F880F991F2FEF260FA1E05B
:10344000B0E0AC0FBD1FA60FB11D8C936250A1E080
:10345000B0E0AC0FBD1FA20FB11D9C9332966F3F21
:1034600009F0B3CFC8010E94BA4467EEC8010E94B8
:10347000A54460E0C8010E94A544FE0131965F01A9
:103480006E01F5E1CF0ED11CD5019D915D01892F13
:103490008C7C682F669566959373B4E09B9FC00102
:1034A0001124862B682F6A7A66958575880F682B9C
:1034B000C8010E94A544AC14BD0431F7C8010E94A4
:1034C0005F43C8C488EC8E9DF0018F9DF00D1124E0
:1034D000EF5DF74F858180935E048681809362045F
:1034E000878180936104082E000C990BAA0BBB0BFB
:1034F0008930910508F048C5FC018827E155FF4F48
:103500008F4F0C9432598CE301C086E48093010202
:103510008093000281E014C086E405C081E403C00A
:103520008DE201C087E380930102809300022CC5E5
:103530008DE201C087E3809301028093000282E064
:103540008093610421C588EC8E9D80018F9D100DB4
:1035500011240F5D174FF80185810E94733D059777
:1035600009F0C5C4D80115961C91113019F0183016
:1035700009F070C48091500490915104009771F447
:1035800085E090E00E944E596C01612F0E949945A0
:10359000D0925104C0925004C60121C0FC01228186
:1035A00030E0612F110F770B26173707D1F00E94FB
:1035B000E65985E090E00E944E598C0188EC8E9D82
:1035C000F0018F9DF00D1124EF5DF74F6581C8016B
:1035D0000E9499451093510400935004C8010E9421
:1035E000083A88EC8E9DF0018F9DF00D1124EF5D5F
:1035F000F74F86818130E9F0823081F181112AC450
:103600001085678170E080E090E00E942F572CE5E4
:103610003FE842EA5FE30E9496560E940357653BEB
:1036200008F064EB70E082E496E00E947E41612F36
:1036300016C0678170E080E090E00E942F572CE573
:103640003FE842EA5FE30E9496560E940357653BBB
:1036500008F064EB70E082E496E014C0678170E0EB
:1036600080E090E00E942F572CE53FE842EA5FE3BC
:103670000E9496560E940357653B08F064EB70E089
:103680008FE396E00E947E41E5C388EC8E9D800129
:103690008F9D100D11240F5D174FD80115968C9139
:1036A0000E94733D099709F022C4F8012581213059
:1036B00019F0283009F0CEC3809150049091510444
:1036C000DC0112964C9150E0022E000C330B421795
:1036D000530701F5E0914206F0E09F01220F331FEE
:1036E000E20FF31FE255FA4F20812F7B2083E091F8
:1036F0003F06F0E09F01220F331FE20FF31FE25558
:10370000FA4F20812F7B20830E94E65910925104AA
:103710001092500480915204909153040097B1F498
:1037200086E090E00E944E598C0188EC8E9DF0015D
:103730008F9DF00D1124EF5DF74F6581C8010E9448
:103740008127109353040093520423C0FC0142814B
:1037500050E028EC2E9D80012F9D100D11240F5D4F
:10376000174FD80115962C91022E000C330B4217DF
:10377000530779F00E94E65986E090E00E944E5986
:103780006C01F80165810E948127D0925304C09298
:10379000520488EC8E9DF0018F9DF00D1124EF5D99
:1037A000F74F86818130F1F0823061F1811152C38F
:1037B0002781809152049091530427FF06C033273C
:1037C00021950CF4309540E001C041E061E00E9499
:1037D000A55388EC8E9DF0018F9DF00D1124EF5DB7
:1037E000F74F10C02781809152049091530427FF16
:1037F00006C0332721950CF4309540E001C041E02C
:1038000061E00FC02085809152049091530427FFFE
:1038100006C0332721950CF4309540E001C041E00B
:1038200062E00E94A55316C388EC8E9D80018F9D97
:10383000100D11240F5D174FD80115968C910E9421
:10384000733D0C9709F053C3E0914A04F0914B0487
:103850003097A9F4F80185810E94733D0C9709F017
:1038600040C086E090E00E944E596C01D801159648
:103870006C910E94694581E0F601858323C0D801DF
:1038800015968C91228130E0482F082E000C550BA4
:103890002417350731F10E94733D0C9711F5809183
:1038A0004A0490914B040E94E65986E090E00E9401
:1038B0004E596C01F80165810E94694581E0D6018D
:1038C00015968C93D0924B04C0924A0467E7C601C8
:1038D0000E940A5264E780914A0490914B040E942E
:1038E0000A5288E4EAE9F3E0DF011D928A95E9F7DC
:1038F000DF0188EC8E9D90018F9D300D11242F5D8E
:10390000374F80E090E0FC01E25BFF4FE20FF31FD6
:103910004081042E000C550B4D935D930196883425
:10392000910589F788E4EAE0F3E0DF011D928A95CA
:10393000E9F780E090E0D901A80FB91F16964C91E5
:10394000042E000C550B4193519301968834910538
:1039500091F72AEE32E04AEF52E06AE073E080919C
:103960004A0490914B040E9468282AEC32E04AED08
:1039700052E06AE973E080914A0490914B040E94FE
:103980006828C0904A04D0904B0420E04DEF67E7D0
:10399000C6010E94D43700E110E02AEF32E040E097
:1039A00067E7C6010E949D3720E04DEF64E7C6013E
:1039B0000E94D4372AED32E040E064E7C6010E945D
:1039C0009D3721E04DEF67E7C6010E94D4372AEE0C
:1039D00032E040E067E7C6010E949D3721E04DEFED
:1039E00064E7C6010E94D4372AEC32E040E064E785
:1039F000C6010E949D372EC288EC8E9D80018F9D4E
:103A0000100D11240F5D174FF80185810E94733D41
:103A10000B9709F06CC2C0904C04D0904D04C114B7
:103A2000D10449F483E290E00E944E596C01D80120
:103A300015966C911DC0F60121A130E0D8011596B4
:103A40008C91082E000C990B28173907B9F080E2E9
:103A500092E091838083C6010E946841C6010E9462
:103A6000E65983E290E00E944E596C01F8016581AD
:103A7000C60151D3D0924D04C0924C04C0904C0466
:103A8000D0904D0488EC8E9DF0018F9DF00D112497
:103A9000EF5DF74F1681D60192968C91929790E048
:103AA000212F012E000C330B8217930759F19296A8
:103AB0001C938AEA8093C00282E08093C10281E075
:103AC0008093C2021093C30286E581278093C402CB
:103AD00020ECA22E22E0B22E35EC832E32E0932E83
:103AE000F50161915F01C6010E94173E8A149B0493
:103AF000B9F7D60192961C9362E370E080E090E003
:103B00000E94684788EC8E9DF0018F9DF00D112476
:103B1000EF5DF74F2085878100914C0410914D0493
:103B20009AEA9093C0028093C10291E09093C202FE
:103B30002093C3029BEA8927822780958093C40241
:103B400080ECC82E82E0D82E95ECA92E92E0B92EFA
:103B5000F60161916F01C8010E94173EAC14BD04CB
:103B6000B9F762E370E080E090E00E9468478091DE
:103B70004C0490914D040E94684100914C041091B6
:103B80004D040115110559F080E292E0D8018D93A2
:103B90009C93C8010E946841C8010E94E659109296
:103BA0004D0410924C0488EC8E9D80018F9D100D69
:103BB00011240F5D174FD8011596EC91EE0FFF0BF6
:103BC000E557FD4F60E080810E942046D8011596A0
:103BD000EC91EE0FFF0BE557FD4F60E081810E94F5
:103BE000204638C188EC8E9D80018F9D100D1124D8
:103BF0000F5D174FF80185810E94733D439709F0CF
:103C000076C1C0904204D0904304C114D10449F459
:103C10008CE090E00E944E596C01D80115966C9191
:103C20001AC0F601228130E0D80115968C91082E39
:103C3000000C990B28173907A1F0828593850E9403
:103C4000E659C6010E94E6598CE090E00E944E5968
:103C50006C01F8016581C601DDD1D0924304C092A8
:103C6000420488EC8E9DF0018F9DF00D1124EF5DD4
:103C7000F74F0185208547816681809142049091AC
:103C800043040E941F3880914204909143040E9493
:103C9000EC37E0C088EC8E9D80018F9D100D1124C3
:103CA0000F5D174FD80115968C910E94733D429776
:103CB00009F01DC18091400490914104009771F07A
:103CC000FC01428150E0D80115962C91022E000C87
:103CD000330B42175307A9F00E94E65986E090E0A3
:103CE0000E944E596C01F80165810E946945D60118
:103CF00015961C92D0924104C0924004C6010E94C5
:103D0000F33988EC8E9D80018F9D100D11240F5D7D
:103D1000174FF801468161E0809140049091410481
:103D20000E945727D80117964C9162E08091400479
:103D3000909141040E945727F801408563E08091EB
:103D40004004909141040E945727D80119964C9144
:103D500064E080914004909141040E9457277AC00A
:103D600088EC8E9D80018F9D100D11240F5D174FE3
:103D7000F80185810E94733D499709F0B8C0809190
:103D8000320490913304009749F485E090E00E945A
:103D90004E596C01D80115966C9115C0FC014281F9
:103DA00050E0D80115962C91022E000C330B4217CF
:103DB000530781F00E94E65985E090E00E944E5939
:103DC0006C01F8016581C6010E949945D0923304C7
:103DD000C0923204009132041091330488EC8E9D1D
:103DE000F0018F9DF00D1124EF5DF74FC680C09458
:103DF0008781D12C61E081110FC0D80113968C917D
:103E00000E94204660E0F80184810E942046B601AD
:103E1000D80113968C910DC0F80184810E94204630
:103E200060E0D80113968C910E942046B601F801FB
:103E300084810E945C460EC08093B209F901EA5168
:103E4000FB4F90839091E904992309F49DC00E944F
:103E5000E1399AC08091B209E82F082E000CFF0BBF
:103E6000EA51FB4F92E59083E1E0E80F0E2E000C43
:103E7000FF0BEA51FB4F92E49083E2E0E80F0E2E35
:103E8000000CFF0BEA51FB4F1082E3E0E80F0E2E0F
:103E9000000CFF0BEA51FB4F98EC9E9DD0019F9DBB
:103EA000B00D1124AF5DB74F13969C91908325E020
:103EB000280FE4E0E80F0E2E000CFF0BEA51FB4F39
:103EC00091E090838A5F8093E80460E090E0022EA6
:103ED000000C330B462F50E0421753070CF0ACCFC9
:103EE000FA01EA51FB4F4081940F6F5FF3CF80914D
:103EF000B209E82F082E000CFF0BEA51FB4F92E5A8
:103F00009083E1E0E80F0E2E000CFF0BEA51FB4F0F
:103F100092E49083E2E0E80F0E2E000CFF0BEA51D2
:103F2000FB4F1082E3E0E80F0E2E000CFF0BEA516E
:103F3000FB4F98EC9E9DD0019F9DB00D1124AF5D6D
:103F4000B74F13969C91908325E0280FE4E0E80F8B
:103F50000E2E000CFF0BEA51FB4F91E090838A5F1D
:103F60008093E80460E090E0022E000C330B462FB3
:103F700050E0421753070CF05FCFFA01EA51FB4FB4
:103F80004081940F6F5FF3CF64960FB6F894DEBF55
:103F90000FBECDBFDF91CF911F910F91FF90EF909A
:103FA000DF90CF90BF90AF909F908F9008950F9328
:103FB000FC01A62FB0E080859185A817B907B8F459
:103FC000862F880F680F70E0A285B385A60FB71FF4
:103FD0002C93A285B385A60FB71F11964C938285AB
:103FE0009385FC01E60FF71F028381E001C080E0AA
:103FF0000F910895DC01E62FF0E0EE0FFF1FE5576B
:10400000FD4F80818C93818111968C93119712962C
:104010006C9308951F93CF93DF93EC01162FEADF83
:10402000E12FF0E0EE0FFF1FE557FD4F8181282FB4
:1040300030E0F901EC50FD4FE491EF83F901E255D6
:10404000FD4FE491F0E0EE0FFF1FEC56FD4F259180
:1040500034913C832B8361E00E94204664E0CE01D2
:10406000DF91CF911F910C9485391F93CF93DF93EC
:10407000EC01162FBFDFE12FF0E0EE0FFF1FE55739
:10408000FD4F81818B8380818C838B8160E00E94D6
:1040900020468C8161E00E9420468C8160E0DF91A7
:1040A000CF911F910C94D73CDC012C911196ED918E
:1040B000FC911297F8948181922F909589238183A6
:1040C00078948DE743E050E0815021F1DA011197B7
:1040D000F1F730813223C1F3F894828189238283FE
:1040E0008181822B81837894ABE7B7E01197F1F758
:1040F000F89481819823918383E191E00197F1F70E
:104100008081282381E009F080E07894E3E6F6E0FE
:104110003197F1F708950F931F93CF93DF93EC013D
:10412000162F4F9667DFE12FF0E0EE0FFF1FE557E8
:10413000FD4F118100811B821A8288EE93E0A0E07E
:10414000B0E08C839D83AE83BF8380E292E099834D
:1041500088831F8A1E8A198E188E1B8E1A8E1D8EBA
:104160001C8E6E8D6E7F6D7F6E8F6695617081E0A7
:104170006827812F0E94D73C61E0812F0E94204652
:10418000812F90E0FC01EC50FD4FE491E88BFC01A5
:10419000E255FD4FE491F0E0EE0FFF1FEC56FD4FAE
:1041A000859194919A8B898B60E0802F0E942046A4
:1041B0008E8D81FD04C061E0802F0E94D73C0C876A
:1041C000802F90E0FC01EC50FD4FE491ED87FC0165
:1041D000E255FD4FE491F0E0EE0FFF1FE658FD4F72
:1041E000859194919F878E8780E292E0998388835E
:1041F00083E08AA31B8E1A8E198E188E1F8A1E8A40
:1042000085E690E09D8F8C8F96EF900F943048F06C
:104210008EEC800F843028F082EC800F883008F01C
:1042200066C021E230E03F8B2E8B23E630E0398FF1
:10423000288F22E430E03B8F2A8F943060F08EECA0
:10424000800F843040F082EC800F883008F070C01E
:10425000A8E6B0E06FC0A8E6B0E0E8E6F0E02081B4
:10426000943048F08EEC800F843028F00E530830E4
:1042700010F484E001C081E0822B8C938C8596EF52
:10428000980F943058F02EEC280F243038F022ECA0
:10429000280F283030F020E030E005C02BE630E079
:1042A00002C02DE630E03C8B2B8B943010F49AEF5B
:1042B0000BC0823381F0833381F0843381F092EC40
:1042C000980F983070F492EC980F81E001C0880F3D
:1042D0009A95EAF707C088E005C084E003C082E051
:1042E00001C081E08D8B8C8D9D8D0197F1F78A8DBA
:1042F0009B8D892B29F18091D2079091D307C81704
:10430000D907F1F0009711F00E9468418E8D8E7FE1
:104310008E8F1092D0071092D107D093D307C093FD
:10432000D207EB89FC8990818D89892B808308C015
:10433000A0E0B0E0883008F490CFE0E0F0E08FCF6C
:10434000DF91CF911F910F910895CF93DF93EC01EF
:1043500060E08B810E9420468B81DF91CF910C948D
:1043600024470F931F93CF93DF93EC018B810E941F
:10437000AE3C8C018C810E94AE3CAC0121E030E06F
:10438000012B11F420E030E0220F331F81E0452B98
:1043900009F480E0822BDF91CF911F910F91089556
:1043A0001F93CF93DF93EC01162F24DEE12FF0E073
:1043B000EE0FFF1FE557FD4F80818B8381818C833A
:1043C0008B8160E00E9420468C8160E0DF91CF917C
:1043D0001F910C9420468F929F92AF92BF92CF92E2
:1043E000DF92EF92FF920F931F93CF93DF937C01A5
:1043F0000AE010E0812C912C5401C0E0D0E0CC24E4
:10440000CA9433E0D32E60E0F70183810E942046F6
:10441000F70183810E9424479601281B390BC901AB
:10442000C217D30708F4E901880E991EA11CB11C1C
:104430000150110941F7D501C4018C1B9D0BA10945
:10444000B10923E0B695A795979587952A95D1F759
:10445000DF91CF911F910F91FF90EF90DF90CF9060
:10446000BF90AF909F908F900895CF93DF93EC0112
:104470000E94694581E08D83CE010E94BA4467EEB7
:10448000CE010E94A54460E8CE010E94A54464EAE2
:10449000CE010E94A5446AE9CE010E94A54461E8CC
:1044A000CE010E94A54463E8CE010E94A544CE013E
:1044B000DF91CF910C945F43CF92DF92EF92FF9206
:1044C0000F931F93CF93DF93EC01E62E8A01F22E18
:1044D0000E94BA446E0182E4C80ED11CF6016081CC
:1044E000660FCE010E945B44CE010E94D5436E2D23
:1044F000CE010E945B44CE010E94D543CE010E94B2
:104500005F43F0E5FA95F1F7CE010E94BA44F60157
:104510006081660F6160CE010E945B44CE010E9403
:10452000D543FA94EF2C6801EE2061F0CE010E9491
:104530001544F60181936F0160E0CE010E949B4318
:10454000EA94F2CF0F0D111DCE010E941544F8011F
:10455000808361E0CE010E949B43CE01DF91CF9129
:104560001F910F91FF90EF90DF90CF900C945F43DD
:104570002F923F924F925F926F927F928F929F9273
:10458000AF92BF92CF92DF92EF92FF92CF93DF93E1
:10459000CDB7DEB72A970FB6F894DEBF0FBECDBFFA
:1045A0009A878987AC014C5C5F4F2EE06BE384DF18
:1045B000E985FA8564A875A876246724762473A211
:1045C00062A2E6A8F7A8FE24EF24FE24F5A2E4A246
:1045D000A0ACB1ACBA24AB24BA24B7A2A6A2268060
:1045E00037804084518464AD75AD76276727762780
:1045F000072E000C880B990B0E943157E985FA852C
:1046000020A531A542A553A50E94CB55A201910139
:104610000E949656E985FA85668B778B808F918FFD
:1046200066AD77AD762767277627072E000C880BB7
:10463000990B0E943157E985FA8524A535A546A531
:1046400057A50E94CB55A20191010E949656E9857B
:10465000FA85628F738F848F958FE05CFF4F608146
:104660007181762767277627072E000C880B990B18
:104670000E943157E985FA8520A931A942A953A999
:104680000E94CB55A20191010E949656E985FA85B8
:10469000668F778F80A391A3B701FF0C880B990BCE
:1046A0000E9431576B017C01B501BB0C880B990B43
:1046B0000E9431579B01AC010E9464584B015C0180
:1046C000A7019601C701B6010E946458A501940193
:1046D0000E94CC550E94CB5869837A838B839C833C
:1046E000B301770C880B990B0E9431572B013C01C9
:1046F00029813A814B815C810E943F5620E030E065
:1047000044E353E40E9464582AED3FE049E450E456
:104710000E94965669837A838B839C83A3019201BE
:10472000C301B2010E946458A50194010E94CC55B6
:104730000E94CB589B01AC01C701B6010E943F56B5
:1047400020E030E044E353E40E9464582AED3FE067
:1047500049E450E40E9496566D837E838F83988748
:104760000E94BE45C0907E04D0907F04E0908004FB
:10477000F09081046C197D098E099F090E942F57C2
:1047800020E030E04AE754E40E9496566B017C0139
:104790000E94BE4560937E0470937F0480938004E2
:1047A00090938104E985FA8586A197A118161906C8
:1047B0005CF5228D338D448D558DC701B6010E9465
:1047C00064589B01AC01E985FA856285738584850F
:1047D00095850E94CB55E985FA8562877387848722
:1047E000958726893789408D518DC701B6010E9472
:1047F00064589B01AC01E985FA85668577858089D7
:1048000091890E94CC552CC0E985FA85228D338D83
:10481000448D558DC701B6010E9464589B01AC01BF
:10482000E985FA8562857385848595850E94CC55D6
:10483000E985FA8562877387848795872689378912
:10484000408D518DC701B6010E9464589B01AC0197
:10485000E985FA8566857785808991890E94CB559F
:10486000E985FA8566877787808B918BE985FA855C
:10487000268D378D40A151A1C701B6010E94645811
:10488000E985FA8522893389448955890E94CC5566
:104890002B013C0120E030E044EB53E40E949656AB
:1048A0000E946C5720E030E044EB53E40E946458CF
:1048B0009B01AC01C301B2010E94CB55E985FA8589
:1048C000628B738B848B958B20E030E040E05FE35C
:1048D000C701B6010E94CC559B01AC0160E070E0BD
:1048E00080E09FE30E9496566B017C019B01AC0126
:1048F00060E070E080E89FE30E94CB554B015C01D3
:10490000E985FA852285338544855585C701B60139
:104910000E9464582B013C01A501940169817A81B0
:104920008B819C810E9464589B01AC01C301B20140
:104930000E94CC55E985FA856287738784879587BD
:104940002685378540895189C701B6010E94645880
:104950006B017C01A50194016D817E818F81988519
:104960000E9464589B01AC01C701B6010E94CC555E
:10497000E985FA8566877787808B918B2A960FB6B3
:10498000F894DEBF0FBECDBFDF91CF91FF90EF90C7
:10499000DF90CF90BF90AF909F908F907F906F905F
:1049A0005F904F903F902F900895FC014536510540
:1049B0006105710524F044E650E060E070E09A0182
:1049C000AB012C398FEF38074807580724F42CE93E
:1049D0003FEF4FEF5FEF81899289A389B4898217F6
:1049E0009307A407B50709F464C0218B328B438B6E
:1049F000548B2187328743875487EA54FF4F808145
:104A0000843059F512161306140615069CF4AFEF00
:104A1000B3E00E948A551092A9001092A80024E6E3
:104A200030E040E050E00E946E553093AB002093A0
:104A3000AA000895A1E0BCEF0E94965524E630E05C
:104A400040E050E00E946E553093A9002093A800EA
:104A50001092AB001092AA000895853051F51216FD
:104A60001306140615069CF4AFEFB3E00E948A55B6
:104A700024E630E040E050E00E946E55309389001B
:104A80002093880010928B0010928A000895A1E074
:104A9000BCEF0E949655109289001092880024E67F
:104AA00030E040E050E00E946E5530938B00209340
:104AB0008A0008954F925F926F927F928F929F9299
:104AC000AF92BF92CF92DF92EF92FF920F931F931C
:104AD000CF93DF93CDB7DEB72A970FB6F894DEBF3A
:104AE0000FBECDBF9A878987DC01D1966D917D91EC
:104AF0008D919C91D49715968D909D90AD90BC9082
:104B000018979196CD90DD90ED90FC9094970E942F
:104B100031572B013C01C501B4010E943157A70157
:104B200096010E9464589B01AC01C301B2010E942E
:104B3000965620E030E044EB53E40E9464580E9413
:104B4000FE56E985FA8565A376A387A390A70E9400
:104B5000BE4509851A850B551F4FD8014D905D90B4
:104B60006D907C90AB01BC01441955096609770929
:104B7000453151056105710508F477C0A985BA85ED
:104B8000D1962D913D914D915C91D49729833A8393
:104B90004B835C839D962D913D914D915C91D09777
:104BA0002D833E834F83588715968D909D90AD90B1
:104BB000BC9018979196CD90DD90ED90FC909497D5
:104BC0006EEB75E46419750980E090E00E942F5740
:104BD0009B01AC0160E070E08AE794E40E94965685
:104BE0002B013C0169817A818B819C812D813E81E1
:104BF0004F815885621B730B840B950B0E943157B4
:104C00009B01AC01C301B2010E94645820E030E076
:104C100040E752E40E9464582B013C01C501B401F5
:104C20000E943157A70196010E9464589B01AC0174
:104C3000C301B2010E949656A985BA8555966D9317
:104C40007D938D939C935897FD0181A992A9A3A967
:104C5000B4A985A796A7A7A7B0AB0E94BE45D80167
:104C60006D937D938D939C931397E985FA8560816D
:104C700071818281938120E030E040E050E40E9425
:104C800092568111FDC00E94BE4509851A850755BF
:104C90001F4FD801CD90DD90ED90FC90DC01CB0151
:104CA0008C199D09AE09BF090697A105B10508F445
:104CB000C0C00E94BE45F8016083718382839383E4
:104CC000A985BA8519966D917D918D919C911C97BE
:104CD0001D968D909D90AD90BC9050970E9431573D
:104CE00026E636E646E65FE30E9464586B017C01E7
:104CF000C501B4010E9431572DEC3CEC4CEC5DE356
:104D00000E9464589B01AC01C701B6010E94CC55BA
:104D100020E030E0A9010E94595887FD2BC0E985A9
:104D2000FA85618572858385948585849684A784B8
:104D3000B0880E94315726E636E646E65FE30E94D9
:104D400064586B017C01C501B4010E9431572DEC00
:104D50003CEC4CEC5DE30E9464589B01AC01C70144
:104D6000B6010E94CC5520E030E040E05FE30E94B5
:104D7000CC552EC0A985BA8519966D917D918D91DE
:104D80009C911C971D968D909D90AD90BC905097D6
:104D90000E94315726E636E646E65FE30E946458F5
:104DA0006B017C01C501B4010E9431572DEC3CEC34
:104DB0004CEC5DE30E9464589B01AC01C701B60155
:104DC0000E94CC5520E030E040E05FE30E94CB55EC
:104DD0000E94FE56E985FA856187728783879487EA
:104DE00081859285A385B485181619061A061B06B7
:104DF0002CF481859285A385B4850DC0E985FA855B
:104E000081859285A385B485B095A095909581956F
:104E10009F4FAF4FBF4F0B97A105B10554F4E985E4
:104E2000FA8585859685A785B089892B8A2B8B2B5A
:104E300001F1A985BA8519964D915D916D917C918D
:104E40001C97CD012A960FB6F894DEBF0FBECDBFDA
:104E5000DF91CF911F910F91FF90EF90DF90CF9056
:104E6000BF90AF909F908F907F906F905F904F908A
:104E70009CCDE985FA851186128613861486D9CFD2
:104E80002A960FB6F894DEBF0FBECDBFDF91CF914B
:104E90001F910F91FF90EF90DF90CF90BF90AF9058
:104EA0009F908F907F906F905F904F9008950F9399
:104EB0001F93CF93DF938C01D62FC42F0E94BA4447
:104EC0006D2F660F6A59C8010E945B44C8010E9499
:104ED000D543EC2FC7FF07C0EF77F0E0E25DFD4F51
:104EE0006081606804C0F0E0E25DFD4F6081C80150
:104EF0000E945B44C801DF91CF911F910F910C94E8
:104F00005F43CF93DF93EC010E94694561E084E148
:104F10000E94204661E084E10E94D73C1D82DF911F
:104F2000CF9108950F931F93CF93DF93EC010E94CD
:104F3000BA4462E5CE010E945B44CE010E94D54393
:104F400062E9CE010E945B44CE010E94D543CE01AE
:104F50000E94BA4463E5CE010E945B44CE010E94E8
:104F6000D543CE010E941544182F61E0CE010E9466
:104F70009B43CE010E945F43143411F0103159F568
:104F800081E08E8319850A85412F61E0CE010E9460
:104F9000453B19870A871F8108858E81811102C0D0
:104FA000CE01C0DF412F6FE0CE010E94453B1F8341
:104FB000088741E060E0CE010E94453B63E070E07D
:104FC00080E090E00E94684743E060E0CE010E94EC
:104FD000453B81E001C080E0DF91CF911F910F91AF
:104FE0000895AF92BF92CF92DF92EF92FF920F930C
:104FF0001F93CF93DF93EC015B016A0179018E81EE
:10500000811102C0CE018EDF64E1CE010E94093B16
:10501000F8019183808366E1CE010E94093BF5018E
:105020009183808368E1CE010E94093BF601918360
:1050300080836AE1CE010E94093BF701918380835E
:1050400089859A85853D910519F150F4009729F1DC
:10505000803C910591F56AE970E080E090E021C024
:10506000863F910581F08F3F910541F08B3E910580
:1050700021F562E370E080E090E013C063E070E04F
:1050800080E090E00EC068E170E080E090E009C050
:1050900065E670E080E090E004C06CEB72E080E0D8
:1050A00090E0DF91CF911F910F91FF90EF90DF90F3
:1050B000CF90BF90AF900C946847DF91CF911F9134
:1050C0000F91FF90EF90DF90CF90BF90AF90089539
:1050D0002F923F924F925F926F927F928F929F9208
:1050E000AF92BF92CF92DF92EF92FF920F931F93F6
:1050F000CF93DF93CDB7DEB7C451D1400FB6F8944C
:10510000DEBF0FBECDBFFB011A012901A280B38013
:10511000648175814681578120853185350101E0A3
:1051200060227724730183E0EE0CFF1C8A95E1F77F
:105130004B0111E08122992496E0880C991C9A95E4
:10514000E1F7370168287928C080D18087E0C8223C
:10515000DD2443018C289D286A0191E0C922DD24C9
:10516000DC2CCC24DD0CC828D9287901A1E0EA2266
:10517000FF24FE2CEE24F29470EFF722EC28FD2899
:10518000A1FABB27B0F9CD5EDE4FB883C351D14041
:10519000CC5EDE4F1882C451D140CD5EDE4F088117
:1051A0001981C351D140A4E0000F111FAA95E1F766
:1051B000E02AF12AA2FAAA27A0F9B0E015E0AA0F86
:1051C000BB1F1A95E1F7EA2AFB2A61FB882780F9C1
:1051D00090E09695982F882797958795E82AF92A41
:1051E00062FB662760F9162F00E0E02AF12A41FBF6
:1051F000882780F9880F880F8A83198289819A818C
:10520000E82AF92A42FB442740F9440F440F440F8F
:105210004C831B82AB81BC81EA2AFB2A21FB8827B5
:1052200080F98295880F807E8E831D820D811E817C
:10523000E02AF12A22FB222720F92295220F220FB1
:10524000207C28871F828F819885E82AF92AD1013E
:10525000EC921196FC92E684F784FA82E982408906
:1052600051892289338984899589870101701127A1
:10527000780163E0EE0CFF1C6A95E1F7DA01A1709A
:10528000BB2776E0AA0FBB1F7A95E1F787010A2BAF
:105290001B2BD901A170BB27BA2FAA27BB0FA02BAC
:1052A000B12BBC0161707727762F66277295707FCE
:1052B0006A2B7B2B09810695017009871A86A985BF
:1052C000BA8514E0AA0FBB1F1A95E1F76A2B7B2B56
:1052D000198112FB112710F91B871C86AB85BC8531
:1052E00005E0AA0FBB1F0A95E1F76A2B7B2B41FB58
:1052F000AA27A0F9AD871E86AD85BE85B695BA2FC3
:10530000AA27B795A795A62BB72B42FB442740F9B0
:10531000488B1F86EF84F888AE29BF2921FB992787
:1053200090F9990F990F9A8B198A09891A89A02BDC
:10533000B12B22FB222720F9220F220F220F2C8BC8
:105340001B8AEB88FC88AE29BF2981FB992790F93D
:105350009295990F907E9E8B1D8A0D891E89A02B98
:10536000B12B82FB882780F98295880F880F807C7B
:10537000888F1F8A2F89388D2A2B3B2BD1011296BB
:105380002C93129713963C9384859585E28CF38C2D
:10539000FA82E982648D758D468D578D228533851D
:1053A000DC01A170BB27AA0FBB1F81FBFF24F0F813
:1053B000F98E1A8E098D1A8DA02BB12B8470992726
:1053C0008A2B9B2BA981BA81A170BB2703E0AA0F6E
:1053D000BB1F0A95E1F78A2B9B2BDB01A170BB2732
:1053E00076E0AA0FBB1F7A95E1F7A82BB92BCA016B
:1053F00081709927982F8827990F8A2B9B2B8901D9
:1054000001701127102F00271295107F082B192BE0
:105410008981869581708B8F1C8E8B8D9C8D54E03D
:10542000880F991F5A95E1F7082B192BE2FA992753
:1054300090F99D8F1E8E8D8D9E8D75E0880F991F22
:105440007A95E1F7082B192B61FBAA27A0F9AF8FFA
:1054500018A28F8D98A19695982F88279795879554
:10546000802B912B62FB662760F96AA319A2E9A041
:10547000FAA08E299F2941FB332730F9330F330FD0
:105480003CA31BA20BA11CA1802B912B42FB442708
:1054900040F9440F440F440F4EA31DA2ADA1BEA17D
:1054A0008A2B9B2B21FB332730F93295330F307E2B
:1054B00038A71FA2EFA0F8A48E299F2922FB22273C
:1054C00020F92295220F220F207C2AA719A609A5D0
:1054D0001AA5802B912BD10114968C9314971596B5
:1054E0009C93608D718D06A117A140A551A522A5A1
:1054F00033A5868997897B01B1E0EB22FF24670100
:10550000CC0CDD1CD801A170BB2713E0AA0FBB1F78
:105510001A95E1F77D01EC28FD28DA01A170BB277F
:1055200056E0AA0FBB1F5A95E1F7AE29BF29BA83EF
:10553000A983D901A170BB27BA2FAA27BB0FC980A5
:10554000DA80CA2ADB2A7C01B1E0EB22FF24570172
:10555000BA2CAA24B294A0EFBA22D601AA29BB2958
:1055600061FBEE24E0F8EBA61CA6EBA4FCA4EE0C79
:10557000FF1CEE0CFF1CAE29BF2962FB662760F9F9
:105580006795662767956EA71DA6EDA4FEA4AE29B4
:10559000BF2901FBFF24F0F8FFA618AAEFA4F8A882
:1055A00094E0EE0CFF1C9A95E1F7AE29BF2902FBAF
:1055B000FF24F0F8F9AA1AAA09A91AA935E0000FE0
:1055C000111F3A95E1F7A02BB12B41FB112710F9E0
:1055D0001BAB1CAAEBA8FCA8F694FE2CEE24F794B7
:1055E000E794AE29BF2942FB442740F94EAB1DAAE0
:1055F0000DA91EA9A02BB12B21FB992790F9990F7A
:10560000990F98AF1FAAEFA8F8ACAE29BF2922FBCB
:10561000222720F9220F220F220F2AAF19AE09AD3F
:105620001AADA02BB12B81FB992790F99295990F78
:10563000907E9CAF1BAEEBACFCACAE29BF2982FBCD
:10564000882780F98295880F880F807C8EAF1DAEE9
:105650002DAD3EAD2A2B3B2BD10116962C931697E0
:1056600017963C93E4A0F5A0FA82E98244A955A9D3
:1056700020A131A182A193A1870101701127780196
:10568000EE0CFF1CDA01A170BB2776E0AA0FBB1F4E
:105690007A95E1F787010A2B1B2BD901A170BB2753
:1056A000BA2FAA27BB0FA02BB12BBC0161707727A3
:1056B000762F66277295707F6A2B7B2B0981069562
:1056C00001700FAF21961FAE21972196AEADBFADF1
:1056D0002197AA0FBB1FAA0FBB1F6A2B7B2B198117
:1056E00012FB112710F922961FAF229723961FAEA7
:1056F00023972396AEADBFAD239703E0AA0FBB1F40
:105700000A95E1F76A2B7B2B41FBAA27A0F9249687
:10571000AFAF249725961FAE25972596AEADBFADAA
:105720002597B695BA2FAA27B795A795A62BB72B7D
:1057300042FB442740F927964FAF279726961FAE86
:1057400026972796EEACFFAC2797AE29BF2921FB01
:10575000992790F9990F990F29969FAF2997289625
:105760001FAE289729960EAD1FAD2997A02BB12B00
:1057700022FB222720F9220F220F220F2B962FAF78
:105780002B972A961FAE2A972B96EEACFFAC2B9741
:10579000AE29BF2981FB992790F99295990F907EA8
:1057A0002D969FAF2D972C961FAE2C972D960EAD54
:1057B0001FAD2D97A02BB12B82FB882780F98295F6
:1057C000880F880F807C2F968FAF2F972E961FAE55
:1057D0002E972F962EAD3FAD2F972A2B3B2BD10125
:1057E00018962C93189719963C93C2A8D3A8A0A8F2
:1057F000B1A8CF01805C9F4FDC014D915C9124A545
:1058000035A586A597A5B60161707727A4E0660F38
:10581000771FAA95E1F7C1FABB27B0F96096BFAF31
:10582000609761961FAE61976196EEACFFAC619791
:10583000E62AF72AB50161707727660F771F6E2970
:105840007F298A010170112756E0000F111F5A9518
:10585000E1F7602B712B890101701127102F0027B0
:10586000110F062B172BBC0161707727762F662747
:105870007295707F062B172BC2FAEE24E0F8629621
:10588000EFAE629763961FAE639763966EAD7FAD82
:10589000639795E0660F771F9A95E1F7062B172B14
:1058A000A1FAFF24F0F86496FFAE649765961FAEE8
:1058B000659765966EAD7FAD6597660F771F660F2E
:1058C000771F062B172BA2FA662760F966966FAF33
:1058D000669767961FAE679767966EAD7FAD6797C1
:1058E00053E0660F771F5A95E1F7062B172B41FB04
:1058F000772770F968967FAF689769961FAE6997AA
:1059000069966EAD7FAD69977695762F6627779508
:105910006795602B712B42FB442740F96B964FAF84
:105920006B976A961FAE6A976B96AEADBFAD6B97DD
:105930006A2B7B2B21FB992790F9990F990F6D9674
:105940009FAF6D976C961FAE6C976D96EEACFFACEB
:105950006D976E297F2922FB222720F9220F220F23
:10596000220F6F962FAF6F976E961FAE6E976F9642
:105970000EAD1FAD6F97602B712B81FB992790F9AE
:105980009295990F907EA1969FAFA197A0961FAE7A
:10599000A097A196AEADBFADA1976A2B7B2B82FBE2
:1059A000882780F98295880F880F807CA3968FAF17
:1059B000A397A2961FAEA297A396EEACFFACA397B7
:1059C0006E297F29D1011A966C931A971B967C93A6
:1059D00004AD15AD66AD77AD46A957A920AD31AD83
:1059E00082AD93AD7801B1E0EB22FF246701CC0CCE
:1059F000DD1CDB01A170BB2714E0AA0FBB1F1A95A9
:105A0000E1F77D01EC28FD28DA01A170BB2756E003
:105A1000AA0FBB1F5A95E1F7AE29BF29BA83A98304
:105A2000D901A170BB27BA2FAA27BB0FC980DA8082
:105A3000CA2ADB2A7C01B1E0EB22FF245701BA2CF1
:105A4000AA24B294A0EFBA22D601AA29BB2901FB4D
:105A5000EE24E0F8A496EFAEA497A5961FAEA59706
:105A6000A596EEACFFACA597EE0CFF1CEE0CFF1C50
:105A7000AE29BF2902FBFF24F0F8A696FFAEA69739
:105A8000A7961FAEA797A7960EAD1FADA79793E059
:105A9000000F111F9A95E1F7A02BB12B61FB112785
:105AA00010F9A8961FAFA897A9961FAEA997A99617
:105AB000EEACFFACA99735E0EE0CFF1C3A95E1F790
:105AC000EA2AFB2A62FB662760F9679566276795D5
:105AD000AB966FAFAB97AA961FAEAA97AB960EADDB
