:100000000C94C4000C94EC000C94EC000C94E21CD6
:100010000C94E21C0C94E21C0C94EC000C94EC008C
:100020000C94EC000C94EC000C94EC000C94721DFD
:100030000C94EC000C94EC000C94EC000C94EC0090
:100040000C94D8250C94EC000C9441250C94EC00F5
:100050000C94EC000C94EC000C94EC000C94EC0070
:100060000C94EC000C94EC001F01AC01DE011B02AF
:100070008502EC036004D504650648058C09000A76
:10008000230E2D0B360CC80C3B0DAD0D222A2E2A4B
:100090003A2A802A482A562A642A722A8E2A9A2ABA
:1000A000B52AC32AD12A6E2B042B622BF62ADF2A0B
:1000B000122B202B2E2B3B2B482B552B4D0F780F23
:1000C0006C15B50FDB0F6C156C156C156C156C157C
:1000D0006C156C156C156C156C151A10431081108D
:1000E00001112011E410CE106C15E411F6115E120E
:1000F0006C15DD126C152914D0138F14084AD73BE8
:100100003BCE016E84BCBFFDC12F3D6C74319ABDE6
:1001100056833DDA3D00C77F11BED9E4BB4C3E910A
:100120006BAAAABE000000803F000000000024006F
:1001300027002A0000000000250028002B000000F6
:100140000008000201000003040700000000000096
:10015000000000000000230026002900040404041D
:100160000404040402020202020203030303030361
:10017000010204081020408001020408102001023E
:10018000040810207E33783311241FBECFEFD8E04F
:10019000DEBFCDBF11E0A0E0B1E0EAEDF3E702C0C1
:1001A00005900D92A435B107D9F724E0A4E5B1E09C
:1001B00001C01D92A13AB207E1F710E0C3ECD0E014
:1001C00004C02197FE010E947038C23CD107C9F7D4
:1001D0000E946A260C94E0390C9400002F923F9202
:1001E0004F925F926F927F928F929F92AF92BF9247
:1001F000CF92DF92EF92FF920F931F93CF93DF93F3
:10020000CDB7DEB76E970FB6F894DEBF0FBECDBF89
:10021000E82EF12C28EC829FF0011124E25AFE4FC7
:10022000E4818E2F90E0FC01E15AF109E231F10501
:1002300010F00C940A0FEC5CFF4F0C94703888ECB3
:100240008E9D80018F9D100D1124025A1E4FD801E2
:1002500015968C910E94EA1A029711F00C940A0FDD
:1002600080911C0390911D03009741F480E190E080
:100270000E948A386C01F801658116C0DC01129673
:100280004C9150E0F8012581022E000C330B4217EF
:10029000530789F00E94223980E190E00E948A3859
:1002A0006C01D80115966C91C6010E94A320D092D2
:1002B0001D03C0921C0380911C0390911D030E949A
:1002C0001B1B4B015C0120E030E04AE753E40E9435
:1002D0008537181634F4812C912CBAE7AB2EB3E491
:1002E000BB2E20E030E040E251E4C501B4010E94A1
:1002F00092370E941E369B0142E540935A0342E426
:1003000040935B0348EC4E9DF0014F9DF00D11248E
:10031000E25AFE4F438140935D0341E040935E0308
:10032000AB0177FF02C041505F4F50935F03C9019B
:1003300060E071E00E945C388093600388E0809305
:100340005C03EAE5F3E080E09191890FB3E0E136E8
:10035000FB07D1F70C941F0E88EC8E9DF0018F9D4A
:10036000F00D1124E25AFE4F8581893F11F00C9463
:100370000A0F82E580935A0382E480935B03109214
:100380005C03838180935D0311E010935E0388E03A
:100390000E941317019719F410925F0302C0109383
:1003A0005F0387E080935C03EAE5F3E080E09191EE
:1003B000890F23E0E036F207D1F765C388EC8E9D04
:1003C00080018F9D100D1124025A1E4FD8011596E1
:1003D0008C918D3F11F00C940A0F85E10E946119F8
:1003E00022E3FC012E9FC0012F9F900D112422E5D6
:1003F00020935A0322E420935B03D80113962C9197
:1004000020935D0321E020935E036FEF73E00E9471
:100410005C38862F880F680F60935F0387E08093B6
:100420005C03EAE5F3E080E09191890FB3E0E03608
:10043000FB07D1F728C38091190390911A03009705
:10044000B1F485E090E00E948A388C0188EC8E9DA2
:10045000F0018F9DF00D1124E25AFE4F6581C80115
:100460000E94562310931A030093190323C0FC0122
:10047000428150E028EC2E9D80012F9D100D11240B
:10048000025A1E4FD80115962C91022E000C330BE8
:100490004217530779F00E94223985E090E00E94CC
:1004A0008A386C01F80165810E945623D0921A03A4
:1004B000C092190382E580935A0382E480935B0320
:1004C00010925C0388EC8E9DF0018F9DF00D11243D
:1004D000E25AFE4F838180935D0381E080935E0347
:1004E0008091190390911A030E94372380935F0330
:1004F00087E080935C03EAE5F3E080E09191890F67
:1005000023E0E036F207D1F7BEC288EC8E9D800171
:100510008F9D100D1124025A1E4FD80115968C91F3
:100520000E94EA1A069711F00C940A0F80911503A5
:1005300090911603009771F0FC01428150E0D801C0
:1005400015962C91022E000C330B42175307D1F055
:100550000E94223986E090E00E948A386C01F801FE
:100560001581612F0E94D421E12FF0E0EE0FFF1FD3
:10057000E35EFE4F8181D60115968C93D0921603CF
:10058000C09215030091150310911603FE013196D8
:100590001F0185E0DF011D928A95E9F761E0F8010E
:1005A00085810E946B1761E0D80115968C910E949D
:1005B0003C176AEF70E080E090E00E94B01A60E0C3
:1005C000F80185810E943C1764E170E080E090E0D2
:1005D0000E94B01A61E0D80115968C910E943C17D8
:1005E0008BE990E00197F1F760E0F80185810E94C6
:1005F0003C1783E290E00197F1F70E94CC254B0174
:100600005C0162E0D80115968C910E946B17F8018D
:1006100085810E941317019791F00E94CC25DC017F
:10062000CB0188199909AA09BB090597A105B1054C
:1006300070F3D80113961C92139714961C920E9483
:10064000CC254B015C0162E0F80185810E946B17AB
:10065000D80115968C910E941317892B19F4C12C7F
:10066000D12C53C00E94CC25DC01CB0188199909FB
:10067000AA09BB090597A105B10550F3F0CF0E9467
:10068000CC25DC01CB0188199909AA09BB0905977A
:10069000A105B10538F4D80115968C910E94131765
:1006A000892B69F30E94A7254B015C010E94CC2590
:1006B0002B013C0162E0F80185810E946B17D80193
:1006C00015968C910E941317019749F10E94A72556
:1006D000DC01CB0188199909AA09BB09F60173E06D
:1006E000F595E7957A95E1F78997A105B10520F190
:1006F000E20DF31D8081880F81608083BFEFCB1AEC
:10070000DB0AE8E2CE16D104E1F00E94CC254B01D1
:100710005C0162E0F80185810E946B17BCCF0E94EA
:10072000CC25DC01CB0184199509A609B7090597E9
:10073000A105B10520F2CACFE20DF31D8081880F1B
:10074000DCCF59814B812D8130E06A81852F90E08B
:10075000860F911D840F911D6C81860F911D992725
:100760002817390731F4D80113965C931397149620
:100770004C9382E580935A0382E480935B0388EC78
:100780008E9DF0018F9DF00D1124E25AFE4F838162
:1007900080935D0381E080935E03E0911503F09107
:1007A0001603838180935F0310926003848180939A
:1007B0006103109262038AE080935C03EAE5F3E050
:1007C00080E09191890FB3E0E336FB07D1F7809386
:1007D00063038AE00C94E10E80911303909114035B
:1007E0000097B1F484E090E00E948A388C0188EC94
:1007F0008E9DF0018F9DF00D1124E25AFE4F658110
:10080000C8010E942A1E109314030093130323C0EF
:10081000FC01428150E028EC2E9D80012F9D100D9F
:100820001124025A1E4FD80115962C91022E000C4D
:10083000330B4217530779F00E94223984E090E08D
:100840000E948A386C01F80165810E942A1ED092AC
:100850001403C092130382E580935A0382E48093C9
:100860005B0310925C0388EC8E9DF0018F9DF00D70
:100870001124E25AFE4F838180935D0381E08093CF
:100880005E0380911303909114030E94722390934E
:100890005F0380911303909114030E94722380934D
:1008A000600388E080935C03EAE5F3E021E633E04F
:1008B00080E09191890F2E173F07D9F70C941F0EF6
:1008C00080911103909112030097B1F484E090E0BD
:1008D0000E948A388C0188EC8E9DF0018F9DF00D6E
:1008E0001124E25AFE4F6581C8010E942A1E10930E
:1008F00012030093110324C0DC0112964C9150E0C6
:1009000028EC2E9D80012F9D100D1124025A1E4FA0
:10091000F8012581022E000C330B4217530781F09A
:100920000E94223984E090E00E948A386C01D8014C
:1009300015966C910E942A1ED0921203C092110348
:1009400082E580935A0382E480935B0310925C03F8
:1009500088EC8E9DF0018F9DF00D1124E25AFE4F20
:10096000838180935D0381E080935E038091110316
:10097000909112030E94F21D90935F0380911103E6
:10098000909112030E94F21D8093600388E080938F
:100990005C03EAE5F3E021E633E080E09191890F22
:1009A0002E173F07D9F70C941F0E80910D039091DD
:1009B0000E030097B1F485E090E00E948A388C0124
:1009C00088EC8E9DF0018F9DF00D1124E25AFE4FB0
:1009D0006581C8010E94E42110930E0300930D036A
:1009E00023C0FC01428150E028EC2E9D80012F9D08
:1009F000100D1124025A1E4FD80115962C91022E6B
:100A0000000C330B4217530779F00E94223985E01E
:100A100090E00E948A386C01F80165810E94E4210F
:100A2000D0920E03C0920D0382E580935A0382E4B4
:100A300080935B0310925C0388EC8E9DF0018F9D88
:100A4000F00D1124E25AFE4F838180935D0381E013
:100A500080935E03E0910D03F0910E0383810E9469
:100A6000131721E0892B09F020E020935F0387E032
:100A700080935C03EAE5F3E080E09191890F23E045
:100A8000E036F207D1F78093600387E00C94E10E23
:100A900088EC8E9D80018F9D100D1124025A1E4FEF
:100AA000D80115968C910E94EA1A0D9711F00C94BA
:100AB0000A0FE0910903F0910A033097E1F4F8017D
:100AC00085810E94EA1A0D9709F04BC08BE090E0F7
:100AD0000E948A386C01D80115966C910E9487207B
:100AE000F60116828BEE90E09287818781E090E09C
:100AF000908787832FC0D80115968C91228130E092
:100B0000482F082E000C550B2417350751F10E9471
:100B1000EA1A0D9731F58091090390910A030E941A
:100B200022398BE090E00E948A386C01F8016581DF
:100B30000E948720D60116961C9216978BEE90E0A5
:100B40001A969C938E93199781E090E018969C9347
:100B50008E931797D0920A03C0920903C6010E9490
:100B6000692428EC2E9DC0012F9D900D1124FC01BD
:100B7000E25AFE4F5F01D680F1E0DF124AC08E01DB
:100B80000F5E1F4F9E012F5F3F4FAE01435F5F4FD0
:100B9000BE01615F7F4F8091090390910A030E941B
:100BA000C92482E580935A0382E480935B03D501D4
:100BB00013968C9180935D03D0925E03D0925F0375
:100BC0008F85988990936003809361038D859E85BE
:100BD000909362038093630389819A819093640365
:100BE0008093650389899A8990936603809367034C
:100BF0008FE080935C03EAE5F3E080E09191890F58
:100C0000B3E0E836FB07D1F7809368038FE00C94DC
:100C1000E10EE2E0DE120C940A0F6090090370907E
:100C20000A0366E0962EC12CD12CA12CB12C8E018A
:100C30000F5F1F4F9E01235F3F4FAE01415F5F4F2C
:100C4000BE016F5E7F4FC3010E94C92489819A81D2
:100C5000A816B90608F45C01C80ED91E9A94911022
:100C6000E6CFCA18DB08C6019695879596958795B5
:100C70009A83898392E590935A0392E490935B035D
:100C800098EC9E9DF0019F9DF00D1124E25AFE4FBD
:100C9000938190935D0391E090935E0392E0909333
:100CA0005F039D2D969596959093600380936103C5
:100CB00089E080935C03EAE5F3E080E09191890F9D
:100CC00023E0E236F207D1F7C4C488EC8E9D8001A0
:100CD0008F9D100D1124025A1E4FD80115968C912C
:100CE0000E94EA1A0E9711F00C940A0FE091070384
:100CF000F09108033097A9F4F80185810E94EA1A5F
:100D00000E9709F03FC084E490E00E948A386C019D
:100D1000D80115966C910E94872081E0F6018583A9
:100D200024C0D80115968C91228130E0482F082EDE
:100D3000000C550B2417350729F10E94EA1A0E976B
:100D400009F580910703909108030E94223984E4F9
:100D500090E00E948A386C01F80165810E9487202A
:100D600081E0D60115968C93F601EE5BFF4F88E685
:100D700090E091838083D0920803C0920703C6015C
:100D80000E9444320091070310910803A8014C5CB3
:100D90005F4F2EE06BE3C8010E94E323F80124A813
:100DA00035A832242324322433A222A2A6A8B7A82D
:100DB000BA24AB24BA24B5A2A4A2C0ACD1ACDC2422
:100DC000CD24DC24D7A2C6A24680578060847184DB
:100DD00064AD75AD762767277627072E000C880B44
:100DE000990B0E945636D80198962D913D914D91C0
:100DF0005C919B970E94C834A30192010E94AC357C
:100E0000F801668B778B808F918F66AD77AD7627F3
:100E100067277627072E000C880B990B0E94563601
:100E2000D8019C962D913D914D915C919F970E9488
:100E3000C834A30192010E94AC35F801628F738F10
:100E4000848F958FE05CFF4F6081718176276727E3
:100E50007627072E000C880B990B0E945636D80176
:100E6000D0962D913D914D915C91D3970E94C834BD
:100E7000A30192010E94AC35F801668F778F80A3A1
:100E800091A3B501BB0C880B990B0E9456364B0100
:100E90005C01B601DD0C880B990B0E9456369B0154
:100EA000AC010E9492376B8B7C8B8D8B9E8BA50146
:100EB0009401C501B4010E9492372B893C894D8968
:100EC0005E890E94C9340E9405386F8B788F898FA4
:100ED0009A8FB101330C880B990B0E9456362B0167
:100EE0003C012F89388D498D5A8D0E94483520E06C
:100EF00030E044E353E40E9492372AED3FE049E4B6
:100F000050E40E94AC356F8B788F898F9A8FA30144
:100F10009201C301B2010E9492372B893C894D890D
:100F20005E890E94C9340E9405389B01AC01C5014D
:100F3000B4010E94483520E030E044E353E40E94CD
:100F400092372AED3FE049E450E40E94AC356B8BC8
:100F50007C8B8D8B9E8B0E94CC2580905401909031
:100F60005501A0905601B0905701681979098A0976
:100F70009B090E94543620E030E04AE754E40E9486
:100F8000AC354B015C010E94CC25609354017093F9
:100F900055018093560190935701D80196968D91F3
:100FA0009C91979718161906ACF55A962D913D917C
:100FB0004D915C915D97C501B4010E9492379B01F0
:100FC000AC01F80162857385848595850E94C834DB
:100FD000D8011A966D937D938D939C931D97569689
:100FE0002D913D914D915C915997C501B4010E949D
:100FF00092379B01AC01F8016685778580899189DC
:101000000E94C934D8011E966D937D938D939C9355
:10101000519731C0F801228D338D448D558DC50116
:10102000B4010E9492379B01AC01D8011A966D91D0
:101030007D918D919C911D970E94C934F801628722
:1010400073878487958726893789408D518DC5019F
:10105000B4010E9492379B01AC01D8011E966D919C
:101060007D918D919C9151970E94C834F8016687BB
:101070007787808B918BD8015E962D913D914D9114
:101080005C919197C501B4010E949237F8012289C1
:101090003389448955890E94C9342B013C0120E0E1
:1010A00030E044EB53E40E94AC350E94913620E0DE
:1010B00030E044EB53E40E9492379B01AC01C30142
:1010C000B2010E94C834D80152966D937D938D93DE
:1010D0009C93559720E030E040E05FE3C501B40108
:1010E0000E94C9349B01AC0160E070E080E09FE3A6
:1010F0000E94AC354B015C019B01AC0160E070E0EB
:1011000080E89FE30E94C8342B013C01F80122854E
:10111000338544855585C501B4010E9492376B8F94
:101120007C8F8D8F9E8FA30192016F89788D898D21
:101130009A8D0E9492379B01AC016B8D7C8D8D8DB9
:101140009E8D0E94C934D8011A966D937D938D931C
:101150009C931D971E962D913D914D915C915197B9
:10116000C501B4010E9492374B015C01A3019201B9
:101170006B897C898D899E890E9492379B01AC0185
:10118000C501B4010E94C934F80166877787808B56
:10119000918B82E580935A0382E480935B031092E3
:1011A0005C0388EC8E9DF0018F9DF00D1124E25AB6
:1011B000FE4F838180935D0381E080935E0386818F
:1011C00080935F03813009F094C000910703109170
:1011D0000803F80182859385A485B585BC01CD01FE
:1011E000905820E030E048EC52E40E9492370E9490
:1011F0001E364B015C01F80186859785A089B1896F
:10120000BC01CD01905820E030E048EC52E40E944F
:1012100092370E941E366B017C0120E030E048ECE2
:1012200052E4D80152966D917D918D919C91559784
:101230000E9492370E941E369401181419041A0451
:101240001B044CF097FE04C02227332728193909C4
:101250001092600309C097FE04C022273327281983
:10126000390941E0409360034901330FAA08BB08E4
:10127000909261032093620396011C141D041E04C6
:101280001F044CF0D7FE04C0222733272C193D0938
:101290001092630309C0D7FE04C0222733272C19FC
:1012A0003D0941E0409363036901330FEE08FF08F5
:1012B000D09264032093650397FD08C021E020933A
:1012C0006603709367036093680311C09B0177FF07
:1012D00004C022273327261B370B10926603C9014F
:1012E000330FAA0BBB0B9093670320936803EFE0C7
:1012F00001C0E6E081E08E0F80935C03AAE5B3E0D5
:1013000020E090E03D91930F2F5FE213FBCFF0E0E0
:10131000E65AFC4F908355C580915C0190915D0128
:10132000009779F488E090E00E948A388C0188EC7C
:101330008E9DF0018F9DF00D1124E25AFE4F6581C4
:101340001FC0DC0112964C9150E068EC6E9D90013C
:101350006F9D300D1124F901E25AFE4F6F01258176
:10136000022E000C330B42175307B1F00E942239B2
:1013700088E090E00E948A388C01D60115966C9125
:10138000C8010E94872081E0F801858317821682B8
:1013900010935D0100935C0182E580935A0382E41F
:1013A00080935B0310925C0388EC8E9DF0018F9D0F
:1013B000F00D1124E25AFE4F838180935D0381E09A
:1013C00080935E0380915C0190915D010E942220D8
:1013D00090935F0380915C0190915D010E942220B7
:1013E0008093600388E080935C03EAE5F3E021E604
:1013F00033E080E09191890F2E173F07D9F71FC482
:101400008091030390910403009771F489E090E0C8
:101410000E948A386C0188EC8E9DF0018F9DF00D42
:101420001124E25AFE4F1CC0FC01428150E028EC1E
:101430002E9D80012F9D100D1124025A1E4FD801A0
:1014400015962C91022E000C330B42175307F9F01E
:101450000E94223989E090E00E948A386C01F801EC
:101460001581612FC6010E94D421E12FF0E0EE0F1B
:10147000FF1FE35EFE4F8081D60115968C93159772
:10148000818114968C93D0920403C092030388EC5C
:101490008E9DF0018F9DF00D1124E25AFE4F868142
:1014A0000091030310910403813019F4F801648161
:1014B00005C0823031F4D80115966C91C8010E94A4
:1014C000D61D6801B6E0CB0ED11CC6010E940422D5
:1014D000882309F487C46CECC6010E94EB1564E410
:1014E000C6010E94EB150E94CC252B013C0133E282
:1014F000A32EB12CF80126810780F085E02D918183
:10150000822F809598239183C5010197F1F78081FF
:10151000822309F459C4C6010E9404226CECC6015E
:101520000E94EB156EEBC6010E94EB15FE01319691
:101530002F016E01F6E0CF0ED11C67E070E043E2B0
:1015400050E08FECA82EB12C88E090E0812C77241D
:101550007394D80116966C9016971796ED91FC919E
:101560001897F8942181262921832281962C909422
:1015700029212283DB011197F1F7218192229182A7
:10158000DA011197F1F720817894F5013197F1F79D
:10159000622209F08728770C0197D9F6F20181922F
:1015A0002F01EC15FD0581F669817A81072E000C6B
:1015B000880B990B0E94563620E030E040E85DE34E
:1015C0000E94923720E030E048EC52E40E949237CB
:1015D0004B015C0182E580935A0382E480935B03B4
:1015E00088EC8E9DF0018F9DF00D1124E25AFE4F84
:1015F000838180935D0381E080935E0320E030E08F
:10160000A901C501B4010E94853787FD04C081E0AE
:1016100080935F0302C010925F03C501B4010E9472
:101620001E369B0177FF04C022273327261B370B6A
:10163000309360032093610389E080935C03EAE5C3
:10164000F3E022E633E080E09191890F2E173F0707
:10165000D9F78093620389E0B4C38091010390912C
:101660000203009771F485E090E00E948A386C01D3
:1016700088EC8E9DF0018F9DF00D1124E25AFE4FF3
:101680001CC0FC01428150E028EC2E9D80012F9D62
:10169000100D1124025A1E4FD80115962C91022EBE
:1016A000000C330B42175307F9F00E94223985E0F2
:1016B00090E00E948A386C01F8011581612FC60103
:1016C0000E94D421E12FF0E0EE0FFF1FE35EFE4FFA
:1016D0008181D60113968C931397808114968C93F5
:1016E000D0920203C0920103009101031091020302
:1016F00060E0F80183810E946B17D80113968C91EA
:101700000E9461199C01205D3240121613064CF4B0
:101710004BE0429FC001439F900D112466E070E0B2
:1017200008C047E0429FC001439F900D11246AE02A
:1017300070E00E945C380091580110915901060F29
:10174000171F013EB1E01B0764F40032EEEF1E07E5
:101750005CF0C801C1968336910540F400E010E0CA
:1017600005C000EE11E002C000E21EEFC0900103D0
:10177000D090020360E0D60114968C910E946B1702
:10178000F60184810E9461199C01205D324012168D
:1017900013064CF445EF4203C001439F900D112402
:1017A00066E070E008C049EF4203C001439F900D1E
:1017B00011246AE070E00E945C3880915A01909197
:1017C0005B01680F791F613EF1E07F0764F46032CE
:1017D0002EEF72075CF0CB01C1968336910540F481
:1017E00060E070E005C060EE71E002C060E27EEF94
:1017F00082E580935A0382E480935B0388EC8E9D9C
:10180000F0018F9DF00D1124E25AFE4F83818093E9
:101810005D0381E080935E0317FD82E080935F03A8
:1018200017FF03C0119501951109109360030093F0
:10183000610377FD02C081E001C082E08093620312
:1018400077FF03C07195619571097093630360938D
:1018500064038CE080935C03EAE5F3E080E091911F
:10186000890F33E0E536F307D1F7A8C28091FF0274
:1018700090910003009771F485E090E00E948A380F
:101880006C0188EC8E9DF0018F9DF00D1124E25AC1
:10189000FE4F1CC0FC01428150E028EC2E9D8001CF
:1018A0002F9D100D1124025A1E4FD80115962C9110
:1018B000022E000C330B42175307F9F00E94223915
:1018C00085E090E00E948A386C01F8011581612F53
:1018D000C6010E94D421E12FF0E0EE0FFF1FE35E6E
:1018E000FE4F8081D60113968C93139781811496B5
:1018F0008C93D0920003C092FF0282E580935A033A
:1019000082E480935B0310925C0388EC8E9DF0016F
:101910008F9DF00D1124E25AFE4F838180935D0369
:1019200081E080935E030091FF021091000360E06C
:10193000F80184810E946B17D80114968C910E9443
:1019400061190FEF13E0F801E81BF90BCF01909339
:101950005F03E090FF02F090000360E0D70114966F
:101960008C910E946B17F70184810E946119081BFA
:10197000190B0093600388E080935C03EAE5F3E0D1
:1019800080E09191890F23E0E136F207D1F757C14A
:101990008091FD029091FE020097B1F484E090E006
:1019A0000E948A388C0188EC8E9DF0018F9DF00D8D
:1019B0001124E25AFE4F6581C8010E942A1E10932D
:1019C000FE020093FD0224C0DC0112964C9150E00F
:1019D00028EC2E9D80012F9D100D1124025A1E4FC0
:1019E000F8012581022E000C330B4217530781F0BA
:1019F0000E94223984E090E00E948A386C01D8016C
:101A000015966C910E942A1ED092FE02C092FD0291
:101A100082E580935A0382E480935B0310925C0317
:101A200088EC8E9DF0018F9DF00D1124E25AFE4F3F
:101A3000838180935D0381E080935E038091FD024A
:101A40009091FE020E942B2390935F038091FD02F0
:101A50009091FE020E942B238093600388E0809384
:101A60005C03EAE5F3E080E09191890FB3E0E136B1
:101A7000FB07D1F7E4C08091FB029091FC02009734
:101A8000B1F484E090E00E948A388C0188EC8E9D4D
:101A9000F0018F9DF00D1124E25AFE4F6581C801BF
:101AA0000E942A1E1093FC020093FB0223C0FC013B
:101AB000428150E028EC2E9D80012F9D100D1124B5
:101AC000025A1E4FD80115962C91022E000C330B92
:101AD0004217530779F00E94223984E090E00E9477
:101AE0008A386C01F80165810E942A1ED092FC029E
:101AF000C092FB0282E580935A0382E480935B03E9
:101B000010925C0388EC8E9DF0018F9DF00D1124E6
:101B1000E25AFE4F838180935D0381E080935E03F0
:101B20008091FB029091FC020E94F21D90935F0352
:101B30008091FB029091FC020E94F21D8093600351
:101B400088E080935C03EAE5F3E080E09191890FFF
:101B500023E0E136F207D1F772C08091F90290914B
:101B6000FA020097B1F484E090E00E948A388C0178
:101B700088EC8E9DF0018F9DF00D1124E25AFE4FEE
:101B80006581C8010E942A1E1093FA020093F9028F
:101B900024C0DC0112964C9150E028EC2E9D80016F
:101BA0002F9D100D1124025A1E4FF8012581022E7F
:101BB000000C330B4217530781F00E94223984E056
:101BC00090E00E948A386C01D80115966C910E94B1
:101BD0002A1ED092FA02C092F90282E580935A033B
:101BE00082E480935B0310925C0388EC8E9DF0018D
:101BF0008F9DF00D1124E25AFE4F838180935D0387
:101C000081E080935E038091F9029091FA020E9434
:101C1000F21D90935F038091F9029091FA020E9465
:101C2000F21D8093600388E080935C03EAE5F3E0B3
:101C300080E09191890FB3E0E136FB07D1F7809303
:101C4000610388E0BEC08091F5029091F602009792
:101C500079F487E090E00E948A388C0188EC8E9DB0
:101C6000F0018F9DF00D1124E25AFE4F65811FC0D7
:101C7000DC0112964C9150E068EC6E9D90016F9DD6
:101C8000300D1124F901E25AFE4F6F012581022E19
:101C9000000C330B42175307A9F00E94223987E04A
:101CA00090E00E948A388C01D60115966C91C8018B
:101CB0000E94872081E0F801858316821093F60246
:101CC0000093F5020091F5021091F60260E7C80159
:101CD0000E940D2060EBC8010E94AD1FC8010E9448
:101CE0003E1EC8010E94C41F61EEC8010E945B1F16
:101CF000C8010E94C51EC8010E940E1FB82E60E0D8
:101D0000C8010E94831EC8010E940E1FD82E60E0E9
:101D1000C8010E94831EC8010E940E1FC82E61E0E8
:101D2000C8010E94831EC8010E943E1EFAEABF122B
:101D300007C02BEBC21204C0D8011696DC9201C07A
:101D4000D12C82E580935A0382E480935B0388EC74
:101D50008E9DF0018F9DF00D1124E25AFE4F83817C
:101D600080935D0381E080935E03D5FA882780F934
:101D700080935F03D4FA882780F980936003D3FAB5
:101D8000882780F980936103D2FA882780F98093AD
:101D90006203D1FA882780F9809363038D2D8170C7
:101DA000809364038CE080935C03EAE5F3E080E0D9
:101DB0009191890FB3E0E536FB07D1F78093650376
:101DC0008CE00E94D81526C00E94CC25DC01CB01F6
:101DD00084199509A609B70981399140A105B10572
:101DE00008F488CB82E580935A0382E480935B03F6
:101DF00088EC8E9DF0018F9DF00D1124E25AFE4F6C
:101E0000838180935D0381E080935E03812C912C1C
:101E10005401FDCB6E960FB6F894DEBF0FBECDBF5A
:101E2000DF91CF911F910F91FF90EF90DF90CF90B6
:101E3000BF90AF909F908F907F906F905F904F90EA
:101E40003F902F900895AF92BF92CF92DF92EF9282
:101E5000FF920F931F93CF93DF93CDB7DEB76497B5
:101E60000FB6F894DEBF0FBECDBFE82EF12C28ECE4
:101E7000829FF0011124E25AFE4FE4818E2FEE0F73
:101E8000990BAA0BBB0BFC013197E032F10508F06E
:101E900023C6E25AFF4F0C94703882E580935A03B0
:101EA00082E480935B0388E080935C0388EC8E9DE2
:101EB000F0018F9DF00D1124E25AFE4F8381809333
:101EC0005D0382E080935E0381E080935F038CE09A
:101ED00080936003EAE5F3E021E633E080E091914E
:101EE000890F2E173F07D9F78093610388E0C1C59A
:101EF00082E580935A0382E480935B0310925C0333
:101F000088EC8E9DF0018F9DF00D1124E25AFE4F5A
:101F1000838180935D038581823059F024F4813080
:101F200089F481E009C0833031F0843059F484E0D1
:101F300003C082E001C083E00E94EA1A80935E033E
:101F4000E5E001C0E4E081E08E0F80935C03AAE548
:101F5000B3E020E090E03D91930F2F5FE213FBCFC1
:101F6000F0E0E65AFC4F908384C582E580935A03E3
:101F700082E480935B0388EC8E9DF0018F9DF00DD1
:101F80001124E25AFE4F838180935D0381E08093A8
:101F90005E0380935F0387E080935C03EAE5F3E0F0
:101FA00080E09191890F93E0E036F907D1F78093B3
:101FB000600387E05EC582E580935A0382E48093E4
:101FC0005B0310925C0388EC8E9DF0018F9DF00DF9
:101FD0001124E25AFE4F838180935D0381E00E94C9
:101FE000EA1A80935E0382E00E94EA1A80935F03FC
:101FF00083E00E94EA1A8093600384E00E94EA1A58
:102000008093610310926203109263031092640341
:10201000109265038DE080935C03EAE5F3E080E0D5
:102020009191890FA3E0E636FA07D1F78093660312
:102030008DE01FC588EC8E9DF0018F9DF00D112461
:10204000E25AFE4F85818C3F99F0882341F08B3F07
:1020500009F0E9C400852781468161E00DC0008553
:102060002781468160E08EE193E00E947A2108C0DA
:1020700000852781468160E08EE193E00E94572130
:102080008EE193E0E3C388EC8E9D80018F9D100D5F
:102090001124025A1E4FF80185818F3F49F1882390
:1020A00069F08E3F09F0BFC4F8016681062E000C6E
:1020B000770B880B990B0E942018B5C42781022E3C
:1020C000000C330B440B550B6681062E000C770B6E
:1020D000880B990B0E945119F80186818111A3C4C4
:1020E00087818111A0C410921B0310922F039BC4FF
:1020F0006681062E000C770B880B990B0E94E61860
:1021000092C488EC8E9D80018F9D100D1124025A7F
:102110001E4FD80115968C910E94EA1A029709F079
:1021200082C480911C0390911D03009741F480E1CB
:1021300090E00E948A386C01F801658116C0DC01CC
:1021400012964C9150E0F8012581022E000C330BC1
:102150004217530789F00E94223980E190E00E94E3
:102160008A386C01D80115966C91C6010E94A32093
:10217000D0921D03C0921C0388EC8E9DF0018F9DB0
:10218000F00D1124E25AFE4F20854781668180912F
:102190001C0390911D030E94EF1645C488EC8E9D90
:1021A000F0018F9DF00D1124E25AFE4F8581893F89
:1021B00009F039C48681882321F081E08093EF0201
:1021C00032C41092EF022FC488EC8E9DF0018F9DD7
:1021D000F00D1124E25AFE4F8681882329F08130C8
:1021E00029F48093300302C0109230031092F10260
:1021F0001092F2021092F3021092F4021092F00286
:1022000012C488EC8E9DF0018F9DF00D1124E25ACE
:10221000FE4F85818A3F09F006C4408550E0542F67
:1022200044278185482B60E070E0868190E0982FFC
:1022300088272781822B0E94B1170E94A717F3C31A
:1022400088EC8E9D80018F9D100D1124025A1E4F27
:10225000F80185810E94EA1A039709F01CC4809155
:10226000170390911803009749F486E090E00E94CC
:102270008A386C01D80115966C9115C0FC01428119
:1022800050E0D80115962C91022E000C330B42170A
:10229000530781F00E94223986E090E00E948A383C
:1022A0006C01F8016581C6010E94BC23D09218031D
:1022B000C0921703009117031091180388EC8E9DAC
:1022C000F0018F9DF00D1124EC59FE4F63E18081E8
:1022D00090E0982F88272181822BAC014A7A5A7A84
:1022E0005695479585759575880F991F482B592BDD
:1022F0009A012C7C3C7C369527953695279543731F
:102300005373440F551F440F551F242B352BC90100
:10231000807F907F44E0969587954A95E1F72F70EE
:102320003F7054E0220F331F5A95E1F7822B932B15
:10233000982789279827880F991F880F991F2FEFB3
:10234000260FA1E0B0E0AC0FBD1FA60FB11D8C930E
:102350006250A1E0B0E0AC0FBD1FA20FB11D9C9375
:1023600032966F3F09F0B3CFC8010E94C41F67EED9
:10237000C8010E94AD1F60E0C8010E94AD1FCE01E0
:1023800001965C016E0195E1C90ED11CD5019D91AC
:102390005D01892F8C7C682F669566959373B4E0F8
:1023A0009B9FC0011124862B682F6A7A66958575DC
:1023B000880F682BC8010E94AD1FCA14DB0431F7D7
:1023C000C8010E943E1E2FC388EC8E9DF0018F9D98
:1023D000F00D1124E25AFE4F858180931B03868104
:1023E00080932F03808580932A031DC388EC8E9DE4
:1023F00080018F9D100D1124025A1E4FF801858116
:102400000E94EA1A059709F046C380912D03909126
:102410002E03009749F485E090E00E948A386C0111
:10242000D80115966C9115C0FC01428150E0D8018D
:1024300015962C91022E000C330B42175307B1F066
:102440000E94223985E090E00E948A386C01F801F0
:102450006581C6010E940421D0922E03C0922D03F3
:1024600083EA8093B00087E08093B10088EC8E9D72
:10247000F0018F9DF00D1124E25AFE4F86818130CC
:1024800069F0823099F08111CEC2408567818091D8
:102490002D0390912E030E94F620C5C26781809182
:1024A0002D0390912E030E94D720BDC26781809199
:1024B0002D0390912E030E94B820B5C288EC8E9D0A
:1024C00080018F9D100D1124025A1E4FD8011596C0
:1024D0008C910E94EA1A099709F0DDC280910F03DE
:1024E00090911003009771F0FC01428150E0D801F7
:1024F00015962C91022E000C330B4217530791F0C6
:102500000E94223986E090E00E948A386C01F8012E
:1025100065810E948720D60115961C92D0921003E7
:10252000C0920F0388EC8E9DF0018F9DF00D112459
:10253000E25AFE4F86818130F1F0823061F18111E3
:1025400072C2278180910F039091100327FF06C06C
:10255000332721950CF4309541E001C040E061E063
:102560000E94CB1688EC8E9DF0018F9DF00D1124FA
:10257000E25AFE4F10C0278180910F039091100303
:1025800027FF06C0332721950CF4309541E001C0A8
:1025900040E061E00FC0208580910F03909110030F
:1025A00027FF06C0332721950CF4309541E001C088
:1025B00040E062E00E94CB1636C288EC8E9D80011E
:1025C0008F9D100D1124025A1E4FF80185810E9423
:1025D000EA1A0B9709F05FC2C0900B03D0900C036E
:1025E000C114D10449F483E290E00E948A386C015E
:1025F000D80115966C911DC0F60121A130E0D801DB
:1026000015968C91082E000C990B28173907C1F0EC
:102610008FE091E091838083C6010E945C1DC6011A
:102620000E94223983E290E00E948A386C01F8010E
:102630006581C6010E943B22D0920C03C0920B031D
:10264000C0900B03D0900C0388EC8E9DF0018F9D01
:10265000F00D1124E25AFE4F1681D60192968C910C
:10266000929790E0212F012E000C330B82179307D5
:1026700049F192961C938AEA8093460382E0809304
:10268000470381E0809348031093490386E581273F
:1026900080934A0396E4A92E93E0B92EF501619147
:1026A0005F01C6010E94561CFBE4AF16F3E0BF06B3
:1026B000A9F7D60192961C9362E370E080E090E067
:1026C0000E94B01A88EC8E9DF0018F9DF00D1124B0
:1026D000E25AFE4F2085878100910B0310910C0375
:1026E0009AEA909346038093470391E090934803BE
:1026F000209349039BEA89278227809580934A0388
:1027000086E4C82E83E0D82EF60161916F01C801DE
:102710000E94561CFBE4CF16F3E0DF06A9F762E344
:1027200070E080E090E00E94B01A80910B039091DD
:102730000C030E945C1D00910B0310910C0301150A
:10274000110559F08FE091E0D8018D939C93C80159
:102750000E945C1DC8010E94223910920C03109245
:102760000B0388EC8E9D80018F9D100D1124025A61
:102770001E4FD8011596EC91EE0FFF0BE35EFE4F56
:1027800060E080810E946B17D8011596EC91EE0FE6
:10279000FF0BE35EFE4F60E081810E946B1743C137
:1027A00088EC8E9D80018F9D100D1124025A1E4FC2
:1027B000F80185810E94EA1A439709F06CC1C09024
:1027C0002B03D0902C03C114D10449F48CE090E089
:1027D0000E948A386C01D80115966C911AC0F601D6
:1027E000228130E0D80115968C91082E000C990BAF
:1027F00028173907A9F0828593850E942239C601DE
:102800000E9422398CE090E00E948A386C01F80125
:102810006581C6010E94A821D0922C03C0922B038F
:1028200088EC8E9DF0018F9DF00D1124E25AFE4F31
:10283000018520854781668180912B0390912C032F
:102840000E947A2180912B0390912C030E942421D5
:10285000EAC088EC8E9D80018F9D100D1124025AD4
:102860001E4FD80115968C910E94EA1A429709F0E2
:1028700012C18091050390910603009771F0FC014D
:10288000428150E0D80115962C91022E000C330B9A
:1028900042175307A9F00E94223986E090E00E9477
:1028A0008A386C01F80165810E948720D60115964F
:1028B0001C92D0920603C0920503C6010E94B61670
:1028C00088EC8E9D80018F9D100D1124025A1E4FA1
:1028D000F801468161E080910503909106030E9412
:1028E0003F24D80117964C9162E0809105039091A6
:1028F00006030E943F24F801408563E080910503B0
:10290000909106030E943F24D80119964C9164E0EF
:1029100080910503909106030E943F2484C088ECB7
:102920008E9D80018F9D100D1124025A1E4FF801BB
:1029300085810E94EA1A499709F0ADC08091F7029B
:102940009091F8020097C1F485E090E00E948A38E7
:102950006C01D80115966C910E940421D092F80266
:10296000C092F70261E0F60183810E946B1761E07B
:10297000D60114968C9124C0FC01428150E0D8010C
:1029800015962C91022E000C330B42175307D1F0F1
:102990000E94223985E090E00E948A386C01F8019B
:1029A00065810E940421D092F802C092F70261E092
:1029B000D60113968C910E946B1761E0F601848119
:1029C0000E946B170091F7021091F80288EC8E9D1F
:1029D000F0018F9DF00D1124E25AFE4FC680C09485
:1029E0008781D12C61E081110FC0D80113968C91A1
:1029F0000E946B1760E0F80184810E946B17B6019A
:102A0000D80113968C910DC0F80184810E946B1738
:102A100060E0D80113968C910E946B17B601F80103
:102A200084810E94871882E580935A0382E4809310
:102A30005B0388EC8E9DF0018F9DF00D1124E25A0E
:102A4000FE4F938190935D0381E080935E0386E067
:102A500080935C03EAE5F3E02FE533E080E0419109
:102A6000840F2E173F07D9F780935F039923A1F1B5
:102A700086E064960FB6F894DEBF0FBECDBFDF913F
:102A8000CF911F910F91FF90EF90DF90CF90BF906B
:102A9000AF900C94D81582E580935A0382E480931A
:102AA0005B0388EC8E9DF0018F9DF00D1124E25A9E
:102AB000FE4F938190935D0310925E0386E08093B6
:102AC0005C03EAE5F3E02FE533E080E04191840F19
:102AD0002E173F07D9F7C8CF64960FB6F894DEBF1C
:102AE0000FBECDBFDF91CF911F910F91FF90EF905F
:102AF000DF90CF90BF90AF900895833081F028F49D
:102B0000813099F08230A1F008958730A9F08830A3
:102B1000B9F08430D1F4809180008F7D03C0809122
:102B200080008F7780938000089584B58F7702C0EE
:102B300084B58F7D84BD08958091B0008F7703C0E8
:102B40008091B0008F7D8093B0000895CF93DF9384
:102B5000EC01862F90E09987888723E0629FC0016F
:102B600011240E948A389B878A87892B21F488E365
:102B700091E00E94B03980E090E028853985A90174
:102B8000440F551F240F351F8217930738F4EA8529
:102B9000FB85E80FF91F10820196EFCFDF91CF91EF
:102BA00008959091C00095FFFCCF8093C6000895D2
:102BB0000F931F93CF93C82F0AE513E0CC2339F06E
:102BC000F80181918F010E94D115C150F7CFCF91AB
:102BD0001F910F910895AF92BF92CF92DF92EF9223
:102BE000FF920F931F93CF93DF93DC0128E030E037
:102BF00091E0AA24AA94B12C0FE010E043E2E42E65
:102C0000F12C57EDC52ED12C8C911196ED91FC91A4
:102C10001297482F4095562F592381F0F8945281EE
:102C2000452342834181482B4183E7012197F1F7F6
:102C30004281842B82837894F6010FC0F8945281EC
:102C4000452342834181482B4183E5012197F1F7D8
:102C50004281842B82837894F8013197F1F7990FA0
:102C60002150310989F6F8941196ED91FC91129753
:102C700091818C918095892381831196ED91FC91AE
:102C8000129792818C918095892382837894DF9129
:102C9000CF911F910F91FF90EF90DF90CF90BF9059
:102CA000AF9008950F931F93CF93DF93EC01162FEE
:102CB0000E94C41F62E5CE010E945B1FCE010E94EC
:102CC000C51E612F6068CE010E945B1FCE010E946D
:102CD000C51ECE010E94C41F63E5CE010E945B1F8A
:102CE000CE010E94C51ECE010E940E1F182F60E06B
:102CF000CE010E94831ECE010E940E1F082F61E0AC
:102D0000CE010E94831ECE010E943E1E812F90E0C4
:102D1000902BDF91CF911F910F9108950F931F93E7
:102D2000CF93DF93EC01162F042F0E94C41F62E59E
:102D3000CE010E945B1FCE010E94C51E612F6068FC
:102D4000CE010E945B1FCE010E94C51E602FCE01E6
:102D50000E945B1FCE010E94C51ECE010E943E1E36
:102D6000802FDF91CF911F910F910895CF93DF9323
:102D7000EC010E94C41F68E4CE010E945B1FCE01DB
:102D80000E94C51E61E3CE010E945B1FCE01DF9150
:102D9000CF910C943E1EFF920F931F93CF93DF931E
:102DA000EC01F62E042F122F60E50E940D2063EA3D
:102DB000CE010E94AD1F6F2DCE010E94AD1F602F6E
:102DC000CE010E94AD1F612FCE010E94AD1FCE012A
:102DD000DF91CF911F910F91FF900C943E1EFF92B7
:102DE0000F931F93CF93DF93EC01F62E042F122F36
:102DF00060E40E940D2061EACE010E94AD1F6F2D9C
:102E0000CE010E94AD1F602FCE010E94AD1F612F29
:102E1000CE010E94AD1FCE01DF91CF911F910F9186
:102E2000FF900C943E1ECF93DF93282F30E0F901E2
:102E3000E25CFE4F8491F901E059FE4FD491F90113
:102E4000E45AFE4FC491CC2391F081110E947D156C
:102E5000EC2FF0E0EE0FFF1FEE5AFE4FA591B4915C
:102E6000EC91ED2381E090E021F480E002C080E06D
:102E700090E0DF91CF9108951F93CF93DF93282F98
:102E800030E0F901E25CFE4F8491F901E059FE4F18
:102E9000D491F901E45AFE4FC491CC23C1F0162F0E
:102EA00081110E947D15EC2FF0E0EE0FFF1FEC5C0E
:102EB000FE4FA591B4919FB7F894111104C08C9165
:102EC000D095D82302C0EC91DE2BDC939FBFDF911D
:102ED000CF911F910895CF93DF9390E0FC01E059CB
:102EE000FE4F2491FC01E45AFE4F8491882361F146
:102EF00090E0880F991FFC01E65DFE4FC591D491CB
:102F0000FC01EC5CFE4FA591B491611109C09FB723
:102F1000F8948881209582238883EC912E230BC01E
:102F2000623061F49FB7F8948881322F3095832303
:102F30008883EC912E2B2C939FBF06C08FB7F894FB
:102F4000E8812E2B28838FBFDF91CF91089561E018
:102F5000809158030E946B1760E0809158030C9495
:102F60003C174F925F926F927F928F929F92AF9297
:102F7000BF92CF92DF92EF92FF920F931F93CF9366
:102F8000DF934A015B019C0140E050E060E472E4A1
:102F90008FE090E00E94653469017A0161E08091E0
:102FA00058030E946B17A8EEB3E0A50194010E949C
:102FB00084342B013C01E601D7FC2196D595C795B9
:102FC0008E01000F111F000F111F055011090D2C4C
:102FD000000CEE08FF08812C912C540184149504F8
:102FE000A604B704E0F461E0809158030E943C1706
:102FF000C230D10518F0C8010197F1F760E0809167
:1030000058030E943C17C230D10518F0C80101973F
:10301000F1F7A8958C0C9D1CAE1CBF1CDFCFDF9177
:10302000CF911F910F91FF90EF90DF90CF90BF90C5
:10303000AF909F908F907F906F905F904F9008958A
:10304000CF92DF92EF92FF926C392FEF72078207D7
:10305000920784F19B01AC016536710581059105EC
:1030600024F024E630E040E050E057FD27C0AFEF09
:10307000B0E00E94843424E630E040E050E00E945A
:10308000653469017A01232B242B252B11F460E090
:1030900001C061E089E00E946B1760E08AE00E9455
:1030A0006B17D0928900C092880010928B0010920A
:1030B0008A0028C02CE93FEF4FEF5FEFA1E0BFEFA0
:1030C0000E94923424E630E040E050E00E946534F3
:1030D00069017A0161E08AE00E946B1760E089E093
:1030E0000E946B17D0928B00C0928A0010928900C8
:1030F00010928800C0925003D0925103E092520384
:10310000F0925303FF90EF90DF90CF9008951F93BC
:10311000CF93DF93182FEB0161E00E946B1720978C
:1031200011F460E004C0CF3FD10539F461E0812F94
:10313000DF91CF911F910C943C17E12FF0E0E25CFE
:10314000FE4FE491E330F9F048F4E130B9F0E230B9
:10315000A1F584B5806284BDC8BD34C0E730E9F014
:10316000E83019F1E43049F5809180008062809365
:103170008000D0938B00C0938A0024C084B58068FF
:1031800084BDC7BD1FC0809180008068809380008F
:10319000D0938900C093880015C08091B0008068EA
:1031A0008093B000C093B3000DC08091B0008062E6
:1031B0008093B000C093B40005C0C038D1050CF0B6
:1031C000B5CFAFCFDF91CF911F910895CF92DF920E
:1031D000EF92FF920F931F93CF93DF936C392FEFF2
:1031E0007207820792070CF43FC09B01AC01653661
:1031F00071058105910524F024E630E040E050E0BF
:1032000057FD36C0AFEFB0E00E94843424E630E0D2
:1032100040E050E00E94653469017A01D22FCD2D43
:103220008701232B242B252B11F460E001C061E0E2
:1032300086E00E946B1760E085E00E946B17B60184
:1032400086E00E948718D0935403C09355030093DF
:10325000560310935703DF91CF911F910F91FF9069
:10326000EF90DF90CF9008952CE93FEF4FEF5FEFA5
:10327000A1E0BFEF0E94923424E630E040E050E04D
:103280000E946534D22FC32F8A0161E085E00E943D
:103290006B1760E086E00E946B176D2F7C2F85E036
:1032A000D0CFCF92DF92EF92FF9269017A010E9414
:1032B000E618C701B601FF90EF90DF90CF900C9415
:1032C00020188E3008F08E508770806480937C00C8
:1032D00080917A00806480937A0080917A0086FDE4
:1032E000FCCF809178002091790090E0922B089596
:1032F000BF92CF92DF92EF92FF920F931F93CF93E3
:10330000DF933AE0B32EC12CD12C7601CFEFD3E07E
:1033100000E010E084E10E9461190817190708F421
:103320008C018C179D0708F4EC01C80ED91EE11C16
:10333000F11CBA94B110EECFD701C601801B910BDE
:10334000A109B1098C1B9D0BA109B10923E0B69518
:10335000A795979587952A95D1F7883F23E09207FF
:10336000A105B10508F0A8C08F3D23E09207A10593
:10337000B10508F0A4C08B3C23E09207A105B1057C
:1033800008F0A0C0833A23E09207A105B10508F038
:103390009CC0853823E09207A105B10508F098C0CC
:1033A0008C3623E09207A105B10508F094C0813264
:1033B00023E09207A105B10508F090C08F3F22E0FD
:1033C0009207A105B10508F08CC0813D22E092076B
:1033D000A105B10508F088C08F3922E09207A10548
:1033E000B10508F084C08D3622E09207A105B10531
:1033F00008F080C08F3422E09207A105B10508F0E3
:103400007CC0833122E09207A105B10508F078C0A5
:10341000853F21E09207A105B10508F074C0813E07
:1034200021E09207A105B10508F070C0833C21E0BE
:103430009207A105B10508F06CC0873A21E0920718
:10344000A105B10508F068C0863921E09207A10501
:10345000B10508F064C08C3721E09207A105B105E1
:1034600008F060C08A3521E09207A105B10508F097
:103470005CC0823321E09207A105B10508F058C075
:103480008F3021E09207A105B10508F054C0803DBE
:103490009105A105B10508F051C0853A9105A10536
:1034A000B10508F04EC08A379105A105B10508F0B5
:1034B0004BC08FEF90E04AC080E090E047C08FE0C3
:1034C00090E044C083E190E041C08CE090E03EC0D9
:1034D0008AE090E03BC085E090E038C089E090E071
:1034E00035C08BE090E032C08DE090E02FC082E0EC
:1034F00090E02CC080E190E029C08EE090E026C0F2
:1035000088E090E023C083E090E020C084E190E078
:103510001DC081E190E01AC087E190E017C085E10D
:1035200090E014C087E090E011C086E190E00EC00A
:1035300082E190E00BC086E090E008C084E090E07B
:1035400005C089E190E002C088E190E0DF91CF9171
:103550001F910F91FF90EF90DF90CF90BF90089553
:103560008F929F92AF92BF92CF92DF92EF92FF9293
:103570006B017C010E94A7254B015C01C114D104A1
:10358000E104F104F1F00E94A725DC01CB018819C8
:103590009909AA09BB09883E9340A105B10570F3BA
:1035A00021E0C21AD108E108F10888EE880E83E014
:1035B000981EA11CB11CC114D104E104F10419F737
:1035C000DDCFFF90EF90DF90CF90BF90AF909F90B6
:1035D0008F9008958230D1F018F4813089F00895E9
:1035E000833021F0843031F560E00BC060E087E08B
:1035F0000E943C1760E08DE00E943C1761E00FC024
:1036000061E087E00E943C1760E005C061E087E070
:103610000E943C1761E08DE00E943C1760E08CE066
:103620000E943C1769E170E080E090E00E94B01ACF
:103630000C94781908954F925F926F927F929F92A7
:10364000AF92BF92CF92DF92EF92FF920F931F93B0
:10365000CF93DF93CDB7DEB728970FB6F894DEBFD0
:103660000FBECDBF7C01CE0101966C015E0199E0D9
:10367000A90EB11C992493940E94CC25F701408493
:10368000518462847384DC01CB0184199509A609F5
:10369000B7094197A105B10508F09782F701878125
:1036A000882309F466C00E94CC25F70160877187E2
:1036B00082879387178260E4C7010E940D2062EA27
:1036C000C7010E94AD1F62EAC7010E94AD1F62EAF6
:1036D000C7010E94AD1F61E0C7010E94AD1FC70175
:1036E0000E943E1EF701868160E00E946B17F70181
:1036F000868190E0FC01E059FE4F6491FC01E45AA0
:10370000FE4FE491F0E0EE0FFF1FEE5AFE4F859161
:10371000949100E712E620E030E040E00E94252688
:10372000611571058105910551F02B013C01FFEFF9
:103730004F1A5F0A6F0A7F0A2FE0722203C0412CE2
:10374000512C32018CE2481681E058066104710464
:1037500030F09CE2491A91E0590A61087108C301EE
:10376000B2010E945636F70164877587868797876E
:1037700009C0F70164857585868597850E941E3688
:103780002B013C01141415041604170434F084EAC8
:10379000482E88E3582E612C712CC301B2010E947F
:1037A000563620E030E048E652E40E94AC35F6019F
:1037B00061937193819391936F0162E170E080E076
:1037C00090E00E94B01AAC14BD0409F055CFC98036
:1037D000DA80EB80FC807D809E80AF80B884272DCE
:1037E000392DA501B601C7010E94853787FF03C0A7
:1037F000C72CD92C7501B601C70128960FB6F894CD
:10380000DEBF0FBECDBFDF91CF911F910F91FF9013
:10381000EF90DF90CF90BF90AF909F907F906F9090
:103820005F904F900895CF92DF92EF92FF920F93A7
:103830001F93CF93DF936C017A018B01C0E0D0E03E
:10384000CE15DF0581F0D8016D918D01D601ED9186
:10385000FC910190F081E02DC6010995892B11F0B2
:103860002196EECF7E01C701DF91CF911F910F917D
:10387000FF90EF90DF90CF90089520912504309134
:1038800026042817390771F49091240480912304A9
:10389000981741F0E0912404F0E0E45BFB4F808155
:1038A00090E008958FEF9FEF089508951F93CF93B1
:1038B000DF93DC015C968D919C915D97009739F4C4
:1038C00021E030E013963C932E9312973BC0519623
:1038D000ED91FC91529750962C915097322F309544
:1038E0001FB75E964C915E97742F727041FD609584
:1038F000F8944081772311F0422B01C04323408389
:10390000EC012197F1F748E0508160FF02C0522B93
:1039100001C053235083EC012197F1F76695415084
:1039200099F78081772319F08323808302C0282BA5
:1039300020831FBF5C968D919C915D970197F1F755
:1039400081E090E0DF91CF911F91089520912504AF
:10395000309126042817390771F4809123042091AF
:10396000240490E0805C9F4F821B910960E470E02A
:103970000E945C38089580E090E00895209125042D
:103980003091260428173907B9F4909124048091C6
:103990002304981789F0E0912404F0E0E45BFB4FE6
:1039A00080812091240430E02F5F3F4F2F73332715
:1039B0002093240490E008958FEF9FEF08950895D9
:1039C0000E94AB391F920F920FB60F9211242F93C2
:1039D0003F934F935F936F937F938F939F93AF9397
:1039E000BF93EF93FF93E0912504F0912604309765
:1039F00009F451C0968DA685B785858591FF04C0D1
:103A00009C91892329F447C09C91892309F043C0E4
:103A1000A389B4899C918589809589238C93868913
:103A200097890197F1F7608D718DA685B7855585CA
:103A300038E020E0CB010197F1F7822F90E09595D7
:103A40008795282F4C91452309F02068315091F734
:103A5000868D81FD20958091230490E001968F73DF
:103A6000992730912404381749F0A0912304B0E03D
:103A7000A45BBB4F2C938093230403C0868D81608D
:103A8000868F828D938D0197F1F7A389B4899C91DC
:103A90008589892B8C93FF91EF91BF91AF919F9175
:103AA0008F917F916F915F914F913F912F910F90E7
:103AB0000FBE0F901F901895E0912504F0912604F9
:103AC000E817F90769F4A389B4899C9185898095E1
:103AD00089238C93109226041092250481E0089586
:103AE00080E008951F920F920FB60F9211242F932A
:103AF0003F938F939F93EF93FF9380914B0487FFA6
:103B000005C0109285001092840005C080914B047E
:103B100087FD80914B0480914B048F5F80934B0411
:103B200080914B0487FF20C080914B048C30E4F4DB
:103B3000209184003091850080914B04082E000C68
:103B4000990BFC01EE0FFF1F8E0F9F1FFC01E95D1B
:103B5000FB4F81819281820F931F90938900809304
:103B6000880080914B0417C080918400909185005B
:103B7000049680349C4918F480E49CE905C0809147
:103B8000840090918500049690938900809388002A
:103B90008FEF80934B04FF91EF919F918F913F9115
:103BA0002F910F900FBE0F901F901895DC01139668
:103BB0006C93139770E0FB01E059FE4FE491169669
:103BC000EC931697FB01E45AFE4FE491F0E0EE0F00
:103BD000FF1FEE5AFE4F8591949118969C938E93F9
:103BE00017970895AF92BF92CF92DF92EF92FF9214
:103BF0000F931F93CF93DF935C010AE010E0C12C79
:103C0000D12C7601C0E0D0E0C5010E942B23C8175B
:103C1000D90708F4EC01C80ED91EE11CF11C0150B3
:103C2000110991F7D701C6018C1B9D0BA109B109A0
:103C300023E0B695A795979587952A95D1F7DF91BB
:103C4000CF911F910F91FF90EF90DF90CF90BF9099
:103C5000AF9008950F931F93CF938C01C62F0E94AE
:103C6000D421EC2FF0E0EE0FFF1FE35EFE4F8181C9
:103C7000F8018383CF911F910F910895CF93DF9324
:103C8000EC0161E08B810E946B178D818130C1F462
:103C900087E592E00197F1F700C0000060E08C81B9
:103CA0000E943C1760E08B810E943C1761E08C8190
:103CB0000E943C1761E08B81DF91CF910C943C17FF
:103CC00060E08C810E943C179AE19A95F1F700C060
:103CD00060E08B810E943C178AE18A95F1F700C071
:103CE00061E08C810E943C179AE19A95F1F700C03F
:103CF00061E08B810E943C178AE18A95F1F700C050
:103D0000DF91CF9108951F93CF93DF93EC01162F8E
:103D100061E08B810E946B178D818130B9F487E55A
:103D200092E00197F1F700C00000111102C060E0BD
:103D300001C061E08B810E943C1761E08C810E9490
:103D40003C1760E08C810E943C1718C0111102C022
:103D500060E001C061E08B810E943C1761E08C81D2
:103D60000E943C179AE19A95F1F700C060E08C81BF
:103D70000E943C178AE18A95F1F700C061E08B81CF
:103D8000DF91CF911F910C943C171F93CF93DF933A
:103D9000EC0160E08B810E946B178D818130D1F442
:103DA00087E592E00197F1F700C0000061E08B81A8
:103DB0000E943C1761E08C810E943C178B810E941D
:103DC000131711E0892B09F410E060E08C810E9448
:103DD0003C171FC061E08B810E943C179AE19A95C5
:103DE000F1F700C061E08C810E943C178AE18A955E
:103DF000F1F700C08B810E94131711E0892B09F4A1
:103E000010E060E08C810E943C179AE19A95F1F7EE
:103E100000C0812FDF91CF911F9108950F931F93C1
:103E2000CF93DF938C0160E0FC0183810E946B17CC
:103E3000F80185818130E1F487E592E00197F1F79F
:103E400000C00000D8E061E0F80184810E943C17C6
:103E5000CC0FF80183810E941317892B09F0C160F0
:103E600060E0F80184810E943C17D15061F71DC0C9
:103E7000D8E061E0F80184810E943C17CC0FF80182
:103E800083810E941317892B09F0C160FAE1FA952A
:103E9000F1F700C060E0F80184810E943C17FAE16C
:103EA000FA95F1F700C0D15021F78C2FDF91CF9117
:103EB0001F910F9108950F931F93CF93DF93EC0100
:103EC000162F61E08C810E946B1761E08B810E944C
:103ED0006B178D818130D9F487E592E00197F1F776
:103EE00000C0000008E017FF02C061E001C060E010
:103EF0008B810E943C17110F61E08C810E943C175E
:103F000060E08C810E943C17015069F720C008E0F6
:103F100017FF02C061E001C060E08B810E943C1786
:103F20009AE19A95F1F700C0110F61E08C810E942F
:103F30003C178AE18A95F1F700C060E08C810E940D
:103F40003C179AE19A95F1F700C0015009F780E01B
:103F5000DF91CF911F910F910895CF93DF93EC01E3
:103F60008FE193E00197F1F700C00000CE010E94BD
:103F70005B1F87EC90E00197F1F700C00000CE01D5
:103F8000DF91CF910C94C51ECF93DF93EC0161E0DC
:103F90008C810E946B1761E08B810E946B178D8171
:103FA0008130C1F487E592E00197F1F700C000008D
:103FB00061E08B810E943C1761E08C810E943C177C
:103FC00060E08B810E943C1760E08C81DF91CF9193
:103FD0000C943C1761E08B810E943C179AE19A9502
:103FE000F1F700C061E08C810E943C178AE18A955C
:103FF000F1F700C060E08B810E943C179AE19A952E
:10400000F1F700C060E08C810E943C178AE18A953C
:10401000F1F700C0DF91CF9108951F93CF93DF9305
:10402000EC01162F0E94C41F612F660FCE010E9463
:104030005B1F80EA8A95F1F7CE01DF91CF911F9146
:104040000C94C51ECF92DF92FF920F931F93CF93D4
:10405000DF9300D000D0CDB7DEB78C0161E70E94BE
:104060000D2060EBC8010E94AD1FC8010E943E1EDA
:104070006AE070E080E090E00E94B01AC8010E94FF
:10408000C41F63EEC8010E945B1FC8010E94C51EC9
:1040900034E0F32ECE0101966C01FA94C801FF20A2
:1040A00051F00E940E1FF60181936F0160E0C8017C
:1040B0000E94831EF2CF0E940E1F8C8361E0C80114
:1040C0000E94831EC8010E943E1E89818A3A59F4CB
:1040D0008C818B3B41F48A8190E0982F88272B813B
:1040E000820F911D02C081E090E0F80197838683E2
:1040F000F801868197810F900F900F900F90DF91BC
:10410000CF911F910F91FF90DF90CF9008950F9363
:104110001F93CF938C01C62F0E94D421EC2FF0E087
:10412000EE0FFF1FE35EFE4F8181D80113968C9343
:104130001397808114968C93149715961C92CF91A7
:104140001F910F9108950F931F93CF938C01C62F4A
:104150000E948720EC2FF0E0EE0FFF1FE35EFE4F82
:104160008081F80186831582CF911F910F91089568
:1041700070E080E090E00E9454362CE53FE842EA8F
:104180005FE30E94AC350E942536862F653B30F4F4
:10419000611102C087E008C0643B11F486E204C0EC
:1041A00066E00E945038885F8093B300089570E005
:1041B00080E090E00E9454362CE53FE842EA5FE35D
:1041C0000E94AC350E942536862F653B30F4611184
:1041D00002C087E008C0643B11F486E204C066E0D8
:1041E0000E945038885F8093B40008951F93CF9346
:1041F000DF93EC01142F0E94D720612FCE01DF91B5
:10420000CF911F910C94B8200F931F93CF938C01E3
:10421000C62F0E94D421EC2FF0E0EE0FFF1FE35ECB
:10422000FE4F8081D80113968C9313979181149639
:104230009C9361E00E946B1761E0F8018481CF914B
:104240001F910F910C946B17FC01A381B4814781DE
:1042500020853185C901880F991F280F391F728564
:1042600063855FB7F8948C91942F90959823842B55
:10427000E72FF62F2E0F3F1FE217F30781F0419132
:1042800068E08C9300C047FF9C93440F00C000C0BF
:1042900000C008F49C9300C06A9599F7EDCF5FBF0A
:1042A000789461E070E080E090E00C94B01A0F9395
:1042B000FC01A62FB0E080859185A817B907B8F456
:1042C000862F880F680F70E0A285B385A60FB71FF1
:1042D0002C93A285B385A60FB71F11964C938285A8
:1042E0009385FC01E60FF71F028381E001C080E0A7
:1042F0000F910895CF92DF92EF92FF920F931F9349
:10430000CF93DF937C01142FD22EC02E611111C0E8
:10431000C0E0D0E0F70180859185C817D90770F417
:104320000C2D2D2D412F6C2FC7010E945721219656
:10433000F1CF61500E94572180E001C081E0DF9100
:10434000CF911F910F91FF90EF90DF90CF90089544
:104350001F93CF93DF93EC01162F0E94D421E12FFE
:10436000F0E0EE0FFF1FE35EFE4F8181282F30E06B
:10437000F901E059FE4FE491EF83F901E45AFE4F51
:10438000E491F0E0EE0FFF1FEC5CFE4F25913491BD
:104390003C832B8361E00E946B1764E0CE01DF91C8
:1043A000CF911F910C94A615DC01E62FF0E0EE0FE3
:1043B000FF1FE35EFE4F80818C93818111968C9369
:1043C000119712966C9308951F93CF93DF93EC018E
:1043D000162F0E94D421E12FF0E0EE0FFF1FE35EC5
:1043E000FE4F81818B8380818C838B8160E00E9472
:1043F0006B178C8161E00E946B178C8160E0DF910C
:10440000CF911F910C943C17DC012C911196ED91EA
:10441000FC911297F8948181922F90958923818342
:1044200078948DE743E050E0815021F1DA01119753
:10443000F1F730813223C1F3F8948281892382839A
:104440008181822B81837894ABE7B7E01197F1F7F4
:10445000F89481819823918383E191E00197F1F7AA
:104460008081282381E009F080E07894E3E6F6E09B
:104470003197F1F708950F931F93CF93DF93EC01DA
:10448000162F4F960E94D421E12FF0E0EE0FFF1F70
:10449000E35EFE4F118100811B821A8288EE93E059
:1044A000A0E0B0E08C839D83AE83BF838FE091E07A
:1044B000998388831F8A1E8A198E188E1B8E1A8EE6
:1044C0001D8E1C8E6E8D6E7F6D7F6E8F66956170FA
:1044D00081E06827812F0E943C1761E0812F0E94B4
:1044E0006B17812F90E0FC01E059FE4FE491E88BBF
:1044F000FC01E45AFE4FE491F0E0EE0FFF1FEC5C8C
:10450000FE4F859194919A8B898B60E0802F0E9459
:104510006B178E8D81FD04C061E0802F0E943C17D7
:104520000C87802F90E0FC01E059FE4FE491ED876D
:10453000FC01E45AFE4FE491F0E0EE0FFF1FEE5A4B
:10454000FE4F859194919F878E878FE091E09983AC
:10455000888383E08AA31B8E1A8E198E188E1F8A79
:104560001E8A85E690E09D8F8C8F063108F04EC044
:1045700081E290E09F8B8E8B83E690E0998F888F0D
:1045800082E490E09B8F8A8F30916800083058F069
:1045900021E00E3008F420E091E0892F01C0880F5F
:1045A0002A95EAF701C084E0832B809368009C85FC
:1045B000983038F09E3040F0963148F020E030E0FE
:1045C00008C02DE630E005C02BE630E002C02CE646
:1045D00030E03C8B2B8B983030F481E001C0880FA9
:1045E0009A95EAF70EC0292F30E09E3018F4285033
:1045F000310902C02E50310981E001C0880F2A958F
:10460000EAF78D8B8C8D9D8D0197F1F78A8D9B8DAF
:10461000892BE1F08091250490912604C817D907D1
:10462000A9F0009711F00E945C1D8E8D8E7F8E8FF9
:104630001092230410922404D0932604C0932504DE
:10464000EB89FC8990818D89892B8083DF91CF91C3
:104650001F910F910895CF93DF93EC0160E08B8160
:104660000E946B178B81DF91CF910C9461190F938E
:104670001F93CF93DF93EC018B810E9413178C0162
:104680008C810E941317AC0121E030E0012B11F462
:1046900020E030E0220F331F81E0452B09F480E059
:1046A000822BDF91CF911F910F9108951F93CF938C
:1046B000DF93EC01162F0E94D421E12FF0E0EE0FE2
:1046C000FF1FE35EFE4F80818B8381818C838B8112
:1046D00060E00E946B178C8160E0DF91CF911F91A9
:1046E0000C946B178F929F92AF92BF92CF92DF92F2
:1046F000EF92FF920F931F93CF93DF937C010AE019
:1047000010E0812C912C5401C0E0D0E0CC24CA945C
:1047100033E0D32E60E0F70183810E946B17F7012D
:1047200083810E9461199601281B390BC901C217A8
:10473000D30708F4E901880E991EA11CB11C015091
:10474000110941F7D501C4018C1B9D0BA109B109C9
:1047500023E0B695A795979587952A95D1F7DF9190
:10476000CF911F910F91FF90EF90DF90CF90BF906E
:10477000AF909F908F900895CF93DF93EC010E94AC
:10478000872081E08D83CE010E94C41F67EECE0199
:104790000E94AD1F60E8CE010E94AD1F64EACE0109
:1047A0000E94AD1F6AE9CE010E94AD1F61E8CE01F3
:1047B0000E94AD1F63E8CE010E94AD1FCE01DF91C4
:1047C000CF910C943E1ECF92DF92EF92FF920F9307
:1047D0001F93CF93DF93EC01E62E8A01F22E0E9405
:1047E000C41F6E0182E4C80ED11CF6016081660F01
:1047F000CE010E945B1FCE010E94C51E6E2DCE0110
:104800000E945B1FCE010E94C51ECE010E943E1E6B
:10481000F0E5FA95F1F7CE010E94C41FF601608120
:10482000660F6160CE010E945B1FCE010E94C51E13
:10483000FA94EF2C6801EE2061F0CE010E940E1F69
:10484000F60181936F0160E0CE010E94831EEA941D
:10485000F2CF0F0D111DCE010E940E1FF8018083B3
:1048600061E0CE010E94831ECE01DF91CF911F91A6
:104870000F91FF90EF90DF90CF900C943E1E0F931E
:104880001F93CF93DF938C01D62FC42F0E94C41F98
:104890006D2F660F6A59C8010E945B1FC8010E94F4
:1048A000C51EEC2FC7FF07C0EF77F0E0E95DFE4FB4
:1048B0006081606804C0F0E0E95DFE4F6081C8017E
:1048C0000E945B1FC801DF91CF911F910F910C9443
:1048D0003E1E0F931F93CF93DF93EC010E94C41FE2
:1048E00062E5CE010E945B1FCE010E94C51E62E9F7
:1048F000CE010E945B1FCE010E94C51ECE010E9408
:10490000C41F63E5CE010E945B1FCE010E94C51E3D
:10491000CE010E940E1F182F61E0CE010E94831E5F
:10492000CE010E943E1E143411F0103161F581E079
:104930008E8319850A85412F61E0CE010E948E1673
:1049400019870A871F8108858E81811103C0CE01D6
:104950000E946924412F6FE0CE010E948E161F83B2
:10496000088741E060E0CE010E948E1663E070E0AF
:1049700080E090E00E94B01A43E060E0CE010E9427
:104980008E1681E001C080E0DF91CF911F910F91E1
:104990000895AF92BF92CF92DF92EF92FF920F9362
:1049A0001F93CF93DF93EC015B016A0179018E8144
:1049B000811103C0CE010E94692464E1CE010E94EE
:1049C0005216F8019183808366E1CE010E9452164F
:1049D000F5019183808368E1CE010E945216F601B1
:1049E000918380836AE1CE010E945216F701918380
:1049F000808389859A85853D910519F150F400974A
:104A000029F1803C910591F56AE970E080E090E041
:104A100021C0863F910581F08F3F910541F08B3E8B
:104A2000910521F562E370E080E090E013C063E05F
:104A300070E080E090E00EC068E170E080E090E01F
:104A400009C065E670E080E090E004C06CEB72E0C5
:104A500080E090E0DF91CF911F910F91FF90EF9058
:104A6000DF90CF90BF90AF900C94B01ADF91CF91B0
:104A70001F910F91FF90EF90DF90CF90BF90AF907C
:104A800008951F920F920FB60F9211242F933F9308
:104A90008F939F93AF93BF93EF93FF939091C60033
:104AA00080918D0481110EC0923509F043C0E091D0
:104AB0008C0438ECE39FF0011124E25AFE4F9083FE
:104AC00081E00EC0813091F4923469F4E0918C045D
:104AD00088ECE89FF0011124E25AFE4F918382E0B6
:104AE00080938D0427C010928D0424C020918C04E3
:104AF00038EC239FF0011124E25AFE4FDF01A80F8A
:104B0000B11D9C938F5F80938D049281891710F45F
:104B1000883C80F010928D048091EE02222321F0D7
:104B200010928C04826004C091E090938C048160A8
:104B30008093EE02FF91EF91BF91AF919F918F9182
:104B40003F912F910F900FBE0F901F9018953FB778
:104B5000F8948091930490919404A0919504B0915D
:104B6000960426B5A89B05C02F3F19F00196A11DFC
:104B7000B11D3FBFBA2FA92F982F8827820F911DF3
:104B8000A11DB11DBC01CD0142E0660F771F881F3A
:104B9000991F4A95D1F708952FB7F89460918F0423
:104BA0007091900480919104909192042FBF089588
:104BB0001F920F920FB60F9211242F933F938F9352
:104BC0009F93AF93BF9380918F0490919004A09195
:104BD0009104B091920430918E0423E0230F2D377D
:104BE00020F40196A11DB11D05C026E8230F0296F1
:104BF000A11DB11D20938E0480938F049093900487
:104C0000A0939104B09392048091930490919404A2
:104C1000A0919504B09196040196A11DB11D8093B9
:104C2000930490939404A0939504B0939604BF9139
:104C3000AF919F918F913F912F910F900FBE0F9049
:104C40001F90189580E090E00895CF92DF92EF9248
:104C5000FF920F931F93E82FF92F05C00150110900
:104C60002109310961F1908196239417B9F305C0A8
:104C7000015011092109310911F1908196239413F2
:104C8000F7CFC12CD12CE12CF12C0AC08FEFC81A20
:104C9000D80AE80AF80A0C151D052E053F0579F01B
:104CA00080818623841791F36C2D7D2D8E2D9F2D71
:104CB0001F910F91FF90EF90DF90CF90089560E0EB
:104CC00070E080E090E01F910F91FF90EF90DF90F7
:104CD000CF900895CF93DF93CDB7DEB728970FB667
:104CE000F894DEBF0FBECDBF789484B5826084BDDA
:104CF00084B5816084BD85B5826085BD85B58160E0
:104D000085BD80916E00816080936E00109281005D
:104D10008091810082608093810080918100816018
:104D200080938100809180008160809380008091D9
:104D3000B10084608093B1008091B0008160809365
:104D4000B00080917A00846080937A0080917A002C
:104D5000826080937A0080917A00816080937A00EB
:104D600080917A00806880937A001092C10060E0A0
:104D700088E00E946B178091C00082608093C00021
:104D80001092C50080E18093C4008091C1008068CA
:104D90008093C1008091C10080618093C1008091A7
:104DA000C10088608093C1008091C20084608093BC
:104DB000C2008091C20082608093C2006CE271E008
:104DC00080E090E00E94B01A0E94A71700E020E067
:104DD00040E060E08EE193E00E947A21E2E7F1E0BA
:104DE000E491E0932503EEE5F1E0E491F0E0EE0FCD
:104DF000FF1FEC5CFE4F859194919093220380936A
:104E0000210361E082E00E946B1720E040E060E057
:104E10008EE193E00E947A218EE193E00E942421AA
:104E20006CE271E080E090E00E94B01A20E04EE178
:104E300060E08EE193E00E947A218EE193E00E948F
:104E400024216CE271E080E090E00E94B01A2EE133
:104E500040E060E08EE193E00E947A218EE193E0F1
:104E60000E9424216CE271E080E090E00E94B01A80
:104E70000EE120E040E060E08EE193E00E947A21C4
:104E80008EE193E00E9424216CE271E080E090E0EA
:104E90000E94B01A44EF51E060E070E084EF91E0CE
:104EA0000E94B11761E085E00E946B1761E086E027
:104EB0000E946B1761E089E00E946B1761E08AE055
:104EC0000E946B178DEA809380008BE080938100B5
:104ED000109289001092880010928B0010928A0024
:104EE00064EF71E080E090E00E94B01A82E50E94D9
:104EF000D11582E40E94D11586E00E94D11580E090
:104F00000E94D11583E00E94D1158DE90E94D11530
:104F10009FE088E10FB6F894A895809360000FBEDB
:104F200090936000A895A8958091EE0280FF3CC008
:104F30008E7F8093EE028091600130E020E090E06F
:104F40000197432F50E0481759073CF4FA01E25A01
:104F5000FE4F4081240F3F5FF4CFFC01E25AFE4F29
:104F60008081281308C080916201813A10F480E0AA
:104F70003DC080E03FC082E50E94D11582E40E94DE
:104F8000D11587E00E94D115809161010E94D11551
:104F9000809162010E94D11580E00E94D11590910C
:104FA00061018091620141C081FF43C08D7F809388
:104FB000EE028091280230E020E090E00197432F3C
:104FC00050E0481759073CF4FA01EA5DFD4F408173
:104FD000240F3F5FF4CFFC01EA5DFD4F8081281371
:104FE0000CC080912A02813A20F481E00E94230FB4
:104FF00020C081E00E94EE001CC082E50E94D11515
:1050000082E40E94D11587E00E94D1158091290287
:105010000E94D11580912A020E94D11580E00E9441
:10502000D1159091290280912A02890F86560E94FB
:10503000D11588E00E941317019719F481E080933D
:10504000320388E00E941317892B29F480913203E0
:1050500081110C943D3280913103882309F424C1DD
:105060001092310380912F03813009F4A0C028F001
:10507000823009F0F7C015E04DC015E000E020E0F7
:1050800042E360E08EE193E00E947A218EE193E0BA
:105090000E94242168EC70E080E090E00E94B01A49
:1050A00002E320E040E060E08EE193E00E947A219C
:1050B0008EE193E00E94242164E670E080E090E0BD
:1050C0000E94B01AA8951150C9F64DE750E060E073
:1050D00070E088EB91E00E94B1170E94A7174DE79E
:1050E00050E060E070E08EEE91E00E94B1170E9407
:1050F000A7174AEF50E060E070E080E193E00E9483
:10510000B1170E94A717A89522E020932F032093A0
:105110001B03A8C000E020E042E360E08EE193E0E2
:105120000E947A218EE193E00E94242168EC70E0D5
:1051300080E090E00E94B01A02E320E040E060E0EE
:105140008EE193E00E947A218EE193E00E94242177
:1051500064E670E080E090E00E94B01AA8951150DB
:10516000C9F64DE750E060E070E088EB91E00E9406
:10517000B1170E94A7174DE750E060E070E08EEE97
:1051800091E00E94B1170E94A7174AEF50E060E03B
:1051900070E080E193E00E94B1170E94A717A895E4
:1051A00081E080932F0383E080931B035BC015E0B5
:1051B00000E020E042E360E08EE193E00E947A218B
:1051C0008EE193E00E94242168EC70E080E090E0A2
:1051D0000E94B01A02E320E040E060E08EE193E03C
:1051E0000E947A218EE193E00E94242164E670E01F
:1051F00080E090E00E94B01AA8951150C9F64DE7E2
:1052000050E060E070E080E193E00E94B1170E94FE
:10521000A7174DE750E060E070E08EEE91E00E944D
:10522000B1170E94A7174AEF50E060E070E088EBEA
:1052300091E00E94B1170E94A717A89560E070E066
:1052400086E00E94871860E070E085E00E94871881
:1052500010928B0010928A001092890010928800A0
:1052600010922F038091EF028823F1F082E50E94D3
:10527000D11582E40E94D11588E00E94D11580E00A
:105280000E94D11581E00E94D11589EF0E94D115AD
:1052900081E00E94D11587E90E94D11587E90E941B
:1052A000D11587E90E94D11580913003882309F434
:1052B00069C08091F1029091F202A091F302B09145
:1052C000F4020196A11DB11D883EE3E09E07A105F1
:1052D000B10548F48093F1029093F202A093F30297
:1052E000B093F40247C01092F1021092F2021092B1
:1052F000F3021092F40285E10E946119BC0180E082
:1053000090E00E94543620E030E040E75CE30E94E9
:1053100092376B017C0120E030E040E050E40E94D5
:10532000853718163CF52AE939E949ED50E4C701FB
:10533000B6010E94A73587FF1DC082E50E94D115E6
:1053400082E40E94D11588E00E94D11580E00E947D
:10535000D11582E00E94D1158DEF0E94D11581E018
:105360000E94D1158CE90E94D1158091F0028F5FC7
:105370008093F0028091F0028A3020F01092F002C7
:105380001092300380912F03823009F4E4C238F484
:10539000882369F0813009F4EBC10C9433328031F9
:1053A00009F4BAC3813109F419C60C9433320E944E
:1053B000CC25C0903D03D0903E03E0903F03F09099
:1053C0004003DC01CB018C199D09AE09BF098D3D5D
:1053D0009540A105B10510F40C94333249E3842EB5
:1053E00043E0942E55E3A52E53E0B52E6DE1C62E75
:1053F00061E0D62E10E000E00F5F802F0E94EA1AD5
:10540000782ED4018D934D0181110BC060E0F6011F
:1054100082810E946B1760E0D60113968C910E94E6
:105420006B17D501EC917E1609F459C18E2F90E0CF
:10543000FC013297E831F10508F050C1EA5BFF4FFB
:105440000C94703880911C0390911D03009731F0EB
:105450000E94223910921D0310921C0380911703A1
:1054600090911803009731F00E942239109218038E
:10547000109217038091190390911A03009709F471
:105480002DC10E94223910921A031092190326C1CD
:105490008091150390911603009709F41FC10E9493
:1054A0002239109216031092150318C1809113032C
:1054B00090911403009709F411C10E9422391092AF
:1054C0001403109213030AC18091110390911203E7
:1054D000009709F403C10E9422391092120310921E
:1054E0001103FCC080910F0390911003009709F401
:1054F000F5C00E9422391092100310920F03EEC0E3
:1055000080912D0390912E03009709F4E7C00E942B
:10551000223910922E0310922D03E0C080910D03CA
:1055200090910E03009731F00E94223910920E03E1
:1055300010920D03E0900B03F0900C03E114F104C2
:1055400009F4CCC0C7010E945C1D8FE091E0F70117
:1055500091838083C7010E945C1DC7010E9422398C
:1055600010920C0310920B03B9C0809133039091F9
:105570003403009709F4B2C00E9422391092340318
:1055800010923303ABC08091090390910A030097F6
:1055900009F4A4C00E94223910920A031092090350
:1055A0009DC08091070390910803009709F496C06D
:1055B0000E94223910920803109207038FC0E090D6
:1055C0002B03F0902C03E114F10409F487C0D701F8
:1055D0001A968D919C911B970E942239C7010E94B7
:1055E000223910922C0310922B0378C0809105036E
:1055F00090910603009709F471C00E94223910921D
:105600000603109205036AC080910303909104037E
:10561000009709F463C00E9422391092040310928B
:1056200003035CC08091010390910203009709F489
:1056300055C00E94223910920203109201034EC0FD
:105640008091FF0290910003009709F447C00E94E7
:105650002239109200031092FF0240C08091FD0297
:105660009091FE020097D1F10E9422391092FE0221
:105670001092FD0233C08091FB029091FC020097D2
:1056800069F10E9422391092FC021092FB0226C09E
:105690008091F9029091FA02009701F10E9422395B
:1056A0001092FA021092F90219C08091F7029091BB
:1056B000F802009799F00E9422391092F802109295
:1056C000F7020CC08091F5029091F602009731F03C
:1056D0000E9422391092F6021092F50211E0F501B3
:1056E00071925F01F2E0CF0ED11C043009F084CE3C
:1056F000112399F182E580935A0382E480935B033E
:1057000010925D0385E080935E0380913503809362
:105710005F03809136038093600380913703809309
:1057200061038091380380936203109263031092A7
:10573000640310926503109266032EE020935C03CD
:10574000EAE5F3E08191380E83E0E736F807D1F718
:10575000309267038EE00E94D8150E94CC2560939A
:105760003D0370933E0380933F03909340037BC6B9
:1057700080911C0390911D03009771F0DC0112963B
:105780004C9150E020911B03022E000C330B42176A
:10579000530779F00E94223980E190E00E948A3814
:1057A0007C0160911B030E94A320F0921D03E092F4
:1057B0001C0380911C0390911D030E941B1B6B0115
:1057C0007C0120E030E048E452E40E94853718165E
:1057D0002CF410924203109241032DC020E030E0DF
:1057E00048EB51E4C701B6010E948537009142039E
:1057F00087FD14C020E030E048E452E4C701B60160
:105800000E94A735181654F0011102C081E003C0B0
:1058100081E080934103809342030DC00023B1F3E4
:10582000013021F4B2E0B093420305C0E2E0E0931E
:105830004103E0934203809141038130E1F020F085
:10584000823009F446C00FC627E330E040E050E064
:1058500067E370E080E090E00E94511902E320E0ED
:1058600040E060E08EE193E00E947A218EE193E0D7
:105870000E942421F8C500E020E042E360E08EE1D0
:1058800093E00E947A218EE193E00E9424210E94FD
:105890000E3428EC30E040E050E00E94653465367C
:1058A00048F022E630E040E050E06EE97FEF8FEF15
:1058B0009FEF08C02EE93FEF4FEF5FEF62E670E029
:1058C00080E090E00E9451196CE271E080E090E08D
:1058D0003EC000E022E340E060E08EE193E00E9401
:1058E0007A218EE193E00E94242126EA3FEF4FEFD8
:1058F0005FEF66EA7FEF8FEF9FEF0E94511960E93B
:1059000071E080E090E00E94B01AA8950E940E34E9
:1059100028EC30E040E050E00E946534653648F005
:1059200022E630E040E050E06EE97FEF8FEF9FEF3E
:1059300008C02EE93FEF4FEF5FEF62E670E080E0D6
:1059400090E00E9451196AE872E080E090E00E94C5
:10595000B01AA89588C58091190390911A030097F1
:1059600071F0DC0112964C9150E020911B03022E45
:10597000000C330B4217530779F00E94223985E05F
:1059800090E00E948A387C0160911B030E9456239C
:10599000F0921A03E09219038091190390911A036F
:1059A0000E9437238130E9F030F0823081F183307A
:1059B00009F44FC058C52AE230E040E050E06AE206
:1059C00070E080E090E00E945119BAE0B0930001CD
:1059D00000E028EC40E060E08EE193E00E947A2154
:1059E0002FC02AE230E040E050E06AE270E080E060
:1059F00090E00E94511980910001823018F081508E
:105A00008093000100E020E048EC60E015C02AE24D
:105A100030E040E050E06AE270E080E090E00E9418
:105A2000511980910001843118F48F5F8093000137
:105A300000E020E048EC61E08EE193E00E94572115
:105A40008EE193E00E9424211092440310924303BC
:105A50000AC5809100018A3049F42EEC3FEF4FEFE8
:105A60005FEF6EEC7FEF8FEF9FEF13C08A3048F44B
:105A70002DE230E040E050E066EA7FEF8FEF9FEFED
:105A800008C026EA3FEF4FEF5FEF6DE270E080E085
:105A900090E00E9451198091430390914403019634
:105AA0009093440380934303809143039091440374
:105AB0008035934C08F4D7C480E593EC909344036D
:105AC0008093430320E030E0A90160E070E0CB0167
:105AD0000E94511900E020E040E060E08EE193E098
