:100000000C94C4000C94EC000C94EC000C94CB1CED
:100010000C94CB1C0C94CB1C0C94EC000C94EC00BA
:100020000C94EC000C94EC000C94EC000C945B1D14
:100030000C94EC000C94EC000C94EC000C94EC0090
:100040000C94C8250C94EC000C942A250C94EC001C
:100050000C94EC000C94EC000C94EC000C94EC0070
:100060000C94EC000C94EC001F01AC01DF011D02AC
:100070008802EF036304D804650648058C09000A6A
:10008000270E2D0B390CCB0C3F0DB10D162A222A51
:100090002E2A742A3C2A4A2A582A662A822A8E2A1A
:1000A000A92AB72AC52A622BF82A562BEA2AD32A6C
:1000B000062B142B222B2F2B3C2B492B360F610F99
:1000C00055159E0FC40F5515551555155515551534
:1000D0005515551555155515551503102C106A1045
:1000E000EA100911CD10B7105515CD11DF114712C7
:1000F0005515C61255151214B9137814084AD73B72
:100100003BCE016E84BCBFFDC12F3D6C74319ABDE6
:1001100056833DDA3D00C77F11BED9E4BB4C3E910A
:100120006BAAAABE000000803F000000000024006F
:1001300027002A0000000000250028002B000000F6
:100140000008000201000003040700000000000096
:10015000000000000000230026002900040404041D
:100160000404040402020202020203030303030361
:10017000010204081020408001020408102001023E
:100180000408102072336C3311241FBECFEFD8E067
:10019000DEBFCDBF11E0A0E0B1E0E2ECF3E702C0CA
:1001A00005900D92A435B107D9F724E0A4E5B1E09C
:1001B00001C01D92A23AB207E1F710E0C3ECD0E013
:1001C00004C02197FE010E946438C23CD107C9F7E0
:1001D0000E945A260C94D4390C9400002F923F921E
:1001E0004F925F926F927F928F929F92AF92BF9247
:1001F000CF92DF92EF92FF920F931F93CF93DF93F3
:10020000CDB7DEB76E970FB6F894DEBF0FBECDBF89
:10021000E82EF12C28EC829FF0011124E25AFE4FC7
:10022000E4818E2F90E0FC01E15AF109E231F10501
:1002300010F00C94F30EEC5CFF4F0C94643888ECD7
:100240008E9D80018F9D100D1124025A1E4FD801E2
:1002500015968C910E94D31A029711F00C94F30E0C
:1002600080911D0390911E03009741F480E190E07E
:100270000E947E386C01F801658116C0DC0112967F
:100280004C9150E0F8012581022E000C330B4217EF
:10029000530789F00E94163980E190E00E947E3871
:1002A0006C01D80115966C91C6010E948C20D092E9
:1002B0001E03C0921D0380911D0390911E030E9496
:1002C000041B4B015C0120E030E04AE753E40E944C
:1002D0007937181634F4812C912CBAE7AB2EB3E49D
:1002E000BB2E20E030E040E251E4C501B4010E94A1
:1002F00086370E9412369B0142E540935B0342E43D
:1003000040935C0348EC4E9DF0014F9DF00D11248D
:10031000E25AFE4F438140935E0341E040935F0306
:10032000AB0177FF02C041505F4F50936003C9019A
:1003300060E071E00E9450388093610388E0809310
:100340005D03EBE5F3E080E09191890FB3E0E236E5
:10035000FB07D1F70C94230E88EC8E9DF0018F9D46
:10036000F00D1124E25AFE4F8581893F11F00C9463
:10037000F30E82E580935B0382E480935C0310922A
:100380005D03838180935E0311E010935F0388E037
:100390000E94FC16019719F41092600302C010939A
:1003A000600387E080935D03EBE5F3E080E09191EB
:1003B000890F23E0E136F207D1F70C94C70E88ECE1
:1003C0008E9D80018F9D100D1124025A1E4FD80161
:1003D00015968C918D3F11F00C94F30E85E10E94DF
:1003E0004A1922E3FC012E9FC0012F9F900D11247A
:1003F00022E520935B0322E420935C03D80113964B
:100400002C9120935E0321E020935F036FEF73E054
:100410000E945038862F880F680F6093600387E032
:1004200080935D03EBE5F3E080E09191890FB3E009
:10043000E136FB07D1F70C94C70E80911A03909117
:100440001B030097B1F485E090E00E947E388C0198
:1004500088EC8E9DF0018F9DF00D1124E25AFE4F25
:100460006581C8010E943F2310931B0300931A0368
:1004700023C0FC01428150E028EC2E9D80012F9D7D
:10048000100D1124025A1E4FD80115962C91022EE0
:10049000000C330B4217530779F00E94163985E0A0
:1004A00090E00E947E386C01F80165810E943F2334
:1004B000D0921B03C0921A0382E580935B0382E40F
:1004C00080935C0310925D0388EC8E9DF0018F9DFC
:1004D000F00D1124E25AFE4F838180935E0381E088
:1004E00080935F0380911A0390911B030E94202345
:1004F0008093600387E080935D03EBE5F3E080E0A9
:100500009191890F23E0E136F207D1F70C94C70EE1
:1005100088EC8E9D80018F9D100D1124025A1E4F74
:10052000D80115968C910E94D31A069711F00C945D
:10053000F30E8091160390911703009771F0FC0160
:10054000428150E0D80115962C91022E000C330BFD
:1005500042175307D1F00E94163986E090E00E94BE
:100560007E386C01F8011581612F0E94BD21E12FB9
:10057000F0E0EE0FFF1FE35EFE4F8181D60115967E
:100580008C93D0921703C09216030091160310911A
:100590001703FE0131961F0185E0DF011D928A9548
:1005A000E9F761E0F80185810E94541761E0D80104
:1005B00015968C910E9425176AEF70E080E090E01C
:1005C0000E94991A60E0F80185810E94251764E174
:1005D00070E080E090E00E94991A61E0D8011596E1
:1005E0008C910E9425178BE990E00197F1F760E06C
:1005F000F80185810E94251783E290E00197F1F7C9
:100600000E94BC254B015C0162E0D80115968C91DB
:100610000E945417F80185810E94FC16019791F001
:100620000E94BC25DC01CB0188199909AA09BB09E4
:100630000597A105B10570F3D80113961C92139785
:1006400014961C920E94BC254B015C0162E0F801EB
:1006500085810E945417D80115968C910E94FC1632
:10066000892B19F4C12CD12C53C00E94BC25DC016C
:10067000CB0188199909AA09BB090597A105B105FC
:1006800050F3F0CF0E94BC25DC01CB0188199909F9
:10069000AA09BB090597A105B10538F4D80115963B
:1006A0008C910E94FC16892B69F30E9497254B01BF
:1006B0005C010E94BC252B013C0162E0F8018581B0
:1006C0000E945417D80115968C910E94FC16019730
:1006D00049F10E949725DC01CB0188199909AA09E3
:1006E000BB09F60173E0F595E7957A95E1F78997EF
:1006F000A105B10520F1E20DF31D8081880F816015
:100700008083BFEFCB1ADB0AE8E2CE16D104E1F01A
:100710000E94BC254B015C0162E0F80185810E94CA
:100720005417BCCF0E94BC25DC01CB01841995096C
:10073000A609B7090597A105B10520F2CACFE20DB8
:10074000F31D8081880FDCCF59814B812D8130E0F2
:100750006A81852F90E0860F911D840F911D6C8119
:10076000860F911D99272817390731F4D801139660
:100770005C93139714964C9382E580935B0382E419
:1007800080935C0388EC8E9DF0018F9DF00D112409
:10079000E25AFE4F838180935E0381E080935F0382
:1007A000E0911603F0911703838180936003109208
:1007B0006103848180936203109263038AE08093D3
:1007C0005D03EBE5F3E080E09191890FB3E0E4365F
:1007D000FB07D1F7809364038AE00C94CA0E8091E2
:1007E0001403909115030097B1F484E090E00E9407
:1007F0007E388C0188EC8E9DF0018F9DF00D1124C8
:10080000E25AFE4F6581C8010E94131E1093150322
:100810000093140323C0FC01428150E028EC2E9D7C
:1008200080012F9D100D1124025A1E4FD8011596DC
:100830002C91022E000C330B4217530779F00E94C3
:10084000163984E090E00E947E386C01F8016581E1
:100850000E94131ED0921503C092140382E5809368
:100860005B0382E480935C0310925D0388EC8E9DB1
:10087000F0018F9DF00D1124E25AFE4F8381809389
:100880005E0381E080935F038091140390911503D0
:100890000E945B2390936003809114039091150351
:1008A0000E945B238093610388E080935D03EBE506
:1008B000F3E022E633E080E09191890F2E173F07A5
:1008C000D9F70C94230E8091120390911303009793
:1008D000B1F484E090E00E947E388C0188EC8E9D1B
:1008E000F0018F9DF00D1124E25AFE4F6581C80181
:1008F0000E94131E109313030093120324C0DC0103
:1009000012964C9150E028EC2E9D80012F9D100DE9
:100910001124025A1E4FF8012581022E000C330BC0
:100920004217530781F00E94163984E090E00E943C
:100930007E386C01D80115966C910E94131ED092DE
:100940001303C092120382E580935B0382E48093D9
:100950005C0310925D0388EC8E9DF0018F9DF00D7D
:100960001124E25AFE4F838180935E0381E08093DD
:100970005F0380911203909113030E94DB1D9093FB
:10098000600380911203909113030E94DB1D8093FA
:10099000610388E080935D03EBE5F3E022E633E05A
:1009A00080E09191890F2E173F07D9F70C94230E01
:1009B00080910E0390910F030097B1F485E090E0D1
:1009C0000E947E388C0188EC8E9DF0018F9DF00D89
:1009D0001124E25AFE4F6581C8010E94CD21109377
:1009E0000F0300930E0323C0FC01428150E028EC6A
:1009F0002E9D80012F9D100D1124025A1E4FD801EB
:100A000015962C91022E000C330B4217530779F0E8
:100A10000E94163985E090E00E947E386C01F80152
:100A200065810E94CD21D0920F03C0920E0382E512
:100A300080935B0382E480935C0310925D0388ECF7
:100A40008E9DF0018F9DF00D1124E25AFE4F83819F
:100A500080935E0381E080935F03E0910E03F09149
:100A60000F0383810E94FC1621E0892B09F020E00E
:100A70002093600387E080935D03EBE5F3E080E083
:100A80009191890F23E0E136F207D1F70C94C70E5C
:100A900088EC8E9D80018F9D100D1124025A1E4FEF
:100AA000D80115968C910E94D31A0D9711F00C94D1
:100AB000F30EE0910A03F0910B033097E1F4F80193
:100AC00085810E94D31A0D9709F04BC08BE090E00E
:100AD0000E947E386C01D80115966C910E9470209E
:100AE000F60116828BEE90E09287818781E090E09C
:100AF000908787832FC0D80115968C91228130E092
:100B0000482F082E000C550B2417350751F10E9471
:100B1000D31A0D9731F580910A0390910B030E942F
:100B200016398BE090E00E947E386C01F8016581F7
:100B30000E947020D60116961C9216978BEE90E0BC
:100B40001A969C938E93199781E090E018969C9347
:100B50008E931797D0920B03C0920A03C6010E948E
:100B6000522428EC2E9DC0012F9D900D1124FC01D4
:100B7000E25AFE4F5F01D680F1E0DF124AC08E01DB
:100B80000F5E1F4F9E012F5F3F4FAE01435F5F4FD0
:100B9000BE01615F7F4F80910A0390910B030E9419
:100BA000B22482E580935B0382E480935C03D501E9
:100BB00013968C9180935E03D0925F03D092600372
:100BC0008F85988990936103809362038D859E85BC
:100BD000909363038093640389819A819093650362
:100BE0008093660389899A89909367038093680349
:100BF0008FE080935D03EBE5F3E080E09191890F56
:100C0000B3E0E936FB07D1F7809369038FE00C94DA
:100C1000CA0EE2E0DE120C94F30E60900A037090AC
:100C20000B0366E0962EC12CD12CA12CB12C8E0189
:100C30000F5F1F4F9E01235F3F4FAE01415F5F4F2C
:100C4000BE016F5E7F4FC3010E94B22489819A81E9
:100C5000A816B90608F45C01C80ED91E9A94911022
:100C6000E6CFCA18DB08C6019695879596958795B5
:100C70009A83898392E590935B0392E490935C035B
:100C800098EC9E9DF0019F9DF00D1124E25AFE4FBD
:100C9000938190935E0391E090935F0392E0909331
:100CA00060039D2D969596959093610380936203C2
:100CB00089E080935D03EBE5F3E080E09191890F9B
:100CC00023E0E336F207D1F7C4C488EC8E9D80019F
:100CD0008F9D100D1124025A1E4FD80115968C912C
:100CE0000E94D31A0E9711F00C94F30EE0910803B2
:100CF000F09109033097A9F4F80185810E94D31A75
:100D00000E9709F03FC084E490E00E947E386C01A9
:100D1000D80115966C910E94702081E0F6018583C0
:100D200024C0D80115968C91228130E0482F082EDE
:100D3000000C550B2417350729F10E94D31A0E9782
:100D400009F580910803909109030E94163984E403
:100D500090E00E947E386C01F80165810E9470204D
:100D600081E0D60115968C93F601EE5BFF4F88E685
:100D700090E091838083D0920903C0920803C6015A
:100D80000E9438320091080310910903A8014C5CBD
:100D90005F4F2EE06BE3C8010E94CC23F80124A82A
:100DA00035A832242324322433A222A2A6A8B7A82D
:100DB000BA24AB24BA24B5A2A4A2C0ACD1ACDC2422
:100DC000CD24DC24D7A2C6A24680578060847184DB
:100DD00064AD75AD762767277627072E000C880B44
:100DE000990B0E944A36D80198962D913D914D91CC
:100DF0005C919B970E94BC34A30192010E94A03594
:100E0000F801668B778B808F918F66AD77AD7627F3
:100E100067277627072E000C880B990B0E944A360D
:100E2000D8019C962D913D914D915C919F970E9488
:100E3000BC34A30192010E94A035F801628F738F28
:100E4000848F958FE05CFF4F6081718176276727E3
:100E50007627072E000C880B990B0E944A36D80182
:100E6000D0962D913D914D915C91D3970E94BC34C9
:100E7000A30192010E94A035F801668F778F80A3AD
:100E800091A3B501BB0C880B990B0E944A364B010C
:100E90005C01B601DD0C880B990B0E944A369B0160
:100EA000AC010E9486376B8B7C8B8D8B9E8BA50152
:100EB0009401C501B4010E9486372B893C894D8974
:100EC0005E890E94BD340E94F9376F8B788F898FBD
:100ED0009A8FB101330C880B990B0E944A362B0173
:100EE0003C012F89388D498D5A8D0E943C3520E078
:100EF00030E044E353E40E9486372AED3FE049E4C2
:100F000050E40E94A0356F8B788F898F9A8FA30150
:100F10009201C301B2010E9486372B893C894D8919
:100F20005E890E94BD340E94F9379B01AC01C50166
:100F3000B4010E943C3520E030E044E353E40E94D9
:100F400086372AED3FE049E450E40E94A0356B8BE0
:100F50007C8B8D8B9E8B0E94BC2580905401909041
:100F60005501A0905601B0905701681979098A0976
:100F70009B090E94483620E030E04AE754E40E9492
:100F8000A0354B015C010E94BC2560935401709315
:100F900055018093560190935701D80196968D91F3
:100FA0009C91979718161906ACF55A962D913D917C
:100FB0004D915C915D97C501B4010E9486379B01FC
:100FC000AC01F80162857385848595850E94BC34E7
:100FD000D8011A966D937D938D939C931D97569689
:100FE0002D913D914D915C915997C501B4010E949D
:100FF00086379B01AC01F8016685778580899189E8
:101000000E94BD34D8011E966D937D938D939C9361
:10101000519731C0F801228D338D448D558DC50116
:10102000B4010E9486379B01AC01D8011A966D91DC
:101030007D918D919C911D970E94BD34F80162872E
:1010400073878487958726893789408D518DC5019F
:10105000B4010E9486379B01AC01D8011E966D91A8
:101060007D918D919C9151970E94BC34F8016687C7
:101070007787808B918BD8015E962D913D914D9114
:101080005C919197C501B4010E948637F8012289CD
:101090003389448955890E94BD342B013C0120E0ED
:1010A00030E044EB53E40E94A0350E94853620E0F6
:1010B00030E044EB53E40E9486379B01AC01C3014E
:1010C000B2010E94BC34D80152966D937D938D93EA
:1010D0009C93559720E030E040E05FE3C501B40108
:1010E0000E94BD349B01AC0160E070E080E09FE3B2
:1010F0000E94A0354B015C019B01AC0160E070E0F7
:1011000080E89FE30E94BC342B013C01F80122855A
:10111000338544855585C501B4010E9486376B8FA0
:101120007C8F8D8F9E8FA30192016F89788D898D21
:101130009A8D0E9486379B01AC016B8D7C8D8D8DC5
:101140009E8D0E94BD34D8011A966D937D938D9328
:101150009C931D971E962D913D914D915C915197B9
:10116000C501B4010E9486374B015C01A3019201C5
:101170006B897C898D899E890E9486379B01AC0191
:10118000C501B4010E94BD34F80166877787808B62
:10119000918B82E580935B0382E480935C031092E1
:1011A0005D0388EC8E9DF0018F9DF00D1124E25AB5
:1011B000FE4F838180935E0381E080935F0386818D
:1011C00080936003813009F094C00091080310916E
:1011D0000903F80182859385A485B585BC01CD01FD
:1011E000905820E030E048EC52E40E9486370E949C
:1011F00012364B015C01F80186859785A089B1897B
:10120000BC01CD01905820E030E048EC52E40E944F
:1012100086370E9412366B017C0120E030E048ECFA
:1012200052E4D80152966D917D918D919C91559784
:101230000E9486370E9412369401181419041A0469
:101240001B044CF097FE04C02227332728193909C4
:101250001092610309C097FE04C022273327281982
:10126000390941E0409361034901330FAA08BB08E3
:10127000909262032093630396011C141D041E04C4
:101280001F044CF0D7FE04C0222733272C193D0938
:101290001092640309C0D7FE04C0222733272C19FB
:1012A0003D0941E0409364036901330FEE08FF08F4
:1012B000D09265032093660397FD08C021E0209338
:1012C0006703709368036093690311C09B0177FF04
:1012D00004C022273327261B370B10926703C9014E
:1012E000330FAA0BBB0B9093680320936903EFE0C5
:1012F00001C0E6E081E08E0F80935D03ABE5B3E0D3
:1013000020E090E03D91930F2F5FE213FBCFF0E0E0
:10131000E55AFC4F90833EC580915C0190915D0140
:10132000009779F488E090E00E947E388C0188EC88
:101330008E9DF0018F9DF00D1124E25AFE4F6581C4
:101340001FC0DC0112964C9150E068EC6E9D90013C
:101350006F9D300D1124F901E25AFE4F6F01258176
:10136000022E000C330B42175307B1F00E941639BE
:1013700088E090E00E947E388C01D60115966C9131
:10138000C8010E94702081E0F801858317821682CF
:1013900010935D0100935C0182E580935B0382E41E
:1013A00080935C0310925D0388EC8E9DF0018F9D0D
:1013B000F00D1124E25AFE4F838180935E0381E099
:1013C00080935F0380915C0190915D010E940B20EE
:1013D0009093600380915C0190915D010E940B20CD
:1013E0008093610388E080935D03EBE5F3E022E600
:1013F00033E080E09191890F2E173F07D9F723C47E
:101400008091040390910503009771F489E090E0C6
:101410000E947E386C0188EC8E9DF0018F9DF00D4E
:101420001124E25AFE4F1CC0FC01428150E028EC1E
:101430002E9D80012F9D100D1124025A1E4FD801A0
:1014400015962C91022E000C330B42175307F9F01E
:101450000E94163989E090E00E947E386C01F80104
:101460001581612FC6010E94BD21E12FF0E0EE0F32
:10147000FF1FE35EFE4F8081D60115968C93159772
:10148000818114968C93D0920503C092040388EC5A
:101490008E9DF0018F9DF00D1124E25AFE4F868142
:1014A0000091040310910503813019F4F80164815F
:1014B00005C0823031F4D80115966C91C8010E94A4
:1014C000BF1D6801B6E0CB0ED11CC6010E94ED2104
:1014D000882309F470C46CECC6010E94D41564E43E
:1014E000C6010E94D4150E94BC252B013C0133E2A9
:1014F000A32EB12CF80126810780F085E02D918183
:10150000822F809598239183C5010197F1F78081FF
:10151000822309F442C4C6010E94ED216CECC6018D
:101520000E94D4156EEBC6010E94D415FE013196BF
:101530002F016E01F6E0CF0ED11C67E070E043E2B0
:1015400050E08FECA82EB12C88E090E0812C77241D
:101550007394D80116966C9016971796ED91FC919E
:101560001897F8942181262921832281962C909422
:1015700029212283DB011197F1F7218192229182A7
:10158000DA011197F1F720817894F5013197F1F79D
:10159000622209F08728770C0197D9F6F20181922F
:1015A0002F01EC15FD0581F669817A81072E000C6B
:1015B000880B990B0E944A3620E030E040E85DE35A
:1015C0000E94863720E030E048EC52E40E948637E3
:1015D0004B015C0182E580935B0382E480935C03B2
:1015E00088EC8E9DF0018F9DF00D1124E25AFE4F84
:1015F000838180935E0381E080935F0320E030E08D
:10160000A901C501B4010E94793787FD04C081E0BA
:101610008093600302C010926003C501B4010E9470
:1016200012369B0177FF04C022273327261B370B76
:10163000309361032093620389E080935D03EBE5BF
:10164000F3E023E633E080E09191890F2E173F0706
:10165000D9F78093630389E09DC380910203909141
:101660000303009771F485E090E00E947E386C01DE
:1016700088EC8E9DF0018F9DF00D1124E25AFE4FF3
:101680001CC0FC01428150E028EC2E9D80012F9D62
:10169000100D1124025A1E4FD80115962C91022EBE
:1016A000000C330B42175307F9F00E94163985E0FE
:1016B00090E00E947E386C01F8011581612FC6010F
:1016C0000E94BD21E12FF0E0EE0FFF1FE35EFE4F11
:1016D0008181D60113968C931397808114968C93F5
:1016E000D0920303C09202030091020310910303FE
:1016F00060E0F80183810E945417D80113968C9101
:101700000E944A199C01205D3240121613064CF4C7
:101710004BE0429FC001439F900D112466E070E0B2
:1017200008C047E0429FC001439F900D11246AE02A
:1017300070E00E9450380091580110915901060F35
:10174000171F013EB1E01B0764F40032EEEF1E07E5
:101750005CF0C801C1968336910540F400E010E0CA
:1017600005C000EE11E002C000E21EEFC0900203CF
:10177000D090030360E0D60114968C910E94541718
:10178000F60184810E944A199C01205D32401216A4
:1017900013064CF445EF4203C001439F900D112402
:1017A00066E070E008C049EF4203C001439F900D1E
:1017B00011246AE070E00E94503880915A019091A3
:1017C0005B01680F791F613EF1E07F0764F46032CE
:1017D0002EEF72075CF0CB01C1968336910540F481
:1017E00060E070E005C060EE71E002C060E27EEF94
:1017F00082E580935B0382E480935C0388EC8E9D9A
:10180000F0018F9DF00D1124E25AFE4F83818093E9
:101810005E0381E080935F0317FD82E080936003A5
:1018200017FF03C0119501951109109361030093EF
:10183000620377FD02C081E001C082E08093630310
:1018400077FF03C07195619571097093640360938C
:1018500065038CE080935D03EBE5F3E080E091911C
:10186000890F33E0E636F307D1F7809366038CE007
:1018700091C28091000390910103009771F485E07B
:1018800090E00E947E386C0188EC8E9DF0018F9D67
:10189000F00D1124E25AFE4F1CC0FC01428150E0C1
:1018A00028EC2E9D80012F9D100D1124025A1E4FF1
:1018B000D80115962C91022E000C330B42175307BA
:1018C000F9F00E94163985E090E00E947E386C01A4
:1018D000F8011581612FC6010E94BD21E12FF0E0C2
:1018E000EE0FFF1FE35EFE4F8081D60113968C93AF
:1018F0001397818114968C93D0920103C0920003B8
:1019000082E580935B0382E480935C0310925D0325
:1019100088EC8E9DF0018F9DF00D1124E25AFE4F50
:10192000838180935E0381E080935F0300910003D5
:101930001091010360E0F80184810E945417D801DE
:1019400014968C910E944A190FEF13E0F801E81BDE
:10195000F90BCF0190936003E0900003F090010336
:1019600060E0D70114968C910E945417F70184818E
:101970000E944A19081B190B0093610388E08093A9
:101980005D03EBE5F3E080E09191890F23E0E2361F
:10199000F207D1F758C18091FE029091FF020097A3
:1019A000B1F484E090E00E947E388C0188EC8E9D3A
:1019B000F0018F9DF00D1124E25AFE4F6581C801A0
:1019C0000E94131E1093FF020093FE0224C0DC014C
:1019D00012964C9150E028EC2E9D80012F9D100D09
:1019E0001124025A1E4FF8012581022E000C330BE0
:1019F0004217530781F00E94163984E090E00E945C
:101A00007E386C01D80115966C910E94131ED092FD
:101A1000FF02C092FE0282E580935B0382E4809322
:101A20005C0310925D0388EC8E9DF0018F9DF00D9C
:101A30001124E25AFE4F838180935E0381E08093FC
:101A40005F038091FE029091FF020E941423909305
:101A500060038091FE029091FF020E941423809304
:101A6000610388E080935D03EBE5F3E022E633E079
:101A700080E09191890F2E173F07D9F7E4C080913C
:101A8000FC029091FD020097B1F484E090E00E9486
:101A90007E388C0188EC8E9DF0018F9DF00D112415
:101AA000E25AFE4F6581C8010E94131E1093FD0289
:101AB0000093FC0223C0FC01428150E028EC2E9DE3
:101AC00080012F9D100D1124025A1E4FD80115962A
:101AD0002C91022E000C330B4217530779F00E9411
:101AE000163984E090E00E947E386C01F80165812F
:101AF0000E94131ED092FD02C092FC0282E58093E8
:101B00005B0382E480935C0310925D0388EC8E9DFE
:101B1000F0018F9DF00D1124E25AFE4F83818093D6
:101B20005E0381E080935F038091FC029091FD024F
:101B30000E94DB1D909360038091FC029091FD0256
:101B40000E94DB1D8093610388E080935D03EBE5D9
:101B5000F3E080E09191890F23E0E236F207D1F7BC
:101B600072C08091FA029091FB020097B1F484E078
:101B700090E00E947E388C0188EC8E9DF0018F9D54
:101B8000F00D1124E25AFE4F6581C8010E94131E18
:101B90001093FB020093FA0224C0DC0112964C91D0
:101BA00050E028EC2E9D80012F9D100D1124025A2B
:101BB0001E4FF8012581022E000C330B42175307EC
:101BC00081F00E94163984E090E00E947E386C011A
:101BD000D80115966C910E94131ED092FB02C09200
:101BE000FA0282E580935B0382E480935C031092A7
:101BF0005D0388EC8E9DF0018F9DF00D1124E25A5B
:101C0000FE4F838180935E0381E080935F03809128
:101C1000FA029091FB020E94DB1D90936003809179
:101C2000FA029091FB020E94DB1D8093610388E021
:101C300080935D03EBE5F3E080E09191890FB3E0E1
:101C4000E236FB07D1F78093620388E0A3C080915E
:101C5000F6029091F702009779F487E090E00E94F5
:101C60007E388C0188EC8E9DF0018F9DF00D112443
:101C7000E25AFE4F65811FC0DC0112964C9150E084
:101C800068EC6E9D90016F9D300D1124F901E25AB0
:101C9000FE4F6F012581022E000C330B42175307B4
:101CA000A9F00E94163987E090E00E947E388C01EE
:101CB000D60115966C91C8010E94702081E0F80150
:101CC000858316821093F7020093F6020091F602C4
:101CD0001091F70260E7C8010E94F61F60EBC8018F
:101CE0000E94961FC8010E94271EC8010E94AD1FB6
:101CF00061EEC8010E94441FC8010E94AE1EC801C7
:101D00000E94F71EB82E60E0C8010E946C1EC80138
:101D10000E94F71ED82E60E0C8010E946C1EC80108
:101D20000E94F71EC82E61E0C8010E946C1EC80107
:101D30000E94271EFAEABF1207C02BEBC21204C092
:101D4000D8011696DC9201C0D12C82E580935B030A
:101D500082E480935C0388EC8E9DF0018F9DF00DF2
:101D60001124E25AFE4F838180935E0381E08093C9
:101D70005F03D092600387E080935D03EBE5F3E0BF
:101D800080E09191890FB3E0E136FB07D1F78093B2
:101D9000610387E00E94C11526C00E94BC25DC01BA
:101DA000CB0184199509A609B70981399140A1058C
:101DB000B10508F49FCB82E580935B0382E48093B6
:101DC0005C0388EC8E9DF0018F9DF00D1124E25A8A
:101DD000FE4F838180935E0381E080935F03812CBB
:101DE000912C540114CC6E960FB6F894DEBF0FBE42
:101DF000CDBFDF91CF911F910F91FF90EF90DF90BA
:101E0000CF90BF90AF909F908F907F906F905F909A
:101E10004F903F902F900895AF92BF92CF92DF9254
:101E2000EF92FF920F931F93CF93DF93CDB7DEB75F
:101E300064970FB6F894DEBF0FBECDBFE82EF12C2D
:101E400028EC829FF0011124E25AFE4FE4818E2F8C
:101E5000EE0F990BAA0BBB0BFC013197E032F10599
:101E600008F023C6E25AFF4F0C94643882E5809351
:101E70005B0382E480935C0388E080935D0388ECDD
:101E80008E9DF0018F9DF00D1124E25AFE4F83814B
:101E900080935E0382E080935F0381E08093600320
:101EA0008CE080936103EBE5F3E022E633E080E031
:101EB0009191890F2E173F07D9F78093620388E02D
:101EC000C1C582E580935B0382E480935C0310923A
:101ED0005D0388EC8E9DF0018F9DF00D1124E25A78
:101EE000FE4F838180935E038581823059F024F414
:101EF000813089F481E009C0833031F0843059F4B5
:101F000084E003C082E001C083E00E94D31A809382
:101F10005F03E5E001C0E4E081E08E0F80935D03A4
:101F2000ABE5B3E020E090E03D91930F2F5FE2132B
:101F3000FBCFF0E0E55AFC4F908384C582E58093A7
:101F40005B0382E480935C0388EC8E9DF0018F9D9F
:101F5000F00D1124E25AFE4F838180935E0381E0ED
:101F600080935F038093600387E080935D03EBE5DC
:101F7000F3E080E09191890F93E0E136F907D1F722
:101F80008093610387E05EC582E580935B0382E412
:101F900080935C0310925D0388EC8E9DF0018F9D11
:101FA000F00D1124E25AFE4F838180935E0381E09D
:101FB0000E94D31A80935F0382E00E94D31A809319
:101FC000600383E00E94D31A8093610384E00E943F
:101FD000D31A8093620310926303109264031092E9
:101FE0006503109266038DE080935D03EBE5F3E0FB
:101FF00080E09191890FA3E0E736FA07D1F780934B
:1020000067038DE01FC588EC8E9DF0018F9DF00D5C
:102010001124E25AFE4F85818C3F99F0882341F0CC
:102020008B3F09F0E9C400852781468161E00DC03E
:1020300000852781468160E08FE193E00E94632163
:1020400008C000852781468160E08FE193E00E940F
:1020500040218FE193E0E3C388EC8E9D80018F9D4A
:10206000100D1124025A1E4FF80185818F3F49F14E
:10207000882369F08E3F09F0BFC4F8016681062EFF
:10208000000C770B880B990B0E940918B5C42781A7
:10209000022E000C330B440B550B6681062E000CF0
:1020A000770B880B990B0E943A19F80186818111F0
:1020B000A3C487818111A0C410921C031092300325
:1020C0009BC46681062E000C770B880B990B0E942F
:1020D000CF1892C488EC8E9D80018F9D100D112425
:1020E000025A1E4FD80115968C910E94D31A02975E
:1020F00009F082C480911D0390911E03009741F462
:1021000080E190E00E947E386C01F801658116C084
:10211000DC0112964C9150E0F8012581022E000C52
:10212000330B4217530789F00E94163980E190E083
:102130000E947E386C01D80115966C91C6010E94F0
:102140008C20D0921E03C0921D0388EC8E9DF0015E
:102150008F9DF00D1124E25AFE4F20854781668144
:1021600080911D0390911E030E94D81645C488ECEF
:102170008E9DF0018F9DF00D1124E25AFE4F858156
:10218000893F09F039C48681882321F081E080935A
:10219000EF0232C41092EF022FC488EC8E9DF00142
:1021A0008F9DF00D1124E25AFE4F8681882329F07D
:1021B000813029F48093310302C0109231031092D0
:1021C000F2021092F3021092F4021092F5021092B1
:1021D000F10212C488EC8E9DF0018F9DF00D112448
:1021E000E25AFE4F85818A3F09F006C4408550E0DF
:1021F000542F44278185482B60E070E0868190E071
:10220000982F88272781822B0E949A170E94901767
:10221000F3C388EC8E9D80018F9D100D1124025A0E
:102220001E4FF80185810E94D31A039709F01CC440
:102230008091180390911903009749F486E090E08B
:102240000E947E386C01D80115966C9115C0FC0176
:10225000428150E0D80115962C91022E000C330BD0
:102260004217530781F00E94163986E090E00E94E1
:102270007E386C01F8016581C6010E94A523D092C9
:102280001903C0921803009118031091190388ECE8
:102290008E9DF0018F9DF00D1124EC59FE4F63E1EE
:1022A000808190E0982F88272181822BAC014A7A87
:1022B0005A7A5695479585759575880F991F482BBD
:1022C000592B9A012C7C3C7C369527953695279581
:1022D00043735373440F551F440F551F242B352B45
:1022E000C901807F907F44E0969587954A95E1F7F4
:1022F0002F703F7054E0220F331F5A95E1F7822B65
:10230000932B982789279827880F991F880F991F43
:102310002FEF260FA1E0B0E0AC0FBD1FA60FB11D3F
:102320008C936250A1E0B0E0AC0FBD1FA20FB11DB5
:102330009C9332966F3F09F0B3CFC8010E94AD1F46
:1023400067EEC8010E94961F60E0C8010E94961FB8
:10235000CE0101965C016E0195E1C90ED11CD5013B
:102360009D915D01892F8C7C682F6695669593738E
:10237000B4E09B9FC0011124862B682F6A7A669572
:102380008575880F682BC8010E94961FCA14DB044C
:1023900031F7C8010E94271E2FC388EC8E9DF001E3
:1023A0008F9DF00D1124E25AFE4F858180931C030E
:1023B000868180933003808580932B031DC388EC36
:1023C0008E9D80018F9D100D1124025A1E4FF80121
:1023D00085810E94D31A059709F046C380912E0388
:1023E00090912F03009749F485E090E00E947E3899
:1023F0006C01D80115966C9115C0FC01428150E02A
:10240000D80115962C91022E000C330B421753075E
:10241000B1F00E94163985E090E00E947E386C0190
:10242000F8016581C6010E94ED20D0922F03C09271
:102430002E0383EA8093B00087E08093B10088EC9C
:102440008E9DF0018F9DF00D1124E25AFE4F868182
:10245000813069F0823099F08111CEC24085678168
:1024600080912E0390912F030E94DF20C5C26781C7
:1024700080912E0390912F030E94C020BDC26781DE
:1024800080912E0390912F030E94A120B5C288EC69
:102490008E9D80018F9D100D1124025A1E4FD80170
:1024A00015968C910E94D31A099709F0DDC280918C
:1024B000100390911103009771F0FC01428150E0EC
:1024C000D80115962C91022E000C330B421753079E
:1024D00091F00E94163986E090E00E947E386C01EF
:1024E000F80165810E947020D60115961C92D09249
:1024F0001103C092100388EC8E9DF0018F9DF00DAA
:102500001124E25AFE4F86818130F1F0823061F170
:10251000811172C22781809110039091110327FFCE
:1025200006C0332721950CF4309541E001C040E00E
:1025300061E00E94B41688EC8E9DF0018F9DF00D35
:102540001124E25AFE4F10C0278180911003909110
:10255000110327FF06C0332721950CF4309541E085
:1025600001C040E061E00FC0208580911003909190
:10257000110327FF06C0332721950CF4309541E065
:1025800001C040E062E00E94B41636C288EC8E9D25
:1025900080018F9D100D1124025A1E4FF801858174
:1025A0000E94D31A0B9709F05FC2C0900C03D09021
:1025B0000D03C114D10449F483E290E00E947E38F7
:1025C0006C01D80115966C911DC0F60121A130E077
:1025D000D80115968C91082E000C990B28173907F5
:1025E000C1F08FE091E091838083C6010E94451D78
:1025F000C6010E94163983E290E00E947E386C0189
:10260000F8016581C6010E942422D0920D03C09278
:102610000C03C0900C03D0900D0388EC8E9DF0014C
:102620008F9DF00D1124E25AFE4F1681D60192962D
:102630008C91929790E0212F012E000C330B821782
:10264000930749F192961C938AEA8093470382E0AC
:102650008093480381E08093490310934A0386E501
:10266000812780934B0397E4A92E93E0B92EF501BF
:1026700061915F01C6010E943F1CFCE4AF16F3E0CC
:10268000BF06A9F7D60192961C9362E370E080E042
:1026900090E00E94991A88EC8E9DF0018F9DF00DBC
:1026A0001124E25AFE4F2085878100910C0310917E
:1026B0000D039AEA909347038093480391E0909327
:1026C000490320934A039BEA8927822780958093B8
:1026D0004B0387E4C82E83E0D82EF60161916F0189
:1026E000C8010E943F1CFCE4CF16F3E0DF06A9F707
:1026F00062E370E080E090E00E94991A80910C0300
:1027000090910D030E94451D00910C0310910D0343
:102710000115110559F08FE091E0D8018D939C933C
:10272000C8010E94451DC8010E94163910920D0370
:1027300010920C0388EC8E9D80018F9D100D11244A
:10274000025A1E4FD8011596EC91EE0FFF0BE35E77
:10275000FE4F60E080810E945417D8011596EC91DD
:10276000EE0FFF0BE35EFE4F60E081810E94541785
:1027700043C188EC8E9D80018F9D100D1124025A5B
:102780001E4FF80185810E94D31A439709F06CC14E
:10279000C0902C03D0902D03C114D10449F48CE0D7
:1027A00090E00E947E386C01D80115966C911AC099
:1027B000F601228130E0D80115968C91082E000C8C
:1027C000990B28173907A9F0828593850E9416393D
:1027D000C6010E9416398CE090E00E947E386C01A0
:1027E000F8016581C6010E949121D0922D03C0920B
:1027F0002C0388EC8E9DF0018F9DF00D1124E25A80
:10280000FE4F018520854781668180912C03909140
:102810002D030E94632180912C0390912D030E942F
:102820000D21EAC088EC8E9D80018F9D100D112432
:10283000025A1E4FD80115968C910E94D31A4297C6
:1028400009F012C18091060390910703009771F07F
:10285000FC01428150E0D80115962C91022E000C0B
:10286000330B42175307A9F00E94163986E090E017
:102870000E947E386C01F80165810E947020D601AB
:1028800015961C92D0920703C0920603C6010E94BF
:102890009F1688EC8E9D80018F9D100D1124025A89
:1028A0001E4FF801468161E0809106039091070375
:1028B0000E942824D80117964C9162E0809106036B
:1028C000909107030E942824F801408563E08091DD
:1028D0000603909107030E942824D80119964C9171
:1028E00064E080910603909107030E94282484C02D
:1028F00088EC8E9D80018F9D100D1124025A1E4F71
:10290000F80185810E94D31A499709F0ADC08091E2
:10291000F8029091F9020097C1F485E090E00E94DE
:102920007E386C01D80115966C910E94ED20D092F2
:10293000F902C092F80261E0F60183810E94541707
:1029400061E0D60114968C9124C0FC01428150E0D4
:10295000D80115962C91022E000C330B4217530709
:10296000D1F00E94163985E090E00E947E386C011B
:10297000F80165810E94ED20D092F902C092F80220
:1029800061E0D60113968C910E94541761E0F60124
:1029900084810E9454170091F8021091F90288EC8A
:1029A0008E9DF0018F9DF00D1124E25AFE4FC680DE
:1029B000C0948781D12C61E081110FC0D80113969A
:1029C0008C910E94541760E0F80184810E94541792
:1029D000B601D80113968C910DC0F80184810E9434
:1029E000541760E0D80113968C910E945417B601D9
:1029F000F80184810E94701882E580935B0382E471
:102A000080935C0388EC8E9DF0018F9DF00D112466
:102A1000E25AFE4F938190935E0381E080935F03BF
:102A200086E080935D03EBE5F3E020E633E080E0B1
:102A30004191840F2E173F07D9F7809360039923A4
:102A4000A1F186E064960FB6F894DEBF0FBECDBF4D
:102A5000DF91CF911F910F91FF90EF90DF90CF907A
:102A6000BF90AF900C94C11582E580935B0382E424
:102A700080935C0388EC8E9DF0018F9DF00D1124F6
:102A8000E25AFE4F938190935E0310925F0386E0BB
:102A900080935D03EBE5F3E020E633E080E04191D5
:102AA000840F2E173F07D9F7C8CF64960FB6F89456
:102AB000DEBF0FBECDBFDF91CF911F910F91FF9071
:102AC000EF90DF90CF90BF90AF900895833081F06A
:102AD00028F4813099F08230A1F008958730A9F070
:102AE0008830B9F08430D1F4809180008F7D03C0AC
:102AF000809180008F7780938000089584B58F77D0
:102B000002C084B58F7D84BD08958091B0008F7719
:102B100003C08091B0008F7D8093B0000895CF9363
:102B2000DF93EC01862F90E09987888723E0629FEE
:102B3000C00111240E947E389B878A87892B21F44B
:102B400088E391E00E94A43980E090E028853985EF
:102B5000A901440F551F240F351F8217930738F41E
:102B6000EA85FB85E80FF91F10820196EFCFDF9110
:102B7000CF9108959091C00095FFFCCF8093C6003F
:102B800008950F931F93CF93C82F0BE513E0CC2329
:102B900039F0F80181918F010E94BA15C150F7CF29
:102BA000CF911F910F910895AF92BF92CF92DF9274
:102BB000EF92FF920F931F93CF93DF93DC0128E0F6
:102BC00030E091E0AA24AA94B12C0FE010E043E297
:102BD000E42EF12C57EDC52ED12C8C911196ED9150
:102BE000FC911297482F4095562F592381F0F89465
:102BF0005281452342834181482B4183E70121973C
:102C0000F1F74281842B82837894F6010FC0F89407
:102C10005281452342834181482B4183E50121971D
:102C2000F1F74281842B82837894F8013197F1F790
:102C3000990F2150310989F6F8941196ED91FC9184
:102C4000129791818C918095892381831196ED91C2
:102C5000FC91129792818C9180958923828378943C
:102C6000DF91CF911F910F91FF90EF90DF90CF9068
:102C7000BF90AF9008950F931F93CF93DF93EC0114
:102C8000162F0E94AD1F62E5CE010E94441FCE01A7
:102C90000E94AE1E612F6068CE010E94441FCE01CB
:102CA0000E94AE1ECE010E94AD1F63E5CE010E94C0
:102CB000441FCE010E94AE1ECE010E94F71E182FA7
:102CC00060E0CE010E946C1ECE010E94F71E082F0C
:102CD00061E0CE010E946C1ECE010E94271E812F52
:102CE00090E0902BDF91CF911F910F9108950F935A
:102CF0001F93CF93DF93EC01162F042F0E94AD1F7B
:102D000062E5CE010E94441FCE010E94AE1E612FDB
:102D10006068CE010E94441FCE010E94AE1E602F4B
:102D2000CE010E94441FCE010E94AE1ECE010E9421
:102D3000271E802FDF91CF911F910F910895CF9380
:102D4000DF93EC010E94AD1F68E4CE010E94441F96
:102D5000CE010E94AE1E61E3CE010E94441FCE014F
:102D6000DF91CF910C94271EFF920F931F93CF9367
:102D7000DF93EC01F62E042F122F60E50E94F61F60
:102D800063EACE010E94961F6F2DCE010E94961F0E
:102D9000602FCE010E94961F612FCE010E94961FC8
:102DA000CE01DF91CF911F910F91FF900C94271EC0
:102DB000FF920F931F93CF93DF93EC01F62E042F16
:102DC000122F60E40E94F61F61EACE010E94961F56
:102DD0006F2DCE010E94961F602FCE010E94961F7C
:102DE000612FCE010E94961FCE01DF91CF911F91DE
:102DF0000F91FF900C94271ECF93DF93282F30E084
:102E0000F901E25CFE4F8491F901E059FE4FD49143
:102E1000F901E45AFE4FC491CC2391F081110E9434
:102E20006615EC2FF0E0EE0FFF1FEE5AFE4FA59156
:102E3000B491EC91ED2381E090E021F480E002C0B8
:102E400080E090E0DF91CF9108951F93CF93DF93BF
:102E5000282F30E0F901E25CFE4F8491F901E0593E
:102E6000FE4FD491F901E45AFE4FC491CC23C1F036
:102E7000162F81110E946615EC2FF0E0EE0FFF1F58
:102E8000EC5CFE4FA591B4919FB7F894111104C06A
:102E90008C91D095D82302C0EC91DE2BDC939FBFA0
:102EA000DF91CF911F910895CF93DF9390E0FC01C4
:102EB000E059FE4F2491FC01E45AFE4F849188238F
:102EC00061F190E0880F991FFC01E65DFE4FC5910E
:102ED000D491FC01EC5CFE4FA591B491611109C045
:102EE0009FB7F8948881209582238883EC912E23C4
:102EF0000BC0623061F49FB7F8948881322F30950F
:102F000083238883EC912E2B2C939FBF06C08FB711
:102F1000F894E8812E2B28838FBFDF91CF910895FD
:102F200061E0809159030E94541760E08091590339
:102F30000C9425174F925F926F927F928F929F927F
:102F4000AF92BF92CF92DF92EF92FF920F931F93B7
:102F5000CF93DF934A015B019C0140E050E060E4C5
:102F600072E48FE090E00E94593469017A0161E0D7
:102F7000809159030E945417A8EEB3E0A501940173
:102F80000E9478342B013C01E601D7FC2196D595AF
:102F9000C7958E01000F111F000F111F0550110959
:102FA0000D2C000CEE08FF08812C912C5401841488
:102FB0009504A604B704E0F461E0809159030E94EF
:102FC0002517C230D10518F0C8010197F1F760E06C
:102FD000809159030E942517C230D10518F0C8010D
:102FE0000197F1F7A8958C0C9D1CAE1CBF1CDFCF80
:102FF000DF91CF911F910F91FF90EF90DF90CF90D5
:10300000BF90AF909F908F907F906F905F904F9008
:103010000895CF92DF92EF92FF926C392FEF7207F3
:103020008207920784F19B01AC0165367105810529
:10303000910524F024E630E040E050E057FD27C041
:10304000AFEFB0E00E94783424E630E040E050E09A
:103050000E94593469017A01232B242B252B11F46A
:1030600060E001C061E089E00E94541760E08AE0FE
:103070000E945417D0928900C092880010928B0051
:1030800010928A0028C02CE93FEF4FEF5FEFA1E0DC
:10309000BFEF0E94863424E630E040E050E00E941A
:1030A000593469017A0161E08AE00E94541760E0B6
:1030B00089E00E945417D0928B00C0928A0010922F
:1030C000890010928800C0925103D0925203E0927E
:1030D0005303F0925403FF90EF90DF90CF90089548
:1030E0001F93CF93DF93182FEB0161E00E945417D9
:1030F000209711F460E004C0CF3FD10539F461E0BE
:10310000812FDF91CF911F910C942517E12FF0E0D3
:10311000E25CFE4FE491E330F9F048F4E130B9F0BD
:10312000E230A1F584B5806284BDC8BD34C0E7300B
:10313000E9F0E83019F1E43049F5809180008062CF
:1031400080938000D0938B00C0938A0024C084B504
:10315000806884BDC7BD1FC0809180008068809357
:103160008000D0938900C093880015C08091B00082
:1031700080688093B000C093B3000DC08091B00010
:1031800080628093B000C093B40005C0C038D10500
:103190000CF0B5CFAFCFDF91CF911F910895CF92B3
:1031A000DF92EF92FF920F931F93CF93DF936C39CF
:1031B0002FEF7207820792070CF43FC09B01AC010E
:1031C000653671058105910524F024E630E040E084
:1031D00050E057FD36C0AFEFB0E00E94783424E6EF
:1031E00030E040E050E00E94593469017A01D22F6A
:1031F000CD2D8701232B242B252B11F460E001C05A
:1032000061E086E00E94541760E085E00E94541758
:10321000B60186E00E947018D0935503C093560300
:103220000093570310935803DF91CF911F910F9193
:10323000FF90EF90DF90CF9008952CE93FEF4FEF94
:103240005FEFA1E0BFEF0E94863424E630E040E06B
:1032500050E00E945934D22FC32F8A0161E085E0EB
:103260000E94541760E086E00E9454176D2F7C2F57
:1032700085E0D0CFCF92DF92EF92FF9269017A0181
:103280000E94CF18C701B601FF90EF90DF90CF905A
:103290000C9409188E3008F08E50877080648093EB
:1032A0007C0080917A00806480937A0080917A001B
:1032B00086FDFCCF809178002091790090E0922BE0
:1032C0000895BF92CF92DF92EF92FF920F931F93D8
:1032D000CF93DF933AE0B32EC12CD12C7601CFEF00
:1032E000D3E000E010E084E10E944A1908171907B2
:1032F00008F48C018C179D0708F4EC01C80ED91E48
:10330000E11CF11CBA94B110EECFD701C601801BAD
:10331000910BA109B1098C1B9D0BA109B10923E0F7
:10332000B695A795979587952A95D1F7883F23E07D
:103330009207A105B10508F0A8C08F3D23E09207D0
:10334000A105B10508F0A4C08B3C23E09207A105BC
:10335000B10508F0A0C0833A23E09207A105B105AA
:1033600008F09CC0853823E09207A105B10508F05C
:1033700098C08C3623E09207A105B10508F094C0EF
:10338000813223E09207A105B10508F090C08F3F7C
:1033900022E09207A105B10508F08CC0813D22E032
:1033A0009207A105B10508F088C08F3922E0920785
:1033B000A105B10508F084C08D3622E09207A10571
:1033C000B10508F080C08F3422E09207A105B10555
:1033D00008F07CC0833122E09207A105B10508F016
:1033E00078C0853F21E09207A105B10508F074C0BF
:1033F000813E21E09207A105B10508F070C0833C31
:1034000021E09207A105B10508F06CC0873A21E0E0
:103410009207A105B10508F068C0863921E092073E
:10342000A105B10508F064C08C3721E09207A10521
:10343000B10508F060C08A3521E09207A105B10509
:1034400008F05CC0823321E09207A105B10508F0C5
:1034500058C08F3021E09207A105B10508F054C093
:10346000803D9105A105B10508F051C0853A91054F
:10347000A105B10508F04EC08A379105A105B10537
:1034800008F04BC08FEF90E04AC080E090E047C06A
:103490008FE090E044C083E190E041C08CE090E098
:1034A0003EC08AE090E03BC085E090E038C089E013
:1034B00090E035C08BE090E032C08DE090E02FC00E
:1034C00082E090E02CC080E190E029C08EE090E0A6
:1034D00026C088E090E023C083E090E020C084E133
:1034E00090E01DC081E190E01AC087E190E017C034
:1034F00085E190E014C087E090E011C086E190E0A3
:103500000EC082E190E00BC086E090E008C084E04D
:1035100090E005C089E190E002C088E190E0DF9191
:10352000CF911F910F91FF90EF90DF90CF90BF90C0
:1035300008958F929F92AF92BF92CF92DF92EF92B7
:10354000FF926B017C010E9497254B015C01C11425
:10355000D104E104F104F1F00E949725DC01CB01D4
:1035600088199909AA09BB09883E9340A105B105AC
:1035700070F321E0C21AD108E108F10888EE880E44
:1035800083E0981EA11CB11CC114D104E104F10414
:1035900019F7DDCFFF90EF90DF90CF90BF90AF9005
:1035A0009F908F9008958230D1F018F4813089F087
:1035B0000895833021F0843031F560E00BC060E085
:1035C00087E00E94251760E08DE00E94251761E0EA
:1035D0000FC061E087E00E94251760E005C061E050
:1035E00087E00E94251761E08DE00E94251760E0CA
:1035F0008CE00E94251769E170E080E090E00E9475
:10360000991A0C94611908954F925F926F927F926C
:103610009F92AF92BF92CF92DF92EF92FF920F9361
:103620001F93CF93DF93CDB7DEB728970FB6F894EB
:10363000DEBF0FBECDBF7C01CE0101966C015E01E5
:1036400099E0A90EB11C992493940E94BC25F7011E
:103650004084518462847384DC01CB018419950910
:10366000A609B7094197A105B10508F09782F701AE
:103670008781882309F466C00E94BC25F701608712
:10368000718782879387178260E4C7010E94F61FC3
:1036900062EAC7010E94961F62EAC7010E94961F54
:1036A00062EAC7010E94961F61E0C7010E94961F4F
:1036B000C7010E94271EF701868160E00E9454170F
:1036C000F701868190E0FC01E059FE4F6491FC0116
:1036D000E45AFE4FE491F0E0EE0FFF1FEE5AFE4F6A
:1036E0008591949100E712E620E030E040E00E94EE
:1036F0001526611571058105910551F02B013C01DD
:10370000FFEF4F1A5F0A6F0A7F0A2FE0722203C091
:10371000412C512C32018CE2481681E0580661049C
:10372000710430F09CE2491A91E0590A610871086D
:10373000C301B2010E944A36F70164877587868704
:10374000978709C0F70164857585868597850E94EE
:1037500012362B013C01141415041604170434F01E
:1037600084EA482E88E3582E612C712CC301B201E3
:103770000E944A3620E030E048E652E40E94A0353C
:10378000F60161937193819391936F0162E170E00F
:1037900080E090E00E94991AAC14BD0409F055CF66
:1037A000C980DA80EB80FC807D809E80AF80B88409
:1037B000272D392DA501B601C7010E94793787FF52
:1037C00003C0C72CD92C7501B601C70128960FB6C6
:1037D000F894DEBF0FBECDBFDF91CF911F910F9147
:1037E000FF90EF90DF90CF90BF90AF909F907F9031
:1037F0006F905F904F900895CF92DF92EF92FF927B
:103800000F931F93CF93DF936C017A018B01C0E07C
:10381000D0E0CE15DF0581F0D8016D918D01D60184
:10382000ED91FC910190F081E02DC6010995892B65
:1038300011F02196EECF7E01C701DF91CF911F914C
:103840000F91FF90EF90DF90CF9008952091260484
:10385000309127042817390771F49091250480913D
:103860002404981741F0E0912504F0E0E35BFB4F5E
:10387000808190E008958FEF9FEF089508951F9342
:10388000CF93DF93DC015C968D919C915D970097BF
:1038900039F421E030E013963C932E9312973BC00D
:1038A0005196ED91FC91529750962C915097322F52
:1038B00030951FB75E964C915E97742F727041FDE4
:1038C0006095F8944081772311F0422B01C0432387
:1038D0004083EC012197F1F748E0508160FF02C07E
:1038E000522B01C053235083EC012197F1F76695C9
:1038F000415099F78081772319F08323808302C098
:10390000282B20831FBF5C968D919C915D9701971A
:10391000F1F781E090E0DF91CF911F910895209120
:103920002604309127042817390771F48091240464
:103930002091250490E0805C9F4F821B910960E4F8
:1039400070E00E945038089580E090E00895209142
:1039500026043091270428173907B9F490912504DB
:1039600080912404981789F0E0912504F0E0E35B4E
:10397000FB4F80812091250430E02F5F3F4F2F7354
:1039800033272093250490E008958FEF9FEF08954B
:1039900008950E949F391F920F920FB60F92112423
:1039A0002F933F934F935F936F937F938F939F9347
:1039B000AF93BF93EF93FF93E0912604F091270418
:1039C000309709F451C0968DA685B785858591FFFE
:1039D00004C09C91892329F447C09C91892309F054
:1039E00043C0A389B4899C918589809589238C9350
:1039F000868997890197F1F7608D718DA685B785C6
:103A0000558538E020E0CB010197F1F7822F90E057
:103A100095958795282F4C91452309F020683150C2
:103A200091F7868D81FD20958091240490E0019688
:103A30008F73992730912504381749F0A0912404F9
:103A4000B0E0A35BBB4F2C938093240403C0868D0E
:103A50008160868F828D938D0197F1F7A389B48958
:103A60009C918589892B8C93FF91EF91BF91AF91A8
:103A70009F918F917F916F915F914F913F912F9186
:103A80000F900FBE0F901F901895E0912604F091B3
:103A90002704E817F90769F4A389B4899C918589FB
:103AA000809589238C93109227041092260481E03C
:103AB000089580E008951F920F920FB60F9211247F
:103AC0002F933F938F939F93EF93FF9380914C0499
:103AD00087FF05C0109285001092840005C0809178
:103AE0004C0487FD80914C0480914C048F5F80933F
:103AF0004C0480914C0487FF20C080914C048C3092
:103B0000E4F4209184003091850080914C04082ECB
:103B1000000C990BFC01EE0FFF1F8E0F9F1FFC0185
:103B2000E85DFB4F81819281820F931F9093890002
:103B30008093880080914C0417C0809184009091FC
:103B40008500049680349C4918F480E49CE905C003
:103B500080918400909185000496909389008093D1
:103B600088008FEF80934C04FF91EF919F918F918C
:103B70003F912F910F900FBE0F901F901895DC0171
:103B800013966C93139770E0FB01E059FE4FE4919C
:103B90001696EC931697FB01E45AFE4FE491F0E081
:103BA000EE0FFF1FEE5AFE4F8591949118969C934D
:103BB0008E9317970895AF92BF92CF92DF92EF92B4
:103BC000FF920F931F93CF93DF935C010AE010E005
:103BD000C12CD12C7601C0E0D0E0C5010E94142395
:103BE000C817D90708F4EC01C80ED91EE11CF11C56
:103BF0000150110991F7D701C6018C1B9D0BA1093A
:103C0000B10923E0B695A795979587952A95D1F7A1
:103C1000DF91CF911F910F91FF90EF90DF90CF90A8
:103C2000BF90AF9008950F931F93CF938C01C62F31
:103C30000E94BD21EC2FF0E0EE0FFF1FE35EFE4F70
:103C40008181F8018383CF911F910F910895CF93C4
:103C5000DF93EC0161E08B810E9454178D818130EC
:103C6000C1F487E592E00197F1F700C0000060E041
:103C70008C810E94251760E08B810E94251761E0EE
:103C80008C810E94251761E08B81DF91CF910C948C
:103C9000251760E08C810E9425179AE19A95F1F72B
:103CA00000C060E08B810E9425178AE18A95F1F7B8
:103CB00000C061E08C810E9425179AE19A95F1F786
:103CC00000C061E08B810E9425178AE18A95F1F797
:103CD00000C0DF91CF9108951F93CF93DF93EC0144
:103CE000162F61E08B810E9454178D818130B9F4C9
:103CF00087E592E00197F1F700C00000111102C0C2
:103D000060E001C061E08B810E94251761E08C8139
:103D10000E94251760E08C810E94251718C01111A0
:103D200002C060E001C061E08B810E94251761E064
:103D30008C810E9425179AE19A95F1F700C060E006
:103D40008C810E9425178AE18A95F1F700C061E015
:103D50008B81DF91CF911F910C9425171F93CF93E7
:103D6000DF93EC0160E08B810E9454178D818130DC
:103D7000D1F487E592E00197F1F700C0000061E01F
:103D80008B810E94251761E08C810E9425178B8111
:103D90000E94FC1611E0892B09F410E060E08C8190
:103DA0000E9425171FC061E08B810E9425179AE1B0
:103DB0009A95F1F700C061E08C810E9425178AE195
:103DC0008A95F1F700C08B810E94FC1611E0892BC7
:103DD00009F410E060E08C810E9425179AE19A9521
:103DE000F1F700C0812FDF91CF911F9108950F93BC
:103DF0001F93CF93DF938C0160E0FC0183810E94CD
:103E00005417F80185818130E1F487E592E001974C
:103E1000F1F700C00000D8E061E0F80184810E9461
:103E20002517CC0FF80183810E94FC16892B09F01D
:103E3000C16060E0F80184810E942517D15061F7CC
:103E40001DC0D8E061E0F80184810E942517CC0FE5
:103E5000F80183810E94FC16892B09F0C160FAE108
:103E6000FA95F1F700C060E0F80184810E942517FF
:103E7000FAE1FA95F1F700C0D15021F78C2FDF91CC
:103E8000CF911F910F9108950F931F93CF93DF93BD
:103E9000EC01162F61E08C810E94541761E08B8148
:103EA0000E9454178D818130D9F487E592E0019703
:103EB000F1F700C0000008E017FF02C061E001C098
:103EC00060E08B810E942517110F61E08C810E94B8
:103ED000251760E08C810E942517015069F720C0EA
:103EE00008E017FF02C061E001C060E08B810E9422
:103EF00025179AE19A95F1F700C0110F61E08C81C6
:103F00000E9425178AE18A95F1F700C060E08C8154
:103F10000E9425179AE19A95F1F700C0015009F720
:103F200080E0DF91CF911F910F910895CF93DF93A0
:103F3000EC018FE193E00197F1F700C00000CE01A2
:103F40000E94441F87EC90E00197F1F700C0000049
:103F5000CE01DF91CF910C94AE1ECF93DF93EC0195
:103F600061E08C810E94541761E08B810E9454179C
:103F70008D818130C1F487E592E00197F1F700C0AF
:103F8000000061E08B810E94251761E08C810E9416
:103F9000251760E08B810E94251760E08C81DF91FE
:103FA000CF910C94251761E08B810E9425179AE12F
:103FB0009A95F1F700C061E08C810E9425178AE193
:103FC0008A95F1F700C060E08B810E9425179AE185
:103FD0009A95F1F700C060E08C810E9425178AE174
:103FE0008A95F1F700C0DF91CF9108951F93CF9389
:103FF000DF93EC01162F0E94AD1F612F660FCE01DB
:104000000E94441F80EA8A95F1F7CE01DF91CF919B
:104010001F910C94AE1ECF92DF92FF920F931F93CD
:10402000CF93DF9300D000D0CDB7DEB78C0161E72E
:104030000E94F61F60EBC8010E94961FC8010E94F3
:10404000271E6AE070E080E090E00E94991AC801A3
:104050000E94AD1F63EEC8010E94441FC8010E9468
:10406000AE1E34E0F32ECE0101966C01FA94C80125
:10407000FF2051F00E94F71EF60181936F0160E06E
:10408000C8010E946C1EF2CF0E94F71E8C8361E073
:10409000C8010E946C1EC8010E94271E89818A3AAD
:1040A00059F48C818B3B41F48A8190E0982F8827CA
:1040B0002B81820F911D02C081E090E0F80197836F
:1040C0008683F801868197810F900F900F900F9053
:1040D000DF91CF911F910F91FF90DF90CF900895C6
:1040E0000F931F93CF938C01C62F0E94BD21EC2FFD
:1040F000F0E0EE0FFF1FE35EFE4F8181D8011396C3
:104100008C931397808114968C93149715961C9218
:10411000CF911F910F9108950F931F93CF938C010F
:10412000C62F0E947020EC2FF0E0EE0FFF1FE35E21
:10413000FE4F8081F80186831582CF911F910F91E8
:10414000089570E080E090E00E9448362CE53FE85A
:1041500042EA5FE30E94A0350E941936862F653B34
:1041600030F4611102C087E008C0643B11F486E2BC
:1041700004C066E00E944438885F8093B3000895CD
:1041800070E080E090E00E9448362CE53FE842EA8B
:104190005FE30E94A0350E941936862F653B30F4FC
:1041A000611102C087E008C0643B11F486E204C0DC
:1041B00066E00E944438885F8093B40008951F939E
:1041C000CF93DF93EC01142F0E94C020612FCE010A
:1041D000DF91CF911F910C94A1200F931F93CF9348
:1041E0008C01C62F0E94BD21EC2FF0E0EE0FFF1FC7
:1041F000E35EFE4F8081D80113968C9313979181D3
:1042000014969C9361E00E94541761E0F801848148
:10421000CF911F910F910C945417FC01A381B4818D
:10422000478120853185C901880F991F280F391FC3
:10423000728563855FB7F8948C91942F909598233D
:10424000842BE72FF62F2E0F3F1FE217F30781F085
:10425000419168E08C9300C047FF9C93440F00C0DD
:1042600000C000C008F49C9300C06A9599F7EDCF98
:104270005FBF789461E070E080E090E00C94991A60
:104280000F93FC01A62FB0E080859185A817B90790
:10429000B8F4862F880F680F70E0A285B385A60F4B
:1042A000B71F2C93A285B385A60FB71F11964C9309
:1042B00082859385FC01E60FF71F028381E001C030
:1042C00080E00F910895CF92DF92EF92FF920F93CB
:1042D0001F93CF93DF937C01142FD22EC02E611138
:1042E00011C0C0E0D0E0F70180859185C817D907DB
:1042F00070F40C2D2D2D412F6C2FC7010E944021F1
:104300002196F1CF61500E94402180E001C081E000
:10431000DF91CF911F910F91FF90EF90DF90CF90A1
:1043200008951F93CF93DF93EC01162F0E94BD21B8
:10433000E12FF0E0EE0FFF1FE35EFE4F8181282F9B
:1043400030E0F901E059FE4FE491EF83F901E45ABE
:10435000FE4FE491F0E0EE0FFF1FEC5CFE4F259165
:1043600034913C832B8361E00E94541764E0CE01BA
:10437000DF91CF911F910C948F15DC01E62FF0E0B7
:10438000EE0FFF1FE35EFE4F80818C9381811196BB
:104390008C93119712966C9308951F93CF93DF938C
:1043A000EC01162F0E94BD21E12FF0E0EE0FFF1F60
:1043B000E35EFE4F81818B8380818C838B8160E003
:1043C0000E9454178C8161E00E9454178C8160E038
:1043D000DF91CF911F910C942517DC012C91119640
:1043E000ED91FC911297F8948181922F90958923F9
:1043F000818378948DE743E050E0815021F1DA0128
:104400001197F1F730813223C1F3F8948281892327
:1044100082838181822B81837894ABE7B7E0119707
:10442000F1F7F89481819823918383E191E00197DA
:10443000F1F78081282381E009F080E07894E3E6B9
:10444000F6E03197F1F708950F931F93CF93DF9321
:10445000EC01162F4F960E94BD21E12FF0E0EE0FE8
:10446000FF1FE35EFE4F118100811B821A8288EEDE
:1044700093E0A0E0B0E08C839D83AE83BF838FE0A8
:1044800091E0998388831F8A1E8A198E188E1B8E4D
:104490001A8E1D8E1C8E6E8D6E7F6D7F6E8F669553
:1044A000617081E06827812F0E94251761E0812FCC
:1044B0000E945417812F90E0FC01E059FE4FE491D7
:1044C000E88BFC01E45AFE4FE491F0E0EE0FFF1F91
:1044D000EC5CFE4F859194919A8B898B60E0802FE4
:1044E0000E9454178E8D81FD04C061E0802F0E94D0
:1044F00025170C87802F90E0FC01E059FE4FE491D6
:10450000ED87FC01E45AFE4FE491F0E0EE0FFF1F4F
:10451000EE5AFE4F859194919F878E878FE091E0B0
:104520009983888383E08AA31B8E1A8E198E188E36
:104530001F8A1E8A85E690E09D8F8C8F063108F0D9
:104540004EC081E290E09F8B8E8B83E690E0998F46
:10455000888F82E490E09B8F8A8F309168000830CA
:1045600058F021E00E3008F420E091E0892F01C0DE
:10457000880F2A95EAF701C084E0832B80936800B6
:104580009C85983038F09E3040F0963148F020E01D
:1045900030E008C02DE630E005C02BE630E002C078
:1045A0002CE630E03C8B2B8B983030F481E001C05E
:1045B000880F9A95EAF70EC0292F30E09E3018F444
:1045C0002850310902C02E50310981E001C0880F06
:1045D0002A95EAF78D8B8C8D9D8D0197F1F78A8D49
:1045E0009B8D892BE1F08091260490912704C817B8
:1045F000D907A9F0009711F00E94451D8E8D8E7F7E
:104600008E8F1092240410922504D0932704C09317
:104610002604EB89FC8990818D89892B8083DF9129
:10462000CF911F910F910895CF93DF93EC0160E03C
:104630008B810E9454178B81DF91CF910C944A1982
:104640000F931F93CF93DF93EC018B810E94FC1695
:104650008C018C810E94FC16AC0121E030E0012B22
:1046600011F420E030E0220F331F81E0452B09F4E4
:1046700080E0822BDF91CF911F910F9108951F93BE
:10468000CF93DF93EC01162F0E94BD21E12FF0E0C4
:10469000EE0FFF1FE35EFE4F80818B8381818C8351
:1046A0008B8160E00E9454178C8160E0DF91CF9194
:1046B0001F910C9454178F929F92AF92BF92CF92FA
:1046C000DF92EF92FF920F931F93CF93DF937C01C2
:1046D0000AE010E0812C912C5401C0E0D0E0CC2401
:1046E000CA9433E0D32E60E0F70183810E9454170F
:1046F000F70183810E944A199601281B390BC901D1
:10470000C217D30708F4E901880E991EA11CB11C39
:104710000150110941F7D501C4018C1B9D0BA10962
:10472000B10923E0B695A795979587952A95D1F776
:10473000DF91CF911F910F91FF90EF90DF90CF907D
:10474000BF90AF909F908F900895CF93DF93EC012F
:104750000E94702081E08D83CE010E94AD1F67EE24
:10476000CE010E94961F60E8CE010E94961F64EA67
:10477000CE010E94961F6AE9CE010E94961F61E851
:10478000CE010E94961F63E8CE010E94961FCE01C3
:10479000DF91CF910C94271ECF92DF92EF92FF9280
:1047A0000F931F93CF93DF93EC01E62E8A01F22E35
:1047B0000E94AD1F6E0182E4C80ED11CF60160811B
:1047C000660FCE010E94441FCE010E94AE1E6E2DC8
:1047D000CE010E94441FCE010E94AE1ECE010E9457
:1047E000271EF0E5FA95F1F7CE010E94AD1FF60104
:1047F0006081660F6160CE010E94441FCE010E945D
:10480000AE1EFA94EF2C6801EE2061F0CE010E94FA
:10481000F71EF60181936F0160E0CE010E946C1ECD
:10482000EA94F2CF0F0D111DCE010E94F71EF80180
:10483000808361E0CE010E946C1ECE01DF91CF919A
:104840001F910F91FF90EF90DF90CF900C94271E57
:104850000F931F93CF93DF938C01D62FC42F0E9409
:10486000AD1F6D2F660F6A59C8010E94441FC80111
:104870000E94AE1EEC2FC7FF07C0EF77F0E0E95DA6
:10488000FE4F6081606804C0F0E0E95DFE4F60812A
:10489000C8010E94441FC801DF91CF911F910F9161
:1048A0000C94271E0F931F93CF93DF93EC010E946C
:1048B000AD1F62E5CE010E94441FCE010E94AE1ED4
:1048C00062E9CE010E94441FCE010E94AE1ECE01BD
:1048D0000E94AD1F63E5CE010E94441FCE010E94DD
:1048E000AE1ECE010E94F71E182F61E0CE010E947D
:1048F0006C1ECE010E94271E143411F0103161F598
:1049000081E08E8319850A85412F61E0CE010E94E6
:10491000771619870A871F8108858E81811103C048
:10492000CE010E945224412F6FE0CE010E947716E3
:104930001F83088741E060E0CE010E94771663E0A4
:1049400070E080E090E00E94991A43E060E0CE01C0
:104950000E94771681E001C080E0DF91CF911F9126
:104960000F910895AF92BF92CF92DF92EF92FF9294
:104970000F931F93CF93DF93EC015B016A017901E1
:104980008E81811103C0CE010E94522464E1CE01C8
:104990000E943B16F8019183808366E1CE010E945C
:1049A0003B16F5019183808368E1CE010E943B169E
:1049B000F601918380836AE1CE010E943B16F701E4
:1049C0009183808389859A85853D910519F150F4FD
:1049D000009729F1803C910591F56AE970E080E04B
:1049E00090E021C0863F910581F08F3F910541F015
:1049F0008B3E910521F562E370E080E090E013C00A
:104A000063E070E080E090E00EC068E170E080E07C
:104A100090E009C065E670E080E090E004C06CEBD7
:104A200072E080E090E0DF91CF911F910F91FF90B5
:104A3000EF90DF90CF90BF90AF900C94991ADF91D8
:104A4000CF911F910F91FF90EF90DF90CF90BF908B
:104A5000AF9008951F920F920FB60F9211242F93CB
:104A60003F938F939F93AF93BF93EF93FF93909157
:104A7000C60080918E0481110EC0923509F04AC0A3
:104A8000E0918D0438ECE39FF0011124E25AFE4FCF
:104A9000908381E00EC0813091F4923469F4E0910A
:104AA0008D0488ECE89FF0011124E25AFE4F9183B7
:104AB00082E080938E042EC010928E042BC0209131
:104AC0008D0438EC239FF0011124E25AFE4FDF01E0
:104AD000A80FB11D9C938F5F80938E0492818917DC
:104AE00010F4883C80F010928E048091EE02222314
:104AF00021F010928D04826004C091E090938D04A7
:104B000081608093EE028091F002811103C081E008
:104B10008093F002FF91EF91BF91AF919F918F91A0
:104B20003F912F910F900FBE0F901F9018953FB798
:104B3000F8948091940490919504A0919604B0917A
:104B4000970426B5A89B05C02F3F19F00196A11D1B
:104B5000B11D3FBFBA2FA92F982F8827820F911D13
:104B6000A11DB11DBC01CD0142E0660F771F881F5A
:104B7000991F4A95D1F708952FB7F8946091900442
:104B80007091910480919204909193042FBF0895A5
:104B90001F920F920FB60F9211242F933F938F9372
:104BA0009F93AF93BF938091900490919104A091B3
:104BB0009204B091930430918F0423E0230F2D379A
:104BC00020F40196A11DB11D05C026E8230F029611
:104BD000A11DB11D20938F048093900490939104A4
:104BE000A0939204B09393048091940490919504BF
:104BF000A0919604B09197040196A11DB11D8093D8
:104C0000940490939504A0939604B0939704BF9155
:104C1000AF919F918F913F912F910F900FBE0F9069
:104C20001F90189580E090E00895CF92DF92EF9268
:104C3000FF920F931F93E82FF92F05C00150110920
:104C40002109310961F1908196239417B9F305C0C8
:104C5000015011092109310911F190819623941312
:104C6000F7CFC12CD12CE12CF12C0AC08FEFC81A40
:104C7000D80AE80AF80A0C151D052E053F0579F03B
:104C800080818623841791F36C2D7D2D8E2D9F2D91
:104C90001F910F91FF90EF90DF90CF90089560E00B
:104CA00070E080E090E01F910F91FF90EF90DF9017
:104CB000CF900895CF93DF93CDB7DEB728970FB687
:104CC000F894DEBF0FBECDBF789484B5826084BDFA
:104CD00084B5816084BD85B5826085BD85B5816000
:104CE00085BD80916E00816080936E00109281007E
:104CF0008091810082608093810080918100816039
:104D000080938100809180008160809380008091F9
:104D1000B10084608093B1008091B0008160809385
:104D2000B00080917A00846080937A0080917A004C
:104D3000826080937A0080917A00816080937A000B
:104D400080917A00806880937A001092C10060E0C0
:104D500088E00E9454178091C00082608093C00058
:104D60001092C50080E18093C4008091C1008068EA
:104D70008093C1008091C10080618093C1008091C7
:104D8000C10088608093C1008091C20084608093DC
:104D9000C2008091C20082608093C2006CE271E028
:104DA00080E090E00E94991A0E94901700E020E0B5
:104DB00040E060E08FE193E00E946321E2E7F1E0F0
:104DC000E491E0932603EEE5F1E0E491F0E0EE0FEC
:104DD000FF1FEC5CFE4F8591949190932303809389
:104DE000220361E082E00E94541720E040E060E08E
:104DF0008FE193E00E9463218FE193E00E940D21F7
:104E00006CE271E080E090E00E94991A20E04EE1AF
:104E100060E08FE193E00E9463218FE193E00E94C4
:104E20000D216CE271E080E090E00E94991A2EE181
:104E300040E060E08FE193E00E9463218FE193E026
:104E40000E940D216CE271E080E090E00E94991ACE
:104E50000EE120E040E060E08FE193E00E946321FA
:104E60008FE193E00E940D216CE271E080E090E020
:104E70000E94991A44EF51E060E070E084EF91E005
:104E80000E949A1761E085E00E94541761E086E075
:104E90000E94541761E089E00E94541761E08AE0A3
:104EA0000E9454178DEA809380008BE080938100EC
:104EB000109289001092880010928B0010928A0044
:104EC00064EF71E080E090E00E94991A82E50E9410
:104ED000BA1582E40E94BA1586E00E94BA1580E0F5
:104EE0000E94BA1583E00E94BA158DE90E94BA1596
:104EF0009FE088E10FB6F894A895809360000FBEFC
:104F000090936000A895A8958091EE0280FF3CC028
:104F10008E7F8093EE028091600130E020E090E08F
:104F20000197432F50E0481759073CF4FA01E25A21
:104F3000FE4F4081240F3F5FF4CFFC01E25AFE4F49
:104F40008081281308C080916201813A10F480E0CA
:104F50003DC080E03FC082E50E94BA1582E40E9415
:104F6000BA1587E00E94BA15809161010E94BA15B6
:104F7000809162010E94BA1580E00E94BA1590915A
:104F800061018091620141C081FF43C08D7F8093A8
:104F9000EE028091280230E020E090E00197432F5C
:104FA00050E0481759073CF4FA01EA5DFD4F408193
:104FB000240F3F5FF4CFFC01EA5DFD4F8081281391
:104FC0000CC080912A02813A20F481E00E940C0FEB
:104FD00020C081E00E94EE001CC082E50E94BA154C
:104FE00082E40E94BA1587E00E94BA1580912902D6
:104FF0000E94BA1580912A020E94BA1580E00E9490
:10500000BA159091290280912A02890F86560E9432
:10501000BA1588E00E94FC16019719F481E080938C
:10502000330388E00E94FC16892B29F48091330316
:1050300081110C94313280913203882309F428C104
:10504000109232038091F002811100C180913003EF
:10505000813009F4A0C028F0823009F0F7C015E0D3
:105060004DC015E000E020E042E360E08FE193E016
:105070000E9463218FE193E00E940D2168EC70E0B3
:1050800080E090E00E94991A02E320E040E060E0B6
:105090008FE193E00E9463218FE193E00E940D2154
:1050A00064E670E080E090E00E94991AA8951150A3
:1050B000C9F64DE750E060E070E088EB91E00E94B7
:1050C0009A170E9490174DE750E060E070E08EEE76
:1050D00091E00E949A170E9490174AEF50E060E01A
:1050E00070E080E193E00E949A170E949017A895C3
:1050F00022E02093300320931C03A8C000E020E0AE
:1051000042E360E08FE193E00E9463218FE193E04E
:105110000E940D2168EC70E080E090E00E94991AF6
:1051200002E320E040E060E08FE193E00E94632131
:105130008FE193E00E940D2164E670E080E090E052
:105140000E94991AA8951150C9F64DE750E060E009
:1051500070E088EB91E00E949A170E9490174DE74B
:1051600050E060E070E08EEE91E00E949A170E949D
:1051700090174AEF50E060E070E080E193E00E9419
:105180009A170E949017A89581E08093300383E0DE
:1051900080931C035BC015E000E020E042E360E088
:1051A0008FE193E00E9463218FE193E00E940D2143
:1051B00068EC70E080E090E00E94991A02E320E041
:1051C00040E060E08FE193E00E9463218FE193E093
:1051D0000E940D2164E670E080E090E00E94991A40
:1051E000A8951150C9F64DE750E060E070E080E10D
:1051F00093E00E949A170E9490174DE750E060E0FC
:1052000070E08EEE91E00E949A170E9490174AEF8C
:1052100050E060E070E088EB91E00E949A170E94F5
:105220009017A89560E070E086E00E94701860E03A
:1052300070E085E00E94701810928B0010928A0036
:105240001092890010928800109230038091EF0232
:105250008823F1F082E50E94BA1582E40E94BA1513
:1052600088E00E94BA1580E00E94BA1581E00E9491
:10527000BA1589EF0E94BA1581E00E94BA1587E934
:105280000E94BA1587E90E94BA1587E90E94BA15EB
:1052900080913103882309F469C08091F2029091D2
:1052A000F302A091F402B091F5020196A11DB11D87
:1052B000883EE3E09E07A105B10548F48093F20221
:1052C0009093F302A093F402B093F50247C01092BA
:1052D000F2021092F3021092F4021092F50285E1AC
:1052E0000E944A19BC0180E090E00E94483620E00C
:1052F00030E040E75CE30E9486376B017C0120E0F0
:1053000030E040E050E40E94793718163CF52AE975
:1053100039E949ED50E4C701B6010E949B3587FF8A
:105320001DC082E50E94BA1582E40E94BA1588E089
:105330000E94BA1580E00E94BA1582E00E94BA1558
:105340008DEF0E94BA1581E00E94BA158CE90E9487
:10535000BA158091F1028F5F8093F1028091F10282
:105360008A3020F01092F1021092310380913003C4
:10537000823009F4E4C238F4882369F0813009F4FA
:10538000EBC10C942732803109F4BAC3813109F49E
:1053900019C60C9427320E94BC25C0903E03D090C1
:1053A0003F03E0904003F0904103DC01CB018C19F6
:1053B0009D09AE09BF098D3D9540A105B10510F4C9
:1053C0000C9427324AE3842E43E0942E56E3A52E14
:1053D00053E0B52E6DE1C62E61E0D62E10E000E060
:1053E0000F5F802F0E94D31A782ED4018D934D0128
:1053F00081110BC060E0F60182810E94541760E0C9
:10540000D60113968C910E945417D501EC917E160B
:1054100009F459C18E2F90E0FC013297E831F10573
:1054200008F050C1EA5BFF4F0C94643880911D0373
:1054300090911E03009731F00E94163910921E03BE
:1054400010921D038091180390911903009731F079
:105450000E941639109219031092180380911A03B2
:1054600090911B03009709F42DC10E9416391092E8
:105470001B0310921A0326C1809116039091170303
:10548000009709F41FC10E94163910921703109259
:10549000160318C18091140390911503009709F425
:1054A00011C10E94163910921503109214030AC1FB
:1054B0008091120390911303009709F403C10E9495
:1054C00016391092130310921203FCC0809110033E
:1054D00090911103009709F4F5C00E9416391092BB
:1054E000110310921003EEC080912E0390912F03B0
:1054F000009709F4E7C00E94163910922F0310920A
:105500002E03E0C080910E0390910F03009731F0BD
:105510000E94163910920F0310920E03E0900C03B4
:10552000F0900D03E114F10409F4CCC0C7010E940E
:10553000451D8FE091E0F70191838083C7010E94B0
:10554000451DC7010E94163910920D0310920C03DD
:10555000B9C08091340390913503009709F4B2C02B
:105560000E9416391092350310923403ABC080911B
:105570000A0390910B03009709F4A4C00E94163906
:1055800010920B0310920A039DC080910803909122
:105590000903009709F496C00E9416391092090376
:1055A000109208038FC0E0902C03F0902D03E114BB
:1055B000F10409F487C0D7011A968D919C911B972D
:1055C0000E941639C7010E94163910922D031092BD
:1055D0002C0378C08091060390910703009709F48B
:1055E00071C00E94163910920703109206036AC018
:1055F0008091040390910503009709F463C00E9411
:10560000163910920503109204035CC080910203C6
:1056100090910303009709F455C00E941639109227
:105620000303109202034EC0809100039091010386
:10563000009709F447C00E94163910920103109296
:10564000000340C08091FE029091FF020097D1F1CB
:105650000E9416391092FF021092FE0233C0809110
:10566000FC029091FD02009769F10E941639109298
:10567000FD021092FC0226C08091FA029091FB027A
:10568000009701F10E9416391092FB021092FA0263
:1056900019C08091F8029091F902009799F00E9448
:1056A00016391092F9021092F8020CC08091F6029D
:1056B0009091F702009731F00E9416391092F7028C
:1056C0001092F60211E0F50171925F01F2E0CF0E47
:1056D000D11C043009F084CE112399F182E5809326
:1056E0005B0382E480935C0310925E0385E0809309
:1056F0005F0380913603809360038091370380932A
:105700006103809138038093620380913903809311
:105710006303109264031092650310926603109263
:1057200067032EE020935D03EBE5F3E08191380EF3
:1057300083E0E836F807D1F7309268038EE00E94E4
:10574000C1150E94BC2560933E0370933F03809374
:105750004003909341037BC680911D0390911E03EB
:10576000009771F0DC0112964C9150E020911C03DF
:10577000022E000C330B4217530779F00E941639A2
:1057800080E190E00E947E387C0160911C030E94C1
:105790008C20F0921E03E0921D0380911D039091D6
:1057A0001E030E94041B6B017C0120E030E048E4F2
:1057B00052E40E94793718162CF410924303109289
:1057C00042032DC020E030E048EB51E4C701B601B0
:1057D0000E9479370091430387FD14C020E030E038
:1057E00048E452E4C701B6010E949B35181654F0F4
:1057F000011102C081E003C081E0809342038093E5
:1058000043030DC00023B1F3013021F4B2E0B093A3
:10581000430305C0E2E0E0934203E0934303809139
:1058200042038130E1F020F0823009F446C00FC617
:1058300027E330E040E050E067E370E080E090E094
:105840000E943A1902E320E040E060E08FE193E03B
:105850000E9463218FE193E00E940D21F8C500E0D2
:1058600020E042E360E08FE193E00E9463218FE15A
:1058700093E00E940D210E94023428EC30E040E0C9
:1058800050E00E945934653648F022E630E040E0AE
:1058900050E06EE97FEF8FEF9FEF08C02EE93FEFFA
:1058A0004FEF5FEF62E670E080E090E00E943A190F
:1058B0006CE271E080E090E03EC000E022E340E076
:1058C00060E08FE193E00E9463218FE193E00E940A
:1058D0000D2126EA3FEF4FEF5FEF66EA7FEF8FEF94
:1058E0009FEF0E943A1960E971E080E090E00E9429
:1058F000991AA8950E94023428EC30E040E050E06C
:105900000E945934653648F022E630E040E050E02D
:105910006EE97FEF8FEF9FEF08C02EE93FEF4FEF6B
:105920005FEF62E670E080E090E00E943A196AE87A
:1059300072E080E090E00E94991AA89588C5809155
:105940001A0390911B03009771F0DC0112964C91A1
:1059500050E020911C03022E000C330B421753071A
:1059600079F00E94163985E090E00E947E387C0133
:1059700060911C030E943F23F0921B03E0921A03E4
:1059800080911A0390911B030E9420238130E9F03B
:1059900030F0823081F1833009F44FC058C52AE2DB
:1059A00030E040E050E06AE270E080E090E00E9489
:1059B0003A19BAE0B093000100E028EC40E060E062
:1059C0008FE193E00E9463212FC02AE230E040E0A3
:1059D00050E06AE270E080E090E00E943A19809125
:1059E0000001823018F081508093000100E020E037
:1059F00048EC60E015C02AE230E040E050E06AE2A6
:105A000070E080E090E00E943A19809100018431BA
:105A100018F48F5F8093000100E020E048EC61E023
:105A20008FE193E00E9440218FE193E00E940D21DD
:105A300010924503109244030AC5809100018A30F8
:105A400049F42EEC3FEF4FEF5FEF6EEC7FEF8FEFFF
:105A50009FEF13C08A3048F42DE230E040E050E080
:105A600066EA7FEF8FEF9FEF08C026EA3FEF4FEF28
:105A70005FEF6DE270E080E090E00E943A19809163
:105A8000440390914503019690934503809344030A
:105A900080914403909145038035934C08F4D7C41A
:105AA00080E593EC909345038093440320E030E03D
:105AB000A90160E070E0CB010E943A1900E020E00B
:105AC00040E060E08FE193E00E9463218FE193E08A
:105AD0000E940D2164EF71E080E090E00E94991A2D
