:100000000C947A000C94A2000C94A2000C94CA25C3
:100010000C94CA250C94CA250C94A2000C94A2003E
:100020000C94A2000C94A2000C94A2000C94422602
:100030000C94A2000C94A2000C94A2000C94A200B8
:100040000C9480250C94A2000C94A6260C94A2007B
:100050000C94A2000C94A2000C94A2000C94A20098
:100060000C94A2000C94A200084AD73B3BCE016E30
:1000700084BCBFFDC12F3D6C74319ABD56833DDAFF
:100080003D00C77F11BED9E4BB4C3E916BAAAABE0E
:10009000000000803F0000000000240027002A002C
:1000A0000000000800020100000304070000000037
:1000B0000000000000000000250028002B000000C8
:1000C000000023002600290004040404040404049E
:1000D00002020202020203030303030301020408F3
:1000E00010204080010204081020010204081020A2
:1000F0005B33A03311241FBECFEFD8E0DEBFCDBFEE
:1001000011E0A0E0B1E0E8E9F3E702C005900D924C
:10011000A435B107D9F725E0A4E5B1E001C01D92EF
:10012000AF3FB207E1F710E0C9E7D0E004C0219784
:10013000FE010E945538C837D107C9F70E945027E1
:100140000C94BF390C9400009091C00095FFFCCF37
:100150008093C60008950F931F93CF93C82F0DE28D
:1001600015E0F80181918F010E94A400C150C9F7E8
:10017000CF911F910F910895AF92BF92CF92DF92CE
:10018000EF92FF920F931F93CF93DF93DC0128E050
:1001900030E081E0AA24AA94B12C0FE010E043E201
:1001A000E42EF12C57EDC52ED12C9C911196ED919A
:1001B000FC911297592F5095462F4823A1F1F8949E
:1001C0004281452342834181492B4183E7012197A5
:1001D000F1F74281942B92837894F6013197F1F7ED
:1001E000880F2150310909F7F8941196ED91FC918F
:1001F000129791818C918095892381831196ED913D
:10020000FC91129792818C918095892382837894B6
:10021000DF91CF911F910F91FF90EF90DF90CF90E2
:10022000BF90AF900895F894428145234283418165
:10023000492B4183E5012197F1F74281942B928369
:100240007894F801CBCF682F70E090E080E00E94B6
:1002500039362CE53FE842EA5FE30E9491350E947F
:100260000A36862F653B40F4611104C087E0809315
:10027000B3000895643B11F486E2F9CF66E00E9472
:100280003538885FF4CF682F70E090E080E00E94FE
:1002900039362CE53FE842EA5FE30E9491350E943F
:1002A0000A36862F653B40F4611104C087E08093D5
:1002B000B4000895643B11F486E2F9CF66E00E9431
:1002C0003538885FF4CFAF92BF92CF92DF92EF9232
:1002D000FF920F931F93CF93DF936C017B018B01F0
:1002E000040F151FEB015E01AE18BF08C017D10740
:1002F00059F06991D601ED91FC910190F081E02DCA
:10030000C6010995892B79F7C501DF91CF911F911E
:100310000F91FF90EF90DF90CF90BF90AF90089536
:10032000833081F028F4813099F08230A9F008956B
:100330008730A9F08830C9F08430B1F48091800012
:100340008F7D03C0809180008F7780938000089517
:1003500084B58F7784BD089584B58F7DFBCF809160
:10036000B0008F778093B00008958091B0008F7DAA
:10037000F9CFCF93DF93282F30E0F901E056FF4FFC
:100380008491F901E452FF4FD491F901E853FF4FF2
:10039000C491CC23A1F081110E949001EC2FF0E0D8
:1003A000EE0FFF1FE254FF4FA591B491EC91ED23A6
:1003B00081E090E009F480E0DF91CF91089580E042
:1003C00090E0FACF1F93CF93DF93282F30E0F9010D
:1003D000E056FF4F8491F901E452FF4FD491F901A7
:1003E000E853FF4FC491CC23A9F0162F81110E942E
:1003F0009001EC2FF0E0EE0FFF1FEC54FF4FA591A2
:10040000B4918FB7F894EC91111108C0D095DE2308
:10041000DC938FBFDF91CF911F910895DE2BF8CF32
:10042000CF93DF9390E0FC01E452FF4F2491885377
:100430009F4FFC0184918823C9F090E0880F991F99
:10044000FC01EA56FF4FA591B491FC01EC54FF4F1B
:10045000C591D49161110DC09FB7F8948C912095EE
:1004600082238C938881282328839FBFDF91CF919B
:100470000895623051F49FB7F8943C91822F809593
:1004800083238C93E8812E2BEFCF8FB7F894EC91D8
:100490002E2B2C938FBFEACF61E080912C050E9418
:1004A000100260E080912C050C94E2014F925F9263
:1004B0006F927F928F929F92AF92BF92CF92DF9274
:1004C000EF92FF920F931F93CF93DF934A015B014B
:1004D0009C0150E040E060E472E48FE090E00E9414
:1004E0004A34690161E080912C050E941002A8EE57
:1004F000B3E0A50194010E9469342B013C01E6019F
:10050000D7FC2196D595C7958E01000F111F000FBE
:10051000111F055011090D2C000CEE08FF08812C4D
:10052000912C540184149504A604B704E0F461E00E
:1005300080912C050E94E201C230D10518F0C8015B
:100540000197F1F760E080912C050E94E201C23032
:10055000D10518F0C8010197F1F7A8958C0C9D1CE6
:10056000AE1CBF1CDFCFDF91CF911F910F91FF9089
:10057000EF90DF90CF90BF90AF909F908F907F9043
:100580006F905F904F900895CF92DF92EF92FF921D
:100590006C392FEF7207820792070CF443C0B62F15
:1005A000A72FF82FE92F653671058105910524F0F5
:1005B000B4E6A0E0F0E0E0E097FD38C02B2F3A2F42
:1005C0004F2F5E2F57FF07C05095409530952195CE
:1005D0003F4F4F4F5F4FAFEFB0E00E94693424E6CA
:1005E00030E040E050E00E944A3469017A0160E066
:1005F000C114D104E104F10409F061E089E00E9432
:10060000100260E08AE00E941002D0928900C0923D
:10061000880010928B0010928A00FF90EF90DF907C
:10062000CF900895BCE9AFEFFFEFEFEF2B2F3A2FFC
:100630004F2F5E2F57FF07C050954095309521955D
:100640003F4F4F4F5F4FAFEFB0E00E94693424E659
:1006500030E040E050E00E944A3469017A0160E0F5
:10066000C114D104E104F10409F061E08AE00E94C0
:10067000100260E089E00E941002D0928B00C092CC
:100680008A001092890010928800C0922405D092AE
:100690002505E0922605F0922705BFCF1F93CF9343
:1006A000DF93182FEB0161E00E941002209739F4CC
:1006B00060E0812FDF91CF911F910C94E201CF3F39
:1006C000D10511F461E0F5CFE12FF0E0E056FF4FE6
:1006D000E491E33031F140F4E130B1F0E230E1F0A7
:1006E000C038D1057CF7E4CFE73029F1E83059F183
:1006F000E430B1F780918000806280938000D093D5
:100700008B00C0938A0004C084B5806884BDC7BDD7
:10071000DF91CF911F91089584B5806284BDC8BDDB
:10072000F7CF80918000806880938000D09389000B
:10073000C0938800EDCF8091B00080688093B000B6
:10074000C093B300E5CF8091B00080628093B00089
:10075000C093B400DDCFCF92DF92EF92FF920F9360
:100760001F93CF93DF936C392FEF720782079207A5
:100770000CF44EC0B62FA72FF82FE92F6536710560
:100780008105910524F0B4E6A0E0F0E0E0E097FDFB
:1007900043C02B2F3A2F4F2F5E2F57FF07C0509586
:1007A0004095309521953F4F4F4F5F4FAFEFB0E0F1
:1007B0000E94693424E630E040E050E00E944A3470
:1007C00069017A018901D42FCF2D60E0C114D104D1
:1007D000E104F10409F061E086E00E94100260E0AB
:1007E00085E00E941002B60186E00E944E0300934D
:1007F000280510932905D0932A05C0932B05DF9176
:10080000CF911F910F91FF90EF90DF90CF900895BF
:10081000BCE9AFEFFFEFEFEF2B2F3A2F4F2F5E2FFB
:1008200057FF07C050954095309521953F4F4F4F4A
:100830005F4FAFEFB0E00E94693424E630E040E063
:1008400050E00E944A3469017A018901D42FCF2DEA
:1008500060E0C114D104E104F10409F061E085E035
:100860000E94100260E086E00E941002B60185E05E
:10087000BCCFCF92DF92EF92FF9269017A010E9482
:10088000AB03C701B601FF90EF90DF90CF900C94BF
:10089000C4028E3008F08E508770806480937C0094
:1008A00080917A00806480937A0080917A0086FD3E
:1008B000FCCF80917800909179000895BF92CF92FB
:1008C000DF92EF92FF920F931F93CF93DF933AE063
:1008D000B32EC12CD12C7601CFEFD3E010E000E095
:1008E00084E10E9449040817190708F48C018C1749
:1008F0009D0708F4EC01C80ED91EE11CF11CBA9446
:10090000B110EECFD701C601801B910BA109B1092F
:100910008C1B9D0BA109B10923E0B695A79597956E
:1009200087952A95D1F7883F23E09207A105B10565
:1009300008F0B1C08F3D23E09207A105B10508F092
:10094000ADC08B3C23E09207A105B10508F0A9C01A
:10095000833A23E09207A105B10508F0A5C08538C8
:1009600023E09207A105B10508F0A1C08C3623E071
:100970009207A105B10508F09DC0813223E09207DE
:10098000A105B10508F099C08F3F22E09207A105AB
:10099000B10508F095C0813D22E09207A105B1059F
:1009A00008F091C08F3922E09207A105B10508F047
:1009B0008DC08D3622E09207A105B10508F089C0EF
:1009C0008F3422E09207A105B10508F085C083317C
:1009D00022E09207A105B10508F081C0853F21E022
:1009E0009207A105B10508F07DC0813E21E0920784
:1009F000A105B10508F079C0833C21E09207A1056B
:100A0000B10508F075C0873A21E09207A105B1054C
:100A100008F071C0863921E09207A105B10508F000
:100A20006DC08C3721E09207A105B10508F069C0BF
:100A30008A3521E09207A105B10508F065C082332F
:100A400021E09207A105B10508F061C08F3021E0D7
:100A50009207A105B10508F05DC0803D9105A10593
:100A6000B10508F05AC0853A9105A105B10508F015
:100A700057C08A379105A105B10508F054C08FEF22
:100A800090E0DF91CF911F910F91FF90EF90DF9059
:100A9000CF90BF90089590E080E0F3CF8FE090E09A
:100AA000F0CF83E190E0EDCF8CE090E0EACF8AE0F8
:100AB00090E0E7CF85E090E0E4CF89E090E0E1CFFF
:100AC0008BE090E0DECF8DE090E0DBCF82E090E045
:100AD000D8CF80E190E0D5CF8EE090E0D2CF88E013
:100AE00090E0CFCF83E090E0CCCF84E190E0C9CF1D
:100AF00081E190E0C6CF87E190E0C3CF85E190E04F
:100B0000C0CF87E090E0BDCF86E190E0BACF82E130
:100B100090E0B7CF86E090E0B4CF84E090E0B1CF32
:100B200089E190E0AECF88E190E0ABCF3FB7F89499
:100B30008091380390913903A0913A03B0913B031F
:100B400026B5A89B05C02F3F19F00196A11DB11D28
:100B50003FBFBA2FA92F982F8827BC01CD01620F64
:100B6000711D811D911D42E0660F771F881F991F1F
:100B70004A95D1F708958F929F92AF92BF92CF92EC
:100B8000DF92EF92FF924B015C010E9496056B0190
:100B90007C010E9496056C197D098E099F09683EAB
:100BA000734081059105A8F321E0821A9108A108FC
:100BB000B10888EEC80E83E0D81EE11CF11C811438
:100BC0009104A104B10429F7FF90EF90DF90CF903A
:100BD000BF90AF909F908F900895823039F120F4AC
:100BE00061E0813031F00895833061F060E084305D
:100BF000D1F787E00E94E20160E08DE00E94E2010F
:100C000060E009C060E087E00E94E20160E08DE002
:100C10000E94E20161E08CE00E94E20169E170E083
:100C200080E090E00E94BB050C945E0461E087E0E8
:100C30000E94E20161E0E1CF2FB7F89460913403A4
:100C40007091350380913603909137032FBF08953B
:100C500020913103309132032817390771F49091B4
:100C6000300380912F03981741F0E0913003F0E0BA
:100C7000E151FD4F808190E008958FEF9FEF08953F
:100C80000895EF92FF920F931F93CF93DF93DC01B0
:100C90005C96ED90FC905D97E114F10479F481E0AD
:100CA00090E013969C938E93129790E080E0DF91F2
:100CB000CF911F910F91FF90EF9008955196ED9174
:100CC000FC91529750968C915097982F90950FB712
:100CD0005E962C915E97122F127021FD6095F8940C
:100CE0002081112319F1282B2083E7012197F1F7A7
:100CF00028E0462F50E0308160FF1AC0382B308347
:100D0000E7012197F1F7BA0175956795215089F7A9
:100D1000112381F08081892380830FBF5C968D91A0
:100D20009C910197F1F781E090E0C1CF2923DCCFBE
:100D30003923E5CF9081892BEFCF2091310330917A
:100D400032032817390771F480912F032091300363
:100D500090E0805C9F4F821B910960E470E00E94EC
:100D60004138089590E080E008952091310330915A
:100D7000320328173907B9F49091300380912F037B
:100D8000981789F0E0913003F0E0E151FD4F808148
:100D90002091300330E02F5F3F4F2F733327209394
:100DA000300390E008958FEF9FEF0895E0913103B5
:100DB000F0913203E817F90769F4A389B4899C918B
:100DC0008589809589238C93109232031092310388
:100DD00081E0089580E00895DC0113966C931397E9
:100DE00070E0FB01E452FF4FE4911696EC931697E6
:100DF000FB01E853FF4FE491F0E0EE0FFF1FE254D8
:100E0000FF4F8591949118969C938E931797089510
:100E1000CF93862FC42F0E9443018C2FCF910C9427
:100E20002301FC01A381B4819781408551859A01FA
:100E3000220F331F240F351F728583856FB7F894F7
:100E40004C91592F50955423492BE72FF82FCF0160
:100E5000820F931FE817F90781F0219138E04C9336
:100E600000C027FF5C93220F00C000C000C008F440
:100E70005C9300C03A9599F7EDCF6FBF789461E02D
:100E800070E080E090E00C94BB050F93FC0180853E
:100E9000918568171906C0F4962F990F690F70E0B5
:100EA000A285B385A60FB71F2C93A285B385A60F85
:100EB000B71F11964C9382859385680F791FFB01AC
:100EC000028381E00F91089580E0FCCFCF92DF9202
:100ED000EF92FF920F931F93CF93DF937C01162F16
:100EE000D42EC22ED0E0C0E0F70180859185C817CE
:100EF000D90748F40C2D2D2D412F6C2FC7010E94CE
:100F000045072196F1CF81E0DF91CF911F910F919D
:100F1000FF90EF90DF90CF900895DC01E62FF0E096
:100F2000EE0FFF1FE25DFE4F80818C938181119651
:100F30008C93119712966C9308950F931F93CF93F0
:100F40008C01C62F0E948D07EC2FF0E0EE0FFF1FE3
:100F5000E25DFE4F8181F8018383CF911F910F9154
:100F600008950F931F93CF938C01C62F0E948D0776
:100F7000EC2FF0E0EE0FFF1FE25DFE4F8181D80104
:100F800013968C931397808114968C9314971596CF
:100F90001C92CF911F910F9108950F931F93CF93A0
:100FA0008C01C62F0E94B107EC2FF0E0EE0FFF1F5F
:100FB000E25DFE4F8081F80186831582CF911F91FB
:100FC0000F9108950F931F93CF938C01C62F0E940A
:100FD0008D07EC2FF0E0EE0FFF1FE25DFE4F8081EA
:100FE000D80113968C931397918114969C9361E08A
:100FF0000E94100261E0F8018481CF911F910F914E
:101000000C9410021F93CF93DF93EC01162F0E94D4
:101010008D07E12FF0E0EE0FFF1FE25DFE4F8181B3
:101020008B8380818C838B8160E00E9410028C8195
:1010300061E00E9410028C8160E0DF91CF911F91EE
:101040000C94E201FC0190810180F281E02DF89482
:101050008181292F20958223818378943DE743E085
:1010600050E0315029F1DA011197F1F7808189239D
:10107000C1F3F8948281822382838181892B8183C9
:101080007894ABE7B7E01197F1F7F8948181822368
:101090008183A3E1B1E01197F1F78081982381E08A
:1010A00009F080E07894E3E6F6E03197F1F70895EF
:1010B00080E008950F931F93CF93DF93EC01162FD9
:1010C0004F960E948D07E12FF0E0EE0FFF1FE25DCB
:1010D000FE4F118100811B821A8288EE93E0A0E00E
:1010E000B0E08C839D83AE83BF8380E291E09983DF
:1010F00088831F8A1E8A198E188E1B8E1A8E1D8E4B
:101100001C8E6E8D6E7F6D7F6E8F6695617081E037
:101110006827812F0E94E20161E0812F0E94100266
:10112000812F90E0FC01E452FF4FE491E88BFC0139
:10113000E853FF4FE491F0E0EE0FFF1FEC54FF4F38
:10114000859194919A8B898B60E0802F0E94100288
:101150008E8D81FD04C061E0802F0E94E2010C872A
:10116000802F90E0FC01E452FF4FE491ED87FC01F9
:10117000E853FF4FE491F0E0EE0FFF1FE254FF4F02
:10118000859194919F878E8780E291E099838883EF
:1011900083E08AA31B8E1A8E198E188E1F8A1E8AD0
:1011A00085E690E09D8F8C8F0631E0F581E290E03E
:1011B0009F8B8E8B83E690E0998F888F82E490E0FE
:1011C0009B8F8A8F9091680084E0083048F021E07E
:1011D0000E3008F420E081E001C0880F2A95EAF77C
:1011E000892B809368009C852DE630E0983050F084
:1011F0002BE630E09E3030F02CE630E0963110F0F7
:1012000030E020E03C8B2B8B292F30E0983078F5B4
:1012100081E001C0880F9A95EAF78D8B8C8D9D8DAA
:101220000197F1F78A8D9B8D892BE1F08091310335
:1012300090913203C817D907A9F0009711F00E94C6
:10124000D6068E8D8E7F8E8F10922F0310923003D4
:10125000D0933203C0933103EB89FC8980819D894F
:10126000892B8083DF91CF911F910F9108959E303C
:1012700040F42850310981E001C0880F2A95EAF72F
:10128000CCCF2E503109F7CFCF93DF93EC0160E044
:101290008B810E9410028B81DF91CF910C944904C5
:1012A000AF92BF92CF92DF92EF92FF920F931F9374
:1012B000CF93DF935C010AE010E0C12CD12C7601C2
:1012C000D0E0C0E0C5010E944409C817D90708F45E
:1012D000EC01C80ED91EE11CF11C0150110991F757
:1012E000D701C6018C1B9D0BA109B10923E0B6955E
:1012F000A795979587952A95D1F7DF91CF911F9163
:101300000F91FF90EF90DF90CF90BF90AF90089536
:101310000F931F93CF93DF93EC018B810E94B90150
:101320008C018C810E94B901AC0121E030E0012BDD
:1013300011F430E020E0220F331F81E0452B09F447
:1013400080E0822BDF91CF911F910F9108951F9321
:10135000CF93DF93EC01162F0E948D07E12FF0E071
:10136000EE0FFF1FE25DFE4F80818B8381818C83B6
:101370008B8160E00E9410028C8160E0DF91CF9150
:101380001F910C9410028F929F92AF92BF92CF92B6
:10139000DF92EF92FF920F931F93CF93DF937C0125
:1013A0000AE010E0812C912C5401D0E0C0E0CC2464
:1013B000CA9433E0D32E60E0F70183810E941002CB
:1013C000F70183810E9449049601281B390BC9014A
:1013D000C217D30708F4E901880E991EA11CB11C9D
:1013E0000150110941F7D501C4018C1B9D0BA109C6
:1013F000B10923E0B695A795979587952A95D1F7DA
:10140000DF91CF911F910F91FF90EF90DF90CF90E0
:10141000BF90AF909F908F90089590E080E00895E6
:10142000CF93DF93EC0161E08B810E9410028D81EC
:101430008130C1F487E592E00197F1F700C0000028
:1014400060E08C810E94E20160E08B810E94E201F9
:1014500061E08C810E94E20161E08B81DF91CF919C
:101460000C94E20160E08C810E94E2019AE19A957D
:10147000F1F700C060E08B810E94E2018AE18A9569
:10148000F1F700C061E08C810E94E2019AE19A9537
:10149000F1F700C061E08B810E94E2018AE18A9548
:1014A000F1F700C0DF91CF9108951F93CF93DF93A1
:1014B000EC01162F61E08B810E9410028D8181303A
:1014C000D9F487E592E00197F1F700C0000060E0F1
:1014D000111161E08B810E94E20161E08C810E9428
:1014E000E20160E08C810E94E20161E08B81DF918A
:1014F000CF911F910C94E2018B8160E0111161E0AA
:101500000E94E20161E08C810E94E2019AE19A95D9
:10151000F1F700C060E08C810E94E2018AE18A95C7
:10152000F1F700C0E2CF1F93CF93DF93EC0160E0AF
:101530008B810E9410028D818130F1F487E592E069
:101540000197F1F700C0000061E08B810E94E20189
:1015500061E08C810E94E2018B810E94B90111E05F
:10156000892B09F410E060E08C810E94E201812F58
:10157000DF91CF911F91089561E08B810E94E2017C
:101580009AE19A95F1F700C061E08C810E94E20136
:101590008AE18A95F1F700C08B810E94B90111E0C0
:1015A000892B09F410E060E08C810E94E2019AE14D
:1015B0009A95F1F700C0DBCF0F931F93CF93DF9382
:1015C0008C0160E0FC0183810E941002F80185819A
:1015D000D8E0813009F587E592E00197F1F700C086
:1015E0000000D8E061E0F80184810E94E201CC0FA4
:1015F000F80183810E94B901892B09F0C16060E084
:10160000F80184810E94E201D15061F78C2FDF91B3
:10161000CF911F910F91089561E0F80184810E949C
:10162000E201CC0FF80183810E94B901892B09F0F6
:10163000C160FAE1FA95F1F700C060E0F801848139
:101640000E94E201FAE1FA95F1F700C0D15021F7CA
:10165000DDCF0F931F93CF93DF93EC01162F61E043
:101660008C810E94100261E08B810E9410028D81AA
:10167000813019F108E08B8161E017FF60E00E9482
:10168000E2018AE18A95F1F700C0110F61E08C81D7
:101690000E94E2019AE19A95F1F700C060E08C8126
:1016A0000E94E2018AE18A95F1F700C0015019F722
:1016B000DF91CF911F910F91089587E592E00197F7
:1016C000F1F700C0000008E08B8161E017FF60E0E7
:1016D0000E94E201110F61E08C810E94E20160E052
:1016E0008C810E94E201015079F7E2CFCF93DF9322
:1016F000EC018FE193E00197F1F700C00000CE010B
:101700000E94290B87EC90E00197F1F700C00000E0
:10171000CE01DF91CF910C94930ACF93DF93EC012C
:1017200061E08C810E94100261E08B810E941002B6
:101730008D818130C1F487E592E00197F1F700C017
:10174000000061E08B810E94E20161E08C810E94D7
:10175000E20160E08B810E94E20160E08C81DF9118
:10176000CF910C94E20161E08B810E94E2019AE149
:101770009A95F1F700C061E08C810E94E2018AE154
:101780008A95F1F700C060E08B810E94E2019AE146
:101790009A95F1F700C060E08C810E94E2018AE135
:1017A0008A95F1F700C0DF91CF9108950F931F93B1
:1017B000CF93DF93EC01162F0E948D0B62E5CE01D3
:1017C0000E94290BCE010E94930A612F6068CE010E
:1017D0000E94290BCE010E94930ACE010E948D0B1C
:1017E00063E5CE010E94290BCE010E94930ACE012F
:1017F0000E94DC0A182F60E0CE010E94550ACE013B
:101800000E94DC0A082F61E0CE010E94550ACE0139
:101810000E94100A902F812FDF91CF911F910F917D
:1018200008950F931F93CF93DF93EC01162F042F8E
:101830000E948D0B62E5CE010E94290BCE010E9411
:10184000930A612F6068CE010E94290BCE010E948D
:10185000930A602FCE010E94290BCE010E94930AA9
:10186000CE010E94100A802FDF91CF911F910F911E
:1018700008951F93CF93DF93EC01162F0E948D0BD9
:10188000612F660FCE010E94290B80EA8A95F1F73D
:10189000CE01DF91CF911F910C94930A4F925F92EA
:1018A0006F927F929F92AF92BF92CF92DF92EF9210
:1018B000FF920F931F93CF93DF93CDB7DEB7289797
:1018C0000FB6F894DEBF0FBECDBF7C01CE010196EE
:1018D0006C015E0199E0A90EB11C992493940E94B9
:1018E0001C06F7014084518462847384641975096D
:1018F00086099709613171058105910508F0978284
:10190000F7018781882309F4B5C00E941C06F701FE
:101910006087718782879387178260E4C7010E947E
:10192000390C62EAC7010E94760B62EAC7010E9485
:10193000760B62EAC7010E94760B61E0C7010E9444
:10194000760BC7010E94100AF701868160E00E94B1
:101950001002F701868190E0FC01E452FF4F649190
:10196000FC01E853FF4FE491F0E0EE0FFF1FE2545B
:10197000FF4F8591949100E712E620E030E040E0CF
:101980000E940B27412C512C3201611571058105F4
:101990009105B1F02B013C01FFEF4F1A5F0A6F0A6E
:1019A0007F0A2FE072228CE2481681E0580661041B
:1019B000710430F09CE2491A91E0590A61087108FB
:1019C000C301B2010E943B36F701648775878687A1
:1019D0009787141415041604170434F084EA482E6B
:1019E00088E3582E612C712CC301B2010E943B3652
:1019F00020E030E048E652E40E949135F601619320
:101A00007193819391936F0162E170E080E090E0C7
:101A10000E94BB05AC14BD0409F061CFC980DA8017
:101A2000EB80FC807D809E80AF80B884272D392D8F
:101A3000A501B601C7010E946A3787FF03C0C72C02
:101A4000D92C7501B601C70128960FB6F894DEBFF0
:101A50000FBECDBFDF91CF911F910F91FF90EF90FF
:101A6000DF90CF90BF90AF909F907F906F905F90EE
:101A70004F90089564857585868597850E94033605
:101A80002B013C01A6CFFF920F931F93CF93DF93BF
:101A9000EC01F62E042F122F60E50E94390C63EA48
:101AA000CE010E94760B6F2DCE010E94760B602F27
:101AB000CE010E94760B612FCE010E94760BCE01E3
:101AC000DF91CF911F910F91FF900C94100AFF921C
:101AD0000F931F93CF93DF93EC01F62E042F122F59
:101AE00060E40E94390C61EACE010E94760B6F2DF2
:101AF000CE010E94760B602FCE010E94760B612FE3
:101B0000CE010E94760BCE01DF91CF911F910F91F4
:101B1000FF900C94100ACF92DF92FF920F931F93C5
:101B2000CF93DF9300D000D0CDB7DEB78C0161E753
:101B30000E94390C60EBC8010E94760BC8010E941C
:101B4000100A6AE070E080E090E00E94BB05C801E6
:101B50000E948D0B63EEC8010E94290BC8010E94F0
:101B6000930A34E0F32ECE0101966C01FA94C80179
:101B7000FF2051F00E94DC0AF60181936F0160E0C2
:101B8000C8010E94550AF2CF0E94DC0AF82E8C830D
:101B900061E0C8010E94550AC8010E94100A8981AB
:101BA0008A3AD9F4FBEBFF1218C08A8190E0982F93
:101BB00088272B81820F911DF80197838683868168
:101BC00097810F900F900F900F90DF91CF911F9101
:101BD0000F91FF90DF90CF90089581E090E0ECCFDF
:101BE000CF93DF93EC010E94B10781E08D83CE019A
:101BF0000E948D0B67EECE010E94760B60E8CE014D
:101C00000E94760B64EACE010E94760B6AE9CE014F
:101C10000E94760B61E8CE010E94760B63E8CE014C
:101C20000E94760BCE01DF91CF910C94100A0F9396
:101C30001F93CF93DF93EC01062F142F0E948D0B7F
:101C4000FE01EE5BFF4F6081660FCE010E94290B03
:101C5000CE010E94930A602FCE010E94290BCE0173
:101C60000E94930A612FCE010E94290BCE010E948F
:101C7000930ACE01DF91CF911F910F910C94100A1E
:101C80000F931F93CF93DF938C01D62FC42F0E9405
:101C90008D0B63E36D0F660FC8010E94290BC8010D
:101CA0000E94930AC7FF11C0CF77EC2FF0E0E55FE9
:101CB000FE4F60816068C8010E94290BC801DF9156
:101CC000CF911F910F910C94100AEC2FF0E0E55F7B
:101CD000FE4F6081F0CFCF93DF93EC010E948D0B1C
:101CE00068E4CE010E94290BCE010E94930A61E3B1
:101CF000CE010E94290BCE01DF91CF910C94100AE6
:101D00000F931F93CF93DF93EC010E948D0B62E53D
:101D1000CE010E94290BCE010E94930A62E9CE01F6
:101D20000E94290BCE010E94930ACE010E948D0BC6
:101D300063E5CE010E94290BCE010E94930ACE01D9
:101D40000E94DC0A182F61E0CE010E94550ACE01E4
:101D50000E94100A143419F080E0103159F581E026
:101D60008E8319850A85412F61E0CE010E94110CF6
:101D700019870A871F8108858E81811103C0CE01D2
:101D80000E94800E412F6FE0CE010E94110C1F8334
:101D9000088741E060E0CE010E94110C63E070E032
:101DA00080E090E00E94BB0543E060E0CE010E942D
:101DB000110C81E0DF91CF911F910F910895AF92A7
:101DC000BF92CF92DF92EF92FF920F931F93CF9328
:101DD000DF93EC015B016A0179018E81811103C0FF
:101DE000CE010E94800E64E1CE010E94D60BF80164
:101DF0009183808366E1CE010E94D60BF501918329
:101E0000808368E1CE010E94D60BF6019183808326
:101E10006AE1CE010E94D60BF70191838083898508
:101E20009A85853D9105A1F180F40097D9F1803C18
:101E3000910599F1DF91CF911F910F91FF90EF9054
:101E4000DF90CF90BF90AF900895863F9105D9F075
:101E50008F3F910541F08B3E910561F762E370E0A1
:101E600080E090E004C063E070E080E090E0DF910B
:101E7000CF911F910F91FF90EF90DF90CF90BF9087
:101E8000AF900C94BB0568E170E080E090E0EFCF8C
:101E900065E670E080E090E0EACF6AE970E080E01B
:101EA00090E0E5CF6CEB72E080E090E0E0CFCF9285
:101EB000DF92EF92FF920F931F93CF93DF93EC018A
:101EC000162F7A01022F0E948D0B6E0182E4C80E3C
:101ED000D11CF6016081660FCE010E94290BCE0154
:101EE0000E94930A612FCE010E94290BCE010E940D
:101EF000930ACE010E94100AF0E5FA95F1F7CE019F
:101F00000E948D0BF6016081660F6160CE010E9418
:101F1000290BCE010E94930A0150102F6701115026
:101F200058F0CE010E94DC0AF60181936F0160E057
:101F3000CE010E94550AF3CF0E0D1F2D111DCE01AB
:101F40000E94DC0AF801808361E0CE010E94550AFC
:101F5000CE01DF91CF911F910F91FF90EF90DF9015
:101F6000CF900C94100A4F925F926F927F928F9253
:101F70009F92AF92BF92CF92DF92EF92FF920F9318
:101F80001F93CF93DF9300D000D000D0CDB7DEB742
:101F90009E838D8380E090E0A3E8B2E4ED81FE8132
:101FA00086839783A087B187128613861486158649
:101FB00016861786108A118A128A138A148A158A3D
:101FC000168A178A108E118E128E138E148E158E0D
:101FD000168E178E10A211A213A212A215A214A27D
:101FE00017A216A210A611A612A613A614A615A62D
:101FF00016A617A610AA11AA12AA13AA64E670E0E0
:1020000080E090E00E94BB0540E06BE68D819E8100
:102010000E94170E6EE170E080E090E00E94BB0528
:1020200041E06AE18D819E810E94170E48E06BE1DC
:102030008D819E810E94170E62E370E080E090E047
:102040000E94BB0504EF11E019821A821B821C82D8
:10205000812C912C5401412C512C3201ED80FE80B9
:10206000F4E3EF0EF11C26E0A70163E48D819E816D
:102070000E94570FED81FE8184A995A99827892791
:102080009827092E000CAA0BBB0B480E591E6A1E7E
:102090007B1E86A997A9982789279827092E000CC7
:1020A000AA0BBB0B880E991EAA1EBB1E80AD91AD5C
:1020B000982789279827092E000CAA0BBB0B29818A
:1020C0003A814B815C81280F391F4A1F5B1F29838E
:1020D0003A834B835C83A8950150110921F684EF64
:1020E000C82EDD24D394E12CF12CC301B201A70149
:1020F00096010E944A34CA01B9010E943B36ED8123
:10210000FE8160A771A782A793A7C501B401A701AB
:1021100096010E944A34CA01B9010E943B36ED8102
:10212000FE8164A775A786A797A769817A818B81AD
:102130009C81A70196010E944A34CA01B9010E94FC
:102140003B36ED81FE8160AB71AB82AB93AB2696E3
:102150000FB6F894DEBF0FBECDBFDF91CF911F91B8
:102160000F91FF90EF90DF90CF90BF90AF909F9036
:102170008F907F906F905F904F900895CF93DF93F3
:10218000EC01862F90E09987888723E0629FC00149
:1021900011240E946F389B878A87892B21F488E35A
:1021A00091E00E94943990E080E0488559859A0139
:1021B000220F331F240F351F8217930738F4EA8547
:1021C000FB85E80FF91F10820196EFCFDF91CF91C9
:1021D00008951F93CF93DF93EC01162F0E948D0774
:1021E000E12FF0E0EE0FFF1FE25DFE4F8181282F0F
:1021F00030E0F901E452FF4FE491EF83F901E85335
:10220000FF4FE491F0E0EE0FFF1FEC54FF4F2591DC
:1022100034913C832B8361E00E94100264E0CE0184
:10222000DF91CF911F910C94BE108F929F92AF922D
:10223000BF92CF92DF92EF92FF920F931F93CF93B3
:10224000DF93CDB7DEB764970FB6F894DEBF0FBE4D
:10225000CDBFE82EF12C28EC829FF0011124E45C24
:10226000FC4FE481E150E03208F04BC60E2E000C2A
:10227000FF0BE35CFE4E0C9455385D119B118117EA
:10228000D811FE11811781178117811781178117C6
:1022900081178117811781173E128612CA124913BE
:1022A00062132B13151381172C143E149E148117DF
:1022B0001A15811775160316EE1682E580932D0503
:1022C00082E480932E0588E080932F0588EC8E9D14
:1022D000F0018F9DF00D1124E45CFC4F838180930D
:1022E000300582E08093310581E0809332058CE0F7
:1022F00080933305EDE2F5E024E335E080E0919151
:10230000890F2E173F07D9F78093340588E064962C
:102310000FB6F894DEBF0FBECDBFDF91CF911F91F6
:102320000F91FF90EF90DF90CF90BF90AF909F9074
:102330008F900C94AB0082E580932D0582E480930E
:102340002E0510922F0588EC8E9DF0018F9DF00DCB
:102350001124E45CFC4F83818093300585818230B9
:1023600019F124F4813041F0E4E00CC08330F1F045
:102370008430D1F784E001C081E00E94ED058093B4
:102380003105E5E081E08E0F80932F05ADE2B5E0E9
:1023900020E090E03D91930F2F5FE213FBCFF0E040
:1023A000E35DFA4F9083B3CF82E0E7CF83E0E5CFE0
:1023B00082E580932D0582E480932E0588EC8E9D26
:1023C000F0018F9DF00D1124E45CFC4F838180931C
:1023D000300581E0809331058093320587E080935A
:1023E0002F05EDE2F5E080E09191890F35E0E333D0
:1023F000F307D1F78093330587E089CF82E5809397
:102400002D0582E480932E0510922F0588EC8E9D79
:10241000F0018F9DF00D1124E45CFC4F83818093CB
:10242000300581E00E94ED058093310582E00E9435
:10243000ED058093320583E00E94ED05809333051E
:1024400084E00E94ED0580933405109235051092CA
:10245000360510923705109238058DE080932F05D0
:10246000EDE2F5E029E335E080E09191890F2E1748
:102470003F07D9F7809339058DE049CF88EC8E9DD1
:10248000F0018F9DF00D1124E45CFC4F85818C3FA1
:10249000A1F1882339F08B3F81F4008527814681A3
:1024A00061E02FC020854781668181E195E00E942F
:1024B000660781E195E00E94110782E580932D0572
:1024C00082E480932E0588EC8E9DF0018F9DF00DA7
:1024D0001124E45CFC4F83818093300591E090935C
:1024E000310596E090932F059BE9980F9093320564
:1024F000882309F406C586E00ACF00852781468136
:1025000060E081E195E00E944507D3CF88EC8E9D85
:1025100080018F9D100D1124045C1C4FD80115966D
:102520008C9115978F3F61F1882361F08E3F29F6DA
:1025300016966C91062E000C770B880B990B0E9457
:10254000C402BBCFF8012781022E000C330B440BD1
:10255000550B6681062E000C770B880B990B0E9499
:102560003904D80116968C9116978111A6CF17962B
:102570008C918111A2CF10920E05109222059DCF51
:10258000F8016681062E000C770B880B990B0E94D0
:10259000AB0393CF88EC8E9D80018F9D100D11248D
:1025A000045C1C4FF80185810E94ED05029709F03B
:1025B00084CF80910F0590911005009709F580E177
:1025C00090E00E946F386C01D80115966C91C6019D
:1025D0000E94CD07D0921005C0920F0588EC8E9D09
:1025E000F0018F9DF00D1124E45CFC4F20854781A4
:1025F000668180910F05909110050E94670D5DCF57
:10260000FC014281D80115962C91022E000C330B4F
:102610004217130619F30E940B3980E190E00E94E3
:102620006F386C01F8016581D2CF88EC8E9DF00186
:102630008F9DF00D1124E45CFC4F8581893F09F0EA
:102640003CCF8681882321F081E08093CD0435CF73
:102650001092CD0432CF88EC8E9DF0018F9DF00D4D
:102660001124E45CFC4F8681882369F0813071F08D
:102670001092D1041092D2041092D3041092D40478
:102680001092D0041ACF10922305F2CF8093230525
:10269000EFCF88EC8E9DF0018F9DF00D1124E45C4E
:1026A000FC4F85818A3F09F008CF40858185542FF2
:1026B000482F70E060E0968187810E9456020E9458
:1026C0004C02FBCE88EC8E9D80018F9D100D112455
:1026D000045C1C4FD80115968C910E94ED05039760
:1026E00009F0EBCE8091F9049091FA04009709F07B
:1026F0009CC086E090E00E946F386C01F801658113
:10270000C6010E94F00DD092FA04C092F904C09064
:10271000F904D090FA0488EC8E9DF0018F9DF00DA5
:102720001124EE5BFC4F43E120818181322F282F61
:10273000C9019695879585759575220F331F2A7A5D
:102740003A7A822B932B9C013695279536952795BF
:1027500023733373880F991F880F991F8C7C9C7C7F
:10276000282B392BC90154E0969587955A95E1F7A6
:102770008F709F7064E0220F331F6A95E1F7207F0E
:10278000307F822B932B982789279827880F991FB2
:10279000880F991F5FEF540F21E030E02C0F3D1F91
:1027A000240F311DD9018C934250A1E0B0E0AC0F51
:1027B000BD1FA50FB11D9C9332964F3F09F0B4CFBA
:1027C000C6010E948D0B67EEC6010E94760B60E089
:1027D000C6010E94760B8E010F5F1F4F5E01B5E1AF
:1027E000AB0EB11CF80121918F0130E0C901959524
:1027F0008795959587958373220F331F220F331F7B
:102800002C7C822B90E0BC01759567956575880FCF
:10281000991F8A7A682BC6010E94760BA016B10612
:1028200009F7C6010E94100A48CEDC0112964C91AD
:10283000F8012581022E000C330B4217130609F410
:1028400066CF0E940B3986E090E00E946F386C01E1
:10285000D80115966C9154CF88EC8E9DF0018F9D18
:10286000F00D1124E45CFC4F858180930E05868178
:1028700080932205808580931D051FCE88EC8E9D58
:1028800080018F9D100D1124045C1C4FD8011596FA
:102890008C910E94ED05059709F00FCE80912005DF
:1028A00090912105009761F585E090E00E946F38D6
:1028B0006C01F8016581C6010E94E207D0922105F2
:1028C000C092200583EA8093B00087E08093B10036
:1028D00088EC8E9DF0018F9DF00D1124E45CFC4F7F
:1028E0008681813019F1823029F18111E6CD408550
:1028F000678180912005909121050E940807DDCD18
:10290000DC0112964C91F8012581022E000C330B4C
:1029100042171306E9F20E940B3985E090E00E940D
:102920006F386C01D80115966C91C5CF87810E94D4
:102930004301C3CD87810E942301BFCD88EC8E9DCA
:1029400080018F9D100D1124045C1C4FF8018581BE
:102950000E94ED05099709F0B0CD8091F1049091A6
:10296000F204009709F048C086E090E00E946F38BA
:102970006C01D80115966C910E94B107F601158281
:10298000D092F204C092F10488EC8E9DF0018F9DEC
:10299000F00D1124E45CFC4F86818130E1F182303E
:1029A000D1F081118ACD27818091F1049091F204B8
:1029B00040E027FF05C0332721950CF4309541E016
:1029C00061E00E94430D88EC8E9DF0018F9DF00D1B
:1029D0001124E45CFC4F20858091F1049091F20475
:1029E00040E027FF05C0332721950CF4309541E0E6
:1029F00062E00E94430D61CDDC0112964C91F8011A
:102A00002581022E000C330B4217130609F4BCCFAC
:102A10000E940B39A9CF27818091F1049091F20493
:102A200040E027FF05C0332721950CF4309541E0A5
:102A300061E0DFCF88EC8E9D80018F9D100D112409
:102A4000045C1C4FD80115968C910E94ED050B97E4
:102A500009F033CDC090ED04D090EE04C114D10440
:102A600009F0B1C083E290E00E946F386C01F80178
:102A70006581C6010E945A08D092EE04C092ED040E
:102A80000091ED041091EE0488EC8E9DF0018F9D75
:102A9000F00D1124E45CFC4FD680F80122A18D2DAD
:102AA0000D2C000C990B2817190649F1D2A28AEABD
:102AB0008093BE0282E08093BF0281E08093C002D7
:102AC000D092C10286E58D258093C2022EEBA22E04
:102AD00022E0B22E33EC832E32E0932ED5016D919D
:102AE0005D01C8010E9441068A149B04B9F7F801F0
:102AF000D2A262E370E080E090E00E94BB0588EC27
:102B00008E9DF0018F9DF00D1124E45CFC4F8085BB
:102B100097812AEA2093BE029093BF0221E020937E
:102B2000C0028093C102892794E589278093C2025D
:102B30008EEBC82E82E0D82E93ECA92E92E0B92E0F
:102B4000D6016D916D01C8010E944106AC14BD040F
:102B5000B9F762E370E080E090E00E94BB05C80135
:102B60000E94D6060115110559F080E291E0F801A6
:102B700091838083C8010E94D606C8010E940B3948
:102B80001092EE041092ED0488EC8E9D80018F9DD2
:102B9000100D1124045C1C4FD8011596EC91EE0F1A
:102BA000FF0BE25DFE4F60E080810E941002D801C1
:102BB0001596EC91EE0FFF0BE25DFE4F60E0818118
:102BC0000E9410027ACCD60191962C919197F8012F
:102BD0008581082E000C990B2817190609F450CF8F
:102BE00080E291E08D939C93C6010E94D606C601B7
:102BF0000E940B3983E290E00E946F386C01D8018B
:102C000015966C9136CF88EC8E9D80018F9D100DAE
:102C10001124045C1C4FF80185810E94ED05439747
:102C200009F04BCCC0901E05D0901F05C114D104F3
:102C3000C9F58CE090E00E946F386C01D8011596C0
:102C40006C91C6010E94E910D0921F05C0921E052A
:102C5000C0901E05D0901F0588EC8E9DF0018F9DC1
:102C6000F00D1124E45CFC4F21854085678186814D
:102C7000811132C0C6010E946607C60164960FB674
:102C8000F894DEBF0FBECDBFDF91CF911F910F91A2
:102C9000FF90EF90DF90CF90BF90AF909F908F907C
:102CA0000C941107F6012281D80115968C91082EFB
:102CB000000C990B2817190659F2828593850E94FA
:102CC0000B39C6010E940B398CE090E00E946F38EE
:102CD0006C01F8016581B5CF8150022F242F462F5A
:102CE000682FC6010E944507C8CF88EC8E9D8001E1
:102CF0008F9D100D1124045C1C4FD80115968C91EA
:102D00000E94ED05429709F0D8CB8091E50490919F
:102D1000E604009709F053C086E090E00E946F3807
:102D20006C01F80165810E94B107D60115961C92CD
:102D3000D092E604C092E504C6010E946B0E88ECB6
:102D40008E9D80018F9D100D1124045C1C4FF80195
:102D5000468161E08091E5049091E6040E94400E76
:102D6000D80117964C9162E08091E5049091E604B9
:102D70000E94400EF801408563E08091E504909147
:102D8000E6040E94400ED80119964C9164E08091AF
:102D9000E5049091E60464960FB6F894DEBF0FBE8A
:102DA000CDBFDF91CF911F910F91FF90EF90DF90FA
:102DB000CF90BF90AF909F908F900C94400EFC01ED
:102DC0004281D80115962C91022E000C330B42172C
:102DD000130609F4B4CF0E940B399ECF88EC8E9D68
:102DE00080018F9D100D1124045C1C4FF80185811A
:102DF0000E94ED05499709F060CB8091D70490912E
:102E0000D804D8011596DC90009709F04BC085E0F6
:102E100090E00E946F388C016D2D0E94E2071093A4
:102E2000D8040093D70461E0F80183810E94100266
:102E300061E0D80114968C910E9410020091D70491
:102E40001091D80488EC8E9DF0018F9DF00D112417
:102E5000E45CFC4FE680E094F12C878161E0811115
:102E600041C0F80183810E94100260E0D8011496ED
:102E70008C910E941002B701F801838164960FB60D
:102E8000F894DEBF0FBECDBFDF91CF911F910F91A0
:102E9000FF90EF90DF90CF90BF90AF909F908F907A
:102EA0000C944E03FC0122816D2DDD0C770B26174F
:102EB000170621F20E940B3985E090E00E946F38DE
:102EC0006C01D80115966C910E94E207D092D8044B
:102ED000C092D70461E0F60183810E94100261E094
:102EE000D601A8CFD80114968C910E94100260E000
:102EF000F80183810E941002B701D80114968C91C9
:102F0000BDCF64960FB6F894DEBF0FBECDBFDF9184
:102F1000CF911F910F91FF90EF90DF90CF90BF90D6
:102F2000AF909F908F9008952F923F924F925F9213
:102F30006F927F928F929F92AF92BF92CF92DF92C9
:102F4000EF92FF920F931F93CF93DF93CDB7DEB72E
:102F50006E970FB6F894DEBF0FBECDBFE82EF12CF2
:102F600028EC829FF0011124E45CFC4FE481E15ADB
:102F7000E23108F0CCC2F0E0E054F84E0C94553841
:102F8000D21762189718D8183919B11A191B801B53
:102F9000051DE71B0F208B20BF24E321F72282238E
:102FA000EC23552488EC8E9D80018F9D100D1124FB
:102FB000045C1C4FD80115968C910E94ED05029778
:102FC00009F0A5C280910F0590911005009709F0B6
:102FD00062C080E190E00E946F386C01F801658169
:102FE000C6010E94CD07D0921005C0920F058091B6
:102FF0000F05909110050E944E0C4B015C0120E0E2
:1030000030E04AE753E40E946A37181634F4812C02
:10301000912C4AE7A42E43E4B42E20E030E040E2B5
:1030200051E4C501B4010E9477370E9403369B0129
:1030300042E540932D0542E440932E0548EC4E9D19
:10304000F0014F9DF00D1124E45CFC4F438140934F
:10305000300541E040933105AB0177FF02C041509C
:103060005F4F50933205C90160E071E00E94413822
:103070008093330588E080932F05EDE2F5E024E3AB
:1030800035E080E09191890F2E173F07D9F78093A3
:10309000340588E03AC2DC0112964C91F801258192
:1030A000022E000C330B4217130609F4A0CF0E9426
:1030B0000B3980E190E00E946F386C01D8011596C1
:1030C0006C918ECF88EC8E9DF0018F9DF00D1124B8
:1030D000E45CFC4F8581893F09F019C282E5809349
:1030E0002D0582E480932E0510922F058381809315
:1030F000300511E01093310588E00E94B901019775
:1031000099F41092320587E080932F05EDE2F5E007
:1031100023E335E080E09191890F2E173F07D9F71F
:103120008093330587E0F1C110933205ECCF88EC32
:103130008E9D80018F9D100D1124045C1C4FF801A1
:1031400085818D3F09F0E3C185E10E94490422E3B6
:10315000AC01249FC001259F900D112422E52093EE
:103160002D0522E420932E05D80113962C9120934F
:10317000300521E0209331056FEF73E00E94413864
:10318000CB0160E071E00E944138982F990F890FC0
:103190008093320587E080932F05EDE2F5E023E38D
:1031A00035E080E09191890F2E173F07D9F7B8CF0E
:1031B00080910B0590910C0528EC2E9D80012F9D90
:1031C000100D1124045C1C4FF801D5800097C1F547
:1031D00085E090E00E946F388C016D2D0E94A70958
:1031E00010930C0500930B0582E580932D0582E476
:1031F00080932E0510922F0588EC8E9DF0018F9DF7
:10320000F00D1124E45CFC4F83818093300581E054
:103210008093310580910B0590910C050E948809DF
:103220008093320587E080932F05EDE2F5E023E3FC
:1032300035E080E09191890F2E173F07D9F770CFC5
:10324000DC0112962C916D2DDD0C770B26171706DD
:1032500059F20E940B3985E090E00E946F386C01B2
:10326000F80165810E94A709D0920C05C0920B0558
:10327000BBCF88EC8E9D80018F9D100D1124045CC6
:103280001C4FD80115968C910E94ED05069709F008
:103290003EC18091F7049091F804009709F050C165
:1032A00086E090E00E946F386C01F8011581612F73
:1032B0000E948D07E12FF0E0EE0FFF1FE25DFE4F51
:1032C0008181D60115968C93D092F804C092F704B0
:1032D0000091F7041091F804FE0131961F0185E07A
:1032E000DF011D928A95E9F761E0F80185810E946E
:1032F000100261E0D80115968C910E94E2016AEFFC
:1033000070E080E090E00E94BB0560E0F8018581FC
:103310000E94E20164E170E080E090E00E94BB0561
:1033200061E0D80115968C910E94E2018BE990E052
:103330000197F1F760E0F80185810E94E20183E2E4
:1033400090E00197F1F70E941C064B015C0162E0DE
:10335000D80115968C910E941002F80185810E9477
:10336000B901019789F00E941C06681979098A0938
:103370009B09653071058105910578F3D801139695
:103380001C92139714961C920E941C064B015C0120
:1033900062E0F80185810E941002D80115968C9197
:1033A0000E94B901892B59F00E941C0668197909FD
:1033B0008A099B09653071058105910570F3D12C4F
:1033C000C12C0E941C064B015C0162E0F801858162
:1033D0000E941002D80115968C910E94B901892B88
:1033E00059F40E941C06681979098A099B096530FD
:1033F00071058105910570F30E9496054B015C01F2
:103400000E941C062B013C0162E0F80185810E94AC
:103410001002D80115968C910E94B901019759F4B8
:103420000E941C06641975098609970965307105A3
:103430008105910570F30E949605F60123E0F5954C
:10344000E7952A95E1F7E20DF31D2081220FAB01EC
:10345000BC01481959096A097B09493251056105BE
:10346000710508F47CC0822F81608083BFEFCB1A86
:10347000DB0AE8E2CE16D10409F0A3CF59814B81D3
:103480006D818A81850F9927991F9C01240F311D19
:103490008C81820F932F911D99276817190631F49B
:1034A000D80113965C93139714964C9382E58093FE
:1034B0002D0582E480932E0588EC8E9DF0018F9D72
:1034C000F00D1124E45CFC4F83818093300581E092
:1034D00080933105F8018381809332051092330582
:1034E000848180933405109235058AE080932F05FE
:1034F000EDE2F5E026E335E080E09191890F2E17AB
:103500003F07D9F7809336058AE00E94AB006E969C
:103510000FB6F894DEBF0FBECDBFDF91CF911F91E4
:103520000F91FF90EF90DF90CF90BF90AF909F9062
:103530008F907F906F905F904F903F902F90089565
:10354000FC014281D80115962C91022E000C330B00
:103550004217130609F4BCCE0E940B39A1CE20837A
:1035600085CF8091F5049091F60428EC2E9D800182
:103570002F9D100D1124045C1C4FD8011596DC9072
:103580000097F1F584E090E00E946F388C016D2D7A
:103590000E949D071093F6040093F50482E5809342
:1035A0002D0582E480932E0510922F0588EC8E9DC8
:1035B000F0018F9DF00D1124E45CFC4F838180931A
:1035C000300581E0809331050091F5041091F604F7
:1035D000C8010E94C30990933205C8010E94C30923
:1035E0008093330588E080932F05EDE2F5E024E336
:1035F00035E080E09191890F2E173F07D9F747CD2D
:10360000FC0122816D2DDD0C770B2617170631F298
:103610000E940B3984E090E00E946F386C01D80161
:1036200015966C910E949D07D092F604C092F50405
:10363000B5CF8091F3049091F40428EC2E9D800185
:103640002F9D100D1124045C1C4FF801D5800097AC
:10365000F1F584E090E00E946F388C016D2D0E949E
:103660009D071093F4040093F30482E580932D05E5
:1036700082E480932E0510922F0588EC8E9DF00138
:103680008F9DF00D1124E45CFC4F83818093300505
:1036900081E0809331050091F3041091F404C80196
:1036A0000E94500990933205C8010E9450098093EE
:1036B000330588E080932F05EDE2F5E024E335E063
:1036C00080E09191890F2E173F07D9F7E0CCDC01FC
:1036D00012962C916D2DDD0C770B2617170629F20B
:1036E0000E940B3984E090E00E946F386C01F80171
:1036F00065810E949D07D092F404C092F304B5CF77
:103700008091EF049091F00428EC2E9D80012F9D74
:10371000100D1124045C1C4FD8011596DC90009705
:10372000E9F585E090E00E946F388C016D2D0E94D4
:1037300002081093F0040093EF0482E580932D05B6
:1037400082E480932E0510922F0588EC8E9DF00167
:103750008F9DF00D1124E45CFC4F83818093300534
:1037600081E080933105E091EF04F091F0048381D2
:103770000E94B90121E0892B09F020E02093320555
:1037800087E080932F05EDE2F5E023E335E080E06C
:103790009191890F2E173F07D9F7C2CCFC012281E6
:1037A0006D2DDD0C770B2617170639F20E940B39A9
:1037B00085E090E00E946F386C01D80115966C91FD
:1037C0000E940208D092F004C092EF04B6CF28EC19
:1037D0002E9DC0012F9D900D1124FC01E45CFC4F37
:1037E0006F0185810E94ED050D9709F090CE009143
:1037F000E9041091EA04D60115968C910115110582
:1038000009F07DC00E94ED050D9701F58BE090E079
:103810000E946F388C01F60165810E94B107D801C2
:1038200016961C9216978BEE90E01A969C938E93A8
:10383000199781E090E018969C938E9317971093B8
:10384000EA040093E904C8010E94800E28EC2E9D32
:10385000C0012F9D900D11249C01245C3C4F590107
:10386000D9011696DC90B1E0DB1270C08E010F5EBC
:103870001F4F9E012F5F3F4FAE01435F5F4FBE0161
:10388000615F7F4F8091E9049091EA040E94DF0E0E
:1038900082E580932D0582E480932E05F5018381D6
:1038A00080933005D0923105D09232058F8598896A
:1038B00090933305809334058D859E8590933505CF
:1038C0008093360589819A819093370580933805D6
:1038D00089899A899093390580933A058FE080937E
:1038E0002F05EDE2F5E02BE335E080E09191890FC3
:1038F0002E173F07D9F780933B058FE006CEF801DE
:103900009281282F082E000C330B9217130609F40E
:103910009DCF0E94ED050D9709F098CFC8010E9438
:103920000B398BE090E00E946F388C01D601159620
:103930006C910E94B107F80116828BEE90E092879D
:10394000818781E090E09087878379CFF2E0DF1272
:10395000DECD6090E9047090EA0416E0912ED12C3F
:10396000C12CB12CA12C8E010F5F1F4F9E01235F34
:103970003F4FAE01415F5F4FBE016F5E7F4FC3019E
:103980000E94DF0E89819A81A816B90608F45C01AD
:10399000C80ED91E9A949110E6CFCA18DB08C6014A
:1039A00096958795969587959A83898392E59093C6
:1039B0002D0592E490932E0598EC9E9DF0019F9D1D
:1039C000F00D1124E45CFC4F93819093300591E05D
:1039D0009093310592E0909332059D2D96959695A2
:1039E000909333058093340589E080932F05EDE2B1
:1039F000F5E025E335E080E09191890F2E173F0730
:103A0000D9F78093350589E080CD88EC8E9D8001C3
:103A10008F9D100D1124045C1C4FD80115968C91BC
:103A20000E94ED050E9709F072CDC090E704D0908A
:103A3000E804C114D10409F092C2F80185810E9402
:103A4000ED050E97D1F484E490E00E946F386C018C
:103A5000D80115966C910E94B10781E0F60185832B
:103A6000EE5BFF4F88E690E091838083D092E8047C
:103A7000C092E704C6010E94B30F0091E7041091C1
:103A8000E804A8014C5C5F4F2EE06BE3C8010E9484
:103A9000570FD801D4962D903C90D59732242324EB
:103AA000322493963C922E929297D696AD90BC90EB
:103AB000D797BA24AB24BA249596BC92AE92949729
:103AC000D896CD90DC90D997DC24CD24DC24979631
:103AD000DC92CE92969716964D905D906D907C906C
:103AE0001997DC966D917C91762767277627072EAC
:103AF000000C880B990B0E943B36F80120A531A5DC
:103B000042A553A50E94AD34A30192010E949135B4
:103B1000D80156966D937D938D939C935997DE961D
:103B20006D917C91762767277627072E000C880BEE
:103B3000990B0E943B36F80124A535A546A557A54B
:103B40000E94AD34A30192010E949135D8015A968A
:103B50006D937D938D939C935D97F801E05CFF4F8F
:103B600060817181762767277627072E000C880BE6
:103B7000990B0E943B36F80120A931A942A953A90B
:103B80000E94AD34A30192010E949135D8015E9646
:103B90006D937D938D939C939197B501BB0C880B8E
:103BA000990B0E943B364B015C01B601DD0C880B82
:103BB000990B0E943B369B01AC010E9477376B8BBF
:103BC0007C8B8D8B9E8BA5019401C501B4010E9455
:103BD00077372B893C894D895E890E94AE340E94DB
:103BE000EA376F8B788F898F9A8FB101330C880BEE
:103BF000990B0E943B362B013C012F89388D498D52
:103C00005A8D0E942D3520E030E044E353E40E94B9
:103C100077372AED3FE049E450E40E9491356F8BFD
:103C2000788F898F9A8FA3019201C301B2010E94FC
:103C300077372B893C894D895E890E94AE340E947A
:103C4000EA379B01AC01C501B4010E942D3520E08B
:103C500030E044E353E40E9477372AED3FE049E443
:103C600050E40E9491356B8B7C8B8D8B9E8B0E94D8
:103C70001C068090B4029090B502A090B602B0905D
:103C8000B702681979098A099B090E94393620E030
:103C900030E04AE754E40E9491354B015C010E94F8
:103CA0001C066093B4027093B5028093B6029093A1
:103CB000B702F80186A197A1181619060CF065C184
:103CC000228D338D448D558DC501B4010E94773707
:103CD0009B01AC01D8011A966D917D918D919C91BB
:103CE0001D970E94AD34F80162877387848795879A
:103CF00026893789408D518DC501B4010E947737DF
:103D00009B01AC01D8011E966D917D918D919C9186
:103D100051970E94AE34F80166877787808B918B2C
:103D2000F801268D378D40A151A1C501B4010E9433
:103D30007737D80152962D913D914D915C915597D1
:103D40000E94AE342B013C0120E030E044EB53E410
:103D50000E9491350E94763620E030E044EB53E437
:103D60000E9477379B01AC01C301B2010E94AD34C0
:103D7000F801628B738B848B958B20E030E040E000
:103D80005FE3C501B4010E94AE349B01AC0160E069
:103D900070E080E09FE30E9491354B015C01AC0133
:103DA0009B0160E070E080E89FE30E94AD342B014E
:103DB0003C01D8011A962D913D914D915C911D9732
:103DC000C501B4010E9477376B8F7C8F8D8F9E8FDA
:103DD000A30192016F89788D898D9A8D0E94773722
:103DE0009B01AC016B8D7C8D8D8D9E8D0E94AE34C0
:103DF000F801628773878487958726853785408990
:103E00005189C501B4010E9477374B015C01A301C0
:103E100092016B897C898D899E890E9477379B01ED
:103E2000AC01C501B4010E94AE34D8011E966D9359
:103E30007D938D939C93519782E580932D0582E429
:103E400080932E0510922F0588EC8E9DF0018F9D9A
:103E5000F00D1124E45CFC4F83818093300581E0F8
:103E600080933105768070923205E6E0781265C065
:103E70000091E7041091E804F80162857385848558
:103E80009585905820E030E048EC52E40E94773766
:103E90000E9403364B015C01D8011E966D917D9105
:103EA0008D919C915197905820E030E048EC52E47D
:103EB0000E9477370E9403366B017C0120E030E0DE
:103EC00048EC52E4F80162897389848995890E94DB
:103ED00077370E940336181419041A041B040CF4D3
:103EE00087C0B094A09490948094811C911CA11CD4
:103EF000B11C1092330590923405809235051C1444
:103F00001D041E041F040CF476C0F094E094D094B9
:103F1000C094C11CD11CE11CF11C10923605D0923A
:103F20003705C092380597FD6AC021E02093390516
:103F300070933A0560933B05EFE081E08E0F80932C
:103F40002F05ADE2B5E020E090E03D91930F2F5FAB
:103F5000E213FBCFF0E0E35DFA4F9083D6CAD801BD
:103F600015968C91F6019281282F082E000C330BA8
:103F70009217130609F481CD0E94ED050E9709F002
:103F80007CCDC6010E940B395ECD228D338D448DD0
:103F9000558DC501B4010E9477379B01AC01F80132
:103FA00062857385848595850E94AE34D8011A9602
:103FB0006D937D938D939C931D9756962D913D9176
:103FC0004D915C915997C501B4010E9477379B01CF
:103FD000AC01F80166857785808991890E94AD34AE
:103FE000D8011E966D937D938D939C93519798CE97
:103FF0007092330580CF21E02093360590CF9B014E
:10400000AC0188279927DC01821B930BA40BB50B0D
:104010001092390590933A0580933B058DCF80919E
:10402000BC029091BD0248EC4E9D90014F9D300D19
:104030001124A901445C5C4F6A01DA0115961C91B8
:10404000009709F046C088E090E00E946F386C014C
:10405000612F0E94B10781E0F601858317821682E5
:10406000D092BD02C092BC0282E580932D0582E40D
:1040700080932E0510922F0588EC8E9DF0018F9D68
:10408000F00D1124E45CFC4F83818093300581E0C6
:10409000809331058091BC029091BD020E948B0DEE
:1040A000909332058091BC029091BD020E948B0DCD
:1040B0008093330588E080932F05EDE2F5E024E35B
:1040C00035E080E09191890F2E173F07D9F70C94C6
:1040D0004718DC0112962C91612F110F770B2617D0
:1040E000170611F20E940B3988E090E00E946F38A9
:1040F0008C01F60165810E94B10781E0D801159617
:104100008C93159717961C921E9216971093BD02CA
:104110000093BC02A9CF8091E3049091E40448ECA1
:104120004E9D90014F9D300D1124F901E45CFC4F30
:104130005F011581009709F09BC089E090E00E9423
:104140006F386C01612FC6010E948D07E12FF0E0EE
:10415000EE0FFF1FE25DFE4F8081D60114968C9317
:104160001497818115968C93D092E404C092E30455
:104170000091E3041091E40488EC8E9DF0018F9D82
:10418000F00D1124E45CFC4F8681813009F084C07D
:10419000F8016481C8010E94EC066801B6E0CB0E0C
:1041A000D11CC6010E94220881117DC060E070E030
:1041B000CB0120E030E048EC52E40E9477374B011D
:1041C0005C0182E580932D0582E480932E0588ECC6
:1041D0008E9DF0018F9DF00D1124E45CFC4F8381D6
:1041E0008093300511E01093310520E030E0A90103
:1041F000C501B4010E946A3787FDDAC01093320509
:1042000020E030E0A901C501B4010E946A37181608
:104210000CF0D1C0C501B4010E9403369B0177FFA9
:1042200002C021503F4F3093330520E030E0A90118
:10423000C501B4010E946A3718160CF0C0C0C50150
:10424000B4010E940336CB0160E071E00E94413866
:104250008093340589E080932F05EDE2F5E025E3B6
:1042600035E080E09191890F2E173F07D9F7C9CB30
:10427000FC012281612F110F770B2617170609F415
:1042800077CF0E940B3989E090E00E946F386C0173
:10429000D50115961C9156CF823009F07ECFD801FA
:1042A00015966C9177CF6CECC6010E94BC0064E45B
:1042B000C6010E94BC000E941C062B013C01F3E2D7
:1042C000AF2EB12CF80186810780F085E02D218189
:1042D000982F909592239183D5011197F1F79081B2
:1042E000892309F458C0C6010E9422086CECC6015B
:1042F0000E94BC006EEBC6010E94BC009E012F5FB5
:104300003F4F29015E0136E0A30EB11C47E050E0AB
:1043100063E270E0EFECCE2ED12C88E090E0812CAF
:1043200077247394D80116969C9016971796ED9162
:10433000FC91F8942181292921833281692C609490
:1043400036213283DA011197F1F721812621218369
:10435000DB011197F1F720817894F6013197F1F79D
:10436000922209F08728770C0197E1F6F2018192F9
:104370002F01AE16BF0689F669817A81072E000CDF
:10438000880B990B0E943B3620E030E040E85DE36B
:104390000E9477370ECF0E941C06641975098609A2
:1043A0009709613971408105910508F48BCFFECEE4
:1043B0001092320525CFC501B40190582DCFC5010B
:1043C000B40190583ECF8091E1049091E20448EC12
:1043D0004E9D90014F9D300D1124A901445C5C4F0E
:1043E0005A01DA0115961C91009709F0C2C085E0C8
:1043F00090E00E946F386C01612FC6010E948D070A
:10440000E12FF0E0EE0FFF1FE25DFE4F8181D6014C
:1044100013968C931397808114968C93D092E20418
:10442000C092E104C090E104D090E20460E0F601A3
:1044300083810E941002D60113968C910E94490438
:104440009C01205D3240121613060CF0A6C04BE012
:10445000429FC001439F900D112466E070E00E94CE
:1044600041380091B8021091B902060F171F013EA2
:10447000B1E01B070CF09AC00032EEEF1E070CF4FF
:1044800098C0C801C1968336910508F495C060E0D4
:10449000D60114968C910E941002F60184810E942C
:1044A00049049C01205D3240121613060CF087C0AF
:1044B00045EF4203C001439F900D112466E070E078
:1044C0000E9441388091BA029091BB02680F791F17
:1044D000613E51E075070CF07FC060328EEF7807C7
:1044E0000CF47DC0CB01C1968336910508F47AC0E7
:1044F00082E580932D0582E480932E0588EC8E9DC5
:10450000F0018F9DF00D1124E45CFC4F83818093BA
:10451000300581E08093310517FD67C08093320537
:1045200017FF03C0119501951109109333050093EE
:10453000340581E077FD82E08093350577FF03C085
:1045400071956195710970933605609337058CE01C
:1045500080932F05EDE2F5E028E335E080E09191CE
:10456000890F2E173F07D9F7809338058CE00C94FC
:10457000851AFC012281612F110F770B2617170670
:1045800009F450CF0E940B3985E090E00E946F380B
:104590006C01D50115961C912FCF47E0429FC001B9
:1045A000439F900D11246AE070E059CF00EE11E0B6
:1045B0006ECF00E21EEF6BCF10E000E068CFC901C4
:1045C00043E0880F991F4A95E1F7A901481B590B51
:1045D000CA016AE070E074CF60EE71E089CF60E2FA
:1045E0007EEF86CF70E060E083CF82E097CF80914E
:1045F000DF049091E00448EC4E9D90014F9D300DFA
:104600001124D901A45CBC4F5D0115961C91009743
:1046100009F064C085E090E00E946F386C01612F62
:10462000C6010E948D07E12FF0E0EE0FFF1FE25D53
:10463000FE4F8081D60113968C9313978181149637
:104640008C93D092E004C092DF0482E580932D0524
:1046500082E480932E0510922F0588EC8E9DF00148
:104660008F9DF00D1124E45CFC4F83818093300515
:1046700081E080933105E090DF04F090E00460E099
:10468000F70184810E941002D70114968C910E9438
:1046900049040FEF13E0F801E81BF90BCF019093E9
:1046A000320560E0D70114968C910E941002F70148
:1046B00084810E944904081B190B0093330588E08C
:1046C00080932F05EDE2F5E024E335E080E0919161
:1046D000890F2E173F07D9F70C944718FC01228148
:1046E000612F110F770B2617170609F4AECF0E9422
:1046F0000B3985E090E00E946F386C01D50115966A
:104700001C918DCF8091DD049091DE0428EC2E9DCC
:1047100080012F9D100D1124045C1C4FD8011596AB
:10472000DC90009709F03FC084E090E00E946F3871
:104730008C016D2D0E949D071093DE040093DD0413
:1047400082E580932D0582E480932E0510922F053B
:1047500088EC8E9DF0018F9DF00D1124E45CFC4FE0
:1047600083818093300581E0809331050091DD04E1
:104770001091DE04C8010E94440990933205C801DB
:104780000E9444098093330588E080932F05EDE271
:10479000F5E024E335E080E09191890F2E173F0783
:1047A000D9F70C944718FC0122816D2DDD0C770B95
:1047B0002617170629F20E940B3984E090E00E9428
:1047C0006F386C01D80115966C910E949D07D092AC
:1047D000DE04C092DD04B4CF8091DB049091DC0450
:1047E00028EC2E9D80012F9D100D1124045C1C4F80
:1047F000F801D580009709F03FC084E090E00E9466
:104800006F388C016D2D0E949D071093DC0400937E
:10481000DB0482E580932D0582E480932E051092BF
:104820002F0588EC8E9DF0018F9DF00D1124E45C26
:10483000FC4F83818093300581E0809331050091A6
:10484000DB041091DC04C8010E94500990933205EA
:10485000C8010E9450098093330588E080932F059A
:10486000EDE2F5E024E335E080E09191890F2E1729
:104870003F07D9F70C944718DC0112962C916D2D47
:10488000DD0C770B2617170621F20E940B3984E006
:1048900090E00E946F386C01F80165810E949D07CD
:1048A000D092DC04C092DB04B4CF8091D904909103
:1048B000DA0428EC2E9D80012F9D100D1124045C3C
:1048C0001C4FD8011596DC90009709F03FC084E09A
:1048D00090E00E946F388C016D2D0E949D0710930F
:1048E000DA040093D90482E580932D0582E4809355
:1048F0002E0510922F0588EC8E9DF0018F9DF00DF6
:104900001124E45CFC4F83818093300581E0809327
:1049100031050091D9041091DA04C8010E945009B0
:1049200090933205C8010E9450098093330588E0B6
:1049300080932F05EDE2F5E024E335E080E09191EE
:10494000890F2E173F07D9F70C944718FC012281D5
:104950006D2DDD0C770B2617170629F20E940B39F7
:1049600084E090E00E946F386C01D80115966C913C
:104970000E949D07D092DA04C092D904B4CF8091EE
:10498000D5049091D60448EC4E9D90014F9D300D7A
:104990001124F901E45CFC4F6F011581009709F0C7
:1049A0008FC087E090E00E946F386C01612F0E94F9
:1049B000B10781E0D60115968C93159716961C9237
:1049C000D092D604C092D5040091D5041091D6049B
:1049D00060E7C8010E94390C60EBC8010E94760BA9
:1049E000C8010E94100AC8010E948D0B61EEC80127
:1049F0000E94290BC8010E94930AC8010E94DC0A88
:104A0000B82E60E0C8010E94550AC8010E94DC0A65
:104A1000D82E60E0C8010E94550AC8010E94DC0A35
:104A2000C82E61E0C8010E94550AC8010E94100A00
:104A3000FAEABF1263C02BEBC21260C0D80116960F
:104A4000DC9282E580932D0582E480932E0588EC2C
:104A50008E9DF0018F9DF00D1124E45CFC4F83814D
:104A60008093300581E0809331058D2DD5FA99270B
:104A700090F990933205D4FA992790F990933305E1
:104A8000D3FA992790F990933405D2FA992790F99F
:104A90009093350586958170809336058D2D8170B4
:104AA000809337058CE080932F05EDE2F5E028E355
:104AB00035E080E09191890F2E173F07D9F754CD4B
:104AC000FC012281612F110F770B2617170609F4BD
:104AD0007BCF0E940B3987E090E00E946F388C01F9
:104AE000D60115966C910E94B10781E0F80185838B
:104AF00016821093D6040093D50466CFD12CA1CF93
:104B00001F920F920FB60F9211242F933F938F9302
:104B10009F93AF93BF938091340390913503A091FD
:104B20003603B09137033091330323E0230F2D3741
:104B300058F50196A11DB11D2093330380933403D2
:104B400090933503A0933603B093370380913803D5
:104B500090913903A0913A03B0913B030196A11DB6
:104B6000B11D8093380390933903A0933A03B09317
:104B70003B03BF91AF919F918F913F912F910F90E8
:104B80000FBE0F901F90189526E8230F0296A11DC7
:104B9000B11DD2CF1F920F920FB60F9211242F93F7
:104BA0003F934F935F936F937F938F939F93AF93B5
:104BB000BF93EF93FF93E0913103F091320330976D
:104BC00049F0A685B7858585968D91FF14C09C9187
:104BD0008923A1F4FF91EF91BF91AF919F918F91A4
:104BE0007F916F915F914F913F912F910F900FBEE9
:104BF0000F901F9018959C91892361F7A389B48920
:104C00009C918589809589238C93868997890197C2
:104C1000F1F7608D718DA685B785558538E020E068
:104C2000CB010197F1F7822F90E095958795282F7A
:104C30004C91452309F02068315091F7868D81FD14
:104C4000209580912F0390E001968F7399273091E2
:104C50003003381799F0A0912F03B0E0A151BD4F58
:104C60002C9380932F03828D938D0197F1F7A38965
:104C7000B4898C919589892B8C93ACCF868D81607A
:104C8000868FF1CF1F920F920FB60F9211242F93A0
:104C90003F938F939F93EF93FF938091EE0287FF53
:104CA0001FC010928500109284008091EE028F5FE9
:104CB0008093EE028091EE0287FF04C08091EE02A5
:104CC0008C30ACF080918400909185000496803403
:104CD0009C4990F1809184009091850004962EC0AB
:104CE0008091EE0287FFE1CF8091EE02DECF20912E
:104CF000840030918500E091EE028E2FEE0F990B2B
:104D0000FC01EE0FFF1FE80FF91FE653FD4F8181F5
:104D10009281820F931F90938900809388008091E5
:104D2000EE02FF91EF919F918F913F912F910F9004
:104D30000FBE0F901F90189580E49CE99093890016
:104D4000809388008FEF8093EE02EBCF1F920F923B
:104D50000FB60F9211242F933F938F939F93AF938E
:104D6000BF93EF93FF939091C6008091C902811188
:104D70001BC0923561F4E091C80238ECE39FF0016A
:104D80001124E45CFC4F908381E08093C902FF9181
:104D9000EF91BF91AF919F918F913F912F910F9084
:104DA0000FBE0F901F901895813081F4923459F402
:104DB000E091C80288ECE89FF0011124E45CFC4F0C
:104DC000918382E0E2CF1092C902E1CF2091C80224
:104DD00038EC239FF0011124E45CFC4FDF01A80FA5
:104DE000B11D9C938F5F8093C9029281891710F443
:104DF000883C68F21092C9028091CC04222331F0E1
:104E00001092C80282608093CC04C1CF91E090934D
:104E1000C8028160F8CFCF92DF92EF92FF920F939A
:104E20001F93E82FF92F05C00150110921093109FD
:104E300061F1908196239417B9F305C001501109CF
:104E40002109310911F1908196239413F7CFC12CD8
:104E5000D12CE12CF12C0AC08FEFC81AD80AE80A2D
:104E6000F80A0C151D052E053F0579F08081862373
:104E7000841791F36C2D7D2D8E2D9F2D1F910F91F9
:104E8000FF90EF90DF90CF90089560E070E080E0B9
:104E900090E01F910F91FF90EF90DF90CF900895D9
:104EA000CF93DF93CDB7DEB728970FB6F894DEBF68
:104EB0000FBECDBF789484B5826084BD84B5816017
:104EC00084BD85B5826085BD85B5816085BD8091D5
:104ED0006E00816080936E0010928100809181004D
:104EE0008260809381008091810081608093810045
:104EF000809180008160809380008091B100846007
:104F00008093B1008091B00081608093B000809167
:104F10007A00846080937A0080917A008260809326
:104F20007A0080917A00816080937A0080917A0083
:104F3000806880937A001092C10060E088E00E944F
:104F400010028091C00082608093C0001092C50062
:104F500080E18093C4008091C10080688093C1008B
:104F60008091C10080618093C1008091C100886000
:104F70008093C1008091C20084608093C2008091C0
:104F8000C20082608093C2006CE271E080E090E039
:104F90000E94BB050E944C0220E040E060E081E1FD
:104FA00095E00E946607EEEDF0E0E491E0931805CD
:104FB000EAECF0E0E491F0E0EE0FFF1FEC54FF4F5D
:104FC00085919491909315058093140561E082E09A
:104FD0000E94100220E040E060E081E195E00E9444
:104FE000660781E195E00E9411076CE271E080E0C4
:104FF00090E00E94BB0520E040E06EE181E195E099
:105000000E94660781E195E00E9411076CE271E061
:1050100080E090E00E94BB0520E04EE160E081E18D
:1050200095E00E94660781E195E00E9411076CE21D
:1050300071E080E090E00E94BB052EE140E060E07E
:1050400081E195E00E94660781E195E00E941107E9
:105050006CE271E080E090E00E94BB0544EF51E01B
:1050600060E070E084EF91E00E94560261E085E02C
:105070000E94100261E086E00E94100261E089E077
:105080000E94100261E08AE00E9410028DEA809383
:1050900080008BE08093810010928900109288003C
:1050A00010928B0010928A0064EF71E080E090E033
:1050B0000E94BB0582E50E94A40082E40E94A40035
:1050C00086E00E94A40080E00E94A40083E00E9489
:1050D000A4008DE90E94A40088E19FE00FB6F89437
:1050E000A895809360000FBE90936000A8957EE025
:1050F000272EA8958091CC04482F417080FF0EC1C7
:105100008E7F8093CC0480913E0350E040E081503C
:10511000990B252F30E0281739073CF4245C3C4FCD
:10512000D9012C91420F5F5FF4CF845C9C4FFC014E
:1051300080814813D6C080914003813A08F0CDC0E9
:1051400080E00E94151188E00E94B901019719F4CE
:1051500081E08093CF0488E00E94B901892B49F453
:105160008091CF04882329F081E08093CE041092AF
:10517000CF048091CE04882371F180912205109292
:10518000CE04813009F49EC108F405C1823009F4CF
:105190004DC18091CD048823F1F082E50E94A400E6
:1051A00082E40E94A40088E00E94A40080E00E94A3
:1051B000A40081E00E94A40089EF0E94A40081E085
:1051C0000E94A40087E90E94A40087E90E94A4002D
:1051D00087E90E94A40080912305882309F468C010
:1051E0008091D1049091D204A091D304B091D404C1
:1051F0000196A11DB11D8093D1049093D204A09378
:10520000D304B093D404883E9340A105B10508F4BB
:1052100047C00091D0041092D1041092D204109291
:10522000D3041092D40485E10E944904BC0190E0AB
:1052300080E00E94393620E030E040E75CE30E94E5
:1052400077376B017C0120E030E040E050E40E94C1
:105250006A3718162CF52AE939E949ED50E4C701F7
:10526000B6010E948C3587FF1BC082E50E94A40016
:1052700082E40E94A40088E00E94A40080E00E94D2
:10528000A40082E00E94A4008DEF0E94A40081E0AF
:105290000E94A4008CE90E94A4000F5F0093D00438
:1052A0008091D0048A3020F01092D004109223050F
:1052B00080912205823009F483C608F05DC18823FD
:1052C00009F492C3813009F487C580E090E0892B0E
:1052D00009F40FCF0E9400000ACF80E00E949417CB
:1052E00032CF82E50E94A40082E40E94A40087E0FD
:1052F0000E94A40080913F030E94A400809140037B
:105300000E94A40080E00E94A40080913F0390913D
:105310004003890F86560E94A40015CF81FF13CF4A
:105320008D7F8093CC048091060450E08150990BCE
:10533000252F30E0281739073CF42C5F3B4FD9016B
:105340002C91420F5F5FF4CF8C5F9B4FFC018081FB
:10535000481308C080910804813A10F481E0F1CE2E
:1053600081E0BCCF82E50E94A40082E40E94A400F8
:1053700087E00E94A400809107040E94A40080910D
:1053800008040E94A40080E00E94A4008091070409
:1053900090910804BECF05E020E040E062E381E1A7
:1053A00095E00E94660781E195E00E94110768EC94
:1053B00070E080E090E00E94BB0522E340E060E006
:1053C00081E195E00E94660781E195E00E94110766
:1053D00064E670E080E090E00E94BB05A895015073
:1053E000D9F64DE750E060E070E088EB91E00E9474
:1053F00056020E944C024DE750E060E070E08EEEF5
:1054000091E00E9456020E944C024AEF50E060E098
:1054100070E080E193E00E9456020E944C02A89541
:10542000F2E0F0932205F0930E05B3CE05E020E004
:1054300040E062E381E195E00E94660781E195E04A
:105440000E94110768EC70E080E090E00E94BB05CC
:1054500022E340E060E081E195E00E94660781E19F
:1054600095E00E94110764E670E080E090E00E9401
:10547000BB05A8950150D9F64DE750E060E070E01B
:1054800088EB91E00E9456020E944C024DE750E0EA
:1054900060E070E08EEE91E00E9456020E944C02A5
:1054A0004AEF50E060E070E080E193E00E94560235
:1054B0000E944C02A89581E08093220523E020936E
:1054C0000E0567CE05E020E040E062E381E195E073
:1054D0000E94660781E195E00E94110768EC70E088
:1054E00080E090E00E94BB0522E340E060E081E1C3
:1054F00095E00E94660781E195E00E94110764E64D
:1055000070E080E090E00E94BB05A8950150D9F6BC
:105510004DE750E060E070E080E193E00E945602C9
:105520000E944C024DE750E060E070E08EEE91E0AA
:105530000E9456020E944C024AEF50E060E070E088
:1055400088EB91E00E9456020E944C02A89570E000
:1055500060E086E00E944E0370E060E085E00E941B
:105560004E0310928B0010928A00109289001092C4
:105570008800109222050DCE803109F409C68131D0
:1055800009F0A3CE8091200590912105009711F09C
:105590000C942D3385E090E00E946F387C0164E02C
:1055A0000E94E207F0922105E092200523EA209371
:1055B000B00087E08093B1004AE56AE5809120055C
:1055C000909121050E940807E0901E05F0901F05AC
:1055D00000911D05E114F10411F00C9447338CE0A7
:1055E00090E00E946F387C01602F0E94E910F092D9
:1055F0001F05E0921E05E0901E05F0901F0522E3B6
:1056000040E060E0C7010E946607C7010E941107E1
:1056100022E340E060E081E195E00E94660781E1DD
:1056200095E00E9411074AE56AE580912005909176
:1056300021050E94080732E1E32EF12C812C912CE8
:10564000540120E030E044EB52E4C501B4010E9473
:10565000AE340E940A36462F809120059091210594
:105660000E940807C0901E05D0901F0528E431EE67
:105670004AEB5FE3C501B4010E9477379B01AC019F
:1056800060E070E084E093E40E94AD340E940A364A
:10569000662E20E030E040E250E4C501B4010E94F3
:1056A00077379B01AC0160E070E083E693E40E94F1
:1056B000AD340E940A36762E23E333E343E350E40D
:1056C000C501B4010E9477379B01AC0160E070E036
:1056D0008FE793E40E94AD340E940A36062F262DF0
:1056E000472DC6010E946607C6010E941107262D9C
:1056F000472D602F81E195E00E94660781E195E0EA
:105700000E94110764E170E080E090E00E94BB0518
:10571000A89520E030E040EA50E4C501B4010E94C1
:10572000AE344B015C01F1E0EF1AF10809F089CFCA
:10573000A89568E770E080E090E00E94BB0522E158
:10574000E22EF12C812C912C5401A501940160E0F2
:1057500070E084E393E40E94AD340E940A36462F41
:1057600080912005909121050E940807C0901E0598
:10577000D0901F0528E431EE4AEB5FE3C501B40188
:105780000E9477370E940A36662E20E030E040E221
:1057900050E4C501B4010E9477370E940A36762E84
:1057A00023E333E343E350E4C501B4010E947737B8
:1057B0000E940A36062F262D472DC6010E94660735
:1057C000C6010E941107262D472D602F81E195E02B
:1057D0000E94660781E195E00E94110764E170E094
:1057E00080E090E00E94BB05A89520E030E040EA10
:1057F00050E4C501B4010E94AE344B015C0121E0CC
:10580000E21AF10809F0A1CFA89568E770E080E0FE
:1058100090E00E94BB0592E1E92EF12C812C912CA5
:105820005401A501940160E070E084EB92E40E94D1
:10583000AD340E940A36462F8091200590912105B3
:105840000E940807C0901E05D0901F0528E431EE85
:105850004AEB5FE3C501B4010E9477379B01AC01BD
:1058600060E070E084E093E40E94AD340E940A3668
:10587000662E20E030E040E250E4C501B4010E9411
:1058800077379B01AC0160E070E083E693E40E940F
:10589000AD340E940A36762E23E333E343E350E42B
:1058A000C501B4010E9477379B01AC0160E070E054
:1058B0008FE793E40E94AD340E940A36062F262D0E
:1058C000472DC6010E946607C6010E941107262DBA
:1058D000472D602F81E195E00E94660781E195E008
:1058E0000E94110764E170E080E090E00E94BB0537
:1058F000A89520E030E040EA50E4C501B4010E94E0
:10590000AE344B015C0141E0E41AF10809F089CFA3
:10591000A89568E770E080E090E00E94BB0582E116
:10592000E82EF12C812C912C5401C501B4010E9468
:105930000A36462F80912005909121050E94080784
:10594000C0901E05D0901F0528E431EE4AEB5FE3BE
:10595000C501B4010E9477370E940A36662E20E006
:1059600030E040E250E4C501B4010E9477370E9464
:105970000A36762E23E333E343E350E4C501B40152
:105980000E9477370E940A36062F262D472DC60122
:105990000E946607C6010E941107262D472D602F21
:1059A00081E195E00E94660781E195E00E94110780
:1059B00064E170E080E090E00E94BB05A89520E0E3
:1059C00030E040EA50E4C501B4010E94AE344B011E
:1059D0005C0151E0E51AF10809F0A7CFA89568E746
:1059E00070E080E090E062C30E941C06C090030556
:1059F000D0900405E0900505F09006056C197D092E
:105A00008E099F096D3D75408105910508F45DCCB7
:105A10004FEF842E44E0942E5BEFA52E54E0B52E7C
:105A20006EE2C62E61E0D62E10E000E00F5F802F00
:105A30000E94ED05782ED4018D934D0181110BC08C
:105A400060E0F60182810E94100260E0D6011396A8
:105A50008C910E941002D501EC917E1609F441C090
:105A6000E250E83108F03CC0F0E0E75CF24D0C9405
:105A70005538512D5D2D692DF92DC12DCF2DDD2DE1
:105A8000EB2D072E132E2E2E3C2E4A2E702D7C2E03
:105A9000DE2E6E2E582E8A2E982EA62EB42EC22EB4
:105AA000D02E80910F0590911005009731F00E9443
:105AB0000B391092100510920F058091F904909106
:105AC000FA04009731F00E940B391092FA041092F8
:105AD000F90480910B0590910C05009709F04AC0DC
