:100000000C947A000C94A2000C94A2000C9433245B
:100010000C9433240C9433240C94A2000C94A2006E
:100020000C94A2000C94A2000C94A2000C94AB249B
:100030000C94A2000C94A2000C94A2000C94A200B8
:100040000C94E9230C94A2000C940F250C94A200AC
:100050000C94A2000C94A2000C94A2000C94A20098
:100060000C94A2000C94A200084AD73B3BCE016E30
:1000700084BCBFFDC12F3D6C74319ABD56833DDAFF
:100080003D00C77F11BED9E4BB4C3E916BAAAABE0E
:10009000000000803F0000000000240027002A002C
:1000A0000000000800020100000304070000000037
:1000B0000000000000000000250028002B000000C8
:1000C000000023002600290004040404040404049E
:1000D00002020202020203030303030301020408F3
:1000E00010204080010204081020010204081020A2
:1000F0001D2C622C11241FBECFEFD8E0DEBFCDBF78
:1001000011E0A0E0B1E0ECE1F5E602C005900D924F
:10011000A435B107D9F725E0A4E5B1E001C01D92EF
:10012000A93FB207E1F710E0C9E7D0E004C021978A
:10013000FE010E941731C837D107C9F70E94B925BF
:100140000C9481320C9400009091C00095FFFCCF7C
:100150008093C60008950F931F93CF93C82F07E293
:1001600015E0F80181918F010E94A400C150C9F7E8
:10017000CF911F910F910895AF92BF92CF92DF92CE
:10018000EF92FF920F931F93CF93DF93DC0128E050
:1001900030E081E0AA24AA94B12C0FE010E043E201
:1001A000E42EF12C57EDC52ED12C9C911196ED919A
:1001B000FC911297592F5095462F4823A1F1F8949E
:1001C0004281452342834181492B4183E7012197A5
:1001D000F1F74281942B92837894F6013197F1F7ED
:1001E000880F2150310909F7F8941196ED91FC918F
:1001F000129791818C918095892381831196ED913D
:10020000FC91129792818C918095892382837894B6
:10021000DF91CF911F910F91FF90EF90DF90CF90E2
:10022000BF90AF900895F894428145234283418165
:10023000492B4183E5012197F1F74281942B928369
:100240007894F801CBCF682F70E090E080E00E94B6
:10025000FB2E2CE53FE842EA5FE30E94532E0E940A
:10026000CC2E862F653B40F4611104C087E080935B
:10027000B3000895643B11F486E2F9CF66E00E9472
:10028000F730885FF4CF682F70E090E080E00E9444
:10029000FB2E2CE53FE842EA5FE30E94532E0E94CA
:1002A000CC2E862F653B40F4611104C087E080931B
:1002B000B4000895643B11F486E2F9CF66E00E9431
:1002C000F730885FF4CFAF92BF92CF92DF92EF9278
:1002D000FF920F931F93CF93DF936C017B018B01F0
:1002E000040F151FEB015E01AE18BF08C017D10740
:1002F00059F06991D601ED91FC910190F081E02DCA
:10030000C6010995892B79F7C501DF91CF911F911E
:100310000F91FF90EF90DF90CF90BF90AF90089536
:10032000833081F028F4813099F08230A9F008956B
:100330008730A9F08830C9F08430B1F48091800012
:100340008F7D03C0809180008F7780938000089517
:1003500084B58F7784BD089584B58F7DFBCF809160
:10036000B0008F778093B00008958091B0008F7DAA
:10037000F9CFCF93DF93282F30E0F901E056FF4FFC
:100380008491F901E452FF4FD491F901E853FF4FF2
:10039000C491CC23A1F081110E949001EC2FF0E0D8
:1003A000EE0FFF1FE254FF4FA591B491EC91ED23A6
:1003B00081E090E009F480E0DF91CF91089580E042
:1003C00090E0FACF1F93CF93DF93282F30E0F9010D
:1003D000E056FF4F8491F901E452FF4FD491F901A7
:1003E000E853FF4FC491CC23A9F0162F81110E942E
:1003F0009001EC2FF0E0EE0FFF1FEC54FF4FA591A2
:10040000B4918FB7F894EC91111108C0D095DE2308
:10041000DC938FBFDF91CF911F910895DE2BF8CF32
:10042000CF93DF9390E0FC01E452FF4F2491885377
:100430009F4FFC0184918823C9F090E0880F991F99
:10044000FC01EA56FF4FA591B491FC01EC54FF4F1B
:10045000C591D49161110DC09FB7F8948C912095EE
:1004600082238C938881282328839FBFDF91CF919B
:100470000895623051F49FB7F8943C91822F809593
:1004800083238C93E8812E2BEFCF8FB7F894EC91D8
:100490002E2B2C938FBFEACF4F925F926F927F9259
:1004A0008F929F92AF92BF92CF92DF92EF92FF9284
:1004B0000F931F93CF93DF934A015B019C0150E0A0
:1004C00040E060E472E48FE090E00E940C2D69014E
:1004D00061E0809126050E941002A8EEB3E0A5011C
:1004E00094010E942B2D2B013C01E601D7FC2196A3
:1004F000D595C7958E01000F111F000F111F0550D4
:1005000011090D2C000CEE08FF08812C912C5401D0
:1005100084149504A604B704E0F461E080912605F4
:100520000E94E201C230D10518F0C8010197F1F72D
:1005300060E0809126050E94E201C230D10518F0EA
:10054000C8010197F1F7A8958C0C9D1CAE1CBF1C2F
:10055000DFCFDF91CF911F910F91FF90EF90DF9050
:10056000CF90BF90AF909F908F907F906F905F9053
:100570004F900895CF92DF92EF92FF926C392FEF58
:100580007207820792070CF443C0B62FA72FF82FEB
:10059000E92F653671058105910524F0B4E6A0E0E8
:1005A000F0E0E0E097FD38C02B2F3A2F4F2F5E2F61
:1005B00057FF07C050954095309521953F4F4F4FBD
:1005C0005F4FAFEFB0E00E942B2D24E630E040E01B
:1005D00050E00E940C2D69017A0160E0C114D10441
:1005E000E104F10409F061E089E00E94100260E09A
:1005F0008AE00E941002D0928900C0928800109276
:100600008B0010928A00FF90EF90DF90CF900895BA
:10061000BCE9AFEFFFEFEFEF2B2F3A2F4F2F5E2FFD
:1006200057FF07C050954095309521953F4F4F4F4C
:100630005F4FAFEFB0E00E942B2D24E630E040E0AA
:1006400050E00E940C2D69017A0160E0C114D104D0
:10065000E104F10409F061E08AE00E94100260E028
:1006600089E00E941002D0928B00C0928A00109202
:10067000890010928800C0921E05D0921F05E0925A
:100680002005F0922105BFCF1F93CF93DF93182F42
:10069000EB0161E00E941002209739F460E0812FA5
:1006A000DF91CF911F910C94E201CF3FD10511F45E
:1006B00061E0F5CFE12FF0E0E056FF4FE491E33049
:1006C00031F140F4E130B1F0E230E1F0C038D10571
:1006D0007CF7E4CFE73029F1E83059F1E430B1F7A5
:1006E00080918000806280938000D0938B00C093C3
:1006F0008A0004C084B5806884BDC7BDDF91CF91F6
:100700001F91089584B5806284BDC8BDF7CF8091E4
:100710008000806880938000D0938900C093880017
:10072000EDCF8091B00080688093B000C093B3009B
:10073000E5CF8091B00080628093B000C093B40098
:10074000DDCFCF92DF92EF92FF920F931F93CF9363
:10075000DF936C392FEF7207820792070CF44EC0BB
:10076000B62FA72FF82FE92F653671058105910562
:1007700024F0B4E6A0E0F0E0E0E097FD43C02B2FCA
:100780003A2F4F2F5E2F57FF07C050954095309559
:1007900021953F4F4F4F5F4FAFEFB0E00E942B2DA1
:1007A00024E630E040E050E00E940C2D69017A011F
:1007B0008901D42FCF2D60E0C114D104E104F104EC
:1007C00009F061E086E00E94100260E085E00E948E
:1007D0001002B60186E00E944403009322051093A4
:1007E0002305D0932405C0932505DF91CF911F9158
:1007F0000F91FF90EF90DF90CF900895BCE9AFEF9D
:10080000FFEFEFEF2B2F3A2F4F2F5E2F57FF07C031
:1008100050954095309521953F4F4F4F5F4FAFEF2B
:10082000B0E00E942B2D24E630E040E050E00E9432
:100830000C2D69017A018901D42FCF2D60E0C114FC
:10084000D104E104F10409F061E085E00E941002A6
:1008500060E086E00E941002B60185E0BCCFCF9236
:10086000DF92EF92FF9269017A010E94A103C70112
:10087000B601FF90EF90DF90CF900C94BA028E30CB
:1008800008F08E508770806480937C0080917A009D
:10089000806480937A0080917A0086FDFCCF8091FD
:1008A0007800909179000895BF92CF92DF92EF92F5
:1008B000FF920F931F93CF93DF933AE0B32EC12C97
:1008C000D12C7601CFEFD3E010E000E084E10E946C
:1008D0003F040817190708F48C018C179D0708F4CA
:1008E000EC01C80ED91EE11CF11CBA94B110EECF78
:1008F000D701C601801B910BA109B1098C1B9D0B6F
:10090000A109B10923E0B695A795979587952A95F2
:10091000D1F7883F23E09207A105B10508F0A7C0F1
:100920008F3D23E09207A105B10508F0ACC08B3CD8
:1009300023E09207A105B10508F0A8C0833A23E09F
:100940009207A105B10508F0A4C0853823E09207FD
:10095000A105B10508F0A0C08C3623E09207A105DF
:10096000B10508F09CC0813223E09207A105B105D2
:1009700008F098C08F3F22E09207A105B10508F06A
:1009800094C0813D22E09207A105B10508F090C016
:100990008F3922E09207A105B10508F08CC08D3691
:1009A00022E09207A105B10508F088C08F3422E04B
:1009B0009207A105B10508F084C0833122E09207B7
:1009C000A105B10508F080C0853F21E09207A1058F
:1009D000B10508F07CC0813E21E09207A105B10578
:1009E00008F078C0823D21E09207A105B105E0F54D
:1009F000873A21E09207A105B10508F06EC086395B
:100A000021E09207A105B10508F06AC08C3721E00A
:100A10009207A105B10508F066C08A3521E092076A
:100A2000A105B10508F062C0823321E09207A1055B
:100A3000B10508F05EC08F3021E09207A105B10535
:100A400008F05AC0803D9105A105B10508F057C0D6
:100A5000853A9105A105B10508F054C08A37910582
:100A6000A105B10508F051C08FEF90E002C090E001
:100A700080E0DF91CF911F910F91FF90EF90DF9079
:100A8000CF90BF9008958FE090E0F3CF83E190E0A6
:100A9000F0CF8CE090E0EDCF8AE090E0EACF85E007
:100AA00090E0E7CF89E090E0E4CF8BE090E0E1CF09
:100AB0008DE090E0DECF82E090E0DBCF80E190E05F
:100AC000D8CF8EE090E0D5CF88E090E0D2CF83E021
:100AD00090E0CFCF84E190E0CCCF87E190E0C9CF28
:100AE00085E190E0C6CF87E090E0C3CF86E190E05B
:100AF000C0CF82E190E0BDCF86E090E0BACF84E045
:100B000090E0B7CF89E190E0B4CF88E190E0B1CF39
:100B10003FB7F8948091380390913903A0913A033C
:100B2000B0913B0326B5A89B05C02F3F19F0019655
:100B3000A11DB11D3FBFBA2FA92F982F8827BC0137
:100B4000CD01620F711D811D911D42E0660F771F5F
:100B5000881F991F4A95D1F708958F929F92AF925F
:100B6000BF92CF92DF92EF92FF924B015C010E9405
:100B700088056B017C010E9488056C197D098E092E
:100B80009F09683E734081059105A8F321E0821A10
:100B90009108A108B10888EEC80E83E0D81EE11CB8
:100BA000F11C81149104A104B10429F7FF90EF9086
:100BB000DF90CF90BF90AF909F908F90089582303C
:100BC00039F120F461E0813031F00895833061F033
:100BD00060E08430D1F787E00E94E20160E08DE0C0
:100BE0000E94E20160E009C060E087E00E94E2014B
:100BF00060E08DE00E94E20161E08CE00E94E20191
:100C000069E170E080E090E00E94AD050C9454042E
:100C100061E087E00E94E20161E0E1CF2FB7F89444
:100C200060913403709135038091360390913703BE
:100C30002FBF0895209131033091320328173907CF
:100C400071F49091300380912F03981741F0E09157
:100C50003003F0E0E151FD4F808190E008958FEF87
:100C60009FEF08950895EF92FF920F931F93CF93F4
:100C7000DF93DC015C96ED90FC905D97E114F1044C
:100C800079F481E090E013969C938E93129790E014
:100C900080E0DF91CF911F910F91FF90EF90089529
:100CA0005196ED91FC91529750968C915097982FB8
:100CB00090950FB75E962C915E97122F127021FDC2
:100CC0006095F8942081112319F1282B2083E701E6
:100CD0002197F1F728E0462F50E0308160FF1AC0DD
:100CE000382B3083E7012197F1F7BA0175956795A5
:100CF000215089F7112381F08081892380830FBFE0
:100D00005C968D919C910197F1F781E090E0C1CFC5
:100D10002923DCCF3923E5CF9081892BEFCF209198
:100D20003103309132032817390771F480912F0372
:100D30002091300390E0805C9F4F821B910960E41A
:100D400070E00E940331089590E080E008952091C2
:100D500031033091320328173907B9F490913003E9
:100D600080912F03981789F0E0913003F0E0E15172
:100D7000FD4F80812091300330E02F5F3F4F2F7374
:100D800033272093300390E008958FEF9FEF08956D
:100D9000E0913103F0913203E817F90769F4A38970
:100DA000B4899C918589809589238C931092320314
:100DB0001092310381E0089580E00895DC011396DC
:100DC0006C93139770E0FB01E452FF4FE491169689
:100DD000EC931697FB01E853FF4FE491F0E0EE0F20
:100DE000FF1FE254FF4F8591949118969C938E9328
:100DF00017970895FC01A381B4819781408551859F
:100E00009A01220F331F240F351F728583856FB718
:100E1000F8944C91592F50955423492BE72FF82FD4
:100E2000CF01820F931FE817F90781F0219138E075
:100E30004C9300C027FF5C93220F00C000C000C08D
:100E400008F45C9300C03A9599F7EDCF6FBF7894A2
:100E500061E070E080E090E00C94AD050F93FC0140
:100E60008085918568171906C0F4962F990F690F30
:100E700070E0A285B385A60FB71F2C93A285B3851A
:100E8000A60FB71F11964C9382859385680F791F23
:100E9000FB01028381E00F91089580E0FCCFCF92A7
:100EA000DF92EF92FF920F931F93CF93DF937C011A
:100EB000162FD42EC22ED0E0C0E0F7018085918598
:100EC000C817D90748F40C2D2D2D412F6C2FC701C1
:100ED0000E942E072196F1CF81E0DF91CF911F91E3
:100EE0000F91FF90EF90DF90CF900895DC01E62FF7
:100EF000F0E0EE0FFF1FE25DFE4F80818C93818159
:100F000011968C93119712966C9308950F931F93DB
:100F1000CF938C01C62F0E947607EC2FF0E0EE0FE6
:100F2000FF1FE25DFE4F8181F8018383CF911F9106
:100F30000F9108950F931F93CF938C01C62F0E949A
:100F40007607EC2FF0E0EE0FFF1FE25DFE4F818190
:100F5000D80113968C931397808114968C931497D1
:100F600015961C92CF911F910F9108950F931F9387
:100F7000CF938C01C62F0E949A07EC2FF0E0EE0F62
:100F8000FF1FE25DFE4F8081F80186831582CF91BD
:100F90001F910F9108950F931F93CF938C01C62F2C
:100FA0000E947607EC2FF0E0EE0FFF1FE25DFE4F90
:100FB0008081D80113968C931397918114969C93FA
:100FC00061E00E94100261E0F8018481CF911F91DD
:100FD0000F910C9410021F93CF93DF93EC01162F07
:100FE0000E947607E12FF0E0EE0FFF1FE25DFE4F5B
:100FF00081818B8380818C838B8160E00E941002D1
:101000008C8161E00E9410028C8160E0DF91CF91C1
:101010001F910C94E201FC0190810180F281E02D8E
:10102000F8948181292F20958223818378943DE74C
:1010300043E050E0315029F1DA011197F1F7808156
:101040008923C1F3F8948281822382838181892B51
:1010500081837894ABE7B7E01197F1F7F894818139
:1010600082238183A3E1B1E01197F1F78081982376
:1010700081E009F080E07894E3E6F6E03197F1F75B
:10108000089580E008950F931F93CF93DF93EC01B1
:10109000162F4F960E947607E12FF0E0EE0FFF1F0C
:1010A000E25DFE4F118100811B821A8288EE93E07F
:1010B000A0E0B0E08C839D83AE83BF8380E291E0AB
:1010C000998388831F8A1E8A198E188E1B8E1A8E0A
:1010D0001D8E1C8E6E8D6E7F6D7F6E8F669561701E
:1010E00081E06827812F0E94E20161E0812F0E9448
:1010F0001002812F90E0FC01E452FF4FE491E88B55
:10110000FC01E853FF4FE491F0E0EE0FFF1FEC54B9
:10111000FF4F859194919A8B898B60E0802F0E947C
:1011200010028E8D81FD04C061E0802F0E94E201DB
:101130000C87802F90E0FC01E452FF4FE491ED8793
:10114000FC01E853FF4FE491F0E0EE0FFF1FE25483
:10115000FF4F859194919F878E8780E291E09983DC
:10116000888383E08AA31B8E1A8E198E188E1F8A9D
:101170001E8A85E690E09D8F8C8F0631E0F581E236
:1011800090E09F8B8E8B83E690E0998F888F82E42E
:1011900090E09B8F8A8F9091680084E0083048F03F
:1011A00021E00E3008F420E081E001C0880F2A958C
:1011B000EAF7892B809368009C852DE630E0983013
:1011C00050F02BE630E09E3030F02CE630E09631E7
:1011D00010F030E020E03C8B2B8B292F30E0983052
:1011E00078F581E001C0880F9A95EAF78D8B8C8D98
:1011F0009D8D0197F1F78A8D9B8D892BE1F0809170
:10120000310390913203C817D907A9F0009711F064
:101210000E94C8068E8D8E7F8E8F10922F031092A3
:101220003003D0933203C0933103EB89FC89808172
:101230009D89892B8083DF91CF911F910F91089514
:101240009E3040F42850310981E001C0880F2A9572
:10125000EAF7CCCF2E503109F7CFCF93DF93EC01D3
:1012600060E08B810E9410028B81DF91CF910C9402
:101270003F04AF92BF92CF92DF92EF92FF920F9313
:101280001F93CF93DF935C010AE010E0C12CD12CB7
:101290007601D0E0C0E0C5010E942D09C817D9072A
:1012A00008F4EC01C80ED91EE11CF11C0150110913
:1012B00091F7D701C6018C1B9D0BA109B10923E051
:1012C000B695A795979587952A95D1F7DF91CF91F8
:1012D0001F910F91FF90EF90DF90CF90BF90AF9054
:1012E00008950F931F93CF93DF93EC018B810E949E
:1012F000B9018C018C810E94B901AC0121E030E080
:10130000012B11F430E020E0220F331F81E0452B48
:1013100009F480E0822BDF91CF911F910F91089506
:101320001F93CF93DF93EC01162F0E947607E12FD6
:10133000F0E0EE0FFF1FE25DFE4F80818B83818125
:101340008C838B8160E00E9410028C8160E0DF91D1
:10135000CF911F910C9410028F929F92AF92BF92E7
:10136000CF92DF92EF92FF920F931F93CF93DF9371
:101370007C010AE010E0812C912C5401D0E0C0E007
:10138000C12C34E0D32E60E0F70183810E9410026B
:10139000F70183810E943F049601281B390BC90184
:1013A000C217D30708F4E901880E991EA11CB11CCD
:1013B0000150110941F7D501C4018C1B9D0BA109F6
:1013C000B10923E0B695A795979587952A95D1F70A
:1013D000DF91CF911F910F91FF90EF90DF90CF9011
:1013E000BF90AF909F908F90089590E080E0089517
:1013F000CF93DF93EC0161E08B810E9410028D811D
:101400008130C1F487E592E00197F1F700C0000058
:1014100060E08C810E94E20160E08B810E94E20129
:1014200061E08C810E94E20161E08B81DF91CF91CC
:101430000C94E20160E08C810E94E2019AE19A95AD
:10144000F1F700C060E08B810E94E2018AE18A9599
:10145000F1F700C061E08C810E94E2019AE19A9567
:10146000F1F700C061E08B810E94E2018AE18A9578
:10147000F1F700C0DF91CF9108951F93CF93DF93D1
:10148000EC01162F61E08B810E9410028D8181306A
:10149000D9F487E592E00197F1F700C0000060E021
:1014A000111161E08B810E94E20161E08C810E9458
:1014B000E20160E08C810E94E20161E08B81DF91BA
:1014C000CF911F910C94E2018B8160E0111161E0DA
:1014D0000E94E20161E08C810E94E2019AE19A950A
:1014E000F1F700C060E08C810E94E2018AE18A95F8
:1014F000F1F700C0E2CF1F93CF93DF93EC0160E0E0
:101500008B810E9410028D818130F1F487E592E099
:101510000197F1F700C0000061E08B810E94E201B9
:1015200061E08C810E94E2018B810E94B90111E08F
:10153000892B09F410E060E08C810E94E201812F88
:10154000DF91CF911F91089561E08B810E94E201AC
:101550009AE19A95F1F700C061E08C810E94E20166
:101560008AE18A95F1F700C08B810E94B90111E0F0
:10157000892B09F410E060E08C810E94E2019AE17D
:101580009A95F1F700C0DBCF0F931F93CF93DF93B2
:101590008C0160E0FC0183810E941002F8018581CA
:1015A000D8E0813009F587E592E00197F1F700C0B6
:1015B0000000D8E061E0F80184810E94E201CC0FD4
:1015C000F80183810E94B901892B09F0C16060E0B4
:1015D000F80184810E94E201D15061F78C2FDF91E4
:1015E000CF911F910F91089561E0F80184810E94CD
:1015F000E201CC0FF80183810E94B901892B09F027
:10160000C160FAE1FA95F1F700C060E0F801848169
:101610000E94E201FAE1FA95F1F700C0D15021F7FA
:10162000DDCF0F931F93CF93DF93EC01162F61E073
:101630008C810E94100261E08B810E9410028D81DA
:10164000813019F108E08B8161E017FF60E00E94B2
:10165000E2018AE18A95F1F700C0110F61E08C8107
:101660000E94E2019AE19A95F1F700C060E08C8156
:101670000E94E2018AE18A95F1F700C0015019F752
:10168000DF91CF911F910F91089587E592E0019727
:10169000F1F700C0000008E08B8161E017FF60E017
:1016A0000E94E201110F61E08C810E94E20160E082
:1016B0008C810E94E201015079F7E2CFCF93DF9352
:1016C000EC018FE193E00197F1F700C00000CE013B
:1016D0000E94110B87EC90E00197F1F700C0000029
:1016E000CE01DF91CF910C947B0ACF93DF93EC0175
:1016F00061E08C810E94100261E08B810E941002E7
:101700008D818130C1F487E592E00197F1F700C047
:10171000000061E08B810E94E20161E08C810E9407
:10172000E20160E08B810E94E20160E08C81DF9148
:10173000CF910C94E20161E08B810E94E2019AE179
:101740009A95F1F700C061E08C810E94E2018AE184
:101750008A95F1F700C060E08B810E94E2019AE176
:101760009A95F1F700C060E08C810E94E2018AE165
:101770008A95F1F700C0DF91CF9108950F931F93E1
:10178000CF93DF93EC01162F0E94750B62E5CE011B
:101790000E94110BCE010E947B0A612F6068CE016E
:1017A0000E94110BCE010E947B0ACE010E94750B94
:1017B00063E5CE010E94110BCE010E947B0ACE018F
:1017C0000E94C40A182F60E0CE010E943D0ACE019B
:1017D0000E94C40A082F61E0CE010E943D0ACE019A
:1017E0000E94F809902F812FDF91CF911F910F91C7
:1017F00008950F931F93CF93DF93EC01162F042FBF
:101800000E94750B62E5CE010E94110BCE010E9471
:101810007B0A612F6068CE010E94110BCE010E94ED
:101820007B0A602FCE010E94110BCE010E947B0A21
:10183000CE010E94F809802FDF91CF911F910F9167
:1018400008951F93CF93DF93EC01162F0E94750B21
:10185000612F660FCE010E94110B80EA8A95F1F785
:10186000CE01DF91CF911F910C947B0A4F925F9232
:101870006F927F929F92AF92BF92CF92DF92EF9240
:10188000FF920F931F93CF93DF93CDB7DEB72897C7
:101890000FB6F894DEBF0FBECDBF7C01CE0101961E
:1018A0006C015E0199E0A90EB11C992493940E94E9
:1018B0000E06F701408451846284738464197509AB
:1018C00086099709613171058105910508F09782B4
:1018D000F7018781882309F4B5C00E940E06F7013D
:1018E0006087718782879387178260E4C7010E94AF
:1018F000210C62EAC7010E945E0B62EAC7010E94E6
:101900005E0B62EAC7010E945E0B61E0C7010E94A4
:101910005E0BC7010E94F809F701868160E00E9412
:101920001002F701868190E0FC01E452FF4F6491C0
:10193000FC01E853FF4FE491F0E0EE0FFF1FE2548B
:10194000FF4F8591949100E712E620E030E040E0FF
:101950000E947425412C512C3201611571058105BD
:101960009105B1F02B013C01FFEF4F1A5F0A6F0A9E
:101970007F0A2FE072228CE2481681E0580661044B
:10198000710430F09CE2491A91E0590A610871082B
:10199000C301B2010E94FD2EF70164877587868717
:1019A0009787141415041604170434F084EA482E9B
:1019B00088E3582E612C712CC301B2010E94FD2EC8
:1019C00020E030E048E652E40E94532EF601619395
:1019D0007193819391936F0162E170E080E090E0F8
:1019E0000E94AD05AC14BD0409F061CFC980DA8056
:1019F000EB80FC807D809E80AF80B884272D392DC0
:101A0000A501B601C7010E942C3087FF03C0C72C77
:101A1000D92C7501B601C70128960FB6F894DEBF20
:101A20000FBECDBFDF91CF911F910F91FF90EF902F
:101A3000DF90CF90BF90AF909F907F906F905F901E
:101A40004F90089564857585868597850E94C52E7B
:101A50002B013C01A6CFFF920F931F93CF93DF93EF
:101A6000EC01F62E042F122F60E50E94210C63EA90
:101A7000CE010E945E0B6F2DCE010E945E0B602F87
:101A8000CE010E945E0B612FCE010E945E0BCE0143
:101A9000DF91CF911F910F91FF900C94F809CF9295
:101AA000DF92FF920F931F93CF93DF9300D000D06C
:101AB000CDB7DEB78C0161E70E94210C60EBC80155
:101AC0000E945E0BC8010E94F8096AE070E080E0A5
:101AD00090E00E94AD05C8010E94750B63EEC8013D
:101AE0000E94110BC8010E947B0A34E0F32ECE0144
:101AF00001966C01FA94C801FF2051F00E94C40ABB
:101B0000F60181936F0160E0C8010E943D0AF2CFA7
:101B10000E94C40AF82E8C8361E0C8010E943D0A2D
:101B2000C8010E94F80989818A3AD9F4FBEBFF12B7
:101B300018C08A8190E0982F88272B81820F911DF1
:101B4000F80197838683868197810F900F900F907D
:101B50000F90DF91CF911F910F91FF90DF90CF9069
:101B6000089581E090E0ECCFCF93DF93EC010E94E9
:101B70009A0781E08D83CE010E94750B67EECE013E
:101B80000E945E0B60E8CE010E945E0B64EACE010B
:101B90000E945E0B6AE9CE010E945E0B61E8CE01F5
:101BA0000E945E0B63E8CE010E945E0BCE01DF91C6
:101BB000CF910C94F8090F931F93CF93DF93EC010F
:101BC000062F142F0E94750BFE01EE5BFF4F608104
:101BD000660FCE010E94110BCE010E947B0A602F7E
:101BE000CE010E94110BCE010E947B0A612FCE0113
:101BF0000E94110BCE010E947B0ACE01DF91CF9192
:101C00001F910F910C94F8090F931F93CF93DF93BB
:101C10008C01D62FC42F0E94750B63E36D0F660FE6
:101C2000C8010E94110BC8010E947B0AC7FF11C0A6
:101C3000CF77EC2FF0E0E55FFE4F60816068C80170
:101C40000E94110BC801DF91CF911F910F910C944D
:101C5000F809EC2FF0E0E55FFE4F6081F0CFCF9305
:101C6000DF93EC010E94750B68E4CE010E94110B1A
:101C7000CE010E947B0A61E3CE010E94110BCE01CE
:101C8000DF91CF910C94F8090F931F93CF93DF93BB
:101C9000EC010E94750B62E5CE010E94110BCE0192
:101CA0000E947B0A62E9CE010E94110BCE010E94C4
:101CB0007B0ACE010E94750B63E5CE010E94110BD9
:101CC000CE010E947B0ACE010E94C40A182F61E057
:101CD000CE010E943D0ACE010E94F809143419F089
:101CE00080E0103159F581E08E8319850A85412FF6
:101CF00061E0CE010E94F90B19870A871F810885D0
:101D00008E81811103C0CE010E94440E412F6FE0ED
:101D1000CE010E94F90B1F83088741E060E0CE01ED
:101D20000E94F90B63E070E080E090E00E94AD0556
:101D300043E060E0CE010E94F90B81E0DF91CF919A
:101D40001F910F910895AF92BF92CF92DF92EF92C1
:101D5000FF920F931F93CF93DF93EC015B016A0116
:101D600079018E81811103C0CE010E94440E64E18D
:101D7000CE010E94BE0BF8019183808366E1CE0103
:101D80000E94BE0BF5019183808368E1CE010E9421
:101D9000BE0BF601918380836AE1CE010E94BE0BE7
:101DA000F7019183808389859A85853D9105A1F10D
:101DB00080F40097D9F1803C910599F1DF91CF91A2
:101DC0001F910F91FF90EF90DF90CF90BF90AF9059
:101DD0000895863F9105D9F08F3F910541F08B3EE4
:101DE000910561F762E370E080E090E004C063E099
:101DF00070E080E090E0DF91CF911F910F91FF9014
:101E0000EF90DF90CF90BF90AF900C94AD0568E15C
:101E100070E080E090E0EFCF65E670E080E090E079
:101E2000EACF6AE970E080E090E0E5CF6CEB72E029
:101E300080E090E0E0CFCF92DF92EF92FF920F939D
:101E40001F93CF93DF93EC01162F7A01022F0E948C
:101E5000750B6E0182E4C80ED11CF6016081660F1D
:101E6000CE010E94110BCE010E947B0A612FCE0190
:101E70000E94110BCE010E947B0ACE010E94F8093C
:101E8000F0E5FA95F1F7CE010E94750BF60160813D
:101E9000660F6160CE010E94110BCE010E947B0A89
:101EA0000150102F6701115058F0CE010E94C40A52
:101EB000F60181936F0160E0CE010E943D0AF3CFED
:101EC0000E0D1F2D111DCE010E94C40AF801808342
:101ED00061E0CE010E943D0ACE01DF91CF911F91BA
:101EE0000F91FF90EF90DF90CF900C94F8094F92F4
:101EF0005F926F927F928F929F92AF92BF92CF929A
:101F0000DF92EF92FF920F931F93CF93DF9300D056
:101F100000D000D0CDB7DEB79E838D8380E090E007
:101F2000A3E8B2E4ED81FE8186839783A087B18721
:101F3000128613861486158616861786108A118ACD
:101F4000128A138A148A158A168A178A108E118E9D
:101F5000128E138E148E158E168E178E10A211A24D
:101F600013A212A215A214A217A216A210A611A6BD
:101F700012A613A614A615A616A617A610AA11AA8D
:101F800012AA13AA64E670E080E090E00E94AD051A
:101F900040E06BE68D819E810E94DB0D6EE170E07A
:101FA00080E090E00E94AD0541E06AE18D819E8174
:101FB0000E94DB0D48E06BE18D819E810E94DB0D6C
:101FC00062E370E080E090E00E94AD0504EF11E074
:101FD00019821A821B821C82812C912C5401412C63
:101FE000512C3201ED80FE80F4E3EF0EF11C26E06F
:101FF000A70163E48D819E810E941B0FED81FE810C
:1020000084A995A9982789279827092E000CAA0B3F
:10201000BB0B480E591E6A1E7B1E86A997A99827DE
:1020200089279827092E000CAA0BBB0B880E991E36
:10203000AA1EBB1E80AD91AD982789279827092E2F
:10204000000CAA0BBB0B29813A814B815C81280FC4
:10205000391F4A1F5B1F29833A834B835C83A895F2
:102060000150110921F684EFC82EDD24D394E12C10
:10207000F12CC301B201A70196010E940C2DCA01E7
:10208000B9010E94FD2EED81FE8160A771A782A794
:1020900093A7C501B401A70196010E940C2DCA01A6
:1020A000B9010E94FD2EED81FE8164A775A786A768
:1020B00097A769817A818B819C81A70196010E94F3
:1020C0000C2DCA01B9010E94FD2EED81FE8160AB8D
:1020D00071AB82AB93AB26960FB6F894DEBF0FBE02
:1020E000CDBFDF91CF911F910F91FF90EF90DF90C7
:1020F000CF90BF90AF909F908F907F906F905F90A8
:102100004F900895CF93DF93EC01862F90E099874D
:10211000888723E0629FC00111240E9431319B8790
:102120008A87892B21F488E391E00E94563290E05F
:1021300080E0488559859A01220F331F240F351FEF
:102140008217930738F4EA85FB85E80FF91F1082A0
:102150000196EFCFDF91CF9108951F93CF93DF9337
:10216000EC01162F0E947607E12FF0E0EE0FFF1F23
:10217000E25DFE4F8181282F30E0F901E452FF4FEC
:10218000E491EF83F901E853FF4FE491F0E0EE0FA3
:10219000FF1FEC54FF4F259134913C832B8361E06A
:1021A0000E94100264E0CE01DF91CF911F910C9448
:1021B00082108F929F92AF92BF92CF92DF92EF9256
:1021C000FF920F931F93CF93DF93CDB7DEB7649742
:1021D0000FB6F894DEBF0FBECDBFE82EF12C28EC71
:1021E000829FF0011124E45CFC4FE481E150EF3167
:1021F00008F0CEC50E2E000CFF0BEF5FFE4E0C94C8
:10220000173120115D11C8169A11C011C816C816D1
:10221000C816C816C816C816C816C816C816C816CE
:10222000001248128C12201341130213EC12C8162C
:10223000091418147514C816F114C8165016DA15B6
:1022400082E58093270582E48093280588E08093C7
:10225000290598EC9E9DF0019F9DF00D1124E45CF2
:10226000FC4F938190932A0592E090932B0591E087
:1022700090932C0580932D05E7E2F5E02EE235E002
:1022800080E09191890F2E173F07D9F780932E0593
:1022900088E064960FB6F894DEBF0FBECDBFDF9125
:1022A000CF911F910F91FF90EF90DF90CF90BF9053
:1022B000AF909F908F900C94AB0082E580932705A0
:1022C00082E4809328051092290588EC8E9DF00108
:1022D0008F9DF00D1124E45CFC4F838180932A05CF
:1022E0008581823019F124F4813041F0E4E00CC0A2
:1022F0008330F1F08430D1F784E001C081E00E94A6
:10230000DF0580932B05E5E081E08E0F80932905A2
:10231000A7E2B5E020E090E03D91930F2F5FE2133C
:10232000FBCFF0E0E95DFA4F9083B3CF82E0E7CFD7
:1023300083E0E5CF82E58093270582E4809328053A
:1023400088EC8E9DF0018F9DF00D1124E45CFC4F14
:10235000838180932A0581E080932B0580932C054F
:1023600087E080932905E7E2F5E080E09191890F0D
:1023700035E0ED32F307D1F780932D0587E089CF63
:1023800082E58093270582E4809328051092290531
:1023900088EC8E9DF0018F9DF00D1124E45CFC4FC4
:1023A000838180932A0581E00E94DF0580932B05BD
:1023B00082E00E94DF0580932C0583E00E94DF0508
:1023C00080932D0584E00E94DF0580932E051092F6
:1023D0002F051092300510923105109232058DE0D4
:1023E00080932905E7E2F5E023E335E080E0919171
:1023F000890F2E173F07D9F7809333058DE049CF1A
:1024000088EC8E9DF0018F9DF00D1124E45CFC4F53
:1024100085818C3FA1F1882339F08B3F81F40085C1
:102420002781468161E02FC02085478166818DE04C
:1024300095E00E944F078DE095E00E94FA0682E544
:102440008093270582E48093280588EC8E9DF00117
:102450008F9DF00D1124E45CFC4F838180932A054D
:1024600091E090932B0596E0909329059BE9980FB6
:1024700090932C05882309F48BC486E00ACF00854D
:102480002781468160E08DE095E00E942E07D3CF42
:1024900088EC8E9D80018F9D100D1124045C1C4FD3
:1024A000D80115968C9115978F3F61F1882361F0C3
:1024B0008E3F29F616966C91062E000C770B880B32
:1024C000990B0E94BA02BBCFF8012781022E000CA3
:1024D000330B440B550B6681062E000C770B880BD3
:1024E000990B0E942F04D80116968C911697811192
:1024F000A6CF17968C918111A2CF10921905109238
:102500001C059DCFF8016681062E000C770B880B09
:10251000990B0E94A10393CF88EC8E9D80018F9D23
:10252000100D1124045C1C4FF80185810E94DF0509
:10253000029709F084CF8091090590910A050097D0
:10254000B1F580E190E00E9431316C01D80115961F
:102550006C91C6010E94B607D0920A05C092090587
:1025600088EC8E9DF0018F9DF00D1124E45CFC4FF2
:10257000D084C780B6800091090510910A0560E4F7
:10258000C8010E94210C61EAC8010E945E0B6B2DFC
:10259000C8010E945E0B6C2DC8010E945E0B6D2D60
:1025A000C8010E945E0BC8010E94F80948CFFC01D7
:1025B0004281D80115962C91022E000C330B421744
:1025C000130671F20E94CD3180E190E00E9431311A
:1025D0006C01F8016581BDCF88EC8E9DF0018F9D67
:1025E000F00D1124E45CFC4F8581893F09F027CF71
:1025F0008681882321F081E08093CD0420CF109242
:10260000CD041DCF88EC8E9DF0018F9DF00D11241F
:10261000E45CFC4F8681882369F0813071F0109270
:10262000D1041092D2041092D3041092D4041092C8
:10263000D00405CF10921D05F2CF80931D05EFCF7A
:1026400088EC8E9DF0018F9DF00D1124E45CFC4F11
:1026500085818A3F09F0F3CE40858185542F482F2C
:1026600070E060E0968187810E944C0261E0809179
:1026700026050E94100260E0809126050E94E2017A
:10268000DECE88EC8E9D80018F9D100D1124045CA0
:102690001C4FD80115968C910E94DF05039709F015
:1026A000CECE8091F9049091FA04009709F09AC077
:1026B00086E090E00E9431316C01F8016581C6012D
:1026C0000E94B40DD092FA04C092F904C090F904AB
:1026D000D090FA0488EC8E9DF0018F9DF00D1124AE
:1026E000EE5BFC4F43E120818181322F282FC9010D
:1026F0009695879585759575220F331F2A7A3A7AB4
:10270000822B932B9C01369527953695279523731D
:102710003373880F991F880F991F8C7C9C7C282B02
:10272000392BC90154E0969587955A95E1F78F703A
:102730009F7064E0220F331F6A95E1F7207F307F9E
:10274000822B932B982789279827880F991F880F0A
:10275000991F5FEF540F21E030E02C0F3D1F240F35
:10276000311DD9018C934250A1E0B0E0AC0FBD1FE8
:10277000A50FB11D9C9332964F3F09F0B4CFC6010F
:102780000E94750B67EEC6010E945E0B60E0C601F9
:102790000E945E0B8E010F5F1F4F5E01B5E1AB0E15
:1027A000B11CF80121918F0130E0C9019595879501
:1027B000959587958373220F331F220F331F2C7C2F
:1027C000822B90E0BC01759567956575880F991F00
:1027D0008A7A682BC6010E945E0BA016B10609F723
:1027E000C601E2CEDC0112964C91F8012581022E41
:1027F000000C330B4217130609F468CF0E94CD3149
:1028000086E090E00E9431316C01D80115966C9100
:1028100056CF88EC8E9DF0018F9DF00D1124E45C65
:10282000FC4F858180931905868180931C0507CE16
:1028300088EC8E9D80018F9D100D1124045C1C4F2F
:10284000D80115968C910E94DF05059709F0F7CD08
:102850008091EF049091F004009759F585E090E0A5
:102860000E9431316C01F8016581C6010E94CB07DD
:10287000D092F004C092EF0483EA8093B00087E026
:102880008093B10088EC8E9DF0018F9DF00D112496
:10289000E45CFC4F8681813011F1823021F181119D
:1028A000CECD108587810E944301812F0E94230194
:1028B000C6CDDC0112964C91F8012581022E000C48
:1028C000330B42171306F1F20E94CD3185E090E000
:1028D0000E9431316C01D80115966C91C6CF878169
:1028E0000E944301ACCD8781E1CF88EC8E9D8001B1
:1028F0008F9D100D1124045C1C4FF80185810E94EE
:10290000DF05099709F09BCD8091F1049091F204C5
:10291000009709F046C086E090E00E9431316C01DA
:10292000D80115966C910E949A07F6011582D092F3
:10293000F204C092F10488EC8E9DF0018F9DF00DA1
:102940001124E45CFC4F86818130D1F18230D1F0DA
:10295000811175CD27818091F1049091F20440E0BE
:1029600027FF05C0332721950CF4309541E061E045
:102970000E942B0D88EC8E9DF0018F9DF00D11248F
:10298000E45CFC4F20858091F1049091F20440E0DA
:1029900027FF05C0332721950CF4309541E062E014
:1029A0001DC0DC0112964C91F8012581022E000C0D
:1029B000330B4217130609F4BECF0E94CD31ABCFC3
:1029C00027818091F1049091F20440E027FF05C037
:1029D000332721950CF4309541E061E00E942B0DE6
:1029E0002ECD88EC8E9D80018F9D100D1124045CEE
:1029F0001C4FD80115968C910E94DF050B9709F0AA
:102A00001ECDC090EB04D090EC04C114D10409F0A9
:102A1000B1C083E290E00E9431316C01F801658120
:102A2000C6010E944308D092EC04C092EB040091CE
:102A3000EB041091EC0488EC8E9DF0018F9DF00D5D
:102A40001124E45CFC4FD680F80122A18D2D0D2CC1
:102A5000000C990B2817190649F1D2A28AEA809333
:102A6000BE0282E08093BF0281E08093C002D092D8
:102A7000C10286E58D258093C2022EEBA22E22E0B4
:102A8000B22E33EC832E32E0932ED5016D915D0191
:102A9000C8010E9433068A149B04B9F7F801D2A238
:102AA00062E370E080E090E00E94AD0588EC8E9DCE
:102AB000F0018F9DF00D1124E45CFC4F808597811F
:102AC0002AEA2093BE029093BF0221E02093C00225
:102AD0008093C102892794E589278093C2028EEBF7
:102AE000C82E82E0D82E93ECA92E92E0B92ED60102
:102AF0006D916D01C8010E943306AC14BD04B9F795
:102B000062E370E080E090E00E94AD05C8010E94A1
:102B1000C8060115110559F080E291E0F801918392
:102B20008083C8010E94C806C8010E94CD3110925E
:102B3000EC041092EB0488EC8E9D80018F9D100DAB
:102B40001124045C1C4FD8011596EC91EE0FFF0B7D
:102B5000E25DFE4F60E080810E941002D801159670
:102B6000EC91EE0FFF0BE25DFE4F60E081810E9471
:102B7000100265CCD60191962C919197F801858130
:102B8000082E000C990B2817190609F450CF80E283
:102B900091E08D939C93C6010E94C806C6010E94D5
:102BA000CD3183E290E00E9431316C01D80115965D
:102BB0006C9136CF88EC8E9D80018F9D100D112475
:102BC000045C1C4FF80185810E94DF05439709F0E2
:102BD00036CCC090E304D090E404D8011596BC90A4
:102BE000C114D104B1F58CE090E00E9431318C0128
:102BF0006B2D0E94AD101093E4040093E304C09089
:102C0000E304D090E40488EC8E9DF0018F9DF00DDC
:102C10001124E45CFC4F2185408567818681811108
:102C200036C0C6010E944F07C60164960FB6F894DD
:102C3000DEBF0FBECDBFDF91CF911F910F91FF90EF
:102C4000EF90DF90CF90BF90AF909F908F900C94BB
:102C5000FA06F60182816B2DBB0C770B86171706DF
:102C600071F2828593850E94CD31C6010E94CD31DB
:102C70008CE090E00E9431316C01D80115966C9186
:102C80000E94AD10D092E404C092E304B8CF81500A
:102C9000022F242F462F682FC6010E942E07C4CF73
:102CA00088EC8E9D80018F9D100D1124045C1C4FBB
:102CB000F80185810E94DF05429709F0C0CB809121
:102CC000E1049091E204009709F053C086E090E09F
:102CD0000E9431316C01D80115966C910E949A07BF
:102CE000F6011582D092E204C092E104C6010E946E
:102CF0002F0E88EC8E9D80018F9D100D1124045C99
:102D00001C4FD80116964C9161E08091E10490919E
:102D1000E2040E94040EF801478162E08091E10420
:102D20009091E2040E94040ED80118964C9163E041
:102D30008091E1049091E2040E94040EF801418523
:102D400064E08091E1049091E20464960FB6F894F7
:102D5000DEBF0FBECDBFDF91CF911F910F91FF90CE
:102D6000EF90DF90CF90BF90AF909F908F900C949A
:102D7000040EDC0112964C91F8012581022E000C04
:102D8000330B4217130609F4B4CF0E94CD319ECF06
:102D900064960FB6F894DEBF0FBECDBFDF91CF9122
:102DA0001F910F91FF90EF90DF90CF90BF90AF9069
:102DB0009F908F9008952F923F924F925F926F92C3
:102DC0007F928F929F92AF92BF92CF92DF92EF92BB
:102DD000FF920F931F93CF93DF93CDB7DEB76A9720
:102DE0000FB6F894DEBF0FBECDBF282E312C28ECD5
:102DF000829FF0011124E45CFC4FE481E15AE2314E
:102E000008F0BAC2F0E0E95FF84E0C9417311917D8
:102E10009717CC170D186E18E6194E1AB51A3A1CEA
:102E20001C1B391FB51FBC190D212122AC221623F2
:102E30007F2388EC829D8001839D100D1124045C0A
:102E40001C4FD80115968C910E94DF05029709F05E
:102E500093C28091090590910A05009709F050C02E
:102E600080E190E00E9431317C01F8016581C70169
:102E70000E94B607F0920A05E092090580910905C3
:102E800090910A050E94360C20E030E040E251E4C7
:102E90000E9439300E94C52E9B0142E540932705D0
:102EA00042E44093280548EC429DF001439DF00D1B
:102EB0001124E45CFC4F438140932A0541E0409398
:102EC0002B05AB0177FF02C041505F4F50932C059B
:102ED000C90160E071E00E94033180932D0588E014
:102EE00080932905E7E2F5E02EE235E080E091915C
:102EF000890F2E173F07D9F780932E0588E03AC235
:102F0000DC0112964C91F8012581022E000C330B46
:102F10004217130609F4B2CF0E94CD3180E190E050
:102F20000E9431317C01D80115966C91A0CF88ECBC
:102F3000829DF001839DF00D1124E45CFC4F85819E
:102F4000893F09F019C282E58093270582E48093C6
:102F5000280510922905838180932A0511E010939A
:102F60002B0588E00E94B901019799F410922C0575
:102F700087E080932905E7E2F5E02DE235E080E087
:102F80009191890F2E173F07D9F780932D0587E080
:102F9000F1C110932C05ECCF88EC829D8001839DBC
:102FA000100D1124045C1C4FF80185818D3F09F040
:102FB000E3C185E10E943F0422E3AC01249FC001EC
:102FC000259F900D112422E52093270522E42093CC
:102FD0002805D80113962C9120932A0521E02093EF
:102FE0002B056FEF73E00E940331CB0160E071E0CD
:102FF0000E940331982F990F890F80932C0587E049
:1030000080932905E7E2F5E02DE235E080E091913B
:10301000890F2E173F07D9F7B8CF80911A059091E5
:103020001B0528EC229D8001239D100D1124045CBA
:103030001C4FF801F5800097C1F585E090E00E94F3
:1030400031318C016F2D0E94900910931B05009364
:103050001A0582E58093270582E480932805109263
:10306000290588EC829DF001839DF00D1124E45C1C
:10307000FC4F838180932A0581E080932B0580910A
:103080001A0590911B050E94710980932C0587E019
:1030900080932905E7E2F5E02DE235E080E09191AB
:1030A000890F2E173F07D9F770CFDC0112962C91AC
:1030B0006F2DFF0C770B2617170659F20E94CD31A2
:1030C00085E090E00E9431317C01F80165810E9429
:1030D0009009F0921B05E0921A05BBCF88EC829D07
:1030E0008001839D100D1124045C1C4FD80115969E
:1030F0008C910E94DF05069709F03EC18091F7048C
:103100009091F804009709F050C186E090E00E9489
:1031100031317C01F8011581612F0E947607E12F82
:10312000F0E0EE0FFF1FE25DFE4F8181D7011596A3
:103130008C93F092F804E092F7040091F704109158
:10314000F804FE0131962F0185E0DF011D928A957A
:10315000E9F761E0F80185810E94100261E0D80181
:1031600015968C910E94E2016AEF70E080E090E099
:103170000E94AD0560E0F80185810E94E20164E1F2
:1031800070E080E090E00E94AD0561E0D801159606
:103190008C910E94E2018BE990E00197F1F760E0E9
:1031A000F80185810E94E20183E290E00197F1F746
:1031B0000E940E066B017C0162E0D80115968C918D
:1031C0000E941002F80185810E94B901019789F0DF
:1031D0000E940E066C197D098E099F0965307105E4
:1031E0008105910578F3D80113961C9213971496D4
:1031F0001C920E940E066B017C0162E0F801858141
:103200000E941002D80115968C910E94B901892B59
:1032100059F00E940E066C197D098E099F096530D0
:1032200071058105910570F3712C612C0E940E06C9
:103230006B017C0162E0F80185810E941002D801D7
:1032400015968C910E94B901892B59F40E940E06A3
:103250006C197D098E099F096530710581059105FD
:1032600070F30E9488056B017C010E940E064B01E1
:103270005C0162E0F80185810E941002D801159678
:103280008C910E94B901019759F40E940E066819A9
:1032900079098A099B09653071058105910570F3EB
:1032A0000E948805F30123E0F595E7952A95E1F75B
:1032B000E40DF51D2081220FAB01BC014C195D0905
:1032C0006E097F09493251056105710508F47CC01A
:1032D000822F81608083BFEF6B1A7B0AE8E26E1653
:1032E000710409F0A3CF59814B816D818A81850FCB
:1032F0009927991F9C01240F311D8C81820F932FD8
:10330000911D99276817190631F4D80113965C931B
:10331000139714964C9382E58093270582E480935B
:10332000280588EC829DF001839DF00D1124E45C5A
:10333000FC4F838180932A0581E080932B05F8015F
:10334000838180932C0510922D05848180932E0516
:1033500010922F058AE080932905E7E2F5E020E34B
:1033600035E080E09191890F2E173F07D9F78093C0
:1033700030058AE00E94AB006A960FB6F894DEBF73
:103380000FBECDBFDF91CF911F910F91FF90EF90B6
:10339000DF90CF90BF90AF909F908F907F906F9075
:1033A0005F904F903F902F900895FC014281D8018B
:1033B00015962C91022E000C330B4217130609F4BC
:1033C000BCCE0E94CD31A1CE208385CF8091F50463
:1033D0009091F60428EC229D8001239D100D11246C
:1033E000045C1C4FD8011596FC900097F1F584E021
:1033F00090E00E9431318C016F2D0E94860710935E
:10340000F6040093F50482E58093270582E4809317
:1034100028051092290588EC829DF001839DF00D0E
:103420001124E45CFC4F838180932A0581E0809322
:103430002B050091F5041091F604C8010E94AC0917
:1034400090932C05C8010E94AC0980932D0588E05B
:1034500080932905E7E2F5E02EE235E080E09191E6
:10346000890F2E173F07D9F747CDFC0122816F2D19
:10347000FF0C770B2617170631F20E94CD3184E03E
:1034800090E00E9431317C01D80115966C910E9428
:103490008607F092F604E092F504B5CF8091F3042C
:1034A0009091F40428EC229D8001239D100D11249D
:1034B000045C1C4FF801F5800097F1F584E090E082
:1034C0000E9431318C016F2D0E9486071093F40405
:1034D0000093F30482E58093270582E48093280516
:1034E0001092290588EC829DF001839DF00D112436
:1034F000E45CFC4F838180932A0581E080932B0557
:103500000091F3041091F404C8010E9439099093CA
:103510002C05C8010E94390980932D0588E080930D
:103520002905E7E2F5E02EE235E080E09191890F90
:103530002E173F07D9F7E0CCDC0112962C916F2DA6
:10354000FF0C770B2617170629F20E94CD3184E075
:1035500090E00E9431317C01F80165810E9486076C
:10356000F092F404E092F304B5CF8091ED049091D1
:10357000EE0428EC229D8001239D100D1124045C93
:103580001C4FD8011596FC900097E9F585E090E076
:103590000E9431318C016F2D0E94EB071093EE04D5
:1035A0000093ED0482E58093270582E4809328054B
:1035B0001092290588EC829DF001839DF00D112465
:1035C000E45CFC4F838180932A0581E080932B0586
:1035D000E091ED04F091EE0483810E94B90121E0B5
:1035E000892B09F020E020932C0587E080932905A2
:1035F000E7E2F5E02DE235E080E09191890F2E17AA
:103600003F07D9F7C2CCFC0122816F2DFF0C770B4D
:103610002617170639F20E94CD3185E090E00E940E
:1036200031317C01D80115966C910E94EB07F09224
:10363000EE04E092ED04B6CF28EC229DC001239D5C
:10364000900D1124FC01E45CFC4F7F0185810E94F8
:10365000DF050D9709F090CE0091E7041091E80482
:10366000D70115968C910115110509F07DC00E94B6
:10367000DF050D9701F58BE090E00E9431318C0160
:10368000F70165810E949A07D80116961C92169739
:103690008BEE90E01A969C938E93199781E090E0C0
:1036A00018969C938E9317971093E8040093E70461
:1036B000C8010E94440E28EC229DC001239D900D5C
:1036C00011249C01245C3C4F6901D9011696FC90A1
:1036D000B1E0FB1270C08E010F5E1F4F9E012F5F85
:1036E0003F4FAE01435F5F4FBE01615F7F4F8091EF
:1036F000E7049091E8040E94A30E82E580932705D9
:1037000082E480932805F601838180932A05F09254
:103710002B05F0922C058F85988990932D05809329
:103720002E058D859E8590932F0580933005898188
:103730009A81909331058093320589899A89909373
:103740003305809334058FE080932905E7E2F5E0A7
:1037500025E335E080E09191890F2E173F07D9F7D7
:10376000809335058FE006CEF8019281282F082E30
:10377000000C330B9217130609F49DCF0E94DF054E
:103780000D9709F098CFC8010E94CD318BE090E0F1
:103790000E9431318C01D70115966C910E949A07D5
:1037A000F80116828BEE90E09287818781E090E0AD
:1037B0009087878379CFF2E0FF12DECD8090E70417
:1037C0009090E80416E0B12EF12CE12CD12CC12C04
:1037D0008E010F5F1F4F9E01235F3F4FAE01415F80
:1037E0005F4FBE016F5E7F4FC4010E94A30E8981AF
:1037F0009A81C816D90608F46C01E80EF91EBA942D
:10380000B110E6CFEC18FD08C701969587959695FF
:1038100087959A83898392E59093270592E4909304
:10382000280598EC929DF001939DF00D1124E45C25
:10383000FC4F938190932A0591E090932B0592E0A1
:1038400090932C059F2D9695969590932D0580939A
:103850002E0589E080932905E7E2F5E02FE235E0C7
:1038600080E09191890F2E173F07D9F780932F059C
:1038700089E080CD88EC829D8001839D100D11240C
:10388000045C1C4FD80115968C910E94DF050E97A1
:1038900009F072CDE090E504F090E604E114F10443
:1038A00009F087C2F80185810E94DF050E97D1F4E7
:1038B00084E490E00E9431317C01D80115966C912E
:1038C0000E949A0781E0F7018583EE5BFF4F88E64F
:1038D00090E091838083F092E604E092E504C701D2
:1038E0000E94770F0091E5041091E604A8014C5C5A
:1038F0005F4F2EE06BE3C8010E941B0FD801D496E6
:103900006D907C90D59776246724762493967C924C
:103910006E929297D696ED90FC90D7979E2C8F2C16
:1039200095969C928E929497D896AD90BC90D9978C
:10393000BA24AB24BA249796BC92AE929697169668
:10394000CD90DD90ED90FC901997DC966D917C9177
:10395000762767277627072E000C880B990B0E9485
:10396000FD2EF80120A531A542A553A50E946F2D7B
:10397000A70196010E94532ED80156966D937D9310
:103980008D939C935997DE966D917C91762767274E
:103990007627072E000C880B990B0E94FD2EF8014C
:1039A00024A535A546A557A50E946F2DA701960110
:1039B0000E94532ED8015A966D937D938D939C93BC
:1039C0005D97F801E05CFF4F608171817627672782
:1039D0007627072E000C880B990B0E94FD2EF8010C
:1039E00020A931A942A953A90E946F2DA7019601D0
:1039F0000E94532ED8015E966D937D938D939C9378
:103A00009197B401990C880B990B0E94FD2E6B01C4
:103A10007C01B501BB0C880B990B0E94FD2E9B010C
:103A2000AC010E9439304B015C01A7019601C7012E
:103A3000B6010E943930A50194010E94702D0E94A8
:103A4000AC306B8B7C8B8D8B9E8BB301770C880B92
:103A5000990B0E94FD2E2B013C012B893C894D893D
:103A60005E890E94EF2D20E030E044E353E40E94A1
:103A700039302AED3FE049E450E40E94532E6B8B2D
:103A80007C8B8D8B9E8BA3019201C301B2010E949E
:103A90003930A50194010E94702D0E94AC309B0129
:103AA000AC01C701B6010E94EF2D20E030E044E3F5
:103AB00053E40E9439302AED3FE049E450E40E948B
:103AC000532E6F8B788F898F9A8F0E940E06C0902D
:103AD000B402D090B502E090B602F090B7026C1933
:103AE0007D098E099F090E94FB2E20E030E04AE705
:103AF00054E40E94532E6B017C010E940E066093D9
:103B0000B4027093B5028093B6029093B702F801A5
:103B100086A197A1181619060CF061C1228D338D6C
:103B2000448D558DC701B6010E9439309B01AC010F
:103B3000D8011A966D917D918D919C911D970E944F
:103B40006F2DF80162877387848795872689378967
:103B5000408D518DC701B6010E9439309B01AC01E7
:103B6000D8011E966D917D918D919C9151970E94E7
:103B7000702DF80166877787808B918BF801268DF1
:103B8000378D40A151A1C701B6010E943930D8013B
:103B900052962D913D914D915C9155970E94702DBB
:103BA0002B013C0120E030E044EB53E40E94532E13
:103BB0000E94382F20E030E044EB53E40E9439307B
:103BC0009B01AC01C301B2010E946F2DF801628B11
:103BD000738B848B958B20E030E040E05FE3C7017E
:103BE000B6010E94702D9B01AC0160E070E080E0A6
:103BF0009FE30E94532E6B017C01AC019B0160E0AE
:103C000070E080E89FE30E946F2D4B015C01D801BA
:103C10001A962D913D914D915C911D97C701B6016A
:103C20000E9439302B013C01A50194016B897C89EC
:103C30008D899E890E9439309B01AC01C301B2017C
:103C40000E94702DF8016287738784879587268587
:103C5000378540895189C701B6010E9439306B010F
:103C60007C01A50194016F89788D898D9A8D0E94C0
:103C700039309B01AC01C701B6010E94702DD801FB
:103C80001E966D937D938D939C93519782E58093BF
:103C9000270582E4809328051092290588EC829DEF
:103CA000F001839DF00D1124E45CFC4F838180932F
:103CB0002A0581E080932B05768070922C05E6E042
:103CC000781265C00091E5041091E604F801628560
:103CD000738584859585905820E030E048EC52E467
:103CE0000E9439300E94C52E4B015C01D8011E96FE
:103CF0006D917D918D919C915197905820E030E08D
:103D000048EC52E40E9439300E94C52E6B017C01C0
:103D100020E030E048EC52E4F8016289738984893C
:103D200095890E9439300E94C52E181419041A046E
:103D30001B040CF487C0B094A09490948094811CD0
:103D4000911CA11CB11C10922D0590922E05809201
:103D50002F051C141D041E041F040CF476C0F094DF
:103D6000E094D094C094C11CD11CE11CF11C1092B1
:103D70003005D0923105C092320597FD6AC021E02E
:103D8000209333057093340560933505EFE081E0AF
:103D90008E0F80932905A7E2B5E020E090E03D91E9
:103DA000930F2F5FE213FBCFF0E0E95DFA4F9083B2
:103DB000E1CAD80115968C91F7019281282F082E1F
:103DC000000C330B9217130609F48CCD0E94DF050B
:103DD0000E9709F087CDC7010E94CD3169CD228DA4
:103DE000338D448D558DC701B6010E9439309B013A
:103DF000AC01F80162857385848595850E94702DDC
:103E0000D8011A966D937D938D939C931D9756962A
:103E10002D913D914D915C915997C701B6010E943A
:103E200039309B01AC01F8016685778580899189DD
:103E30000E946F2DD8011E966D937D938D939C9358
:103E400051979CCE70922D0580CF21E020933005B4
:103E500090CF9B01AC0188279927DC01821B930B33
:103E6000A40BB50B10923305909334058093350560
:103E70008DCF8091BC029091BD0248EC429D900193
:103E8000439D300D1124A901445C5C4F7A01DA0195
:103E900015961C91009709F046C088E090E00E94BA
:103EA00031317C01612F0E949A0781E0F7018583FF
:103EB00017821682F092BD02E092BC0282E58093E6
:103EC000270582E4809328051092290588EC829DBD
:103ED000F001839DF00D1124E45CFC4F83818093FD
:103EE0002A0581E080932B058091BC029091BD0250
:103EF0000E944F0D90932C058091BC029091BD02C1
:103F00000E944F0D80932D0588E080932905E7E2FC
:103F1000F5E02EE235E080E09191890F2E173F0702
:103F2000D9F70C947C17DC0112962C91612F110F9C
:103F3000770B2617170611F20E94CD3188E090E02A
:103F40000E9431318C01F70165810E949A0781E05E
:103F5000D80115968C93159717961C921E9216975A
:103F60001093BD020093BC02A9CF8091DF04909111
:103F7000E00448EC429D9001439D300D1124F9016D
:103F8000E45CFC4F6F011581009709F09BC089E04C
:103F900090E00E9431317C01612FC7010E947607B9
:103FA000E12FF0E0EE0FFF1FE25DFE4F8081D701B1
:103FB00014968C931497818115968C93F092E0045B
:103FC000E092DF040091DF041091E00488EC829D10
:103FD000F001839DF00D1124E45CFC4F868181305B
:103FE00009F084C0F8016481C8010E94DE067801EE
:103FF000B6E0EB0EF11CC7010E940B0881117DC0D9
:1040000060E070E0CB0120E030E048EC52E40E9438
:1040100039306B017C0182E58093270582E480932F
:10402000280588EC829DF001839DF00D1124E45C4D
:10403000FC4F838180932A0511E010932B0520E02B
:1040400030E0A901C701B6010E942C3087FDDAC01B
:1040500010932C0520E030E0A901C701B6010E94B1
:104060002C3018160CF0D1C0C701B6010E94C52E25
:104070009B0177FF02C021503F4F30932D0520E078
:1040800030E0A901C701B6010E942C3018160CF0CF
:10409000C0C0C701B6010E94C52ECB0160E071E02F
:1040A0000E94033180932E0589E080932905E7E281
:1040B000F5E02FE235E080E09191890F2E173F0760
:1040C000D9F7D4CBFC012281612F110F770B261772
:1040D000170609F477CF0E94CD3189E090E00E9465
:1040E00031317C01D60115961C9156CF823009F0F2
:1040F0007ECFD80115966C9177CF6CECC7010E94EA
:10410000BC0064E4C7010E94BC000E940E064B0183
:104110005C01F3E2CF2ED12CF80186810780F08577
:10412000E02D2181982F909592239183D6011197AC
:10413000F1F79081892309F458C0C7010E940B0848
:104140006CECC7010E94BC006EEBC7010E94BC0072
:104150009E012F5F3F4F39016E0136E0C30ED11C27
:1041600047E050E063E270E0EFECEE2EF12C88E0E7
:1041700090E0A12C99249394D8011696BC901697A0
:104180001796ED91FC91F89421812B29218332819E
:104190008B2C809438213283DA011197F1F7218139
:1041A00028212183DB011197F1F720817894F70111
:1041B0003197F1F7B22209F0A928990C0197E1F69D
:1041C000F301A1923F01CE16DF0689F669817A815B
:1041D000072E000C880B990B0E94FD2E20E030E08A
:1041E00040E85DE30E9439300ECF0E940E06681948
:1041F00079098A099B09613971408105910508F4A3
:104200008BCFFECE10922C0525CFC701B60190585A
:104210002DCFC701B60190583ECF8091DD0490911B
:10422000DE0448EC429D9001439D300D1124A9010C
:10423000445C5C4F6A01DA0115961C91009709F005
:10424000C2C085E090E00E9431317C01612FC7013E
:104250000E947607E12FF0E0EE0FFF1FE25DFE4FB8
:104260008181D70113968C931397808114968C9338
:10427000F092DE04E092DD04E090DD04F090DE04D4
:1042800060E0F70183810E941002D70113968C91A0
:104290000E943F049C01205D3240121613060CF070
:1042A000A6C04BE0429FC001439F900D112466E0E1
:1042B00070E00E9403310091B8021091B902060F1C
:1042C000171F013EB1E01B070CF09AC00032EEEF61
:1042D0001E070CF498C0C801C1968336910508F4F6
:1042E00095C060E0D70114968C910E941002F701EE
:1042F00084810E943F049C01205D32401216130607
:104300000CF087C045EF4203C001439F900D11247C
:1043100066E070E00E9403318091BA029091BB0286
:10432000680F791F613E51E075070CF07FC0603265
:104330008EEF78070CF47DC0CB01C19683369105D2
:1043400008F47AC082E58093270582E480932805EB
:1043500088EC829DF001839DF00D1124E45CFC4FFC
:10436000838180932A0581E080932B0517FD67C028
:1043700080932C0517FF03C0119501951109109327
:104380002D0500932E0581E077FD82E080932F05B7
:1043900077FF03C071956195710970933005609343
:1043A00031058CE080932905E7E2F5E022E335E072
:1043B00080E09191890F2E173F07D9F7809332053E
:1043C0008CE00C94BA19FC012281612F110F770B3C
:1043D0002617170609F450CF0E94CD3185E090E0F2
:1043E0000E9431317C01D60115961C912FCF47E0F8
:1043F000429FC001439F900D11246AE070E059CFA5
:1044000000EE11E06ECF00E21EEF6BCF10E000E097
:1044100068CFC90143E0880F991F4A95E1F7A901C8
:10442000481B590BCA016AE070E074CF60EE71E07E
:1044300089CF60E27EEF86CF70E060E083CF82E0DC
:1044400097CF8091DB049091DC0448EC429D900171
:10445000439D300D1124D901A45CBC4F6D0115960C
:104460001C91009709F064C085E090E00E94313112
:104470007C01612FC7010E947607E12FF0E0EE0F6B
:10448000FF1FE25DFE4F8081D70113968C93139737
:10449000818114968C93F092DC04E092DB0482E537
:1044A0008093270582E4809328051092290588ECE3
:1044B000829DF001839DF00D1124E45CFC4F83810B
:1044C00080932A0581E080932B05E090DB04F09037
:1044D000DC0460E0F70184810E941002D701149689
:1044E0008C910E943F040FEF13E0F801E81BF90BD9
:1044F000CF0190932C0560E0D70114968C910E9417
:104500001002F70184810E943F04081B190B0093DD
:104510002D0588E080932905E7E2F5E02EE235E0FD
:1045200080E09191890F2E173F07D9F70C947C17E3
:10453000FC012281612F110F770B2617170609F452
:10454000AECF0E94CD3185E090E00E9431317C01F8
:10455000D60115961C918DCF8091D9049091DA04E3
:1045600028EC229D8001239D100D1124045C1C4F1A
:10457000D8011596FC90009709F03FC084E090E0C8
:104580000E9431318C016F2D0E9486071093DA044E
:104590000093D90482E58093270582E4809328055F
:1045A0001092290588EC829DF001839DF00D112465
:1045B000E45CFC4F838180932A0581E080932B0586
:1045C0000091D9041091DA04C8010E942D0990933A
:1045D0002C05C8010E942D0980932D0588E0809349
:1045E0002905E7E2F5E02EE235E080E09191890FC0
:1045F0002E173F07D9F70C947C17FC0122816F2DF1
:10460000FF0C770B2617170629F20E94CD3184E0A4
:1046100090E00E9431317C01D80115966C910E9486
:104620008607F092DA04E092D904B4CF8091D704DF
:104630009091D80428EC229D8001239D100D112417
:10464000045C1C4FF801F580009709F03FC084E03E
:1046500090E00E9431318C016F2D0E9486071093EB
:10466000D8040093D70482E58093270582E48093E1
:1046700028051092290588EC829DF001839DF00D9C
:104680001124E45CFC4F838180932A0581E08093B0
:104690002B050091D7041091D804C8010E94390954
:1046A00090932C05C8010E94390980932D0588E05C
:1046B00080932905E7E2F5E02EE235E080E0919174
:1046C000890F2E173F07D9F70C947C17DC0112963F
:1046D0002C916F2DFF0C770B2617170621F20E94E5
:1046E000CD3184E090E00E9431317C01F801658198
:1046F0000E948607F092D804E092D704B4CF80914C
:10470000D5049091D60428EC229D8001239D100DA4
:104710001124045C1C4FD8011596FC90009709F0F9
:104720003FC084E090E00E9431318C016F2D0E94E7
:1047300086071093D6040093D50482E5809327055D
:1047400082E4809328051092290588EC829DF0016F
:10475000839DF00D1124E45CFC4F838180932A0536
:1047600081E080932B050091D5041091D604C801F7
:104770000E94390990932C05C8010E943909809341
:104780002D0588E080932905E7E2F5E02EE235E08B
:1047900080E09191890F2E173F07D9F70C947C1771
:1047A000FC0122816F2DFF0C770B2617170629F2CB
:1047B0000E94CD3184E090E00E9431317C01D8012B
:1047C00015966C910E948607F092D604E092D5046B
:1047D000B4CF1F920F920FB60F9211242F933F93D5
:1047E0008F939F93AF93BF93809134039091350340
:1047F000A0913603B09137033091330323E0230FA8
:104800002D3758F50196A11DB11D209333038093D8
:10481000340390933503A0933603B093370380910C
:10482000380390913903A0913A03B0913B0301966C
:10483000A11DB11D8093380390933903A0933A03CF
:10484000B0933B03BF91AF919F918F913F912F9177
:104850000F900FBE0F901F90189526E8230F029619
:10486000A11DB11DD2CF1F920F920FB60F9211242E
:104870002F933F934F935F936F937F938F939F9368
:10488000AF93BF93EF93FF93E0913103F091320325
:10489000309749F0A685B7858585968D91FF14C020
:1048A0009C918923A1F4FF91EF91BF91AF919F91CA
:1048B0008F917F916F915F914F913F912F910F90C9
:1048C0000FBE0F901F9018959C91892361F7A389C3
:1048D000B4899C918589809589238C938689978951
:1048E0000197F1F7608D718DA685B785558538E004
:1048F00020E0CB010197F1F7822F90E09595879505
:10490000282F4C91452309F02068315091F7868D6E
:1049100081FD209580912F0390E001968F73992758
:1049200030913003381799F0A0912F03B0E0A151D6
:10493000BD4F2C9380932F03828D938D0197F1F7B8
:10494000A389B4898C919589892B8C93ACCF868D62
:104950008160868FF1CF1F920F920FB60F921124B4
:104960002F933F938F939F93EF93FF938091EE024A
:1049700087FF1FC010928500109284008091EE0284
:104980008F5F8093EE028091EE0287FF04C08091DA
:10499000EE028C30ACF080918400909185000496FA
:1049A00080349C4990F18091840090918500049618
:1049B0002EC08091EE0287FFE1CF8091EE02DECF24
:1049C0002091840030918500E091EE028E2FEE0F51
:1049D000990BFC01EE0FFF1FE80FF91FE653FD4F87
:1049E00081819281820F931F909389008093880028
:1049F0008091EE02FF91EF919F918F913F912F91C6
:104A00000F900FBE0F901F90189580E49CE9909333
:104A10008900809388008FEF8093EE02EBCF1F9286
:104A20000F920FB60F9211242F933F938F939F9362
:104A3000AF93BF93EF93FF939091C6008091C9020B
:104A400081111BC0923561F4E091C80238ECE39FFC
:104A5000F0011124E45CFC4F908381E08093C90253
:104A6000FF91EF91BF91AF919F918F913F912F91C6
:104A70000F900FBE0F901F901895813081F49234E3
:104A800059F4E091C80288ECE89FF0011124E45C3D
:104A9000FC4F918382E0E2CF1092C902E1CF2091D6
:104AA000C80238EC239FF0011124E45CFC4FDF01C5
:104AB000A80FB11D9C938F5F8093C90292818917C3
:104AC00010F4883C68F21092C9028091CC04222331
:104AD00031F01092C80282608093CC04C1CF91E083
:104AE0009093C8028160F8CFCF92DF92EF92FF924D
:104AF0000F931F93E82FF92F05C0015011092109C9
:104B0000310961F1908196239417B9F305C00150E2
:104B100011092109310911F1908196239413F7CFDE
:104B2000C12CD12CE12CF12C0AC08FEFC81AD80A65
:104B3000E80AF80A0C151D052E053F0579F080815D
:104B40008623841791F36C2D7D2D8E2D9F2D1F9123
:104B50000F91FF90EF90DF90CF90089560E070E0AC
:104B600080E090E01F910F91FF90EF90DF90CF9049
:104B70000895CF93DF9300D000D0CDB7DEB77894FF
:104B800084B5826084BD84B5816084BD85B5826052
:104B900085BD85B5816085BD80916E008160809303
:104BA0006E0010928100809181008260809381006C
:104BB000809181008160809381008091800081607C
:104BC000809380008091B10084608093B1008091D7
:104BD000B00081608093B00080917A0084608093FF
:104BE0007A0080917A00826080937A0080917A00C6
:104BF000816080937A0080917A00806880937A0047
:104C00001092C10060E088E00E9410028091C00014
:104C100082608093C0001092C50080E18093C40040
:104C20008091C10080688093C1008091C100806143
:104C30008093C1008091C10088608093C100809101
:104C4000C20084608093C2008091C2008260809321
:104C5000C2006CE271E080E090E00E94AD0561E08E
:104C6000809126050E94100260E0809126050E9436
:104C7000E20120E040E060E08DE095E00E944F0717
:104C8000EEEDF0E0E491E0931405EAECF0E0E4915D
:104C9000F0E0EE0FFF1FEC54FF4F8591949190933D
:104CA00011058093100561E082E00E94100220E06F
:104CB00040E060E08DE095E00E944F078DE095E0D8
:104CC0000E94FA066CE271E080E090E00E94AD057F
:104CD00020E040E06EE18DE095E00E944F078DE01E
:104CE00095E00E94FA066CE271E080E090E00E949C
:104CF000AD0520E04EE160E08DE095E00E944F07B9
:104D00008DE095E00E94FA066CE271E080E090E0B0
:104D10000E94AD052EE140E060E08DE095E00E944C
:104D20004F078DE095E00E94FA066CE271E080E0AA
:104D300090E00E94AD0544EF51E060E070E084EF48
:104D400091E00E944C0261E085E00E94100261E067
:104D500086E00E94100261E089E00E94100261E09A
:104D60008AE00E9410028DEA809380008BE080939D
:104D70008100109289001092880010928B0010928E
:104D80008A0064EF71E080E090E00E94AD0582E56A
:104D90000E94A40082E40E94A40086E00E94A40075
:104DA00080E00E94A40083E00E94A4008DE90E949C
:104DB000A40088E19FE00FB6F894A8958093600066
:104DC0000FBE90936000A89538EC832E912CA12CF7
:104DD000B12C40E2242E41E0342E50E5652E53ECF8
:104DE000752EA8958091CC04482F417080FF03C197
:104DF0008E7F8093CC0480913E0350E040E0815050
:104E0000990B252F30E0281739073CF4245C3C4FE0
:104E1000D9012C91420F5F5FF4CF845C9C4FFC0161
:104E200080814813CBC080914003813A08F0C2C012
:104E300080E00E94D91088E00E94B901019719F41E
:104E400081E08093CF0488E00E94B901892B49F466
:104E50008091CF04882329F081E08093CE041092C2
:104E6000CF048091CE04882321F11092CE0480914A
:104E7000CD048823F1F082E50E94A40082E40E9420
:104E8000A40088E00E94A40080E00E94A40081E0C9
:104E90000E94A40089EF0E94A40081E00E94A40067
:104EA00087E90E94A40087E90E94A40087E90E9484
:104EB000A40080911D05882309F46AC08091D10463
:104EC0009091D204A091D304B091D4040196A11D75
:104ED000B11D8093D1049093D204A093D304B093D6
:104EE000D404883E9340A105B10508F449C020913F
:104EF000D0042A831092D1041092D2041092D304C9
:104F00001092D40485E10E943F04BC0190E080E04F
:104F10000E94FB2E20E030E040E75CE30E94393045
:104F20006B017C0120E030E040E050E40E942C3036
:104F3000181634F52AE939E949ED50E4C701B601FC
:104F40000E944E2E87FF1CC082E50E94A40082E4CE
:104F50000E94A40088E00E94A40080E00E94A400B7
:104F600082E00E94A4008DEF0E94A40081E00E94D4
:104F7000A4008CE90E94A4003A813F5F3093D004E2
:104F80008091D0048A3020F01092D00410921D0538
:104F900080911C05813009F456C208F469C0823042
:104FA00009F440C320E030E0232B09F41ACF0E941B
:104FB000000017CF80E00E94DB163DCF82E50E9403
:104FC000A40082E40E94A40087E00E94A4008091D3
:104FD0003F030E94A400809140030E94A40080E04F
:104FE0000E94A40080913F0390914003890F865650
:104FF0000E94A40020CF81FF1ECF8D7F8093CC0420
:105000008091060450E08150990B252F30E028173D
:1050100039073CF42C5F3B4FD9012C91420F5F5F65
:10502000F4CF8C5F9B4FFC018081481308C08091B6
:105030000804813A10F481E0FCCE81E0BCCF82E527
:105040000E94A40082E40E94A40087E00E94A400C1
:10505000809107040E94A400809108040E94A4008B
:1050600080E00E94A4008091070490910804BECFC4
:105070000E940E060091030510910405209105057C
:1050800030910605601B710B820B930B6D3D7540D3
:105090008105910508F486CF8FEFC82E84E0D82EC5
:1050A0009BEFE92E94E0F92E0EE211E01A82512CCA
:1050B0005394852D0E94DF05482EF60181936F01E0
:1050C00081110BC060E0D80112968C910E941002F1
:1050D00060E0F80183810E941002D701EC914E1626
:1050E00009F449C0E250E73108F03AC0F0E0E55871
:1050F000F74D0C94173192289E28AA284629062994
:10510000162926293629562962297E298C299A2989
:10511000B028CD29B028BF29A829DB29E929F729FA
:10512000052A132A8091090590910A05009731F00C
:105130000E94CD3110920A05109209058091F90460
:105140009091FA04009731F00E94CD311092FA0448
:105150001092F90480911A0590911B05009719F49B
:10516000B1E0BA8308C00E94CD3110921B051092A5
:105170001A05E1E0EA83F70141927F010E5F1F4FBC
:10518000F4E05F1295CF2A812223A9F182E5809372
:10519000270582E48093280510922A0535E0309394
:1051A0002B058091FB0480932C058091FC04809357
:1051B0002D058091FD0480932E058091FE0480933F
:1051C0002F05109230051092310510923205109281
:1051D00033058EE080932905E7E2F5E0819199811E
:1051E000980F9983A5E0E433FA07C1F7909334054B
:1051F0008EE00E94AB000E940E0660930305709340
:1052000004058093050590930605CCCE8091F704A4
:105210009091F804009709F4A3CF0E94CD31109229
:10522000F8041092F704F1E0FA83A5CF8091F50419
:105230009091F604009709F493CF0E94CD3110921B
:10524000F6041092F50421E02A8395CF8091F304AF
:105250009091F404009709F483CF0E94CD3110920D
:10526000F4041092F30431E03A8385CF8091F10485
:105270009091F204009709F473CF0E94CD311092FF
:10528000F2041092F10481E08A8375CF8091EF04DB
:105290009091F004009709F463CF0E94CD311092F1
:1052A000F0041092EF0491E09A8365CF8091ED04B1
:1052B0009091EE04009731F00E94CD311092EE04EF
:1052C0001092ED04A091EB04B091EC04BC83AB838D
:1052D000109709F445CFCD010E94C806EB81FC81EF
:1052E00031822082CF010E94C8068B819C810E945E
:1052F000CD311092EC041092EB0495CF8091E9042B
:105300009091EA04009709F42BCF0E94CD311092BE
:10531000EA041092E90497CF8091E7049091E804A1
:10532000009709F41DCF0E94CD311092E80410922D
:10533000E70499CF8091E5049091E604009709F481
:105340000FCF0E94CD311092E6041092E5049BCF5E
:10535000A091E304B091E404BC83AB83109709F4FB
:10536000FFCE1A968D919C910E94CD318B819C81AC
:105370000E94CD311092E4041092E304F1CE8091AA
:10538000E1049091E204009709F4EACE0E94CD3145
:105390001092E2041092E104ECCE8091DF0490912F
:1053A000E004009709F4DCCE0E94CD311092E004B5
:1053B0001092DF0438CF8091DD049091DE040097D5
:1053C00009F4CECE0E94CD311092DE041092DD049D
:1053D0003ACF8091DB049091DC04009709F4C0CEB1
:1053E0000E94CD311092DC041092DB043CCF8091FE
:1053F000D9049091DA04009709F4B2CE0E94CD311D
:105400001092DA041092D9043ECF8091D704909183
:10541000D804009709F4A4CE0E94CD311092D8048C
:105420001092D70440CF8091D5049091D604009774
:1054300009F496CE0E94CD311092D6041092D50474
:10544000A1E0AA8398CE8091090590910A05109158
:105450001905009709F062C080E190E00E943131A7
:105460009C838B83612F0E94B607EB81FC81F093B4
:105470000A05E09309058091090590910A050E94AB
:10548000360C6B017C0120E030E048E452E40E94DD
:105490002C3018160CF050C0109208051092070519
:1054A00080910705813009F486C008F46EC082300F
:1054B00009F078CD20E042E360E08DE095E00E94C5
:1054C0004F078DE095E00E94FA0626EA3FEF4FEF86
:1054D0005FEF66EA7FEF8FEF9FEF0E942F0460E996
:1054E00071E080E090E00E94AD05A8950E94B42C88
:1054F000A50194010E940C2D653608F48AC022E6AD
:1055000030E040E050E06EE97FEF8FEF9FEF0E94C8
:105510002F046AE872E080E090E06EC0DC01129631
:105520004C91212F012E000C330B4217130609F466
:10553000A2CF0E94CD3190CFF0910805FA8320E0F0
:1055400030E048EB51E4C701B6010E942C3087FDE2
:1055500015C020E030E048E452E4C701B6010E94E3
:105560004E2E18165CF02A81211104C081E0809330
:10557000080596CF81E080930705F9CF3A81332360
:10558000A9F382E03130B9F7F2CF27E330E040E011
:1055900050E067E370E080E090E00E942F0422E397
:1055A00040E060E08DE095E00E944F078DE095E0DF
:1055B0000E94FA06F7CC20E040E062E38DE095E03F
:1055C0000E944F078DE095E00E94FA060E94B42CDD
:1055D000A50194010E940C2D653690F022E630E082
:1055E00040E050E06EE97FEF8FEF9FEF0E942F04C5
:1055F0006CE271E080E090E00E94AD05A895D2CC0D
:105600002EE93FEF4FEF5FEF62E670E080E090E061
:10561000EDCF2EE93FEF4FEF5FEF62E670E080E005
:1056200090E075CF80911A0590911B051091190596
:10563000009709F074C085E090E00E9431319C83AE
:105640008B83612F0E9490098B819C8190931B0515
:1056500080931A0580911A0590911B050E9471098B
:10566000813009F496C008F477C0823009F4ABC0E9
:10567000833009F097CC8091000120910B05309187
:105680000C052F5F3F4F3C832B838A3009F0B1C05C
:105690002EEC3FEF4FEF5FEF6EEC7FEF8FEF9FEF62
:1056A0000E942F048B819C8190930C0580930B05A5
:1056B00080910B0590910C058035934C08F472CCC9
:1056C00070920C0560920B0520E030E0A90160E0CB
:1056D00070E0CB010E942F0420E040E060E08DE00C
:1056E00095E00E944F078DE095E00E94FA0664EF76
:1056F00071E080E090E00E94AD0520E040E060E5D0
:105700008DE095E00E944F078DE095E00E94FA063B
:1057100064EF71E080E090E00E94AD0543CCDC01D5
:1057200012964C91212F012E000C330B42171306B9
:1057300009F490CF0E94CD3185E090E00E94313194
:105740009C838B83612F0E949009EB81FC81F093F5
:105750001B05E0931A057ECF2AE230E040E050E0DE
:105760006AE270E080E090E00E942F04FAE0F0939B
:10577000000120E048EC60E08DE095E00E944F07DA
:105780008DE095E00E94FA0610920C0510920B0530
:1057900009CC2AE230E040E050E06AE270E080E0CC
:1057A00090E00E942F0480910001823018F0815017
:1057B0008093000100E020E048EC60E08DE095E09F
:1057C0000E942E07DDCF2AE230E040E050E06AE29E
:1057D00070E080E090E00E942F048091000184310D
:1057E00018F48F5F8093000100E020E048EC61E056
:1057F000E5CF8A3088F42DE230E040E050E066EA00
:105800007FEF8FEF9FEF0E942F04AB81BC81B0939D
:105810000C05A0930B054CCF26EA3FEF4FEF5FEF4F
:105820006DE270E080E090E00E942F04EB81FC814B
:10583000F0930C05E0930B053BCFADE0B5E01C9277
:1058400011961C92119712961C921297ECEDF0E0B3
:10585000E4911796EC931797E8ECF0E0E491F0E010
:10586000EE0FFF1FEC54FF4F8591949114969C937B
:105870008E93139761E080E00E94100262E08DE059
:1058800095E00E94821084E08093260560E084E128
:105890000E94100261E08CE00E94100261E08DE045
:1058A0000E94100261E087E00E94100260E08CE03C
:1058B0000E94E20160E08DE00E94E20160E087E08A
:1058C0000C94E20180911705909118050C94CD314C
:1058D0008F929F92AF92BF92CF92DF92EF92FF9200
:1058E000CF93DF93EC01688179818A819B81611577
:1058F00071058105910521F464E279ED8BE597E06E
:105900002DE133EF41E050E00E940C2D49015A0196
:105910009B01AC01A7EAB1E40E942B2D6B017C0135
:10592000ACEEB4EFA50194010E94392DC60ED71E2E
:10593000E81EF91EF7FE06C081E0C81AD108E1088A
:1059400080E8F80AC882D982EA82FB82C701B601E0
:105950009F77DF91CF91FF90EF90DF90CF90BF9036
:10596000AF909F908F9008958F929F92AF92BF9229
:10597000CF92DF92EF92FF9260910101709102014C
:1059800080910301909104016115710581059105D4
:1059900021F464E279ED8BE597E02DE133EF41E00E
:1059A00050E00E940C2D49015A019B01AC01A7EA6D
:1059B000B1E40E942B2D6B017C01ACEEB4EFA5018C
:1059C00094010E94392DC60ED71EE81EF91EF7FE5F
:1059D00006C081E0C81AD108E10880E8F80AC09240
:1059E0000101D0920201E0920301F0920401C7018B
:1059F000B6019F77FF90EF90DF90CF90BF90AF9070
:105A00009F908F900895609301017093020180939D
:105A10000301909304010895052E97FB1EF4009452
:105A20000E94232D57FD07D00E943E2D07FC03D076
:105A30004EF40C94232D50954095309521953F4F71
:105A40004F4F5F4F089590958095709561957F4F6A
:105A50008F4F9F4F08950E94602DA59F900DB49F7A
:105A6000900DA49F800D911D11240895B7FF0C94F3
:105A70002B2D0E942B2D821B930B0895A1E21A2E31
:105A8000AA1BBB1BFD010DC0AA1FBB1FEE1FFF1FE2
:105A9000A217B307E407F50720F0A21BB30BE40B32
:105AA000F50B661F771F881F991F1A9469F7609579
:105AB0007095809590959B01AC01BD01CF01089533
:105AC000A29FB001B39FC001A39F700D811D11243F
:105AD000911DB29F700D811D1124911D0895505884
