:100000000C947A000C94A2000C94A2000C9424246A
:100010000C9424240C9424240C94A2000C94A2008C
:100020000C94A2000C94A2000C94A2000C949C24AA
:100030000C94A2000C94A2000C94A2000C94A200B8
:100040000C94DA230C94A2000C9400250C94A200CA
:100050000C94A2000C94A2000C94A2000C94A20098
:100060000C94A2000C94A200084AD73B3BCE016E30
:1000700084BCBFFDC12F3D6C74319ABD56833DDAFF
:100080003D00C77F11BED9E4BB4C3E916BAAAABE0E
:10009000000000803F0000000000240027002A002C
:1000A0000000000800020100000304070000000037
:1000B0000000000000000000250028002B000000C8
:1000C000000023002600290004040404040404049E
:1000D00002020202020203030303030301020408F3
:1000E00010204080010204081020010204081020A2
:1000F0001B2D602D11241FBECFEFD8E0DEBFCDBF7A
:1001000011E0A0E0B1E0E8E1F7E602C005900D9251
:10011000A435B107D9F725E0A4E5B1E001C01D92EF
:10012000AD3FB207E1F710E0C9E7D0E004C0219786
:10013000FE010E941532C837D107C9F70E94DE269A
:100140000C947F330C9400009091C00095FFFCCF7D
:100150008093C60008950F931F93CF93C82F0BE28F
:1001600015E0F80181918F010E94A400C150C9F7E8
:10017000CF911F910F910895AF92BF92CF92DF92CE
:10018000EF92FF920F931F93CF93DF93DC0128E050
:1001900030E081E0AA24AA94B12C0FE010E043E201
:1001A000E42EF12C57EDC52ED12C9C911196ED919A
:1001B000FC911297592F5095462F4823A1F1F8949E
:1001C0004281452342834181492B4183E7012197A5
:1001D000F1F74281942B92837894F6013197F1F7ED
:1001E000880F2150310909F7F8941196ED91FC918F
:1001F000129791818C918095892381831196ED913D
:10020000FC91129792818C918095892382837894B6
:10021000DF91CF911F910F91FF90EF90DF90CF90E2
:10022000BF90AF900895F894428145234283418165
:10023000492B4183E5012197F1F74281942B928369
:100240007894F801CBCF682F70E090E080E00E94B6
:10025000F92F2CE53FE842EA5FE30E94512F0E940C
:10026000CA2F862F653B40F4611104C087E080935C
:10027000B3000895643B11F486E2F9CF66E00E9472
:10028000F531885FF4CF682F70E090E080E00E9445
:10029000F92F2CE53FE842EA5FE30E94512F0E94CC
:1002A000CA2F862F653B40F4611104C087E080931C
:1002B000B4000895643B11F486E2F9CF66E00E9431
:1002C000F531885FF4CFAF92BF92CF92DF92EF9279
:1002D000FF920F931F93CF93DF936C017B018B01F0
:1002E000040F151FEB015E01AE18BF08C017D10740
:1002F00059F06991D601ED91FC910190F081E02DCA
:10030000C6010995892B79F7C501DF91CF911F911E
:100310000F91FF90EF90DF90CF90BF90AF90089536
:10032000833081F028F4813099F08230A9F008956B
:100330008730A9F08830C9F08430B1F48091800012
:100340008F7D03C0809180008F7780938000089517
:1003500084B58F7784BD089584B58F7DFBCF809160
:10036000B0008F778093B00008958091B0008F7DAA
:10037000F9CFCF93DF93282F30E0F901E056FF4FFC
:100380008491F901E452FF4FD491F901E853FF4FF2
:10039000C491CC23A1F081110E949001EC2FF0E0D8
:1003A000EE0FFF1FE254FF4FA591B491EC91ED23A6
:1003B00081E090E009F480E0DF91CF91089580E042
:1003C00090E0FACF1F93CF93DF93282F30E0F9010D
:1003D000E056FF4F8491F901E452FF4FD491F901A7
:1003E000E853FF4FC491CC23A9F0162F81110E942E
:1003F0009001EC2FF0E0EE0FFF1FEC54FF4FA591A2
:10040000B4918FB7F894EC91111108C0D095DE2308
:10041000DC938FBFDF91CF911F910895DE2BF8CF32
:10042000CF93DF9390E0FC01E452FF4F2491885377
:100430009F4FFC0184918823C9F090E0880F991F99
:10044000FC01EA56FF4FA591B491FC01EC54FF4F1B
:10045000C591D49161110DC09FB7F8948C912095EE
:1004600082238C938881282328839FBFDF91CF919B
:100470000895623051F49FB7F8943C91822F809593
:1004800083238C93E8812E2BEFCF8FB7F894EC91D8
:100490002E2B2C938FBFEACF4F925F926F927F9259
:1004A0008F929F92AF92BF92CF92DF92EF92FF9284
:1004B0000F931F93CF93DF934A015B019C0150E0A0
:1004C00040E060E472E48FE090E00E940A2E69014F
:1004D00061E080912A050E941002A8EEB3E0A50118
:1004E00094010E94292E2B013C01E601D7FC2196A4
:1004F000D595C7958E01000F111F000F111F0550D4
:1005000011090D2C000CEE08FF08812C912C5401D0
:1005100084149504A604B704E0F461E080912A05F0
:100520000E94E201C230D10518F0C8010197F1F72D
:1005300060E080912A050E94E201C230D10518F0E6
:10054000C8010197F1F7A8958C0C9D1CAE1CBF1C2F
:10055000DFCFDF91CF911F910F91FF90EF90DF9050
:10056000CF90BF90AF909F908F907F906F905F9053
:100570004F900895CF92DF92EF92FF926C392FEF58
:100580007207820792070CF443C0B62FA72FF82FEB
:10059000E92F653671058105910524F0B4E6A0E0E8
:1005A000F0E0E0E097FD38C02B2F3A2F4F2F5E2F61
:1005B00057FF07C050954095309521953F4F4F4FBD
:1005C0005F4FAFEFB0E00E94292E24E630E040E01C
:1005D00050E00E940A2E69017A0160E0C114D10442
:1005E000E104F10409F061E089E00E94100260E09A
:1005F0008AE00E941002D0928900C0928800109276
:100600008B0010928A00FF90EF90DF90CF900895BA
:10061000BCE9AFEFFFEFEFEF2B2F3A2F4F2F5E2FFD
:1006200057FF07C050954095309521953F4F4F4F4C
:100630005F4FAFEFB0E00E94292E24E630E040E0AB
:1006400050E00E940A2E69017A0160E0C114D104D1
:10065000E104F10409F061E08AE00E94100260E028
:1006600089E00E941002D0928B00C0928A00109202
:10067000890010928800C0922205D0922305E09252
:100680002405F0922505BFCF1F93CF93DF93182F3A
:10069000EB0161E00E941002209739F460E0812FA5
:1006A000DF91CF911F910C94E201CF3FD10511F45E
:1006B00061E0F5CFE12FF0E0E056FF4FE491E33049
:1006C00031F140F4E130B1F0E230E1F0C038D10571
:1006D0007CF7E4CFE73029F1E83059F1E430B1F7A5
:1006E00080918000806280938000D0938B00C093C3
:1006F0008A0004C084B5806884BDC7BDDF91CF91F6
:100700001F91089584B5806284BDC8BDF7CF8091E4
:100710008000806880938000D0938900C093880017
:10072000EDCF8091B00080688093B000C093B3009B
:10073000E5CF8091B00080628093B000C093B40098
:10074000DDCFCF92DF92EF92FF920F931F93CF9363
:10075000DF936C392FEF7207820792070CF44EC0BB
:10076000B62FA72FF82FE92F653671058105910562
:1007700024F0B4E6A0E0F0E0E0E097FD43C02B2FCA
:100780003A2F4F2F5E2F57FF07C050954095309559
:1007900021953F4F4F4F5F4FAFEFB0E00E94292EA2
:1007A00024E630E040E050E00E940A2E69017A0120
:1007B0008901D42FCF2D60E0C114D104E104F104EC
:1007C00009F061E086E00E94100260E085E00E948E
:1007D0001002B60186E00E944403009326051093A0
:1007E0002705D0932805C0932905DF91CF911F914C
:1007F0000F91FF90EF90DF90CF900895BCE9AFEF9D
:10080000FFEFEFEF2B2F3A2F4F2F5E2F57FF07C031
:1008100050954095309521953F4F4F4F5F4FAFEF2B
:10082000B0E00E94292E24E630E040E050E00E9433
:100830000A2E69017A018901D42FCF2D60E0C114FD
:10084000D104E104F10409F061E085E00E941002A6
:1008500060E086E00E941002B60185E0BCCFCF9236
:10086000DF92EF92FF9269017A010E94A103C70112
:10087000B601FF90EF90DF90CF900C94BA028E30CB
:1008800008F08E508770806480937C0080917A009D
:10089000806480937A0080917A0086FDFCCF8091FD
:1008A0007800909179000895BF92CF92DF92EF92F5
:1008B000FF920F931F93CF93DF933AE0B32EC12C97
:1008C000D12C7601CFEFD3E010E000E084E10E946C
:1008D0003F040817190708F48C018C179D0708F4CA
:1008E000EC01C80ED91EE11CF11CBA94B110EECF78
:1008F000D701C601801B910BA109B1098C1B9D0B6F
:10090000A109B10923E0B695A795979587952A95F2
:10091000D1F7883F23E09207A105B10508F0B1C0E7
:100920008F3D23E09207A105B10508F0ADC08B3CD7
:1009300023E09207A105B10508F0A9C0833A23E09E
:100940009207A105B10508F0A5C0853823E09207FC
:10095000A105B10508F0A1C08C3623E09207A105DE
:10096000B10508F09DC0813223E09207A105B105D1
:1009700008F099C08F3F22E09207A105B10508F069
:1009800095C0813D22E09207A105B10508F091C014
:100990008F3922E09207A105B10508F08DC08D3690
:1009A00022E09207A105B10508F089C08F3422E04A
:1009B0009207A105B10508F085C0833122E09207B6
:1009C000A105B10508F081C0853F21E09207A1058E
:1009D000B10508F07DC0813E21E09207A105B10577
:1009E00008F079C0833C21E09207A105B10508F029
:1009F00075C0873A21E09207A105B10508F071C0E2
:100A0000863921E09207A105B10508F06DC08C3749
:100A100021E09207A105B10508F069C08A3521E0FF
:100A20009207A105B10508F065C0823321E0920765
:100A3000A105B10508F061C08F3021E09207A10542
:100A4000B10508F05DC0803D9105A105B10508F034
:100A50005AC0853A9105A105B10508F057C08A37FB
:100A60009105A105B10508F054C08FEF90E0DF912A
:100A7000CF911F910F91FF90EF90DF90CF90BF909B
:100A8000089590E080E0F3CF8FE090E0F0CF83E135
:100A900090E0EDCF8CE090E0EACF8AE090E0E7CF05
:100AA00085E090E0E4CF89E090E0E1CF8BE090E05A
:100AB000DECF8DE090E0DBCF82E090E0D8CF80E128
:100AC00090E0D5CF8EE090E0D2CF88E090E0CFCF1D
:100AD00083E090E0CCCF84E190E0C9CF81E190E069
:100AE000C6CF87E190E0C3CF85E190E0C0CF87E03B
:100AF00090E0BDCF86E190E0BACF82E190E0B7CF41
:100B000086E090E0B4CF84E090E0B1CF89E190E05E
:100B1000AECF88E190E0ABCF3FB7F8948091380337
:100B200090913903A0913A03B0913B0326B5A89B5D
:100B300005C02F3F19F00196A11DB11D3FBFBA2F6F
:100B4000A92F982F8827BC01CD01620F711D811D2F
:100B5000911D42E0660F771F881F991F4A95D1F7B4
:100B600008958F929F92AF92BF92CF92DF92EF92B1
:100B7000FF924B015C010E948C056B017C010E947D
:100B80008C056C197D098E099F09683E73408105AB
:100B90009105A8F321E0821A9108A108B10888EE16
:100BA000C80E83E0D81EE11CF11C81149104A1043D
:100BB000B10429F7FF90EF90DF90CF90BF90AF90F6
:100BC0009F908F900895823039F120F461E0813058
:100BD00031F00895833061F060E08430D1F787E030
:100BE0000E94E20160E08DE00E94E20160E009C045
:100BF00060E087E00E94E20160E08DE00E94E20197
:100C000061E08CE00E94E20169E170E080E090E048
:100C10000E94B1050C94540461E087E00E94E20157
:100C200061E0E1CF2FB7F894609134037091350300
:100C300080913603909137032FBF0895209131039F
:100C4000309132032817390771F490913003809165
:100C50002F03981741F0E0913003F0E0E151FD4F90
:100C6000808190E008958FEF9FEF08950895EF92AF
:100C7000FF920F931F93CF93DF93DC015C96ED906F
:100C8000FC905D97E114F10479F481E090E0139613
:100C90009C938E93129790E080E0DF91CF911F910B
:100CA0000F91FF90EF9008955196ED91FC9152971E
:100CB00050968C915097982F90950FB75E962C91E7
:100CC0005E97122F127021FD6095F89420811123F8
:100CD00019F1282B2083E7012197F1F728E0462F0F
:100CE00050E0308160FF1AC0382B3083E701219734
:100CF000F1F7BA0175956795215089F7112381F0B5
:100D00008081892380830FBF5C968D919C91019790
:100D1000F1F781E090E0C1CF2923DCCF3923E5CF83
:100D20009081892BEFCF2091310330913203281726
:100D3000390771F480912F032091300390E0805C9B
:100D40009F4F821B910960E470E00E940132089578
:100D500090E080E00895209131033091320328170C
:100D60003907B9F49091300380912F03981789F0D7
:100D7000E0913003F0E0E151FD4F8081209130039C
:100D800030E02F5F3F4F2F7333272093300390E0E5
:100D900008958FEF9FEF0895E0913103F0913203B2
:100DA000E817F90769F4A389B4899C91858980952E
:100DB00089238C93109232031092310381E00895BD
:100DC00080E00895DC0113966C93139770E0FB01AB
:100DD000E452FF4FE4911696EC931697FB01E8530B
:100DE000FF4FE491F0E0EE0FFF1FE254FF4F8591BB
:100DF000949118969C938E9317970895FC01A38164
:100E0000B4819781408551859A01220F331F240FA9
:100E1000351F728583856FB7F8944C91592F509583
:100E20005423492BE72FF82FCF01820F931FE81788
:100E3000F90781F0219138E04C9300C027FF5C93C3
:100E4000220F00C000C000C008F45C9300C03A95B7
:100E500099F7EDCF6FBF789461E070E080E090E0AB
:100E60000C94B1050F93FC018085918568171906D4
:100E7000C0F4962F990F690F70E0A285B385A60F75
:100E8000B71F2C93A285B385A60FB71F11964C935D
:100E900082859385680F791FFB01028381E00F91A2
:100EA000089580E0FCCFCF92DF92EF92FF920F93F4
:100EB0001F93CF93DF937C01162FD42EC22ED0E048
:100EC000C0E0F70180859185C817D90748F40C2D3B
:100ED0002D2D412F6C2FC7010E9432072196F1CF93
:100EE00081E0DF91CF911F910F91FF90EF90DF9004
:100EF000CF900895DC01E62FF0E0EE0FFF1FE35DD9
:100F0000FE4F80818C93818111968C93119712965C
:100F10006C9308950F931F93CF938C01C62F0E945B
:100F20007A07EC2FF0E0EE0FFF1FE35DFE4F8181AB
:100F3000F8018383CF911F910F9108950F931F9311
:100F4000CF938C01C62F0E947A07EC2FF0E0EE0FB2
:100F5000FF1FE35DFE4F8181D80113968C93139799
:100F6000808114968C93149715961C92CF911F91A3
:100F70000F9108950F931F93CF938C01C62F0E945A
:100F80009E07EC2FF0E0EE0FFF1FE35DFE4F808128
:100F9000F80186831582CF911F910F9108950F93C9
:100FA0001F93CF938C01C62F0E947A07EC2FF0E09D
:100FB000EE0FFF1FE35DFE4F8081D80113968C93E7
:100FC0001397918114969C9361E00E94100261E056
:100FD000F8018481CF911F910F910C9410021F93FF
:100FE000CF93DF93EC01162F0E947A07E12FF0E0F8
:100FF000EE0FFF1FE35DFE4F81818B8380818C8329
:101000008B8160E00E9410028C8161E00E941002DE
:101010008C8160E0DF91CF911F910C94E201FC0183
:1010200090810180F281E02DF8948181292F209513
:101030008223818378943DE743E050E0315029F1E9
:10104000DA011197F1F780818923C1F3F894828145
:10105000822382838181892B81837894ABE7B7E0F7
:101060001197F1F7F894818182238183A3E1B1E0A4
:101070001197F1F78081982381E009F080E078945E
:10108000E3E6F6E03197F1F7089580E008950F93D5
:101090001F93CF93DF93EC01162F4F960E947A0790
:1010A000E12FF0E0EE0FFF1FE35DFE4F11810081A5
:1010B0001B821A8288EE93E0A0E0B0E08C839D83CF
:1010C000AE83BF838FE191E0998388831F8A1E8A54
:1010D000198E188E1B8E1A8E1D8E1C8E6E8D6E7F35
:1010E0006D7F6E8F6695617081E06827812F0E9409
:1010F000E20161E0812F0E941002812F90E0FC014B
:10110000E452FF4FE491E88BFC01E853FF4FE49178
:10111000F0E0EE0FFF1FEC54FF4F859194919A8BF6
:10112000898B60E0802F0E9410028E8D81FD04C0AB
:1011300061E0802F0E94E2010C87802F90E0FC018B
:10114000E452FF4FE491ED87FC01E853FF4FE49137
:10115000F0E0EE0FFF1FE254FF4F859194919F87BF
:101160008E878FE191E09983888383E08AA31B8E29
:101170001A8E198E188E1F8A1E8A85E690E09D8F22
:101180008C8F0631E0F581E290E09F8B8E8B83E6B9
:1011900090E0998F888F82E490E09B8F8A8F909166
:1011A000680084E0083048F021E00E3008F420E0C8
:1011B00081E001C0880F2A95EAF7892B80936800A7
:1011C0009C852DE630E0983050F02BE630E09E30E4
:1011D00030F02CE630E0963110F030E020E03C8B2F
:1011E0002B8B292F30E0983078F581E001C0880FF3
:1011F0009A95EAF78D8B8C8D9D8D0197F1F78A8DED
:101200009B8D892BE1F08091310390913203C817B7
:10121000D907A9F0009711F00E94CC068E8D8E7F21
:101220008E8F10922F0310923003D0933203C0930D
:101230003103EB89FC8980819D89892B8083DF9133
:10124000CF911F910F9108959E3040F4285031099D
:1012500081E001C0880F2A95EAF7CCCF2E503109E2
:10126000F7CFCF93DF93EC0160E08B810E941002F7
:101270008B81DF91CF910C943F04AF92BF92CF92BC
:10128000DF92EF92FF920F931F93CF93DF935C0156
:101290000AE010E0C12CD12C7601D0E0C0E0C501FD
:1012A0000E943109C817D90708F4EC01C80ED91EED
:1012B000E11CF11C0150110991F7D701C6018C1BEB
:1012C0009D0BA109B10923E0B695A7959795879540
:1012D0002A95D1F7DF91CF911F910F91FF90EF9059
:1012E000DF90CF90BF90AF9008951F93CF93DF937F
:1012F000EC01162F0E947A07E12FF0E0EE0FFF1F9E
:10130000E35DFE4F80818B8381818C838B8160E0E4
:101310000E9410028C8160E0DF91CF911F910C94AC
:1013200010028F929F92AF92BF92CF92DF92EF9274
:10133000FF920F931F93CF93DF937C010AE010E09D
:10134000812C912C5401D0E0C0E0CC24CA9433E02D
:10135000D32E60E0F70183810E941002F7018381A0
:101360000E943F049601281B390BC901C217D307FD
:1013700008F4E901880E991EA11CB11C0150110945
:1013800041F7D501C4018C1B9D0BA109B10923E0D4
:10139000B695A795979587952A95D1F7DF91CF9127
:1013A0001F910F91FF90EF90DF90CF90BF90AF9083
:1013B0009F908F90089590E080E00895CF93DF9301
:1013C000EC0161E08B810E9410028D818130C1F4BB
:1013D00087E592E00197F1F700C0000060E08C81A2
:1013E0000E94E20160E08B810E94E20161E08C8159
:1013F0000E94E20161E08B81DF91CF910C94E201C8
:1014000060E08C810E94E2019AE19A95F1F700C0B8
:1014100060E08B810E94E2018AE18A95F1F700C0C9
:1014200061E08C810E94E2019AE19A95F1F700C097
:1014300061E08B810E94E2018AE18A95F1F700C0A8
:10144000DF91CF9108951F93CF93DF93EC01162F77
:1014500061E08B810E9410028D818130D9F487E593
:1014600092E00197F1F700C0000060E0111161E027
:101470008B810E94E20161E08C810E94E20160E0C8
:101480008C810E94E20161E08B81DF91CF911F91FD
:101490000C94E2018B8160E0111161E00E94E20195
:1014A00061E08C810E94E2019AE19A95F1F700C017
:1014B00060E08C810E94E2018AE18A95F1F700C028
:1014C000E2CF1F93CF93DF93EC0160E08B810E940A
:1014D00010028D818130F1F487E592E00197F1F7F8
:1014E00000C0000061E08B810E94E20161E08C811C
:1014F0000E94E2018B810E94B90111E0892B09F45D
:1015000010E060E08C810E94E201812FDF91CF9199
:101510001F91089561E08B810E94E2019AE19A9502
:10152000F1F700C061E08C810E94E2018AE18A95B6
:10153000F1F700C08B810E94B90111E0892B09F4F9
:1015400010E060E08C810E94E2019AE19A95F1F747
:1015500000C0DBCF0F931F93CF93DF938C0160E02C
:10156000FC0183810E941002F8018581D8E081305E
:1015700009F587E592E00197F1F700C00000D8E097
:1015800061E0F80184810E94E201CC0FF8018381BF
:101590000E94B901892B09F0C16060E0F8018481E3
:1015A0000E94E201D15061F78C2FDF91CF911F9102
:1015B0000F91089561E0F80184810E94E201CC0F4F
:1015C000F80183810E94B901892B09F0C160FAE119
:1015D000FA95F1F700C060E0F80184810E94E20111
:1015E000FAE1FA95F1F700C0D15021F7DDCF0F9362
:1015F0001F93CF93DF93EC01162F61E08C810E9443
:10160000100261E08B810E9410028D81813019F1FE
:1016100008E08B8161E017FF60E00E94E2018AE14F
:101620008A95F1F700C0110F61E08C810E94E20100
:101630009AE19A95F1F700C060E08C810E94E20186
:101640008AE18A95F1F700C0015019F7DF91CF9137
:101650001F910F91089587E592E00197F1F700C07F
:10166000000008E08B8161E017FF60E00E94E2016A
:10167000110F61E08C810E94E20160E08C810E9488
:10168000E201015079F7E2CFCF93DF93EC018FE1D4
:1016900093E00197F1F700C00000CE010E94F70A25
:1016A00087EC90E00197F1F700C00000CE01DF91D8
:1016B000CF910C94610ACF93DF93EC0161E08C81B0
:1016C0000E94100261E08B810E9410028D818130A6
:1016D000C1F487E592E00197F1F700C0000061E0F6
:1016E0008B810E94E20161E08C810E94E20160E056
:1016F0008B810E94E20160E08C81DF91CF910C949C
:10170000E20161E08B810E94E2019AE19A95F1F792
:1017100000C061E08C810E94E2018AE18A95F1F7C4
:1017200000C060E08B810E94E2019AE19A95F1F796
:1017300000C060E08C810E94E2018AE18A95F1F7A5
:1017400000C0DF91CF9108950F931F93CF93DF9344
:10175000EC01162F0E945B0B62E5CE010E94F70A96
:10176000CE010E94610A612F6068CE010E94F70AD3
:10177000CE010E94610ACE010E945B0B63E5CE019F
:101780000E94F70ACE010E94610ACE010E94AA0AB5
:10179000182F60E0CE010E94230ACE010E94AA0AFF
:1017A000082F61E0CE010E94230ACE010E94DE09CB
:1017B000902F812FDF91CF911F910F9108950F935B
:1017C0001F93CF93DF93EC01162F042F0E945B0B26
:1017D00062E5CE010E94F70ACE010E94610A612FE4
:1017E0006068CE010E94F70ACE010E94610A602F54
:1017F000CE010E94F70ACE010E94610ACE010E942A
:10180000DE09802FDF91CF911F910F9108951F93D3
:10181000CF93DF93EC01162F0E945B0B612F660FB5
:10182000CE010E94F70A80EA8A95F1F7CE01DF9196
:10183000CF911F910C94610A4F925F926F927F92A9
:101840009F92AF92BF92CF92DF92EF92FF920F934F
:101850001F93CF93DF93CDB7DEB728970FB6F894D9
:10186000DEBF0FBECDBF7C01CE0101966C015E01D3
:1018700099E0A90EB11C992493940E941206F701D5
:1018800040845184628473846419750986099709B8
:10189000613171058105910508F09782F701878113
:1018A000882309F4B5C00E941206F701608771878A
:1018B00082879387178260E4C7010E94070C62EA5F
:1018C000C7010E94440B62EAC7010E94440B62EA0E
:1018D000C7010E94440B61E0C7010E94440BC7018D
:1018E0000E94DE09F701868160E00E941002F70184
:1018F000868190E0FC01E452FF4F6491FC01E853C3
:10190000FF4FE491F0E0EE0FFF1FE254FF4F85918F
:10191000949100E712E620E030E040E00E94652567
:10192000412C512C32016115710581059105B1F0F1
:101930002B013C01FFEF4F1A5F0A6F0A7F0A2FE06D
:1019400072228CE2481681E058066104710430F07E
:101950009CE2491A91E0590A61087108C301B20179
:101960000E94FB2FF7016487758786879787141479
:1019700015041604170434F084EA482E88E3582E20
:10198000612C712CC301B2010E94FB2F20E030E0DA
:1019900048E652E40E94512FF601619371938193BE
:1019A00091936F0162E170E080E090E00E94B105E8
:1019B000AC14BD0409F061CFC980DA80EB80FC80F3
:1019C0007D809E80AF80B884272D392DA501B6017A
:1019D000C7010E942A3187FF03C0C72CD92C75018B
:1019E000B601C70128960FB6F894DEBF0FBECDBF73
:1019F000DF91CF911F910F91FF90EF90DF90CF90EB
:101A0000BF90AF909F907F906F905F904F900895A0
:101A100064857585868597850E94C32F2B013C01BF
:101A2000A6CFFF920F931F93CF93DF93EC01F62E77
:101A3000042F122F60E50E94070C63EACE010E947A
:101A4000440B6F2DCE010E94440B602FCE010E94EB
:101A5000440B612FCE010E94440BCE01DF91CF9148
:101A60001F910F91FF900C94DE09CF92DF92FF92AD
:101A70000F931F93CF93DF9300D000D0CDB7DEB785
:101A80008C0161E70E94070C60EBC8010E94440BC7
:101A9000C8010E94DE096AE070E080E090E00E94E8
:101AA000B105C8010E945B0B63EEC8010E94F70AF2
:101AB000C8010E94610A34E0F32ECE0101966C0148
:101AC000FA94C801FF2051F00E94AA0AF6018193FE
:101AD0006F0160E0C8010E94230AF2CF0E94AA0AA7
:101AE000F82E8C8361E0C8010E94230AC8010E947D
:101AF000DE0989818A3AD9F4FBEBFF1218C08A818A
:101B000090E0982F88272B81820F911DF8019783F1
:101B10008683868197810F900F900F900F90DF91B1
:101B2000CF911F910F91FF90DF90CF90089581E0AA
:101B300090E0ECCFCF93DF93EC010E949E0781E011
:101B40008D83CE010E945B0B67EECE010E94440B99
:101B500060E8CE010E94440B64EACE010E94440B6F
:101B60006AE9CE010E94440B61E8CE010E94440B59
:101B700063E8CE010E94440BCE01DF91CF910C941B
:101B8000DE090F931F93CF93DF938C01D62FC42FC1
:101B90000E945B0B63E36D0F660FC8010E94F70A9A
:101BA000C8010E94610AC7FF11C0CF77EC2FF0E097
:101BB000E65FFE4F60816068C8010E94F70AC801B5
:101BC000DF91CF911F910F910C94DE09EC2FF0E083
:101BD000E65FFE4F6081F0CFCF93DF93EC010E9470
:101BE0005B0B68E4CE010E94F70ACE010E94610AF5
:101BF00061E3CE010E94F70ACE01DF91CF910C94F0
:101C0000DE090F931F93CF93DF93EC010E945B0BD0
:101C100062E5CE010E94F70ACE010E94610A62E9E4
:101C2000CE010E94F70ACE010E94610ACE010E94F5
:101C30005B0B63E5CE010E94F70ACE010E94610AA8
:101C4000CE010E94AA0A182F61E0CE010E94230A49
:101C5000CE010E94DE09143419F080E0103159F5EC
:101C600081E08E8319850A85412F61E0CE010E94B3
:101C7000DF0B19870A871F8108858E81811103C0B8
:101C8000CE010E94010E412F6FE0CE010E94DF0BBA
:101C90001F83088741E060E0CE010E94DF0B63E014
:101CA00070E080E090E00E94B10543E060E0CE018A
:101CB0000E94DF0B81E0DF91CF911F910F9108957A
:101CC000AF92BF92CF92DF92EF92FF920F931F934A
:101CD000CF93DF93EC015B016A0179018E81811161
:101CE00003C0CE010E94010E64E1CE010E94A40B4C
:101CF000F8019183808366E1CE010E94A40BF50177
:101D00009183808368E1CE010E94A40BF601918348
:101D100080836AE1CE010E94A40BF7019183808346
:101D200089859A85853D9105A1F180F40097D9F1C7
:101D3000803C910599F1DF91CF911F910F91FF9018
:101D4000EF90DF90CF90BF90AF900895863F9105C0
:101D5000D9F08F3F910541F08B3E910561F762E329
:101D600070E080E090E004C063E070E080E090E02C
:101D7000DF91CF911F910F91FF90EF90DF90CF9067
:101D8000BF90AF900C94B10568E170E080E090E006
:101D9000EFCF65E670E080E090E0EACF6AE970E0BE
:101DA00080E090E0E5CF6CEB72E080E090E0E0CF87
:101DB000CF92DF92EF92FF920F931F93CF93DF9317
:101DC000EC01162F7A01022F0E945B0B6E0182E458
:101DD000C80ED11CF6016081660FCE010E94F70A81
:101DE000CE010E94610A612FCE010E94F70ACE0146
:101DF0000E94610ACE010E94DE09F0E5FA95F1F732
:101E0000CE010E945B0BF6016081660F6160CE011E
:101E10000E94F70ACE010E94610A0150102F67014B
:101E2000115058F0CE010E94AA0AF60181936F0169
:101E300060E0CE010E94230AF3CF0E0D1F2D111D6D
:101E4000CE010E94AA0AF801808361E0CE010E94BF
:101E5000230ACE01DF91CF911F910F91FF90EF9058
:101E6000DF90CF900C94DE09CF93DF93EC01862FA7
:101E700090E09987888723E0629FC00111240E9427
:101E80002F329B878A87892B21F487E391E00E9478
:101E9000543390E080E0488559859A01220F331F22
:101EA000240F351F8217930738F4EA85FB85E80F66
:101EB000F91F10820196EFCFDF91CF9108951F9304
:101EC000CF93DF93EC01162F0E947A07E12FF0E009
:101ED000EE0FFF1FE35DFE4F8181282F30E0F901F7
:101EE000E452FF4FE491EF83F901E853FF4FE4918F
:101EF000F0E0EE0FFF1FEC54FF4F259134913C832F
:101F00002B8361E00E94100264E0CE01DF91CF914B
:101F10001F910C94340F2F923F924F925F926F92C9
:101F20007F928F929F92AF92BF92CF92DF92EF9269
:101F3000FF920F931F93CF93DF93CDB7DEB7A69792
:101F40000FB6F894DEBF0FBECDBFE82EF12C28EC03
:101F5000829F80011124045C1C4FD80114968C913F
:101F60001497803209F4E0C708F038C1843109F4CD
:101F7000F4C408F073C0853009F46DC348F58230AD
:101F800009F413C3843009F446C3813041F592E566
:101F900090932B0592E490932C0598E090932E0556
:101FA00025E020932F058093300586E0809331054E
:101FB00090932D05EBE2F5E082E395E010E02191AE
:101FC000120F8E179F07D9F71093320588E07BC355
:101FD000813109F4E5C3E0F4803109F477C3A696B2
:101FE0000FB6F894DEBF0FBECDBFDF91CF911F912A
:101FF0000F91FF90EF90DF90CF90BF90AF909F90A8
:102000008F907F906F905F904F903F902F900895AA
:10201000823109F40EC4833111F788EC8E9DF001F2
:102020008F9DF00D1124E45CFC4F85818A3F09F0FF
:1020300057C340858185542F482F70E060E096811A
:1020400087810E944C0261E080912A050E94100263
:1020500060E080912A050E94E20142C3893109F4BF
:102060003BC590F4863109F451C408F45EC488314C
:1020700009F0B5CF15968C91159780931D0516968E
:102080008C91809320052CC38C3109F4C2C508F0D3
:1020900062C08A3109F0A3CF15968C910E94E305A6
:1020A000099709F01DC38091F5049091F6040097FB
:1020B00009F068C586E090E00E942F328C0188EC20
:1020C0008E9DF0018F9DF00D1124E45CFC4F658125
:1020D000C8010E949E07F80115821093F604009330
:1020E000F50488EC8E9DF0018F9DF00D1124E45CC9
:1020F000FC4F1681113009F46CC5123009F47AC511
:102100001111EEC227818091F5049091F60440E010
:1021100027FF05C0332721950CF4309541E061E09D
:102120000E94110D88EC8E9DF0018F9DF00D112401
:10213000E45CFC4F20858091F5049091F60440E02A
:1021400027FF05C0332721950CF4309541E062E06C
:102150000E94110DDAC28E3109F46FC68F3109F079
:102160003ECF88EC8E9D80018F9D100D1124045C64
:102170001C4FF80185810E94E305439709F0B0C226
:10218000C090E704D090E804C114D10409F031C62E
:102190008CE090E00E942F326C01D80115966C9172
:1021A000C6010E945F0FD092E804C092E704C0907D
:1021B000E704D090E80488EC8E9DF0018F9DF00D2F
:1021C0001124E45CFC4F2185408567818681811163
:1021D0002BC6C6010E945307C601D2C2893A11F428
:1021E0000C946B1C08F0CBC0843A09F4A6C708F025
:1021F0006AC0823A09F43BC708F065C7813A09F022
:10220000EECEF80185810E94E305029709F0E7CE42
:1022100080911E0590911F05009709F003C780E18A
:1022200090E00E942F328C0188EC8E9DF0018F9DF2
:10223000F00D1124E45CFC4F6581C8010E94BA07CF
:1022400010931F0500931E0580911E0590911F0598
:102250000E941C0C20E030E040E251E40E94373143
:102260000E94C32F9B0142E540932B0542E440931B
:102270002C0548EC4E9DF0014F9DF00D1124E45CBF
:10228000FC4F438140932E0541E040932F05AB0165
:1022900077FF02C041505F4F50933005C90160E0A5
:1022A00071E00E9401328093310588E080932D0512
:1022B000EBE2F5E082E395E010E02191120F8E173A
:1022C0009F07D9F781CE863A11F40C947C1A08F452
:1022D000A5C7873A11F40C94DD1A883A09F07FCE2D
:1022E0008091F1049091F20428EC2E9D80012F9DA5
:1022F000100D1124045C1C4FF801D580009711F0DB
:102300000C94461B85E090E00E942F328C016D2DCD
:102310000E94EF071093F2040093F10482E580938A
:102320002B0582E480932C0510922D0588EC8E9D60
:10233000F0018F9DF00D1124E45CFC4F83818093AC
:102340002E0581E080932F05E091F104F091F204D5
:1023500083810E94B90121E0892B09F020E02093BC
:10236000300587E080932D05EBE2F5E081E395E011
:1023700010E02191120F8E179F07D9F768C18E3A8E
:1023800011F40C942A2108F0B2C08B3A11F40C9489
:10239000641F10F40C94621B8C3A11F40C94D51F3A
:1023A0008D3A09F01CCE8091D5049091D60448EC6A
:1023B0004E9D90014F9D300D1124A901445C5C4F4E
:1023C0006A01DA0115961C91009711F00C94B42360
:1023D00087E090E00E942F326C01612F0E949E07DF
:1023E00081E0F60185831682D092D604C092D5048E
:1023F0000091D5041091D60460E7C8010E94070C33
:1024000060EBC8010E94440BC8010E94DE09C801AC
:102410000E945B0B61EEC8010E94F70AC8010E948E
:10242000610AC8010E94AA0AB82E60E0C8010E9491
:10243000230AC8010E94AA0AD82E60E0C8010E949F
:10244000230AC8010E94AA0AC82E61E0C8010E949E
:10245000230AC8010E94DE09BAEABB120C94D723F2
:10246000EBEBCE120C94D723D8011696DC9282E5C2
:1024700080932B0582E480932C0588EC8E9DF001DF
:102480008F9DF00D1124E45CFC4F838180932E0519
:1024900081E080932F058D2DD5FA992790F990939F
:1024A0003005D4FA992790F990933105D3FA9927FA
:1024B00090F990933205D2FA992790F990933305C9
:1024C00086958170809334058D2D817080933505BC
:1024D0008CE080932D05EBE2F5E086E395E010E0DB
:1024E0002191120F8E179F07D9F70C94EF21803B93
:1024F00011F40C94CE2210F40C944722813B11F479
:102500000C942F23823B09F06ACD8091D9049091DD
:10251000DA0428EC2E9D80012F9D100D1124045CFF
:102520001C4FF801D580009711F00C94982384E09B
:1025300090E00E942F328C016D2D0E948A0710932B
:10254000DA040093D90482E580932B0582E480931A
:102550002C0510922D0588EC8E9DF0018F9DF00DBD
:102560001124E45CFC4F838180932E0581E08093ED
:102570002F050091D9041091DA04C8010E943D0989
:1025800090933005C8010E943D098093310588E091
:1025900080932D05EBE2F5E082E395E010E02191D8
:1025A000120F8E179F07D9F70FCD82E580932B0569
:1025B00082E480932C0510922D05F801838180938D
:1025C0002E058581823019F124F4813041F0E4E058
:1025D0000CC08330F1F08430D1F784E001C081E099
:1025E0000E94E30580932F05E5E081E08E0F809344
:1025F0002D05ABE2B5E090E010E02D91120F9F5F4A
:10260000E913FBCFF0E0E55DFA4F10835CC082E098
:10261000E7CF83E0E5CF82E580932B0582E48093CA
:102620002C0513968C9180932E0581E080932F05C5
:102630008093300587E080932D05EBE2F5E081E3A0
:1026400095E010E02191120F8E179F07D9F7109394
:10265000310587E038C082E580932B0582E48093C2
:102660002C0510922D05F801838180932E0581E0C1
:102670000E94E30580932F0582E00E94E30580938A
:10268000300583E00E94E3058093310584E00E94D9
:10269000E3058093320510923305109234051092B1
:1026A0003505109236058DE080932D05EBE2F5E0BF
:1026B00087E395E010E02191120F8E179F07D9F75D
:1026C000109337058DE00E94AB0089CC15961C91C4
:1026D0001C3F09F443C0112329F01B3F09F453C0E8
:1026E00010E013C088EC8E9DF0018F9DF00D112439
:1026F000E45CFC4F2085478166818FE095E00E9475
:1027000053078FE095E00E94FE0682E580932B053B
:1027100082E480932C0588EC8E9DF0018F9DF00D56
:102720001124E45CFC4F838180932E0595E081E0C9
:1027300080932F0586E080932D05EBE2F5E080E0A5
:102740002191120F8F5F8917D8F310933005809174
:102750002E05882309F443CC86E0B5CF88EC8E9D06
:10276000F0018F9DF00D1124E45CFC4F0085278162
:10277000468160E08FE095E00E9432078FE095E0AF
:102780000E94FE06ADCF88EC8E9DF0018F9DF00D6E
:102790001124E45CFC4F00852781468161E0EACF8B
:1027A000F80185818F3FD9F18823A1F08E3F09F090
:1027B00097CF88EC8E9DF0018F9DF00D1124E45C85
:1027C000FC4F6681062E000C770B880B990B0E943C
:1027D000BA0286CF17962C911797022E000C330B56
:1027E000440B550B16966C91062E000C770B880B3C
:1027F000990B0E942F04F8018681811171CF88EC1A
:102800008E9DF0018F9DF00D1124E45CFC4F17812B
:10281000111166CF10921D051092200576CF1696E5
:102820006C91062E000C770B880B990B0E94A1036C
:1028300057CFF80185810E94E305029709F050CF38
:1028400080911E0590911F050097E1F580E190E0D1
:102850000E942F328C0188EC8E9DF0018F9DF00D2F
:102860001124E45CFC4F6581C8010E94BA071093F3
:102870001F0500931E0588EC8E9DF0018F9DF00DC5
:102880001124E45CFC4FD084C780B68000911E0503
:1028900010911F0560E4C8010E94070C61EAC8019D
:1028A0000E94440B6B2DC8010E94440B6C2DC80183
:1028B0000E94440B6D2DC8010E94440BC8010E9468
:1028C000DE090ECFDC0112964C9128EC2E9D800182
:1028D0002F9D100D1124045C1C4FF8012581022E40
:1028E000000C330B4217130631F20E94CB3280E109
:1028F00090E00E942F326C01D80115966C910E94D5
:10290000BA07D0921F05C0921E05B5CFF801858188
:10291000893F09F0E5CE1681112321F081E08093F3
:10292000CD04DECE1092CD04F0CE16968C91882385
:1029300069F0813071F01092D1041092D20410929B
:10294000D3041092D4041092D004CACE1092210560
:10295000F2CF81E080932105EECFF80185810E94BE
:10296000E305039709F0BCCE8091FF049091000528
:10297000009709F09BC086E090E00E942F326C0126
:10298000D80115966C91C6010E949A0DD09200054F
:10299000C092FF04C090FF04D090000588EC8E9D8B
:1029A000F0018F9DF00D1124EE5BFC4F43E120817F
:1029B0008181322F282FC901969587958575957548
:1029C000220F331F2A7A3A7A822B932B9C01369559
:1029D00027953695279523733373880F991F880F92
:1029E000991F8C7C9C7C282B392BC901B4E09695CF
:1029F0008795BA95E1F78F709F7014E0220F331F0F
:102A00001A95E1F7207F307F822B932B9827892717
:102A10009827880F991F880F991F5FEF540F21E0A7
:102A200030E02C0F3D1F240F311DD9018C934250F3
:102A3000A1E0B0E0AC0FBD1FA50FB11D9C93329675
:102A40004F3F09F0B4CFC6010E945B0B67EEC60191
:102A50000E94440B60E0C6010E94440B8E010F5F90
:102A60001F4F5E01B5E1AB0EB11CF80121918F0142
:102A700030E0C90195958795959587958373220FC9
:102A8000331F220F331F2C7C822B90E0BC017595E5
:102A900067956575880F991F8A7A682BC6010E9411
:102AA000440BA016B10609F7C60109CFFC0142810B
:102AB000D80115962C91022E000C330B42171306E9
:102AC00009F468CF0E94CB3286E090E00E942F325A
:102AD0006C01F801658157CFF80185810E94E305FB
:102AE000059709F0FDCD8091F3049091F4040097CF
:102AF00061F585E090E00E942F326C01D8011596B7
:102B00006C91C6010E94CF07D092F404C092F304E6
:102B100083EA8093B00087E08093B10088EC8E9DBB
:102B2000F0018F9DF00D1124E45CFC4F16811130F3
:102B300009F1123019F11111D3CD008587810E945E
:102B40004301802F0E942301E0CDFC014281D80186
:102B500015962C91022E000C330B42171306F1F23E
:102B60000E94CB3285E090E00E942F326C01F80188
:102B70006581C7CF87810E944301B2CD87810E94C2
:102B80002301AECDDC0112964C9128EC2E9D8001E4
:102B90002F9D100D1124045C1C4FF8012581022E7D
:102BA000000C330B4217130609F49BCA0E94CB3268
:102BB00086E090E00E942F326C01D80115966C914E
:102BC0000E949E07F6011582D092F604C092F50489
:102BD00088CA27818091F5049091F60440E027FF90
:102BE00005C0332721950CF4309541E061E00E9447
:102BF000110D76CD20858091F5049091F60440E08A
:102C000027FF05C0332721950CF4309541E062E0A1
:102C1000EECF15968C910E94E3050B9709F060CDDD
:102C2000C090EF04D090F004C114D10409F0B4C0F6
:102C300083E290E00E942F326C01F80165810E94CE
:102C40004708D092F004C092EF040091EF04109175
:102C5000F00488EC8E9DF0018F9DF00D1124E45C52
:102C6000FC4FD680D80192962C9192978D2D0D2CE9
:102C7000000C990B2817190659F19296DC928AEAF2
:102C80008093B40282E08093B50281E08093B60223
:102C9000D092B70286E58D258093B802F4EBAF2E73
:102CA000F2E0BF2EA9EB8A2EA2E09A2EF5016191E7
:102CB0005F01C8010E9437068A149B04B9F7D80146
:102CC0009296DC9262E370E080E090E00E94B105B1
:102CD00088EC8E9DF0018F9DF00D1124E45CFC4F7B
:102CE000808597812AEA2093B4029093B50221E06F
:102CF0002093B6028093B702892794E589278093B1
:102D0000B80274EBC72E72E0D72EE9EBAE2EE2E0EC
:102D1000BE2EF60161916F01C8010E943706AC1406
:102D2000BD04B9F762E370E080E090E00E94B10575
:102D3000C8010E94CC060115110559F08FE191E000
:102D4000D8018D939C93C8010E94CC06C8010E94B3
:102D5000CB321092F0041092EF0488EC8E9D80012B
:102D60008F9D100D1124045C1C4FD8011596EC9119
:102D7000EE0FFF0BE35DFE4F60E080810E941002CA
:102D8000D8011596EC91EE0FFF0BE35DFE4F60E06E
:102D900081810E941002A4CCD60191962C9191972A
:102DA000F8018581082E000C990B2817190609F4E3
:102DB0004CCF8FE191E08D939C93C6010E94CC068D
:102DC000C6010E94CB3283E290E00E942F328C0138
:102DD00088EC8E9DF0018F9DF00D1124E45CFC4F7A
:102DE0006581C8010E9447081093F0040093EF0426
:102DF0002CCFF6012281D80115968C91082E000C5B
:102E0000990B2817190609F4D2C9828593850E9467
:102E1000CB32C6010E94CB328CE090E00E942F3270
:102E20006C01F8016581BCC98150022F242F462F07
:102E3000682FC6010E943207CFC915968C910E9457
:102E4000E305429709F04CCC8091E5049091E604AB
:102E5000009709F049C086E090E00E942F328C0173
:102E600088EC8E9DF0018F9DF00D1124E45CFC4FE9
:102E70006581C8010E949E07F80115821093E6043F
:102E80000093E504C8010E94EC0D88EC8E9D800142
:102E90008F9D100D1124045C1C4FD80116964C9187
:102EA00061E08091E5049091E6040E94C10DF80173
:102EB000478162E08091E5049091E6040E94C10D93
:102EC000D80118964C9163E08091E5049091E60456
:102ED0000E94C10DF801418564E08091E504909164
:102EE000E6040E94C10DFCCBDC0112964C9158EC1B
:102EF0005E9D90015F9D300D1124F901E45CFC4F53
:102F00006F012581022E000C330B4217130609F4C2
:102F1000BCCF0E94CB3286E090E00E942F328C0121
:102F2000D60115966C91A5CF15968C910E94E3055C
:102F3000499709F0D5CB8091D7049091D804009798
:102F4000D9F585E090E00E942F326C01F80165818F
:102F50000E94CF07D092D804C092D70461E0D60176
:102F600013968C910E94100261E0F60184810E9408
:102F70001002C090D704D090D80488EC8E9DF00148
:102F80008F9DF00D1124E45CFC4F1781A680A09466
:102F9000B12C61E0111135C0F60183810E9410024D
:102FA00060E0D60114968C910E941002B501F601E2
:102FB00083810E944403A9CBDC0112964C91F80155
:102FC0002581022E000C330B4217130691F20E944A
:102FD000CB3285E090E00E942F326C01D80115962B
:102FE0006C910E94CF07D092D804C092D70461E0C0
:102FF000F60183810E94100261E0D60114968C9143
:10300000B6CFD60114968C910E94100260E0F601B2
:1030100083810E941002B501D60114968C910E9402
:1030200044035ECBDC0112964C9128EC2E9D80016E
:103030002F9D100D1124045C1C4FF8012581022ED8
:10304000000C330B4217130609F4FEC80E94CB3262
:1030500080E190E00E942F326C01D80115966C91AE
:103060000E94BA07D0921F05C0921E05EDC8F80154
:103070008581893F11F00C94EF0F82E580932B0539
:1030800082E480932C0510922D05838180932E0578
:1030900011E010932F0588E00E94B901019781F497
:1030A0001092300587E080932D05EBE2F5E081E397
:1030B00095E010E02191120F8E179F07D9F7C7CA2C
:1030C00010933005EFCF15968C918D3F11F00C9435
:1030D000EF0F85E10E943F0422E3FC012E9FC00117
:1030E0002F9F900D112422E520932B0522E420939D
:1030F0002C05D80113962C9120932E0521E02093C6
:103100002F056FEF73E00E940132CB0160E071E0A8
:103110000E940132982F990F890F8093300587E024
:1031200080932D05EBE2F5E081E395E010E021913D
:10313000120F8E179F07D9F78ACA8091FD049091CC
:10314000FE04F801D580009709F04EC085E090E0BC
:103150000E942F328C016D2D0E9475091093FE0480
:103160000093FD0482E580932B0582E480932C0577
:1031700010922D0588EC8E9DF0018F9DF00D11248D
:10318000E45CFC4F838180932E0581E080932F05C2
:103190000091FD041091FE04D80113968C910E94B9
:1031A000B9017C01F80184810E94B901AC0121E0E0
:1031B00030E0EF2811F430E020E0220F331F91E0DF
:1031C000452B09F490E0922B9093300587E0809393
:1031D0002D05EBE2F5E081E395E010E02191120F7F
:1031E0008E179F07D9F733CADC0112962C916D2DEB
:1031F000DD0C770B2617170609F4B4CF0E94CB32EB
:1032000085E090E00E942F326C01F80165810E94F8
:103210007509D092FE04C092FD04A4CF15968C913E
:103220000E94E305069711F00C94EF0F8091FB04C8
:103230009091FC04009709F03EC186E090E00E9466
:103240002F326C0188EC8E9DF0018F9DF00D1124C2
:10325000E45CFC4F1581612FC6010E947A07E12FC3
:10326000F0E0EE0FFF1FE35DFE4F8181F6018583E5
:10327000D092FC04C092FB040091FB041091FC046A
:103280009E012F5F3F4F190185E0D9011D928A955C
:10329000E9F761E0F80185810E94100261E0D80140
:1032A00015968C910E94E2016AEF70E080E090E058
:1032B0000E94B10560E0F80185810E94E20164E1AD
:1032C00070E080E090E00E94B10561E0D8011596C1
:1032D0008C910E94E2018BE990E00197F1F760E0A8
:1032E000F80185810E94E20183E290E00197F1F705
:1032F0000E9412064B015C0162E0D80115968C9188
:103300000E941002F80185810E94B901019789F09D
:103310000E941206681979098A099B0965307105AE
:103320008105910578F3D80113961C921397149692
:103330001C920E9412064B015C0162E0F80185813B
:103340000E941002D80115968C910E94B901892B18
:1033500059F00E941206681979098A099B0965309B
:1033600071058105910570F3D12CC12C0E941206C4
:103370004B015C0162E0F80185810E941002D801D6
:1033800015968C910E94B901892B59F40E9412065E
:10339000681979098A099B096530710581059105CC
:1033A00070F30E948C054B015C010E9412062B01F8
:1033B0003C0162E0F80185810E941002D801159657
:1033C0008C910E94B901019759F40E941206641968
:1033D000750986099709653071058105910570F3B6
:1033E0000E948C05F60123E0F595E7952A95E1F713
:1033F000E20DF31D2081220FAB01BC0148195909D0
:103400006A097B09493251056105710508F472C0EA
:10341000822F81608083BFEFCB1ADB0AE8E2CE16F1
:10342000D10409F0A3CF59814B816D818A81850F29
:103430009927991F9C01240F311D8C81820F932F96
:10344000911D99276817190631F4D80113965C93DA
:10345000139714964C9382E580932B0582E4809316
:103460002C0588EC8E9DF0018F9DF00D1124E45CFD
:10347000FC4F838180932E0581E080932F05F80116
:1034800083818093300510923105848180933205C9
:10349000109233058AE080932D05EBE2F5E084E39A
:1034A00095E010E02191120F8E179F07D9F7109326
:1034B00034058AE008C9DC0112964C9128EC2E9D57
:1034C00080012F9D100D1124045C1C4FF8012581F3
:1034D000022E000C330B4217130609F4CDCE0E94C6
:1034E000CB3286E090E00E942F326C01D801159615
:1034F0001C91B1CE20838FCF8091F9049091FA0472
:103500001596DC90009709F03FC084E090E00E949F
:103510002F328C016D2D0E948A071093FA040093BC
:10352000F90482E580932B0582E480932C051092A8
:103530002D0588EC8E9DF0018F9DF00D1124E45C2B
:10354000FC4F838180932E0581E080932F050091AD
:10355000F9041091FA04C8010E9491099093300572
:10356000C8010E9491098093310588E080932D0560
:10357000EBE2F5E082E395E010E02191120F8E1767
:103580009F07D9F70C94E40FFC0122816D2DDD0C0F
:10359000770B2617170629F20E94CB3284E090E0C1
:1035A0000E942F326C01D80115966C910E948A07F7
:1035B000D092FA04C092F904B4CF8091F7049091AC
:1035C000F804F8011581009709F03FC084E090E00D
:1035D0000E942F326C01612F0E948A07D092F8045A
:1035E000C092F70482E580932B0582E480932C053A
:1035F00010922D0588EC8E9DF0018F9DF00D112409
:10360000E45CFC4F838180932E0581E080932F053D
:103610000091F7041091F804C8010E943D099093AD
:103620003005C8010E943D098093310588E08093F0
:103630002D05EBE2F5E082E395E010E02191120F19
:103640008E179F07D9F70C94E40FDC0112962C918A
:10365000612F110F770B2617170621F20E94CB322C
:1036600084E090E00E942F328C0188EC8E9DF00166
:103670008F9DF00D1124E45CFC4F6581C8010E9410
:103680008A071093F8040093F704ACCFDC0112967C
:103690002C916D2DDD0C770B2617170611F40C9469
:1036A0008E110E94CB3285E090E00E942F326C0197
:1036B000F80165810E94EF07D092F204C092F104F4
:1036C0000C948E1115968C910E94E3050D9711F0C4
:1036D0000C94EF0FC090EB04D090EC04F8018581BE
:1036E000C114D10409F083C00E94E3050D9731F5A0
:1036F0008BE090E00E942F328C0188EC8E9DF001CF
:103700008F9DF00D1124E45CFC4F6581C8010E947F
:103710009E07D80116961C9216978BEE90E01A968B
:103720009C938E93199718961C921E92179710933C
:10373000EC040093EB04C8010E94010E28EC2E9DBE
:10374000C0012F9D900D1124FC01E45CFC4F5F0132
:10375000D680F1E0DF125EC08E01075E1F4F9E0132
:103760002F5F3F4FAE014B5E5F4FBE01695E7F4FE3
:103770008091EB049091EC040E94600E82E58093AE
:103780002B0582E480932C05D50113968C918093B0
:103790002E05D0922F05D09230058F89988D909369
:1037A0003105809332058D899E89909333058093EE
:1037B000340589819A819093350580933605898DEA
:1037C0009A8D90933705809338058FE080932D056F
:1037D000EBE2F5E089E395E010E02191120F8E17FE
:1037E0009F07D9F7109339058FE00C946313F60106
:1037F0009281282F082E000C330B9217130609F420
:103800009DCF0E94E3050D9709F098CFC6010E9455
:10381000CB326ECFB2E0DB120C94EF0F6090EB0472
:103820007090EC0416E0912ED12CC12CB12CA12C5F
:103830008E010F5F1F4F9E012B5E3F4FAE01495E11
:103840005F4FBE01675E7F4FC3010E94600E89819A
:103850009A81A816B90608F45C01C80ED91E9A947C
:103860009110E6CFCA18DB08C60196958795969504
:1038700087959A83898392E590932B0592E49093A0
:103880002C0598EC9E9DF0019F9DF00D1124E45CA9
:10389000FC4F938190932E0591E090932F0592E039
:1038A000909330059D2D9695969590933105809334
:1038B000320589E080932D05EBE2F5E083E395E0A6
:1038C00010E02191120F8E179F07D9F7109333053F
:1038D00089E00C946313F80185810E94E3050E973B
:1038E00011F00C94EF0FC090E904D090EA04C114D9
:1038F000D10409F08AC2D80115968C910E94E30583
:103900000E97D9F484E490E00E942F326C01F80104
:1039100065810E949E0781E0D60115968C93F60181
:10392000EE5BFF4F88E690E091838083D092EA04BB
:10393000C092E904C6010E94D3250091E9041091C8
:10394000EA04A8014C5C5F4F2EE06BE3C8010E94C3
:10395000D80EF80124A835A832242324322433A217
:1039600022A2A6A8B7A8BA24AB24BA24B5A2A4A2BE
:10397000C0ACD1ACDC24CD24DC24D7A2C6A24680C6
:1039800057806084718464AD75AD7627672776278C
:10399000072E000C880B990B0E94FB2FD8019896DC
:1039A0002D913D914D915C919B970E946D2EA301AD
:1039B00092010E94512FF801668B778B808F918F37
:1039C00066AD77AD762767277627072E000C880B24
:1039D000990B0E94FB2FD8019C962D913D914D9102
:1039E0005C919F970E946D2EA30192010E94512F1E
:1039F000F801628F738F848F958FE05CFF4F608139
:103A00007181762767277627072E000C880B990B84
:103A10000E94FB2FD801D0962D913D914D915C9144
:103A2000D3970E946D2EA30192010E94512FF8019D
:103A3000668F778F80A391A3B501BB0C880B990B80
:103A40000E94FB2F4B015C01B601DD0C880B990B2A
:103A50000E94FB2F9B01AC010E9437316B8F7C8F42
:103A60008D8F9E8FA5019401C501B4010E9437314D
:103A70002B8D3C8D4D8D5E8D0E946E2E0E94AA3145
:103A80006F8F78A389A39AA3B101330C880B990B8C
:103A90000E94FB2F2B013C012F8D38A149A15AA177
:103AA0000E94ED2E20E030E044E353E40E943731E1
:103AB0002AED3FE049E450E40E94512F6F8F78A334
:103AC00089A39AA3A3019201C301B2010E943731D5
:103AD0002B8D3C8D4D8D5E8D0E946E2E0E94AA31E5
:103AE0009B01AC01C501B4010E94ED2E20E030E045
:103AF00044E353E40E9437312AED3FE049E450E4C7
:103B00000E94512F6B8F7C8F8D8F9E8F0E9412068B
:103B10008090BE029090BF02A090C002B090C102FF
:103B2000681979098A099B090E94F92F20E030E081
:103B30004AE754E40E94512F4B015C010E94120697
:103B40006093BE027093BF028093C0029093C10243
:103B5000D80196968D919C919797181619060CF09E
:103B60006AC15A962D913D914D915C915D97C50129
:103B7000B4010E9437319B01AC01F8016285738565
:103B8000848595850E946D2ED8011A966D937D933C
:103B90008D939C931D9756962D913D914D915C91DF
:103BA0005997C501B4010E9437319B01AC01F8015E
:103BB00066857785808991890E946E2ED8011E9630
:103BC0006D937D938D939C935197D8015E962D9123
:103BD0003D914D915C919197C501B4010E9437319F
:103BE000F80122893389448955890E946E2E2B0160
:103BF0003C0120E030E044EB53E40E94512F0E944E
:103C0000363020E030E044EB53E40E9437319B0132
:103C1000AC01C301B2010E946D2ED80152966D9382
:103C20007D938D939C93559720E030E040E05FE3D7
:103C3000C501B4010E946E2E9B01AC0160E070E0F2
:103C400080E09FE30E94512F4B015C01AC019B017E
:103C500060E070E080E89FE30E946D2E2B013C0144
:103C6000F8012285338544855585C501B4010E943C
:103C700037316BA37CA38DA39EA3A30192016F8D0B
:103C800078A189A19AA10E9437319B01AC016BA157
:103C90007CA18DA19EA10E946E2ED8011A966D93D3
:103CA0007D938D939C931D971E962D913D914D91E3
:103CB0005C915197C501B4010E9437314B015C0101
:103CC000A30192016B8D7C8D8D8D9E8D0E9437316D
:103CD0009B01AC01C501B4010E946E2EF8016687FC
:103CE0007787808B918B82E580932B0582E480938C
:103CF0002C0510922D0588EC8E9DF0018F9DF00D06
:103D00001124E45CFC4F838180932E0581E0809335
:103D10002F05768070923005E6E0781267C000913A
:103D2000E9041091EA04D8011A966D917D918D9164
:103D30009C911D97905820E030E048EC52E40E949E
:103D400037310E94C32F4B015C01F80166857785EE
:103D500080899189905820E030E048EC52E40E943C
:103D600037310E94C32F6B017C0120E030E048EC2A
:103D700052E4D80152966D917D918D919C91559709
:103D80000E9437310E94C32F181419041A041B040F
:103D90000CF483C0B094A09490948094811C911CE6
:103DA000A11CB11C1092310590923205809233050E
:103DB0001C141D041E041F040CF472C0F094E09443
:103DC000D094C094C11CD11CE11CF11C109234058C
:103DD000D0923505C092360597FD66C021E020934C
:103DE00037057093380560933905EFE081E08E0F59
:103DF00080932D05ABE2B5E090E010E02D91120F1D
:103E00009F5FE913FBCF0C940213F8018581D60163
:103E100012969C91282F082E000C330B9217130634
:103E200009F48BCD0E94E3050E9709F086CDC601FB
:103E30000E94CB3267CDF801228D338D448D558D94
:103E4000C501B4010E9437319B01AC01D8011A961B
:103E50006D917D918D919C911D970E946E2EF80120
:103E6000628773878487958726893789408D518D2E
:103E7000C501B4010E9437319B01AC01D8011E96E7
:103E80006D917D918D919C9151970E946D2EF801BD
:103E900066877787808B918B98CE7092310584CF1F
:103EA00021E02093340594CF9B01AC01882799270A
:103EB000DC01821B930BA40BB50B1092370590937A
:103EC00038058093390591CF8091C6029091C70241
:103ED0001596DC90009709F046C088E090E00E94BB
:103EE0002F328C016D2D0E949E0781E0F8018583A1
:103EF000178216821093C7020093C60282E5809350
:103F00002B0582E480932C0510922D0588EC8E9D64
:103F1000F0018F9DF00D1124E45CFC4F83818093B0
:103F20002E0581E080932F058091C6029091C702F3
:103F30000E94350D909330058091C6029091C70282
:103F40000E94350D8093310588E080932D05EBE2CA
:103F5000F5E082E395E010E02191120F8E179F07A4
:103F6000D9F70C94E40FDC0112962C916D2DDD0C29
:103F7000770B2617170611F20E94CB3288E090E0EB
:103F80000E942F326C01F80165810E949E0781E03A
:103F9000D60115968C93159717961C921E9216971C
:103FA000D092C702C092C602A9CF8091E30490913B
:103FB000E404F8011581009709F09BC089E090E0C6
:103FC0000E942F326C01612FC6010E947A07E12FF7
:103FD000F0E0EE0FFF1FE35DFE4F8081D6011496E7
:103FE0008C931497818115968C93D092E404C0929F
:103FF000E3040091E3041091E40488EC8E9DF00149
:104000008F9DF00D1124E45CFC4F8681813009F016
:104010008AC0F8016481C8010E94E2066801B6E026
:10402000CB0ED11CC6010E940F08811183C060E035
:1040300070E0CB0120E030E048EC52E40E943731E0
:104040004B015C0182E580932B0582E480932C0573
:1040500088EC8E9DF0018F9DF00D1124E45CFC4FE7
:10406000838180932E0511E010932F0520E030E02E
:10407000A901C501B4010E942A3187FDE0C0109357
:10408000300520E030E0A901C501B4010E942A31C9
:1040900018160CF0D7C0C501B4010E94C32F9B01B4
:1040A00077FF02C021503F4F3093310520E030E0D0
:1040B000A901C501B4010E942A3118160CF0C6C02E
:1040C000C501B4010E94C32FCB0160E071E00E94E2
:1040D00001328093320589E080932D05EBE2F5E013
:1040E00083E395E010E02191120F8E179F07D9F717
:1040F000EDCBFC012281612F110F770B26171706DC
:1041000009F477CF0E94CB3289E090E00E942F32F1
:104110006C0188EC8E9DF0018F9DF00D1124E45C04
:10412000FC4F158150CF823009F078CFD801159619
:104130006C9171CF6CECC6010E94BC0064E4C601B6
:104140000E94BC000E9412062B013C01F3E2AF2E3C
:10415000B12CF80186810780F085E02D2181982F10
:10416000909592239183D5011197F1F7908189233E
:1041700009F458C0C6010E940F086CECC6010E94E9
:10418000BC006EEBC6010E94BC009E012F5F3F4F3A
:1041900029015E0136E0A30EB11C47E050E063E266
:1041A00070E0EFECCE2ED12C88E090E0812C7724CB
:1041B0007394D80116969C9016971796ED91FC91E2
:1041C000F8942181292921833281692C6094362138
:1041D0003283DA011197F1F7218126212183DB0156
:1041E0001197F1F720817894F6013197F1F7922237
:1041F00009F08728770C0197E1F6F20181922F01EF
:10420000AE16BF0689F669817A81072E000C880BED
:10421000990B0E94FB2F20E030E040E85DE30E9414
:10422000373108CF0E94120664197509860997096B
:10423000613971408105910508F48BCFF8CE109259
:1042400030051FCFC501B401905827CFC501B40177
:10425000905838CF8091E1049091E2041596DC905B
:10426000009709F0C1C085E090E00E942F328C01D8
:104270006D2D0E947A07ED2DF0E0EE0FFF1FE35D3C
:10428000FE4F8181D80113968C93139780811496E9
:104290008C931093E2040093E104C090E104D09069
:1042A000E20460E0F60183810E941002D6011396B9
:1042B0008C910E943F049C01205D3240121613062F
:1042C0000CF0BBC04BE0429FC001439F900D1124F6
:1042D00066E070E00E9401320091C2021091C302B8
:1042E000060F171F013EB1E01B070CF0AFC00032F4
:1042F000EEEF1E070CF4ADC0C801C19683369105E0
:1043000008F4AAC060E0D60114968C910E941002B5
:10431000F60184810E943F049C01205D3240121608
:1043200013060CF09CC045EF4203C001439F900D63
:10433000112466E070E00E9401328091C4029091E5
:10434000C502680F791F613E51E075070CF094C0FB
:1043500060328EEF78070CF492C0CB01C1968336A1
:10436000910508F48FC082E580932B0582E4809349
:104370002C0588EC8E9DF0018F9DF00D1124E45CDE
:10438000FC4F838180932E0581E080932F0517FDDC
:104390007CC08093300517FF03C01195019511096A
:1043A000109331050093320581E077FD82E0809320
:1043B000330577FF03C071956195710970933405DA
:1043C000609335058CE080932D05EBE2F5E086E304
:1043D00095E010E02191120F8E179F07D9F71093E7
:1043E00036058CE00C946313FC0122816D2DDD0CED
:1043F000770B2617170609F450CF0E94CB3285E0C1
:1044000090E00E942F326C01D80115961C91612F0B
:104410000E947A07E12FF0E0EE0FFF1FE35DFE4FF1
:104420008181D60113968C931397808114968C9377
:10443000D092E204C092E10430CF47E0429FC00135
:10444000439F900D11246AE070E044CF00EE11E02C
:1044500059CF00E21EEF56CF10E000E053CFC90164
:1044600043E0880F991F4A95E1F7A901481B590BB2
:10447000CA016AE070E05FCF60EE71E074CF60E285
:104480007EEF71CF70E060E06ECF82E082CF8091EE
:10449000DF049091E00415961C91009709F064C028
:1044A00085E090E00E942F326C01612FC6010E94CE
:1044B0007A07E12FF0E0EE0FFF1FE35DFE4F8081F2
:1044C000D60113968C931397818114968C93D09276
:1044D000E004C092DF0482E580932B0582E48093A0
:1044E0002C0510922D0588EC8E9DF0018F9DF00D0E
:1044F0001124E45CFC4F838180932E0581E080933E
:104500002F05E090DF04F090E00460E0F701848183
:104510000E941002D70114968C910E943F040FEF65
:1045200013E0F801E81BF90BCF019093300560E030
:10453000D70114968C910E941002F70184810E9489
:104540003F04081B190B0093310588E080932D056B
:10455000EBE2F5E082E395E010E02191120F8E1777
:104560009F07D9F70C94E40FFC012281612F110FF2
:10457000770B2617170609F4AECF0E94CB3285E0E1
:1045800090E00E942F326C0188EC8E9DF0018F9D8F
:10459000F00D1124E45CFC4F158187CF8091DD0480
:1045A0009091DE041596DC90009709F03FC084E0FE
:1045B00090E00E942F328C016D2D0E948A0710938B
:1045C000DE040093DD0482E580932B0582E4809372
:1045D0002C0510922D0588EC8E9DF0018F9DF00D1D
:1045E0001124E45CFC4F838180932E0581E080934D
:1045F0002F050091DD041091DE04C8010E943109ED
:1046000090933005C8010E9431098093310588E0FC
:1046100080932D05EBE2F5E082E395E010E0219137
:10462000120F8E179F07D9F70C94E40FFC0122811B
:104630006D2DDD0C770B2617170629F20E94CB3261
:1046400084E090E00E942F326C01D80115966C91A5
:104650000E948A07D092DE04C092DD04B4CF80911C
:10466000DB049091DC04F8011581009709F03FC04C
:1046700084E090E00E942F326C01612F0E948A0733
:10468000D092DC04C092DB0482E580932B0582E4A7
:1046900080932C0510922D0588EC8E9DF0018F9D46
:1046A000F00D1124E45CFC4F838180932E0581E0A2
:1046B00080932F050091DB041091DC04C8010E9457
:1046C0003D0990933005C8010E943D098093310552
:1046D00088E080932D05EBE2F5E082E395E010E0C1
:1046E0002191120F8E179F07D9F70C94E40FDC016C
:1046F00012962C91612F110F770B2617170621F2B6
:104700000E94CB3284E090E00E942F328C0188EC32
:104710008E9DF0018F9DF00D1124E45CFC4F6581AE
:10472000C8010E948A071093DC040093DB04ACCF1D
:10473000DC0112962C916D2DDD0C770B26171706D8
:1047400011F40C94A3120E94CB3284E090E00E94FA
:104750002F326C01F80165810E948A07D092DA0439
:10476000C092D9040C94A312DC0112962C91612FF3
:10477000110F770B2617170611F40C94F8110E94ED
:10478000CB3287E090E00E942F328C01F6016581E8
:104790000E949E0781E0D80115968C931597169676
:1047A0001C921093D6040093D5040C94F811D12CCC
:1047B0000C9437121F920F920FB60F9211242F9361
:1047C0003F938F939F93AF93BF93809134039091C6
:1047D0003503A0913603B09137033091330323E0C2
:1047E000230F2D3758F50196A11DB11D20933303DA
:1047F0008093340390933503A0933603B09337032B
:104800008091380390913903A0913A03B0913B0312
:104810000196A11DB11D8093380390933903A09395
:104820003A03B0933B03BF91AF919F918F913F911A
:104830002F910F900FBE0F901F90189526E8230F11
:104840000296A11DB11DD2CF1F920F920FB60F92EB
:1048500011242F933F934F935F936F937F938F9385
:104860009F93AF93BF93EF93FF93E0913103F09148
:104870003203309749F0A685B7858585968D91FFDF
:1048800014C09C918923A1F4FF91EF91BF91AF9146
:104890009F918F917F916F915F914F913F912F9158
:1048A0000F900FBE0F901F9018959C91892361F770
:1048B000A389B4899C918589809589238C93868965
:1048C00097890197F1F7608D718DA685B78555851C
:1048D00038E020E0CB010197F1F7822F90E0959529
:1048E0008795282F4C91452309F02068315091F786
:1048F000868D81FD209580912F0390E001968F7326
:10490000992730913003381799F0A0912F03B0E028
:10491000A151BD4F2C9380932F03828D938D0197CE
:10492000F1F7A389B4898C919589892B8C93ACCFAD
:10493000868D8160868FF1CF1F920F920FB60F92F6
:1049400011242F933F938F939F93EF93FF93809125
:10495000EE0287FF1FC010928500109284008091A4
:10496000EE028F5F8093EE028091EE0287FF04C01B
:104970008091EE028C30ACF08091840090918500A3
:10498000049680349C4990F1809184009091850038
:1049900004962EC08091EE0287FFE1CF8091EE0257
:1049A000DECF2091840030918500E091EE028E2FC1
:1049B000EE0F990BFC01EE0FFF1FE80FF91FE653F6
:1049C000FD4F81819281820F931F90938900809384
:1049D00088008091EE02FF91EF919F918F913F911E
:1049E0002F910F900FBE0F901F90189580E49CE9B7
:1049F00090938900809388008FEF8093EE02EBCF35
:104A00001F920F920FB60F9211242F933F938F9303
:104A10009F93AF93BF93EF93FF939091C6008091C4
:104A2000C90281111BC0923561F4E091C80238ECD3
:104A3000E39FF0011124E45CFC4F908381E08093BC
:104A4000C902FF91EF91BF91AF919F918F913F91DB
:104A50002F910F900FBE0F901F901895813081F409
:104A6000923459F4E091C80288ECE89FF0011124D7
:104A7000E45CFC4F918382E0E2CF1092C902E1CF67
:104A80002091C80238EC239FF0011124E45CFC4F14
:104A9000DF01A80FB11D9C938F5F8093C9029281A3
:104AA000891710F4883C68F21092C9028091CC04F6
:104AB000222331F01092C80282608093CC04C1CFCF
:104AC00091E09093C8028160F8CFCF92DF92EF928D
:104AD000FF920F931F93E82FF92F05C00150110982
:104AE0002109310961F1908196239417B9F305C02A
:104AF000015011092109310911F190819623941374
:104B0000F7CFC12CD12CE12CF12C0AC08FEFC81AA1
:104B1000D80AE80AF80A0C151D052E053F0579F09C
:104B200080818623841791F36C2D7D2D8E2D9F2DF2
:104B30001F910F91FF90EF90DF90CF90089560E06C
:104B400070E080E090E01F910F91FF90EF90DF9078
:104B5000CF9008950F931F93CF93DF93EC01062F0F
:104B6000142F0E945B0BFE01EE5BFF4F6081660F0E
:104B7000CE010E94F70ACE010E94610A602FCE0189
:104B80000E94F70ACE010E94610A612FCE010E94A5
:104B9000F70ACE010E94610ACE01DF91CF911F91E9
:104BA0000F910C94DE094F925F926F927F928F92D9
:104BB0009F92AF92BF92CF92DF92EF92FF920F93AC
:104BC0001F93CF93DF9300D000D000D0CDB7DEB7D6
:104BD0009E838D8380E090E0A3E8B2E4ED81FE81C6
:104BE00086839783A087B1871286138614861586DD
:104BF00016861786108A118A128A138A148A158AD1
:104C0000168A178A108E118E128E138E148E158EA0
:104C1000168E178E10A211A213A212A215A214A210
:104C200017A216A210A611A612A613A614A615A6C0
:104C300016A617A610AA11AA12AA13AA64E670E073
:104C400080E090E00E94B10540E06BE68D819E819E
:104C50000E94AA256EE170E080E090E00E94B1051C
:104C600041E06AE18D819E810E94AA2548E06BE1C6
:104C70008D819E810E94AA2562E370E080E090E031
:104C80000E94B10504EF11E019821A821B821C8276
:104C9000812C912C5401412C512C3201ED80FE804D
:104CA000F4E3EF0EF11C26E0A70163E48D819E8101
:104CB0000E94D80EED81FE8184A995A998278927A5
:104CC0009827092E000CAA0BBB0B480E591E6A1E12
:104CD0007B1E86A997A9982789279827092E000C5B
:104CE000AA0BBB0B880E991EAA1EBB1E80AD91ADF0
:104CF000982789279827092E000CAA0BBB0B29811E
:104D00003A814B815C81280F391F4A1F5B1F298321
:104D10003A834B835C83A8950150110921F684EFF7
:104D2000C82EDD24D394E12CF12CC301B201A701DC
:104D300096010E940A2ECA01B9010E94FB2FED8143
:104D4000FE8160A771A782A793A7C501B401A7013F
:104D500096010E940A2ECA01B9010E94FB2FED8123
:104D6000FE8164A775A786A797A769817A818B8141
:104D70009C81A70196010E940A2ECA01B9010E94D6
:104D8000FB2FED81FE8160AB71AB82AB93AB2696BE
:104D90000FB6F894DEBF0FBECDBFDF91CF911F914C
:104DA0000F91FF90EF90DF90CF90BF90AF909F90CA
:104DB0008F907F906F905F904F900895CF93DF9387
:104DC00000D000D0CDB7DEB7789484B5826084BDC2
:104DD00084B5816084BD85B5826085BD85B58160FF
:104DE00085BD80916E00816080936E00109281007D
:104DF0008091810082608093810080918100816038
:104E000080938100809180008160809380008091F8
:104E1000B10084608093B1008091B0008160809384
:104E2000B00080917A00846080937A0080917A004B
:104E3000826080937A0080917A00816080937A000A
:104E400080917A00806880937A001092C10060E0BF
:104E500088E00E9410028091C00082608093C000B0
:104E60001092C50080E18093C4008091C1008068E9
:104E70008093C1008091C10080618093C1008091C6
:104E8000C10088608093C1008091C20084608093DB
:104E9000C2008091C20082608093C2006CE271E027
:104EA00080E090E00E94B10561E080912A050E94B7
:104EB000100260E080912A050E94E20120E040E0BB
:104EC00060E08FE095E00E945307EEEDF0E0E491A2
:104ED000E0931605EAECF0E0E491F0E0EE0FFF1F3E
:104EE000EC54FF4F85919491909313058093120594
:104EF00061E082E00E94100220E040E060E08FE08C
:104F000095E00E9453078FE095E00E94FE066CE258
:104F100071E080E090E00E94B10520E040E06EE1A9
:104F20008FE095E00E9453078FE095E00E94FE0617
:104F30006CE271E080E090E00E94B10520E04EE17B
:104F400060E08FE095E00E9453078FE095E00E94BB
:104F5000FE066CE271E080E090E00E94B1052EE177
:104F600040E060E08FE095E00E9453078FE095E01D
:104F70000E94FE066CE271E080E090E00E94B105C4
:104F800044EF51E060E070E084EF91E00E944C0259
:104F900061E085E00E94100261E086E00E9410025C
:104FA00061E089E00E94100261E08AE00E94100244
:104FB0008DEA809380008BE08093810010928900BD
:104FC0001092880010928B0010928A0064EF71E0BA
:104FD00080E090E00E94B10582E50E94A40082E496
:104FE0000E94A40086E00E94A40080E00E94A40029
:104FF00083E00E94A4008DE90E94A40088E19FE064
:105000000FB6F894A895809360000FBE909360004F
:10501000A89538EC832E912CA12CB12C4FE1642E55
:1050200041E0742E50E0252E50E0352EA895809159
:10503000CC04482F417080FF41C18E7F8093CC0407
:1050400080913E0350E040E08150990B252F30E0E5
:10505000281739073CF4245C3C4FD9012C91420FAE
:105060005F5FF4CF845C9C4FFC018081481309C1D1
:1050700080E00E948B0F88E00E94B901019719F42B
:1050800081E08093CF0488E00E94B901892B49F424
:105090008091CF04882329F081E08093CE04109280
:1050A000CF048091CE04882321F11092CE04809108
:1050B000CD048823F1F082E50E94A40082E40E94DE
:1050C000A40088E00E94A40080E00E94A40081E087
:1050D0000E94A40089EF0E94A40081E00E94A40025
:1050E00087E90E94A40087E90E94A40087E90E9442
:1050F000A40080912105882309F46AC08091D1041D
:105100009091D204A091D304B091D4040196A11D32
:10511000B11D8093D1049093D204A093D304B09393
:10512000D404883E9340A105B10508F449C02091FC
:10513000D0042A831092D1041092D2041092D30486
:105140001092D40485E10E943F04BC0190E080E00D
:105150000E94F92F20E030E040E75CE30E94373105
:105160006B017C0120E030E040E050E40E942A31F5
:10517000181634F52AE939E949ED50E4C701B601BA
:105180000E944C2F87FF1CC082E50E94A40082E48D
:105190000E94A40088E00E94A40080E00E94A40075
:1051A00082E00E94A4008DEF0E94A40081E00E9492
:1051B000A4008CE90E94A4008A818F5F8093D004B0
:1051C0008091D0048A3020F01092D00410922105F2
:1051D00080912005833009F459C3843009F459C201
:1051E000811120C10E9412060091090510910A0543
:1051F00020910B0530910C05601B710B820B930BFA
:10520000613273408105910508F40CC185E0C82E18
:1052100085E0D82E91E0E92E95E0F92E0DE211E01F
:105220001A82512C5394852D0E94E305482EF601D5
:1052300081936F01D701ED917D018E1709F4A8C00C
:10524000E250E83108F095C0F0E0E75DF64D0C94CF
:1052500015329529A129AD29512A192A272A352A3B
:10526000432A5F2A6B2A882A962AA42AB929D62A91
:10527000382BC82AB22AE42AF22A002B0E2B1C2B28
:105280002A2B82E50E94A40082E40E94A40087E009
:105290000E94A40080913F030E94A40080914003DB
:1052A0000E94A40080E00E94A40080913F0390919E
:1052B0004003890F86560E94A400DDCE81FFDBCE1D
:1052C0008D7F8093CC048091060450E08150990B2F
:1052D000252F30E0281739073CF42C5F3B4FD901CC
:1052E0002C91420F5F5FF4CF8C5F9B4FFC0180815C
:1052F000481302C081E0BDCE82E50E94A40082E492
:105300000E94A40087E00E94A400809107040E94EC
:10531000A400809108040E94A40080E00E94A400E0
:105320008091070490910804C4CF80911E0590914C
:105330001F05009731F00E94CB3210921F0510928A
:105340001E058091FF0490910005009731F00E94A6
:10535000CB32109200051092FF048091FD049091D1
:10536000FE04009731F00E94CB321092FE0410929E
:10537000FD0441108BC160E0D80112968C910E940F
:10538000100260E0F80183810E941002F1E0FA83CC
:10539000F701319740820E5F1F4F84E0581242CFD1
:1053A0009A819923A9F182E580932B0582E4809369
:1053B0002C0510922E05A5E0A0932F0580910105E4
:1053C000809330058091020580933105809103051B
:1053D0008093320580910405809333051092340543
:1053E000109235051092360510923705BEE0B09345
:1053F0002D05EBE2F5E081912981280F298385E0D5
:10540000E833F807C1F7209338058EE00E94AB001F
:105410000E9412066093090570930A0580930B059C
:1054200090930C052114310409F400CE0E94000071
:10543000FDCD8091FB049091FC04009709F499CF75
:105440000E94CB321092FC041092FB0492CF809108
:10545000F9049091FA04009709F48BCF0E94CB32A3
:105460001092FA041092F90484CF8091F70490917D
:10547000F804009709F47DCF0E94CB321092F80413
:105480001092F70476CF8091F5049091F60400977E
:1054900009F46FCF0E94CB321092F6041092F504FB
:1054A00068CF8091F3049091F404009709F461CFE0
:1054B0000E94CB321092F4041092F3045ACF8091E0
:1054C000F1049091F204009731F00E94CB321092D7
:1054D000F2041092F104E091EF04F091F004FC83E7
:1054E000EB83309709F445CFCF010E94CC06AB8106
:1054F000BC8111967C926E92CD010E94CC068B816C
:105500009C810E94CB321092F0041092EF0431CFB4
:105510008091ED049091EE04009709F42ACF0E9447
:10552000CB321092EE041092ED0423CF8091EB0465
:105530009091EC04009709F41CCF0E94CB3210929A
:10554000EC041092EB0415CF8091E9049091EA04E9
:10555000009709F40ECF0E94CB321092EA04109209
:10556000E90407CFE091E704F091E804FC83EB83C2
:10557000309709F4FECE828593850E94CB328B81D1
:105580009C810E94CB321092E8041092E704F1CE85
:105590008091E5049091E604009709F4EACE0E9418
:1055A000CB321092E6041092E504E3CE8091E3043E
:1055B0009091E404009709F4DCCE0E94CB32109263
:1055C000E4041092E304D5CE8091E1049091E204CA
:1055D000009709F4CECE0E94CB321092E2041092D2
:1055E000E104C7CE8091DF049091E004009709F4B4
:1055F000C0CE0E94CB321092E0041092DF04B9CEEC
:105600008091DD049091DE04009709F4B2CE0E94EF
:10561000CB321092DE041092DD04ABCE8091DB041D
:105620009091DC04009709F4A4CE0E94CB32109232
:10563000DC041092DB049DCE8091D9049091DA04B1
:10564000009709F496CE0E94CB321092DA041092A1
:10565000D9048FCE8091D7049091D804009709F493
:1056600088CE0E94CB321092D8041092D70481CEFB
:105670008091D5049091D604009709F47ACE0E94C7
:10568000CB321092D6041092D50473CE21E02A8337
:105690007FCE80911E0590911F0510911D050097EA
:1056A00009F062C080E190E00E942F329C838B83DE
:1056B000612F0E94BA07AB81BC81B0931F05A093F4
:1056C0001E0580911E0590911F050E941C0C6B0108
:1056D0007C0120E030E048E452E40E942A311816B0
:1056E0000CF05EC010920E0510920D0580910D0514
:1056F000813009F494C008F47CC0823009F092CE65
:1057000020E042E360E08FE095E00E9453078FE0E5
:1057100095E00E94FE0626EA3FEF4FEF5FEF66EA54
:105720007FEF8FEF9FEF0E942F0460E971E080E030
:1057300090E00E94B105A8950E94B22DA5019401A8
:105740000E940A2E653608F498C022E630E040E058
:1057500050E06EE97FEF8FEF9FEF0E942F046AE821
:1057600072E080E090E07CC0FC014281212F012E9C
:10577000000C330B4217130609F4A3CF0E94CB325F
:1057800080E190E00E942F329C838B83612F0E94E6
:10579000BA078B819C8190931F0580931E0591CF42
:1057A00090910E059A8320E030E048EB51E4C70168
:1057B000B6010E942A3187FD15C020E030E048E4A0
:1057C00052E4C701B6010E944C2F18165CF0AA8162
:1057D000A11104C081E080930E0588CF81E0809301
:1057E0000D05F9CFBA81BB23A9F382E0B130B9F737
:1057F000F2CF27E330E040E050E067E370E080E084
:1058000090E00E942F0422E340E060E08FE095E00A
:105810000E9453078FE095E00E94FE0603CE20E031
:1058200040E062E38FE095E00E9453078FE095E04F
:105830000E94FE060E94B22DA50194010E940A2E2C
:10584000653690F022E630E040E050E06EE97FEF10
:105850008FEF9FEF0E942F0468EC70E080E090E0F3
:105860000E94B105A895DECD2EE93FEF4FEF5FEF27
:1058700062E670E080E090E0EDCF2EE93FEF4FEF81
:105880005FEF62E670E080E090E067CF80911E05F8
:1058900090911F0510911D05009709F05CC080E1F3
:1058A00090E00E942F329C838B83612F0E94BA0765
:1058B000EB81FC81F0931F05E0931E0580911E058E
:1058C00090911F050E941C0C6B017C0120E030E0D0
:1058D00048E452E40E942A3118160CF04AC0109293
:1058E0001C0510921B0580911B05813009F475C0C1
:1058F00008F46AC0823009F095CD20E042E360E010
:105900008FE095E00E9453078FE095E00E94FE062D
:1059100021E430E040E050E061E470E080E090E0BD
:105920000E942F046EEE72E080E090E00E94B105CC
:10593000A8950E94B22DA50194010E940A2E6536F9
:1059400008F470C027E330E040E050E069EC7FEFFE
:105950008FEF9FEF02CFDC0112964C91212F012E89
:10596000000C330B4217130609F4A8CF0E94CB3268
:1059700096CFF0911C05FA8320E030E048EB51E42B
:10598000C701B6010E942A3187FD15C020E030E032
:1059900048E452E4C701B6010E944C2F18165CF08F
:1059A0002A81211104C081E080931C059CCF81E0F5
:1059B00080931B05F9CF8A818823A9F3813011F4E4
:1059C00082E0F2CF82E0F4CF29EC3FEF4FEF5FEFC0
:1059D00069EC7FEF8FEF9FEF14CF20E040E062E3B0
:1059E0008FE095E00E9453078FE095E00E94FE064D
:1059F0000E94B22DA50194010E940A2E653648F03E
:105A000021E430E040E050E06FEB7FEF8FEF9FEF5D
:105A100021CF2FEB3FEF4FEF5FEF61E470E080E0CD
:105A200090E018CF29EC3FEF4FEF5FEF67E370E0B6
:105A300080E090E092CEAFE0B5E01C9211961C920F
:105A4000119712961C921297ECEDF0E0E4911796E4
:105A5000EC931797E8ECF0E0E491F0E0EE0FFF1F15
:105A6000EC54FF4F8591949114969C938E931397C9
:105A700061E080E00E94100262E08FE095E00E9409
:105A8000340F84E080932A0560E084E10E941002D4
:105A900061E08CE00E94100261E08DE00E94100243
:105AA00061E087E00E94100260E08CE00E94E20169
:105AB00060E08DE00E94E20160E087E00C94E2018A
:105AC0008091190590911A050C94CB328F929F9278
:105AD000AF92BF92CF92DF92EF92FF92CF93DF937C
