:100000000C9492000C94BA000C94BA000C94531601
:100010000C9453160C9453160C94BA000C94BA001A
:100020000C94BA000C94BA000C94BA000C94E31629
:100030000C94BA000C94BA000C94BA000C94BA0058
:100040000C94231E0C94BA000C94CA230C94BA008E
:100050000C94BA000C94BA000C94BA000C94BA0038
:100060000C94BA000C94BA00542760276C27B2276E
:100070007A2788279627A427C027CC27E327F127AC
:10008000FF2798282E288C2820280D283C284A282D
:100090005828652872287F28084AD73B3BCE016E36
:1000A00084BCBFFDC12F3D6C74319ABD56833DDACF
:1000B0003D00C77F11BED9E4BB4C3E916BAAAABEDE
:1000C000000000803F0000000000240027002A00FC
:1000D00000000000250028002B0000000000230085
:1000E0002600290004040404040404040202020299
:1000F00002020303030303030102040810204080EB
:100100000102040810200102040810200000000869
:1001100000020100000304070000000000000000CE
:10012000FD2AF72A11241FBECFEFD8E0DEBFCDBFD6
:1001300011E0A0E0B1E0E4E9F1E602C005900D9223
:10014000A035B107D9F724E0A0E5B1E001C01D92C8
:10015000A639B207E1F710E0C1E9D0E004C0219769
:10016000FE010E944D2FC039D107C9F70E94B62465
:100170000C94BD300C9400002F923F924F925F92EE
:100180006F927F928F929F92AF92BF92CF92DF92A7
:10019000EF92FF920F931F93CF93DF93CDB7DEB70C
:1001A000A6970FB6F894DEBF0FBECDBFE82EF12C98
:1001B00028EC829F8001112407521E4FD80114960B
:1001C0008C91803209F426C608F061C0843109F4AC
:1001D00097C2C8F5853009F401C120F5823009F4D1
:1001E000AAC0843009F4DDC0813011F00C940016EF
:1001F00082E58093C10382E48093C203F801838186
:100200008093C40385E08093C50382E08093C60396
:1002100087E08093C70388E08093C303E1ECF3E0B9
:1002200090E081C0813109F451C128F4803109F492
:100230000FC10C940016823109F49AC1833109F47C
:1002400036C20C940016893109F419C378F486314A
:1002500009F400C208F413C2883111F00C9400169E
:10026000F801868180939C030C94AF158C3109F4BE
:1002700008C428F48A3109F46AC30C9400168E313C
:1002800009F44FC58F3109F4F4C40C940016893A6F
:1002900011F40C94700D00F5843A11F40C94430998
:1002A00050F4823A09F48EC708F0B8C7813A09F4CD
:1002B00031C60C940016863A11F40C94240B10F4F9
:1002C0000C94AF09873A11F40C94830B883A11F41B
:1002D0000C94F70B0C9400168E3A11F40C941A122D
:1002E00088F48B3A11F40C948F1010F40C946B0C6E
:1002F0008C3A11F40C94ED108D3A11F40C94ED1429
:100300000C940016803B11F40C94A41310F40C947C
:100310001713813B11F40C940314823B11F40C94D9
:1003200077140C9400168191980F23E0E83CF207B3
:10033000D1F70C94E91482E58093C10382E48093A1
:10034000C2031092C303D80113968C911397809324
:10035000C40315968C91823059F024F4813089F4CD
:1003600081E009C0833031F0843059F484E003C067
:1003700082E001C083E00E940F218093C503E5E085
:1003800001C0E4E081E08E0F8093C303A1ECB3E0F1
:1003900020E090E03D91930F2F5FE213FBCF0C9490
:1003A0008A1082E58093C10382E48093C203F8013E
:1003B00083818093C40381E08093C5038093C60347
:1003C00087E08093C303E1ECF3E090E08191980F24
:1003D00023E0E73CF207D1F70C94660C82E58093AA
:1003E000C10382E48093C2031092C303D801139621
:1003F0008C918093C40381E00E940F218093C503F8
:1004000082E00E940F218093C60383E00E940F21A7
:100410008093C70384E00E940F218093C803109249
:10042000C9031092CA031092CB031092CC038DE043
:100430008093C303E1ECF3E090E08191980FB3E087
:10044000ED3CFB07D1F79093CD038DE00C94D715CD
:10045000F80185818C3F21F1882389F08B3F11F0D1
:100460000C94AF1588EC8E9DF0018F9DF00D11243A
:10047000E752FE4F00852781468161E01DC088EC70
:100480008E9DF0018F9DF00D1124E752FE4F0085E7
:100490002781468160E08DEC91E00E94021A10C035
:1004A00088EC8E9DF0018F9DF00D1124E752FE4FD8
:1004B00000852781468160E08DEC91E00E94DF1984
:1004C0008DEC91E00E94AC190C94AF15D8011596F3
:1004D0008C918F3F09F441C08823B1F08E3F11F019
:1004E0000C94AF1588EC8E9DF0018F9DF00D1124BA
:1004F000E752FE4F6681062E000C770B880B990B96
:100500000E94EB210C94AF15F8018780082C000C99
:100510009908AA08BB086681062E000C770B880B89
:10052000990B0E945222C501B4010E94EB21D8010F
:1005300016968C9181110C94AF1588EC8E9DF0016C
:100540008F9DF00D1124E752FE4F878181110C948D
:10055000AF1510929C030C94AF15F8016681062E1E
:10056000000C770B880B990B0E9452220C94AF154C
:10057000D80115968C910E940F21029711F00C94CE
:10058000AF1580919A0390919B03009779F480E1D5
:1005900090E00E94672F6C0188EC8E9DF0018F9D8A
:1005A000F00D1124E752FE4F15811EC0DC0112969A
:1005B0004C9150E028EC2E9D80012F9D100D1124B0
:1005C00007521E4FF8012581022E000C330B4217F3
:1005D0005307E1F00E94FF2F80E190E00E94672F17
:1005E0006C01D80115961C91612FC6010E94541A06
:1005F000E12FF0E0EE0FFF1FE85EFE4F8081F60175
:1006000086831582D0929B03C0929A0388EC8E9DBC
:10061000F0018F9DF00D1124E752FE4FD084C7806A
:10062000B68000919A0310919B0360E4C8010E9478
:10063000321961EAC8010E94D2186B2DC8010E94CC
:10064000D2186C2DC8010E94D2186D2DC8010E94CD
:10065000D21810C1D80115968C911597893F11F0C9
:100660000C94AF1516968C91882329F081E0809325
:100670006A030C94AF1510926A030C94AF15F8013D
:100680008681882331F0813031F481E080939D03AD
:1006900002C010929D0310926C0310926D03109291
:1006A0006E0310926F0310926B030C94AF1588ECDD
:1006B0008E9DF0018F9DF00D1124E752FE4F858134
:1006C0008A3F11F00C94AF15408550E0542F442719
:1006D0008185482B60E070E0868190E0982F882724
:1006E0002781822B0E947C2161E08091BF030E94C0
:1006F000402160E08091BF030E94E0200C94AF1580
:10070000D80115968C910E940F21039711F00C943B
:10071000AF158091980390919903009741F486E07A
:1007200090E00E94672F6C01F801658116C0DC0122
:1007300012964C9150E0F8012581022E000C330BEB
:100740004217530789F00E94FF2F86E090E00E9435
:10075000672F6C01D80115966C91C6010E94BD22CD
:10076000D0929903C0929803009198031091990335
:1007700088EC8E9DF0018F9DF00D1124E152FE4F0B
:1007800063E1808190E0982F88272181822BAC0142
:100790004A7A5A7A5695479585759575880F991FA7
:1007A000482B592B9A012C7C3C7C36952795369505
:1007B000279543735373440F551F440F551F242B24
:1007C000352BC901807F907F44E0969587954A95A7
:1007D000E1F72F703F7054E0220F331F5A95E1F775
:1007E000822B932B982789279827880F991F880F8A
:1007F000991F2FEF260FA1E0B0E0AC0FBD1FA60F91
:10080000B11D8C936250A1E0B0E0AC0FBD1FA20FF0
:10081000B11D9C9332966F3F09F0B3CFC8010E947F
:10082000E91867EEC8010E94D21860E0C8010E9472
:10083000D218FE0131965F016E01F5E1CF0ED11C99
:10084000D5019D915D01892F8C7C682F66956695F9
:100850009373B4E09B9FC0011124862B682F6A7AA2
:1008600066958575880F682BC8010E94D218AC1454
:10087000BD0431F7C8010E9463170C94AF15D8016D
:1008800015968C910E940F21059711F00C94AF15CD
:1008900080918C0390918D03009741F485E090E066
:1008A0000E94672F6C01F801658116C0DC01129669
:1008B0004C9150E0F8012581022E000C330B4217B9
:1008C0005307B9F00E94FF2F85E090E00E94672F48
:1008D0006C01D80115966C91C6010E94701AD092D5
:1008E0008D03C0928C0383EA8093B00087E08093ED
:1008F000B10088EC8E9DF0018F9DF00D1124E75220
:10090000FE4F8681813089F08230C1F081110C94D4
:10091000AF15D08400918C0310918D036781C801BD
:100920000E9497246D2DC8010EC0678180918C03B1
:1009300090918D030E9497240C94AF15678180914C
:100940008C0390918D030E9478240C94AF15F801CC
:1009500085810E940F21099711F00C94AF158091A9
:100960008E0390918F030097C9F486E090E00E9477
:10097000672F8C0188EC8E9DF0018F9DF00D112466
:10098000E752FE4F6581C8010E94541AD80115969E
:100990001C9210938F0300938E0326C0FC014281AA
:1009A00050E028EC2E9D80012F9D100D1124075240
:1009B0001E4FD80115962C91022E000C330B4217B6
:1009C000530791F00E94FF2F86E090E00E94672F6E
:1009D0006C01F80165810E94541AD60115961C928B
:1009E000D0928F03C0928E0388EC8E9DF0018F9D74
:1009F000F00D1124E752FE4F86818130F9F08230EC
:100A000081F181110C94AF15278180918E03909113
:100A10008F0327FF06C0332721950CF4309541E062
:100A200001C040E061E00E94322A88EC8E9DF00116
:100A30008F9DF00D1124E752FE4F13C02781809146
:100A40008E0390918F0327FF06C0332721950CF466
:100A5000309541E001C040E061E00E94322A0C94F0
:100A6000AF15208580918E0390918F0327FD03C0E1
:100A700040E062E0F2CF332721950CF4309541E05D
:100A8000F8CFF80185810E940F210B9711F00C948B
:100A9000AF15C0908803D0908903C114D10479F4B4
:100AA00083E290E00E94672F6C01D80115966C914B
:100AB0000E94131BD0928903C09288032BC0F601B9
:100AC00021A130E0D80115968C91082E000C990BCD
:100AD00028173907F9F08AE091E091838083C601F5
:100AE0000E94CD16C6010E94FF2F83E290E00E9473
:100AF000672F8C0188EC8E9DF0018F9DF00D1124E5
:100B0000E752FE4F6581C8010E94131B10938903B1
:100B100000938803C0908803D090890388EC8E9D51
:100B2000F0018F9DF00D1124E752FE4F1681F60162
:100B300082A190E0212F012E000C330B8217930726
:100B400049F112A38AEA8093500182E08093510117
:100B500081E0809352011093530186E581278093B1
:100B6000540120E5A22E21E0B22E35E5832E31E09E
:100B7000932ED5016D915D01C6010E94F01C8A146F
:100B80009B04B9F7F60112A362E370E080E090E005
:100B90000E94DD1D88EC8E9DF0018F9DF00D1124CB
:100BA000E752FE4F208587810091880310918903C9
:100BB0009AEA909350018093510191E090935201F1
:100BC000209353019BEA89278227809580935401C3
:100BD00090E5C92E91E0D92ED6016D916D01C80125
:100BE0000E94F01CB5E5CB16B1E0DB06A9F762E385
:100BF00070E080E090E00E94DD1D8091880390917C
:100C000089030E94CD160091880310918903011574
:100C1000110559F08AE091E0F80191838083C801C1
:100C20000E94CD16C8010E94FF2F109289031092D6
:100C3000880388EC8E9D80018F9D100D1124075232
:100C40001E4FD8011596EC91EE0FFF0BE85EFE4F9C
:100C500060E080810E944021D8011596EC91EE0F52
:100C6000FF0BE85EFE4F60E081810E9440210C9402
:100C7000AF1588EC8E9D80018F9D100D11240752B9
:100C80001E4FF80185810E940F21439711F00C94AB
:100C9000AF15C0908203D0908303C114D10449F4EE
:100CA0008CE090E00E94672F6C01D80115966C9142
:100CB0001AC0F601228130E0D80115968C91082ED9
:100CC000000C990B28173907A9F0828593850E949B
:100CD000FF2FC6010E94FF2F8CE090E00E94672F3B
:100CE0006C01F8016581C6010E94901AD0928303BD
:100CF000C092820388EC8E9DF0018F9DF00D11242F
:100D0000E752FE4F018520854781668180918203ED
:100D1000909183030E94021A809182039091830331
:100D2000D1CBD80115968C910E940F21429711F0DA
:100D30000C94AF158091800390918103009779F412
:100D400086E090E00E94672F8C0188EC8E9DF00178
:100D50008F9DF00D1124E752FE4F65811FC0DC010D
:100D600012964C9150E068EC6E9D90016F9D300D95
:100D70001124F901E752FE4F6F012581022E000C6C
:100D8000330B42175307B1F00E94FF2F86E090E02B
:100D90000E94672F8C01D60115966C91C8010E94A4
:100DA000541AF80115821093810300938003C8013F
:100DB0000E94A22088EC8E9D80018F9D100D112431
:100DC00007521E4FD80116964C9161E08091800326
:100DD000909181030E944023F801478162E0809155
:100DE0008003909181030E944023D80118964C9172
:100DF00063E080918003909181030E944023F80179
:100E0000418564E080918003909181030E9440239A
:100E10000C94AF15D80115968C910E940F2149971B
:100E200011F00C94AF1580917203909173030097A9
:100E3000B9F485E090E00E94672F6C01F8016581AC
:100E40000E94701AD0927303C092720361E0D601BF
:100E500013968C910E94402161E0F601848125C0A7
:100E6000DC0112964C9150E0F8012581022E000C15
:100E7000330B42175307D9F00E94FF2F85E090E013
:100E80000E94672F6C01D80115966C910E94701A10
:100E9000D0927303C092720361E0F60183810E94D5
:100EA000402161E0D60114968C910E94402100916E
:100EB00072031091730388EC8E9DF0018F9DF00DED
:100EC0001124E752FE4FC680C0948781D12C61E087
:100ED00081110EC0F80183810E94402160E0D80199
:100EE00014968C910E944021B601F80183810EC0B6
:100EF000D80114968C910E94402160E0F801838112
:100F00000E944021B601D80114968C910E94421D86
:100F10000C94AF15F80185810E940F21029711F002
:100F20000C94001680919A0390919B03009771F4A2
:100F300080E190E00E94672F6C0188EC8E9DF001AB
:100F40008F9DF00D1124E752FE4F1CC0FC01428121
:100F500050E028EC2E9D80012F9D100D112407528A
:100F60001E4FD80115962C91022E000C330B421700
:100F70005307F1F00E94FF2F80E190E00E94672F5D
:100F80006C01F8011581612FC6010E94541AE12FEE
:100F9000F0E0EE0FFF1FE85EFE4F8081D60116964F
:100FA0008C93169715961C92D0929B03C0929A032D
:100FB000C0909A03D0909B03FE0131965F014E01D1
:100FC000F9E08F0E911C332433940E94171ED60132
:100FD00018960D911D912D913C911B97DC01CB0131
:100FE000801B910BA20BB30B4197A105B10510F02B
:100FF000F6013782D60117968C91882309F466C0D2
:101000000E94171EF6016087718782879387178277
:1010100060E4C6010E94321962EAC6010E94D21839
:1010200062EAC6010E94D21862EAC6010E94D21882
:1010300061E0C6010E94D218C6010E946317D60162
:1010400016968C9160E00E944021F601868190E026
:10105000FC01E850FF4F6491FC01EC51FF4FE4911B
:10106000F0E0EE0FFF1FE652FF4F8591949100E7ED
:1010700012E620E030E040E00E9433246115710563
:101080008105910539F0DC01CB010196A11DB11D4F
:10109000BF7003C080E090E0DC012C013D018C3288
:1010A0009140A105B10530F02CE2421A21E0520A2C
:1010B00061087108C301B2010E94332DD6011C964C
:1010C0006D937D938D939C931F9709C0F601648562
:1010D0007585868597850E94FB2C2B013C01141495
:1010E00015041604170434F014EA412E18E3512EA7
:1010F000612C712CC301B2010E94332D20E030E03D
:1011000048E652E40E94892CD5016D937D938D931E
:101110009D935D0162E170E080E090E00E94DD1D42
:101120008A149B0409F051CF89809A80AB80BC80DF
:10113000CD80DE800F8118859601A801B401C5011C
:101140000E94622E87FD02C06401850120E030E02C
:1011500040E251E4B601C8010E946F2E0E94FB2CB0
:101160009B0142E54093C10342E44093C20348EC33
:101170004E9DF0014F9DF00D1124E752FE4F43812B
:101180004093C40341E04093C503AB0177FF02C025
:1011900041505F4F5093C603C90160E071E00E9467
:1011A000392F8093C70388E08093C303E1ECF3E019
:1011B00028EC33E090E08191980F2E173F07D9F784
:1011C0000C94E914F8018581893F11F00C94001604
:1011D00082E58093C10382E48093C2031092C3032B
:1011E00083818093C40311E01093C50388E00E94BB
:1011F000B720019719F41092C60302C01093C603DA
:1012000087E08093C303E1ECF3E027EC33E090E068
:101210008191980F2E173F07D9F758C3D80115961B
:101220008C918D3F11F00C94001685E10E94A11D58
:1012300022E3FC012E9FC0012F9F900D112422E577
:101240002093C10322E42093C203D80113962C916A
:101250002093C40321E02093C5036FEF73E00E9445
:10126000392F862F880F680F6093C60387E080931D
:10127000C303E1ECF3E090E08191980FB3E0E73C29
:10128000FB07D1F723C380919603909197030097B2
:1012900041F485E090E00E94672F6C01F8016581C0
:1012A00016C0DC0112964C9150E0F8012581022E07
:1012B000000C330B4217530789F00E94FF2F85E083
:1012C00090E00E94672F6C01D80115966C91C601C1
:1012D0000E94471CD0929703C092960382E58093A8
:1012E000C10382E48093C2031092C30388EC8E9DF5
:1012F000F0018F9DF00D1124E752FE4F8381809302
:10130000C40381E08093C503009196031091970375
:10131000F80183810E94B7207C01D80114968C913A
:101320000E94B720AC0121E030E0EF2811F420E06A
:1013300030E0220F331F91E0452B09F490E0292B78
:101340002093C60387E08093C303E1ECF3E090E0D1
:101350008191980FB3E0E73CFB07D1F7B7C2F801E2
:1013600085810E940F21069711F00C940016809140
:10137000940390919503009771F486E090E00E94A9
:10138000672F6C0188EC8E9DF0018F9DF00D11246C
:10139000E752FE4F1CC0FC01428150E028EC2E9D1C
:1013A00080012F9D100D112407521E4FD801159654
:1013B0002C91022E000C330B42175307D9F00E94D8
:1013C000FF2F86E090E00E94672F6C01F8011581E5
:1013D000612FC6010E94301AE12FF0E0EE0FFF1FCF
:1013E000E85EFE4F8181D60115968C93D0929503CD
:1013F000C09294030091940310919503FE013196DD
:101400001F0185E0DF011D928A95E9F761E0F8018F
:1014100085810E94402161E0D80115968C910E943F
:10142000E0206AEF70E080E090E00E94DD1D60E067
:10143000F80185810E94E02064E170E080E090E0A6
:101440000E94DD1D61E0D80115968C910E94E0207C
:101450008BE990E00197F1F760E0F80185810E9447
:10146000E02083E290E00197F1F70E94171E4B0104
:101470005C0162E0D80115968C910E944021F80130
:1014800085810E94B720019791F00E94171EDC0110
:10149000CB0188199909AA09BB090597A105B105CE
:1014A00070F3D80113961C92139714961C920E9405
:1014B000171E4B015C0162E0F80185810E9440210A
:1014C000D80115968C910E94B720892B19F4C12C54
:1014D000D12C53C00E94171EDC01CB018819990939
:1014E000AA09BB090597A105B10550F3F0CF0E94E9
:1014F000171EDC01CB0188199909AA09BB090597B8
:10150000A105B10538F4D80115968C910E94B72039
:10151000892B69F30E94B81D4B015C010E94171EC4
:101520002B013C0162E0F80185810E944021D80135
:1015300015968C910E94B720019749F10E94B81D21
:10154000DC01CB0188199909AA09BB09F60173E0EE
:10155000F595E7957A95E1F78997A105B10520F111
:10156000E20DF31D8081880F81608083BFEFCB1A6D
:10157000DB0AE8E2CE16D104E1F00E94171E4B010F
:101580005C0162E0F80185810E944021BCCF0E948D
:10159000171EDC01CB0184199509A609B709059727
:1015A000A105B10520F2CACFE20DF31D8081880F9D
:1015B000DCCF59814B812D8130E06A81852F90E00D
:1015C000860F911D840F911D6C81860F911D9927A7
:1015D0002817390731F4D80113965C9313971496A2
:1015E0004C9382E58093C10382E48093C20388EC2C
:1015F0008E9DF0018F9DF00D1124E752FE4F8381E7
:101600008093C40381E08093C503E0919403F0913B
:10161000950383818093C6031092C70384818093CE
:10162000C8031092C9038AE08093C303E1ECF3E09E
:1016300090E08191980FB3E0EA3CFB07D1F79093DB
:10164000CA038AE00C94D71580919203909193037A
:10165000009741F484E090E00E94672F6C01F8014C
:10166000658116C0DC0112964C9150E0F80125818D
:10167000022E000C330B4217530789F00E94FF2FF4
:1016800084E090E00E94672F6C01D80115966C9160
:10169000C6010E94401AD0929303C092920382E541
:1016A0008093C10382E48093C2031092C30388EC49
:1016B0008E9DF0018F9DF00D1124E752FE4F838126
:1016C0008093C40381E08093C5038091920390913D
:1016D00093030E94631C9093C603809192039091A0
:1016E00093030E94631C8093C70388E08093C30325
:1016F000E1ECF3E090E08191980FB3E0E83CFB0768
:10170000D1F70C94E9148091900390919103009784
:10171000B1F484E090E00E94672F8C0188EC8E9DEC
:10172000F0018F9DF00D1124E752FE4F6581C80135
:101730000E94401A109391030093900323C0FC0170
:10174000428150E028EC2E9D80012F9D100D112428
:1017500007521E4FD80115962C91022E000C330B08
:101760004217530779F00E94FF2F84E090E00E9417
:10177000672F6C01F80165810E94401AD092910395
:10178000C092900382E58093C10382E48093C203F8
:101790001092C30388EC8E9DF0018F9DF00D1124F3
:1017A000E752FE4F83818093C40381E08093C50399
:1017B00080919003909191030E940F1C9093C60317
:1017C00080919003909191030E940F1C8093C70316
:1017D00088E08093C303E1ECF3E028EC33E090E091
:1017E0008191980F2E173F07D9F70C94E914809137
:1017F0008A0390918B030097B1F485E090E00E94FA
:10180000672F8C0188EC8E9DF0018F9DF00D1124C7
:10181000E752FE4F6581C8010E94BC1A10938B03EA
:1018200000938A0324C0DC0112964C9150E028EC0E
:101830002E9D80012F9D100D112407521E4FF8017F
:101840002581022E000C330B4217530781F00E94B2
:10185000FF2F85E090E00E94672F6C01D80115965C
:101860006C910E94BC1AD0928B03C0928A0382E5CD
:101870008093C10382E48093C2031092C30388EC77
:101880008E9DF0018F9DF00D1124E752FE4F838154
:101890008093C40381E08093C503E0918A03F091B3
:1018A0008B0383810E94B72021E0892B09F020E07F
:1018B0002093C60387E08093C303E1ECF3E090E05C
:1018C0008191980FB3E0E73CFB07D1F79093C703F2
:1018D00087E00C94D715F80185810E940F210D97A0
:1018E00011F00C940016E0918603F091870328EC28
:1018F0002E9DC0012F9D900D11249C0127523E4F1B
:101900006901D90115968C91309729F40E940F2115
:101910000D9791F513C0228130E0482F082E000C5E
:10192000550B2417350741F10E940F210D9721F522
:1019300080918603909187030E94FF2F8BE090E0B7
:101940000E94672F8C01F60165810E94541AD8010C
:1019500016961C9216978BEE90E01A969C938E9397
:10196000199718961C921E9217971093870300934D
:101970008603C8010E946A2328EC2E9DC0012F9D7A
:10198000900D1124FC01E752FE4F5F01D680F1E07B
:10199000DF124AC08E01075E1F4F9E012F5F3F4F2F
:1019A000AE014B5E5F4FBE01695E7F4F8091860343
:1019B000909187030E947F2A82E58093C10382E48D
:1019C0008093C203D50113968C918093C403D09267
:1019D000C503D092C6038F89988D9093C7038093D7
:1019E000C8038D899E899093C9038093CA03898116
:1019F0009A819093CB038093CC03898D9A8D909399
:101A0000CD038093CE038FE08093C303E1ECF3E03A
:101A100090E08191980FB3E0EF3CFB07D1F79093F2
:101A2000CF038FE00C94D715E2E0DE120C94001681
:101A3000609086037090870366E0962EC12CD12CAF
:101A4000A12CB12C8E010F5F1F4F9E012B5E3F4FCB
:101A5000AE01495E5F4FBE01675E7F4FC3010E94CA
:101A60007F2A89819A81A816B90608F45C01C80EFC
:101A7000D91E9A949110E6CFCA18DB08C601969534
:101A80008795969587959A83898392E59093C1036C
:101A900092E49093C20398EC9E9DF0019F9DF00DFF
:101AA0001124E752FE4F93819093C40391E09093E9
:101AB000C50392E09093C6039D2D969596959093BD
:101AC000C7038093C80389E08093C303E1ECF3E08C
:101AD00090E08191980F23E0E93CF207D1F7A6C48A
:101AE000D80115968C910E940F210E9711F00C943D
:101AF0000016E0918403F09185033097A9F4F80172
:101B000085810E940F210E9709F03FC084E490E088
:101B10000E94672F6C01D80115966C910E94541A8F
:101B200081E0F601858324C0D80115968C9122812D
:101B300030E0482F082E000C550B2417350729F1EB
:101B40000E940F210E9709F58091840390918503DF
:101B50000E94FF2F84E490E00E94672F6C01F8013F
:101B600065810E94541A81E0D60115968C93F60186
:101B7000EE5BFF4F88E690E091838083D0928503EF
:101B8000C0928403C6010E94EB2800918403109147
:101B90008503A8014C5C5F4F2EE06BE3C8010E94F7
:101BA000E422F80124A835A832242324322433A2C5
:101BB00022A2A6A8B7A8BA24AB24BA24B5A2A4A28C
:101BC000C0ACD1ACDC24CD24DC24D7A2C6A2468094
:101BD00057806084718464AD75AD7627672776275A
:101BE000072E000C880B990B0E94332DD801989674
:101BF0002D913D914D915C919B970E94A52BA30146
:101C000092010E94892CF801668B778B808F918FCF
:101C100066AD77AD762767277627072E000C880BF1
:101C2000990B0E94332DD8019C962D913D914D9199
:101C30005C919F970E94A52BA30192010E94892C81
:101C4000F801628F738F848F958FE05CFF4F608106
:101C50007181762767277627072E000C880B990B52
:101C60000E94332DD801D0962D913D914D915C91DC
:101C7000D3970E94A52BA30192010E94892CF80101
:101C8000668F778F80A391A3B501BB0C880B990B4E
:101C90000E94332D4B015C01B601DD0C880B990BC2
:101CA0000E94332D9B01AC010E946F2E6B8F7C8FA5
:101CB0008D8F9E8FA5019401C501B4010E946F2EE6
:101CC0002B8D3C8D4D8D5E8D0E94A62B0E94E22EA9
:101CD0006F8F78A389A39AA3B101330C880B990B5A
:101CE0000E94332D2B013C012F8D38A149A15AA10F
:101CF0000E94252C20E030E044E353E40E946F2E44
:101D00002AED3FE049E450E40E94892C6F8F78A3CC
:101D100089A39AA3A3019201C301B2010E946F2E6D
:101D20002B8D3C8D4D8D5E8D0E94A62B0E94E22E48
:101D30009B01AC01C501B4010E94252C20E030E0DC
:101D400044E353E40E946F2E2AED3FE049E450E45F
:101D50000E94892C6B8F7C8F8D8F9E8F0E94171E07
:101D600080905A0190905B01A0905C01B0905D0161
:101D7000681979098A099B090E94312D20E030E019
:101D80004AE754E40E94892C4B015C010E94171E13
:101D900060935A0170935B0180935C0190935D01A5
:101DA000D80196968D919C91979718161906ACF5C7
:101DB0005A962D913D914D915C915D97C501B4016D
:101DC0000E946F2E9B01AC01F801628573858485AA
:101DD00095850E94A52BD8011A966D937D938D93BE
:101DE0009C931D9756962D913D914D915C915997DD
:101DF000C501B4010E946F2E9B01AC01F8016685FC
:101E00007785808991890E94A62BD8011E966D93B3
:101E10007D938D939C93519731C0F801228D338D22
:101E2000448D558DC501B4010E946F2E9B01AC01FC
:101E3000D8011A966D917D918D919C911D970E946C
:101E4000A62BF8016287738784879587268937894F
:101E5000408D518DC501B4010E946F2E9B01AC01D4
:101E6000D8011E966D917D918D919C9151970E9404
:101E7000A52BF80166877787808B918BD8015E96BA
:101E80002D913D914D915C919197C501B4010E94B6
:101E90006F2EF80122893389448955890E94A62B27
:101EA0002B013C0120E030E044EB53E40E94892CFC
:101EB0000E946E2D20E030E044EB53E40E946F2E30
:101EC0009B01AC01C301B2010E94A52BD80152961F
:101ED0006D937D938D939C93559720E030E040E087
:101EE0005FE3C501B4010E94A62B9B01AC0160E039
:101EF00070E080E09FE30E94892C4B015C019B0114
:101F0000AC0160E070E080E89FE30E94A52B2B010C
:101F10003C01F8012285338544855585C501B4010E
:101F20000E946F2E6BA37CA38DA39EA3A30192019D
:101F30006F8D78A189A19AA10E946F2E9B01AC019F
:101F40006BA17CA18DA19EA10E94A62BD8011A96FF
:101F50006D937D938D939C931D971E962D913D912E
:101F60004D915C915197C501B4010E946F2E4B01B8
:101F70005C01A30192016B8D7C8D8D8D9E8D0E94E5
:101F80006F2E9B01AC01C501B4010E94A62BF80184
:101F900066877787808B918B82E58093C10382E48B
:101FA0008093C2031092C30388EC8E9DF0018F9D35
:101FB000F00D1124E752FE4F83818093C40381E02A
:101FC0008093C50386818093C603813009F094C055
:101FD0000091840310918503F80182859385A4857F
:101FE000B585BC01CD01905820E030E048EC52E4CA
:101FF0000E946F2E0E94FB2C4B015C01F80186852C
:102000009785A089B189BC01CD01905820E030E0CE
:1020100048EC52E40E946F2E0E94FB2C6B017C0165
:1020200020E030E048EC52E4D80152966D917D9169
:102030008D919C9155970E946F2E0E94FB2C9401CC
:10204000181419041A041B044CF097FE04C022272C
:102050003327281939091092C70309C097FE04C015
:10206000222733272819390941E04093C703490142
:10207000330FAA08BB089092C8032093C9039601A6
:102080001C141D041E041F044CF0D7FE04C022279C
:1020900033272C193D091092CA0309C0D7FE04C08A
:1020A000222733272C193D0941E04093CA036901D7
:1020B000330FEE08FF08D092CB032093CC0397FD9B
:1020C00008C021E02093CD037093CE036093CF032B
:1020D00011C09B0177FF04C022273327261B370B33
:1020E0001092CD03C901330FAA0BBB0B9093CE0303
:1020F0002093CF03EFE001C0E6E081E08E0F8093F4
:10210000C303A1ECB3E020E090E03D91930F2F5F7B
:10211000E213FBCFF0E0EF53FC4F908348C5809172
:10212000620190916301009771F0FC01428150E0DF
:10213000D80115962C91022E000C330B4217530731
:10214000C1F00E94FF2F88E090E00E94672F6C0191
:10215000F80165810E94541A81E0D60115968C938E
:10216000159717961C921E921697D0926301C092F3
:10217000620182E58093C10382E48093C2031092DE
:10218000C30388EC8E9DF0018F9DF00D1124E75262
:10219000FE4F83818093C40381E08093C5038091C7
:1021A0006201909163010E9447199093C603809148
:1021B0006201909163010E9447198093C70388E0F0
:1021C0008093C303E1ECF3E028EC33E090E08191ED
:1021D000980F2E173F07D9F7FCC380917E0390918B
:1021E0007F03009771F489E090E00E94672F6C01F3
:1021F00088EC8E9DF0018F9DF00D1124E752FE4F6B
:102200001CC0FC01428150E028EC2E9D80012F9DD6
:10221000100D112407521E4FD80115962C91022E35
:10222000000C330B42175307F9F00E94FF2F89E08F
:1022300090E00E94672F6C01F8011581612FC601A3
:102240000E94301AE12FF0E0EE0FFF1FE85EFE4F14
:102250008081D60115968C931597818114968C9365
:10226000D0927F03C0927E0388EC8E9DF0018F9DFB
:10227000F00D1124E752FE4F868100917E031091EC
:102280007F03813019F4F801648105C0823031F494
:10229000D80115966C91C8010E9447176801B6E0F5
:1022A000CB0ED11CC6010E94DC1A882309F490C40D
:1022B0006CECC6010E94132064E4C6010E94132046
:1022C0000E94171E2B013C0133E2A32EB12CF80112
:1022D00026810780F085E02D9181822F80959823BB
:1022E0009183C5010197F1F78081822309F462C4CB
:1022F000C6010E94DC1A6CECC6010E9413206EEB32
:10230000C6010E941320FE0131962F016E01F6E0F6
:10231000CF0ED11C67E070E043E250E08FECA82EB6
:10232000B12C88E090E0812C77247394D801169624
:102330006C9016971796ED91FC911897F89421815F
:10234000262921832281962C909429212283DB0146
:102350001197F1F7218192229182DA011197F1F719
:1023600020817894F5013197F1F7622209F08728EE
:10237000770C0197D9F6F20181922F01EC15FD053A
:1023800081F669817A81072E000C880B990B0E94D7
:10239000332D20E030E040E85DE30E946F2E20E026
:1023A00030E048EC52E40E946F2E4B015C0182E564
:1023B0008093C10382E48093C20388EC8E9DF00178
:1023C0008F9DF00D1124E752FE4F83818093C4034B
:1023D00081E08093C50320E030E0A901C501B4018C
:1023E0000E94622E87FD04C081E08093C60302C074
:1023F0001092C603C501B4010E94FB2C9B0177FF1C
:1024000004C022273327261B370B3093C7032093A2
:10241000C80389E08093C303E1ECF3E029EC33E0E7
:1024200090E08191980F2E173F07D9F79093C90339
:1024300089E0BDC380917C0390917D03009749F4AE
:1024400085E090E00E94672F6C01D80115961C91E1
:1024500015C0FC01428150E0D80115962C91022E46
:10246000000C330B42175307F9F00E94FF2F85E051
:1024700090E00E94672F6C01F8011581612FC60161
:102480000E94301AE12FF0E0EE0FFF1FE85EFE4FD2
:102490008181D60113968C931397808114968C9327
:1024A000D0927D03C0927C0300917C0310917D0348
:1024B00060E0F80183810E944021D80113968C913D
:1024C0000E94A11D9C01205D3240121613064CF49F
:1024D0004BE0429FC001439F900D112466E070E0E5
:1024E00008C047E0429FC001439F900D11246AE05D
:1024F00070E00E94392F00915E0110915F01060F7C
:10250000171F013EB1E01B0764F40032EEEF1E0717
:102510005CF0C801C1968336910540F400E010E0FC
:1025200005C000EE11E002C000E21EEFC0907C0387
:10253000D0907D0360E0D60114968C910E944021DA
:10254000F60184810E94A11D9C01205D324012167B
:1025500013064CF445EF4203C001439F900D112434
:1025600066E070E008C049EF4203C001439F900D50
:1025700011246AE070E00E94392F809160019091EF
:102580006101680F791F613EF1E07F0764F46032FA
:102590002EEF72075CF0CB01C1968336910540F4B3
:1025A00060E070E005C060EE71E002C060E27EEFC6
:1025B00082E58093C10382E48093C20388EC8E9D00
:1025C000F0018F9DF00D1124E752FE4F838180931F
:1025D000C40381E08093C50317FD82E08093C603A6
:1025E00017FF03C01195019511091093C7030093BC
:1025F000C80377FD02C081E001C082E08093C90377
:1026000077FF03C07195619571097093CA03609358
:10261000CB038CE08093C303E1ECF3E02CEC33E0DC
:1026200090E08191980F2E173F07D9F794C28091BF
:102630007A0390917B03009749F485E090E00E9433
:10264000672F6C01D80115961C911CC0FC014281BA
:1026500050E0D80115962C91022E000C330B421736
:10266000530731F10E94FF2F85E090E00E94672F11
:102670006C0188EC8E9DF0018F9DF00D1124E752C6
:10268000FE4F1581612FC6010E94301AE12FF0E044
:10269000EE0FFF1FE85EFE4F8081D60113968C93EC
:1026A0001397818114968C93D0927B03C0927A0306
:1026B00082E58093C10382E48093C2031092C30336
:1026C00088EC8E9DF0018F9DF00D1124E752FE4F96
:1026D00083818093C40381E08093C50300917A03D2
:1026E00010917B0360E0F80184810E944021D801B1
:1026F00014968C910E94A11D0FEF13E0F801E81BC6
:10270000F90BCF019093C603E0907A03F0907B031E
:1027100060E0D70114968C910E944021F7018481DA
:102720000E94A11D081B190B0093C70388E080932A
:10273000C303E1ECF3E028EC33E090E08191980FE3
:102740002E173F07D9F745C18091780390917903FF
:10275000009749F484E090E00E94672F6C01D80153
:1027600015966C9115C0FC01428150E0D801159678
:102770002C91022E000C330B4217530781F00E945C
:10278000FF2F84E090E00E94672F6C01F8016581C3
:10279000C6010E94401AD0927903C092780382E564
:1027A0008093C10382E48093C2031092C30388EC38
:1027B0008E9DF0018F9DF00D1124E752FE4F838115
:1027C0008093C40381E08093C50380917803909146
:1027D00079030E94031C9093C60380917803909123
:1027E00079030E94031C8093C70388E08093C3038E
:1027F000E1ECF3E028EC33E090E08191980F2E17A4
:102800003F07D9F7E6C08091760390917703009750
:10281000B1F484E090E00E94672F8C0188EC8E9DDB
:10282000F0018F9DF00D1124E752FE4F6581C80124
:102830000E94401A109377030093760324C0DC01B2
:1028400012964C9150E028EC2E9D80012F9D100D8A
:10285000112407521E4FF8012581022E000C330B64
:102860004217530781F00E94FF2F84E090E00E94FE
:10287000672F6C01D80115966C910E94401AD09276
:102880007703C092760382E58093C10382E480934C
:10289000C2031092C30388EC8E9DF0018F9DF00D52
:1028A0001124E752FE4F83818093C40381E080931B
:1028B000C50380917603909177030E940F1C90933B
:1028C000C60380917603909177030E940F1C80933A
:1028D000C70388E08093C303E1ECF3E028EC33E026
:1028E00090E08191980F2E173F07D9F772C0809121
:1028F0007403909175030097B1F484E090E00E9416
:10290000672F8C0188EC8E9DF0018F9DF00D1124B6
:10291000E752FE4F6581C8010E94401A109375036B
:102920000093740323C0FC01428150E028EC2E9DEB
:1029300080012F9D100D112407521E4FD8011596AE
:102940002C91022E000C330B4217530779F00E9492
:10295000FF2F84E090E00E94672F6C01F8016581F1
:102960000E94401AD0927503C092740382E580934E
:10297000C10382E48093C2031092C30388EC8E9D4E
:10298000F0018F9DF00D1124E752FE4F838180935B
:10299000C40381E08093C503809174039091750313
:1029A0000E940F1C9093C60380917403909175034D
:1029B0000E940F1C8093C70388E08093C303E1EC5F
:1029C000F3E028EC33E090E08191980F2E173F0759
:1029D000D9F79093C80388E0EAC080917003909182
:1029E0007103009771F487E090E00E94672F8C01DB
:1029F00088EC8E9DF0018F9DF00D1124E752FE4F63
:102A00001EC0FC01428150E068EC6E9D90016F9DFC
:102A1000300D1124B90167527E4F6B01DB01159611
:102A20002C91022E000C330B42175307B9F00E9471
:102A3000FF2F87E090E00E94672F8C01F6016581EF
:102A4000C8010E94541A81E0D80115968C931597FD
:102A500016961C92109371030093700300917003FB
:102A60001091710360E7C8010E94321960EBC80140
:102A70000E94D218C8010E946317C8010E94E91879
:102A800061EEC8010E948018C8010E94EA17C801BF
:102A90000E943318B82E60E0C8010E94A817C80130
:102AA0000E943318D82E60E0C8010E94A817C80100
:102AB0000E943318C82E61E0C8010E94A817C801FF
:102AC0000E946317BAEABB1207C0EBEBCE1204C038
:102AD000D8011696DC9201C0D12C82E58093C10307
:102AE00082E48093C20388EC8E9DF0018F9DF00DEF
:102AF0001124E752FE4F83818093C40381E08093C9
:102B0000C503D5FA882780F98093C603D4FA8827AD
:102B100080F98093C703D3FA882780F98093C8038C
:102B2000D2FA882780F98093C903D1FA882780F9DF
:102B30008093CA038D2D81708093CB038CE08093AA
:102B4000C303E1ECF3E02CEC33E090E08191980FCB
:102B50002E173F07D9F79093CC038CE028C090E064
:102B600082E58093C10382E48093C20388EC8E9D4A
:102B7000F0018F9DF00D1124E752FE4F8381809369
:102B8000C40325E081E08093C50386E08093C303FE
:102B9000E1ECF3E080E03191930F8F5F8217D8F37F
:102BA0009093C6038091C403882351F186E00E946C
:102BB000002026C00E94171EDC01CB018419950954
:102BC000A609B70981399140A105B10508F47FCB69
:102BD00082E58093C10382E48093C20388EC8E9DDA
:102BE000F0018F9DF00D1124E752FE4F83818093F9
:102BF000C40381E08093C503812C912C5401F4CB54
:102C0000A6960FB6F894DEBF0FBECDBFDF91CF9171
:102C10001F910F91FF90EF90DF90CF90BF90AF90FA
:102C20009F908F907F906F905F904F903F902F90EC
:102C300008952091CB013091CC012817390771F408
:102C40008091C9012091CA0190E0805C9F4F821B56
:102C5000910960E470E00E94392F089580E090E0CF
:102C600008952091CB013091CC0128173907B9F490
:102C70009091CA018091C901981789F0E091CA0129
:102C8000F0E0E757FE4F80812091CA0130E02F5FCE
:102C90003F4F2F7333272093CA0190E008958FEFA1
:102CA0009FEF089508951F920F920FB60F9211246F
:102CB0002F933F934F935F936F937F938F939F9344
:102CC000AF93BF93EF93FF93E091CB01F091CC01D1
:102CD000309709F451C0968DA685B785858591FFFB
:102CE00004C09C91892329F447C09C91892309F051
:102CF00043C0A389B4899C918589809589238C934D
:102D0000868997890197F1F7608D718DA685B785C2
:102D1000558538E020E0CB010197F1F7822F90E054
:102D200095958795282F4C91452309F020683150BF
:102D300091F7868D81FD20958091C90190E00196E3
:102D40008F7399273091CA01381749F0A091C901B2
:102D5000B0E0A757BE4F2C938093C90103C0868D66
:102D60008160868F828D938D0197F1F7A389B48955
:102D70009C918589892B8C93FF91EF91BF91AF91A5
:102D80009F918F917F916F915F914F913F912F9183
:102D90000F900FBE0F901F901895E091CB01F0910E
:102DA000CC01E817F90769F4A389B4899C91858956
:102DB000809589238C931092CC011092CB0181E0F5
:102DC000089580E008951F920F920FB60F9211247C
:102DD0002F933F938F939F93EF93FF93809188015D
:102DE00087FF05C0109285001092840005C0809175
:102DF000880187FD80918801809188018F5F809391
:102E000088018091880187FF20C0809188018C30E3
:102E1000E4F4209184003091850080918801082E8F
:102E2000000C990BFC01EE0FFF1F8E0F9F1FFC0182
:102E3000EC59FE4F81819281820F931F90938900FC
:102E4000809388008091880117C0809184009091C0
:102E50008500049680349C4918F480E49CE905C000
:102E600080918400909185000496909389008093CE
:102E700088008FEF80938801FF91EF919F918F9150
:102E80003F912F910F900FBE0F901F901895DC016E
:102E900013966C93139770E0FB01E850FF4FE49199
:102EA0001696EC931697FB01EC51FF4FE491F0E07E
:102EB000EE0FFF1FE652FF4F8591949118969C9359
:102EC0008E9317970895CF93DF93EC0161E08B8188
:102ED0000E9440218D818130C1F487E592E0019705
:102EE000F1F700C0000060E08C810E94E02060E00B
:102EF0008B810E94E02061E08C810E94E02061E0F3
:102F00008B81DF91CF910C94E02060E08C810E9456
:102F1000E0209AE19A95F1F700C060E08B810E9471
:102F2000E0208AE18A95F1F700C061E08C810E947F
:102F3000E0209AE19A95F1F700C061E08B810E9450
:102F4000E0208AE18A95F1F700C0DF91CF910895E2
:102F50001F93CF93DF93EC01162F61E08B810E94CA
:102F600040218D818130B9F487E592E00197F1F736
:102F700000C00000111102C060E001C061E08B815F
:102F80000E94E02061E08C810E94E02060E08C8162
:102F90000E94E02018C0111102C060E001C061E091
:102FA0008B810E94E02061E08C810E94E0209AE108
:102FB0009A95F1F700C060E08C810E94E0208AE1E0
:102FC0008A95F1F700C061E08B81DF91CF911F916D
:102FD0000C94E0201F93CF93DF93EC0160E08B8192
:102FE0000E9440218D818130D1F487E592E00197E4
:102FF000F1F700C0000061E08B810E94E02061E0F9
:103000008C810E94E0208B810E94B72011E0892BE7
:1030100009F410E060E08C810E94E0201FC061E0B4
:103020008B810E94E0209AE19A95F1F700C061E05F
:103030008C810E94E0208AE18A95F1F700C08B81A3
:103040000E94B72011E0892B09F410E060E08C8128
:103050000E94E0209AE19A95F1F700C0812FDF915C
:10306000CF911F9108950F931F93CF93DF938C01FE
:1030700060E0FC0183810E944021F801858181305C
:10308000E1F487E592E00197F1F700C00000D8E095
:1030900061E0F80184810E94E020CC0FF801838177
:1030A0000E94B720892B09F0C16060E0F80184819B
:1030B0000E94E020D15061F71DC0D8E061E0F80126
:1030C00084810E94E020CC0FF80183810E94B72008
:1030D000892B09F0C160FAE1FA95F1F700C060E0D0
:1030E000F80184810E94E020FAE1FA95F1F700C02E
:1030F000D15021F78C2FDF91CF911F910F9108951F
:103100000F931F93CF93DF93EC01162F61E08C8117
:103110000E94402161E08B810E9440218D8181309D
:10312000D9F487E592E00197F1F700C0000008E0CC
:1031300017FF02C061E001C060E08B810E94E020C7
:10314000110F61E08C810E94E02060E08C810E9480
:10315000E020015069F720C008E017FF02C061E0DD
:1031600001C060E08B810E94E0209AE19A95F1F71E
:1031700000C0110F61E08C810E94E0208AE18A95F5
:10318000F1F700C060E08C810E94E0209AE19A95FE
:10319000F1F700C0015009F780E0DF91CF911F9156
:1031A0000F910895CF93DF93EC018FE193E00197A6
:1031B000F1F700C00000CE010E94801887EC90E07B
:1031C0000197F1F700C00000CE01DF91CF910C9480
:1031D000EA17CF93DF93EC0161E08C810E944021DC
:1031E00061E08B810E9440218D818130C1F487E5AF
:1031F00092E00197F1F700C0000061E08B810E942E
:10320000E02061E08C810E94E02060E08B810E94E0
:10321000E02060E08C81DF91CF910C94E02061E0B0
:103220008B810E94E0209AE19A95F1F700C061E05D
:103230008C810E94E0208AE18A95F1F700C060E06D
:103240008B810E94E0209AE19A95F1F700C060E03E
:103250008C810E94E0208AE18A95F1F700C0DF911D
:10326000CF9108951F93CF93DF93EC01162F0E9407
:10327000E918612F660FCE010E94801880EA8A95B6
:10328000F1F7CE01DF91CF911F910C94EA17CF9205
:10329000DF92FF920F931F93CF93DF9300D000D064
:1032A000CDB7DEB78C0161E70E94321960EBC8012F
:1032B0000E94D218C8010E9463176AE070E080E0A3
:1032C00090E00E94DD1DC8010E94E91863EEC8016C
:1032D0000E948018C8010E94EA1734E0F32ECE0144
:1032E00001966C01FA94C801FF2051F00E94331836
:1032F000F60181936F0160E0C8010E94A817F2CF28
:103300000E9433188C8361E0C8010E94A817C8018D
:103310000E94631789818A3A59F48C818B3B41F46E
:103320008A8190E0982F88272B81820F911D02C0FF
:1033300081E090E0F80197838683F8018681978188
:103340000F900F900F900F90DF91CF911F910F91E1
:10335000FF90DF90CF900895FC01A381B481478155
:1033600020853185C901880F991F280F391F728563
:1033700063855FB7F8948C91942F90959823842B54
:10338000E72FF62F2E0F3F1FE217F30781F0419131
:1033900068E08C9300C047FF9C93440F00C000C0BE
:1033A00000C008F49C9300C06A9599F7EDCF5FBF09
:1033B000789461E070E080E090E00C94DD1D0F9364
:1033C000FC01A62FB0E080859185A817B907B8F455
:1033D000862F880F680F70E0A285B385A60FB71FF0
:1033E0002C93A285B385A60FB71F11964C938285A7
:1033F0009385FC01E60FF71F028381E001C080E0A6
:103400000F910895CF92DF92EF92FF920F931F9347
:10341000CF93DF937C01142FD22EC02E611111C0E7
:10342000C0E0D0E0F70180859185C817D90770F416
:103430000C2D2D2D412F6C2FC7010E94DF192196D5
:10344000F1CF61500E94DF1980E001C081E0DF917F
:10345000CF911F910F91FF90EF90DF90CF90089543
:10346000DC01E62FF0E0EE0FFF1FE85EFE4F8081EB
:103470008C93818111968C93119712966C93089579
:103480000F931F93CF938C01C62F0E94301AEC2FFD
:10349000F0E0EE0FFF1FE85EFE4F8181F8018383AD
:1034A000CF911F910F9108950F931F93CF938C018C
:1034B000C62F0E94301AEC2FF0E0EE0FFF1FE85EDF
:1034C000FE4F8181D80113968C93139780811496B7
:1034D0008C93149715961C92CF911F910F9108957C
:1034E0000F931F93CF938C01C62F0E94301AEC2F9D
:1034F000F0E0EE0FFF1FE85EFE4F8081D8011396CB
:103500008C931397918114969C9361E00E944021C3
:1035100061E0F8018481CF911F910F910C944021BB
:103520001F93CF93DF93EC01162F0E94301AE12FE7
:10353000F0E0EE0FFF1FE85EFE4F8181282F30E0A4
:10354000F901E850FF4FE491EF83F901EC51FF4F8F
:10355000E491F0E0EE0FFF1FE053FF4F259134910F
:103560003C832B8361E00E94402164E0CE01DF9127
:10357000CF911F910C94CE1F1F93CF93DF93EC013B
:10358000162F0E94301AE12FF0E0EE0FFF1FE85EC9
:10359000FE4F81818B8380818C838B8160E00E94D0
:1035A00040218C8161E00E9440218C8160E0DF91AC
:1035B000CF911F910C94E020DC012C911196ED919C
:1035C000FC911297F8948181922F909589238183A1
:1035D00078948DE743E050E0815021F1DA011197B2
:1035E000F1F730813223C1F3F894828189238283F9
:1035F0008181822B81837894ABE7B7E01197F1F753
:10360000F89481819823918383E191E00197F1F708
:103610008081282381E009F080E07894E3E6F6E0F9
:103620003197F1F708950F931F93CF93DF93EC0138
:10363000162F4F960E94301AE12FF0E0EE0FFF1F79
:10364000E85EFE4F118100811B821A8288EE93E0B2
:10365000A0E0B0E08C839D83AE83BF838AE091E0DD
:10366000998388831F8A1E8A198E188E1B8E1A8E44
:103670001D8E1C8E6E8D6E7F6D7F6E8F6695617058
:1036800081E06827812F0E94E02061E0812F0E9465
:103690004021812F90E0FC01E850FF4FE491E88B3E
:1036A000FC01EC51FF4FE491F0E0EE0FFF1FE053FF
:1036B000FF4F859194919A8B898B60E0802F0E94B7
:1036C00040218E8D81FD04C061E0802F0E94E020AA
:1036D0000C87802F90E0FC01E850FF4FE491ED87CC
:1036E000FC01EC51FF4FE491F0E0EE0FFF1FE652BA
:1036F000FF4F859194919F878E878AE091E099830F
:10370000888383E08AA31B8E1A8E198E188E1F8AD7
:103710001E8A85E690E09D8F8C8F063108F04EC0A2
:1037200081E290E09F8B8E8B83E690E0998F888F6B
:1037300082E490E09B8F8A8F30916800083058F0C7
:1037400021E00E3008F420E091E0892F01C0880FBD
:103750002A95EAF701C084E0832B809368009C855A
:10376000983038F09E3040F0963148F020E030E05C
:1037700008C02DE630E005C02BE630E002C02CE6A4
:1037800030E03C8B2B8B983030F481E001C0880F07
:103790009A95EAF70EC0292F30E09E3018F4285091
:1037A000310902C02E50310981E001C0880F2A95ED
:1037B000EAF78D8B8C8D9D8D0197F1F78A8D9B8D0E
:1037C000892BE1F08091CB019091CC01C817D907EA
:1037D000A9F0009711F00E94CD168E8D8E7F8E8FEE
:1037E0001092C9011092CA01D093CC01C093CB01B1
:1037F000EB89FC8990818D89892B8083DF91CF9122
:103800001F910F910895CF93DF93EC0160E08B81BE
:103810000E9440218B81DF91CF910C94A11DAF922A
:10382000BF92CF92DF92EF92FF920F931F93CF93AD
:10383000DF935C010AE010E0C12CD12C7601C0E0DE
:10384000D0E0C5010E94031CC817D90708F4EC0199
:10385000C80ED91EE11CF11C0150110991F7D701C6
:10386000C6018C1B9D0BA109B10923E0B695A79554
:10387000979587952A95D1F7DF91CF911F910F9159
:10388000FF90EF90DF90CF90BF90AF9008951F937F
:10389000CF93DF93EC01162F0E94301AE12FF0E056
:1038A000EE0FFF1FE85EFE4F80818B8381818C834A
:1038B0008B8160E00E9440218C8160E0DF91CF919C
:1038C0001F910C9440218F929F92AF92BF92CF9202
:1038D000DF92EF92FF920F931F93CF93DF937C01C0
:1038E0000AE010E0812C912C5401C0E0D0E0CC24FF
:1038F000CA9433E0D32E60E0F70183810E94402117
:10390000F70183810E94A11D9601281B390BC90173
:10391000C217D30708F4E901880E991EA11CB11C37
:103920000150110941F7D501C4018C1B9D0BA10960
:10393000B10923E0B695A795979587952A95D1F774
:10394000DF91CF911F910F91FF90EF90DF90CF907B
:10395000BF90AF909F908F900895CF92DF92EF929B
:10396000FF920F931F93CF93DF936C017A018B012A
:10397000C0E0D0E0CE15DF0581F0D8016D918D015A
:10398000D601ED91FC910190F081E02DC6010995E1
:10399000892B11F02196EECF7E01C701DF91CF91E7
:1039A0001F910F91FF90EF90DF90CF90089520919D
:1039B000CB013091CC012817390771F49091CA01DD
:1039C0008091C901981741F0E091CA01F0E0E757F2
:1039D000FE4F808190E008958FEF9FEF0895089546
:1039E0001F93CF93DF93DC015C968D919C915D9743
:1039F000009739F421E030E013963C932E93129710
:103A00003BC05196ED91FC91529750962C91509756
:103A1000322F30951FB75E964C915E97742F72705F
:103A200041FD6095F8944081772311F0422B01C04D
:103A300043234083EC012197F1F748E0508160FF78
:103A400002C0522B01C053235083EC012197F1F7A0
:103A50006695415099F78081772319F083238083FD
:103A600002C0282B20831FBF5C968D919C915D978F
:103A70000197F1F781E090E0DF91CF911F910895D8
:103A80000E9488301F93CF93DF93182FEB0161E0E2
:103A90000E944021209711F460E004C0CF3FD1057F
:103AA00039F461E0812FDF91CF911F910C94E020D8
:103AB000E12FF0E0E45FFE4FE491E330F9F048F4E9
:103AC000E130B9F0E230A1F584B5806284BDC8BDB3
:103AD00034C0E730E9F0E83019F1E43049F580917D
:103AE0008000806280938000D0938B00C0938A0016
:103AF00024C084B5806884BDC7BD1FC0809180008C
:103B0000806880938000D0938900C093880015C09E
:103B10008091B00080688093B000C093B3000DC066
:103B20008091B00080628093B000C093B40005C063
:103B3000C038D1050CF0B5CFAFCFDF91CF911F9139
:103B400008958E3008F08E508770806480937C00DA
:103B500080917A00806480937A0080917A0086FD5B
:103B6000FCCF809178002091790090E0922B08950D
:103B70003FB7F8948091B3039091B403A091B5033B
:103B8000B091B60326B5A89B05C02F3F19F001964A
:103B9000A11DB11D3FBFBA2FA92F982F8827820FD3
:103BA000911DA11DB11DBC01CD0142E0660F771F23
:103BB000881F991F4A95D1F708958F929F92AF92CF
:103BC000BF92CF92DF92EF92FF926B017C010E9435
:103BD000B81D4B015C01C114D104E104F104F1F002
:103BE0000E94B81DDC01CB0188199909AA09BB09FB
:103BF000883E9340A105B10570F321E0C21AD108B7
:103C0000E108F10888EE880E83E0981EA11CB11C23
:103C1000C114D104E104F10419F7DDCFFF90EF9056
:103C2000DF90CF90BF90AF909F908F9008952FB767
:103C3000F8946091AF037091B0038091B1039091BB
:103C4000B2032FBF08951F920F920FB60F92112447
:103C50002F933F938F939F93AF93BF938091AF0325
:103C60009091B003A091B103B091B2033091AE0333
:103C700023E0230F2D3720F40196A11DB11D05C0AF
:103C800026E8230F0296A11DB11D2093AE03809359
:103C9000AF039093B003A093B103B093B2038091AC
:103CA000B3039091B403A091B503B091B60301960C
:103CB000A11DB11D8093B3039093B403A093B503EA
:103CC000B093B603BF91AF919F918F913F912F9188
:103CD0000F900FBE0F901F901895833081F028F43D
:103CE000813099F08230A1F008958730A9F08830B2
:103CF000B9F08430D1F4809180008F7D03C0809131
:103D000080008F7780938000089584B58F7702C0FC
:103D100084B58F7D84BD08958091B0008F7703C0F6
:103D20008091B0008F7D8093B0000895BF92CF92B4
:103D3000DF92EF92FF920F931F93CF93DF933AE0BE
:103D4000B32EC12CD12C7601CFEFD3E000E010E0F0
:103D500084E10E94A11D0817190708F48C018C1733
:103D60009D0708F4EC01C80ED91EE11CF11CBA94A1
:103D7000B110EECFD701C601801B910BA109B1098B
:103D80008C1B9D0BA109B10923E0B695A7959795CA
:103D900087952A95D1F7883F23E09207A105B105C1
:103DA00008F0A8C08F3D23E09207A105B10508F0F7
:103DB000A4C08B3C23E09207A105B10508F0A0C088
:103DC000833A23E09207A105B10508F09CC085382D
:103DD00023E09207A105B10508F098C08C3623E0D6
:103DE0009207A105B10508F094C0813223E0920743
:103DF000A105B10508F090C08F3F22E09207A10510
:103E0000B10508F08CC0813D22E09207A105B10503
:103E100008F088C08F3922E09207A105B10508F0AB
:103E200084C08D3622E09207A105B10508F080C05C
:103E30008F3422E09207A105B10508F07CC08331E0
:103E400022E09207A105B10508F078C0853F21E086
:103E50009207A105B10508F074C0813E21E09207E8
:103E6000A105B10508F070C0833C21E09207A105CF
:103E7000B10508F06CC0873A21E09207A105B105B1
:103E800008F068C0863921E09207A105B10508F065
:103E900064C08C3721E09207A105B10508F060C02D
:103EA0008A3521E09207A105B10508F05CC0823394
:103EB00021E09207A105B10508F058C08F3021E03C
:103EC0009207A105B10508F054C0803D9105A105F8
:103ED000B10508F051C0853A9105A105B10508F07A
:103EE0004EC08A379105A105B10508F04BC08FEF90
:103EF00090E04AC080E090E047C08FE090E044C08E
:103F000083E190E041C08CE090E03EC08AE090E028
:103F10003BC085E090E038C089E090E035C08BE0A0
:103F200090E032C08DE090E02FC082E090E02CC0A5
:103F300080E190E029C08EE090E026C088E090E02B
:103F400023C083E090E020C084E190E01DC081E1C7
:103F500090E01AC087E190E017C085E190E014C0BE
:103F600087E090E011C086E190E00EC082E190E031
:103F70000BC086E090E008C084E090E005C089E1D5
:103F800090E002C088E190E0DF91CF911F910F9106
:103F9000FF90EF90DF90CF90BF900895CF93DF9385
:103FA000EC01862F90E09987888723E0629FC0010B
:103FB00011240E94672F9B878A87892B21F483E332
:103FC00091E00E948D3080E090E028853985A9013C
:103FD000440F551F240F351F8217930738F4EA85C5
:103FE000FB85E80FF91F10820196EFCFDF91CF918B
:103FF00008959091C00095FFFCCF8093C60008956E
:104000000F931F93CF93C82F01EC13E0CC2339F00B
:10401000F80181918F010E94F91FC150F7CFCF9114
:104020001F910F910895AF92BF92CF92DF92EF92BE
:10403000FF920F931F93CF93DF93DC0128E030E0D2
:1040400091E0AA24AA94B12C0FE010E043E2E42E00
:10405000F12C57EDC52ED12C8C911196ED91FC9140
:104060001297482F4095562F592381F0F89452818A
:10407000452342834181482B4183E7012197F1F792
:104080004281842B82837894F6010FC0F894528188
:10409000452342834181482B4183E5012197F1F774
:1040A0004281842B82837894F8013197F1F7990F3C
:1040B0002150310989F6F8941196ED91FC911297EF
:1040C00091818C918095892381831196ED91FC914A
:1040D000129792818C918095892382837894DF91C5
:1040E000CF911F910F91FF90EF90DF90CF90BF90F5
:1040F000AF9008950F931F93CF93DF93EC01162F8A
:10410000042F0E94E91862E5CE010E948018CE01BA
:104110000E94EA17612F6068CE010E948018CE01CC
:104120000E94EA17602FCE010E948018CE010E94E3
:10413000EA17CE010E946317802FDF91CF911F9164
:104140000F910895CF93DF93EC010E94E91868E482
:10415000CE010E948018CE010E94EA1761E3CE01D1
:104160000E948018CE01DF91CF910C946317CF93FA
:10417000DF93282F30E0F901E45FFE4F8491F901CD
:10418000E850FF4FD491F901EC51FF4FC491CC237B
:1041900091F081110E946D1EEC2FF0E0EE0FFF1FD9
:1041A000E652FF4FA591B491EC91ED2381E090E0B0
:1041B00021F480E002C080E090E0DF91CF9108958B
:1041C0001F93CF93DF93282F30E0F901E45FFE4F78
:1041D0008491F901E850FF4FD491F901EC51FF4F60
:1041E000C491CC23C1F0162F81110E946D1EEC2FBB
:1041F000F0E0EE0FFF1FE053FF4FA591B4919FB782
:10420000F894111104C08C91D095D82302C0EC9180
:10421000DE2BDC939FBFDF91CF911F9108958230F9
:10422000D1F018F4813089F00895833021F0843082
:1042300031F560E00BC060E087E00E94E02060E0C4
:104240008DE00E94E02061E00FC061E087E00E9405
:10425000E02060E005C061E087E00E94E02061E0CE
:104260008DE00E94E02060E08CE00E94E02069E1A7
:1042700070E080E090E00E94DD1D0C94961E089591
:10428000CF93DF9390E0FC01E850FF4F2491FC01B5
:10429000EC51FF4F8491882361F190E0880F991FC2
:1042A000FC01EA53FF4FC591D491FC01E053FF4F4D
:1042B000A591B491611109C09FB7F89488812095A8
:1042C00082238883EC912E230BC0623061F49FB768
:1042D000F8948881322F309583238883EC912E2B9C
:1042E0002C939FBF06C08FB7F894E8812E2B2883AC
:1042F0008FBFDF91CF9108954F925F926F927F921F
:104300008F929F92AF92BF92CF92DF92EF92FF92E5
:104310000F931F93CF93DF934A015B019C0140E011
:1043200050E060E472E48FE090E00E94422B69016B
:104330007A0161E08091BF030E944021A8EEB3E0C2
:10434000A50194010E94612B2B013C01E601D7FCE1
:104350002196D595C7958E01000F111F000F111FD3
:10436000055011090D2C000CEE08FF08812C912C32
:10437000540184149504A604B704E0F461E080912C
:10438000BF030E94E020C230D10518F0C801019798
:10439000F1F760E08091BF030E94E020C230D105B8
:1043A00018F0C8010197F1F7A8958C0C9D1CAE1C64
:1043B000BF1CDFCFDF91CF911F910F91FF90EF9046
:1043C000DF90CF90BF90AF909F908F907F906F9035
:1043D0005F904F900895CF92DF92EF92FF926C39E9
:1043E0002FEF72078207920784F19B01AC016536BB
:1043F00071058105910524F024E630E040E050E0AD
:1044000057FD27C0AFEFB0E00E94612B24E630E0FB
:1044100040E050E00E94422B69017A01232B242BBB
:10442000252B11F460E001C061E089E00E94402189
:1044300060E08AE00E944021D0928900C09288000A
:1044400010928B0010928A0028C02CE93FEF4FEFAA
:104450005FEFA1E0BFEF0E946F2B24E630E040E069
:1044600050E00E94422B69017A0161E08AE00E94DB
:10447000402160E089E00E944021D0928B00C092F0
:104480008A001092890010928800C092B703D092DF
:10449000B803E092B903F092BA03FF90EF90DF9077
:1044A000CF900895CF92DF92EF92FF920F931F93D8
:1044B000CF93DF936C392FEF7207820792070CF4CA
:1044C0003FC09B01AC01653671058105910524F063
:1044D00024E630E040E050E057FD36C0AFEFB0E0FA
:1044E0000E94612B24E630E040E050E00E94422B25
:1044F00069017A01D22FCD2D8701232B242B252B67
:1045000011F460E001C061E086E00E94402160E0BB
:1045100085E00E944021B60186E00E94421DD093B2
:10452000BB03C093BC030093BD031093BE03DF9194
:10453000CF911F910F91FF90EF90DF90CF90089552
:104540002CE93FEF4FEF5FEFA1E0BFEF0E946F2B31
:1045500024E630E040E050E00E94422BD22FC32FEF
:104560008A0161E085E00E94402160E086E00E94CF
:1045700040216D2F7C2F85E0D0CFCF93DF93EC01CE
:104580000E94541A81E08D83CE010E94E91867EEE3
:10459000CE010E94D21860E8CE010E94D21864EACF
:1045A000CE010E94D2186AE9CE010E94D21861E8B9
:1045B000CE010E94D21863E8CE010E94D218CE012B
:1045C000DF91CF910C946317CF92DF92EF92FF921D
:1045D0000F931F93CF93DF93EC01E62E8A01F22E07
:1045E0000E94E9186E0182E4C80ED11CF6016081B8
:1045F000660FCE010E948018CE010E94EA176E2D30
:10460000CE010E948018CE010E94EA17CE010E94BE
:104610006317F0E5FA95F1F7CE010E94E918F6016B
:104620006081660F6160CE010E948018CE010E94F9
:10463000EA17FA94EF2C6801EE2061F0CE010E9497
:104640003318F60181936F0160E0CE010E94A81734
:10465000EA94F2CF0F0D111DCE010E943318F8011C
:10466000808361E0CE010E94A817CE01DF91CF9137
:104670001F910F91FF90EF90DF90CF900C946317F4
:104680000F931F93CF93DF938C01D62FC42F0E94DB
:10469000E9186D2F660F6A59C8010E948018C80179
:1046A0000E94EA17EC2FC7FF07C0EF77F0E0EE5D3E
:1046B000FE4F6081606804C0F0E0EE5DFE4F6081F7
:1046C000C8010E948018C801DF91CF911F910F91FE
:1046D0000C9463170F931F93CF93DF93EC010E9409
:1046E000E91862E5CE010E948018CE010E94EA1707
:1046F00062E9CE010E948018CE010E94EA17CE0125
:104700000E94E91863E5CE010E948018CE010E9444
:10471000EA17CE010E943318182F61E0CE010E94E3
:10472000A817CE010E946317143411F0103161F5FF
:1047300081E08E8319850A85412F61E0CE010E94B8
:104740007A2019870A871F8108858E81811103C00D
:10475000CE010E946A23412F6FE0CE010E947A2091
:104760001F83088741E060E0CE010E947A2063E069
:1047700070E080E090E00E94DD1D43E060E0CE014B
:104780000E947A2081E001C080E0DF91CF911F91EB
:104790000F9108951F920F920FB60F9211242F932D
:1047A0003F938F939F93AF93BF93EF93FF9390911A
:1047B000C60080918B0481110EC0923509F043C070
:1047C000E0918A0438ECE39FF0011124E752FE4F98
:1047D000908381E00EC0813091F4923469F4E091CD
:1047E0008A0488ECE89FF0011124E752FE4F918380
:1047F00082E080938B0427C010928B0424C0209108
:104800008A0438EC239FF0011124E752FE4FDF01A8
:10481000A80FB11D9C938F5F80938B0492818917A1
:1048200010F4883C80F010928B048091690322235D
:1048300021F010928A04826004C091E090938A046F
:10484000816080936903FF91EF91BF91AF919F9138
:104850008F913F912F910F900FBE0F901F90189541
:1048600080E090E00895CF92DF92EF92FF920F9355
:104870001F93E82FF92F05C00150110921093109B3
:1048800061F1908196239417B9F305C00150110985
:104890002109310911F1908196239413F7CFC12C8E
:1048A000D12CE12CF12C0AC08FEFC81AD80AE80AE3
:1048B000F80A0C151D052E053F0579F08081862329
:1048C000841791F36C2D7D2D8E2D9F2D1F910F91AF
:1048D000FF90EF90DF90CF90089560E070E080E06F
:1048E00090E01F910F91FF90EF90DF90CF9008958F
:1048F00070E080E090E00E94312D2CE53FE842EA34
:104900005FE30E94892C0E94022D862F653B30F4C4
:10491000611102C087E008C0643B11F486E204C064
:1049200066E00E942D2F885F8093B300089570E0A9
:1049300080E090E00E94312D2CE53FE842EA5FE301
:104940000E94892C0E94022D862F653B30F4611154
:1049500002C087E008C0643B11F486E204C066E050
:104960000E942D2F885F8093B4000895789484B5B9
:10497000826084BD84B5816084BD85B5826085BD5B
:1049800085B5816085BD80916E00816080936E00E9
:1049900010928100809181008260809381008091DB
:1049A000810081608093810080918000816080938C
:1049B00080008091B10084608093B1008091B0004C
:1049C00081608093B00080917A00846080937A0047
:1049D00080917A00826080937A0080917A00816071
:1049E00080937A0080917A00806880937A00109298
:1049F000C10060E088E00E9440218091C000826098
:104A00008093C0001092C50080E18093C400809123
:104A1000C10080688093C1008091C1008061809353
:104A2000C1008091C10088608093C1008091C20064
:104A300084608093C2008091C20082608093C20033
:104A40006CE271E080E090E00E94DD1D61E0809109
:104A5000BF030E94402160E08091BF030E94E020DC
:104A600000E020E040E060E08DEC91E00E94021A5E
:104A7000EAEFF0E0E491E093D401E6EEF0E0E491B7
:104A8000F0E0EE0FFF1FE053FF4F8591949190935C
:104A9000D1018093D00161E082E00E94402120E0BA
:104AA00040E060E08DEC91E00E94021A8DEC91E014
:104AB0000E94AC196CE271E080E090E00E94DD1D84
:104AC00020E04EE160E08DEC91E00E94021A8DEC56
:104AD00091E00E94AC196CE271E080E090E00E94ED
:104AE000DD1D2EE140E060E08DEC91E00E94021AB5
:104AF0008DEC91E00E94AC196CE271E080E090E0F6
:104B00000E94DD1D0EE120E040E060E08DEC91E0D0
:104B10000E94021A8DEC91E00E94AC196CE271E0E7
:104B200080E090E00E94DD1D44EF51E060E070E025
:104B300084EF91E00E947C2161E085E00E944021A9
:104B400061E086E00E94402161E089E00E9440210E
:104B500061E08AE00E9440218DEA809380008BE032
:104B600080938100109289001092880010928B002F
:104B700010928A0064EF71E080E090E00E94DD1DF9
:104B800082E50E94F91F82E40E94F91F86E00E94DC
:104B9000F91F80E00E94F91F83E00E94F91F8DE950
:104BA0000E94F91F9FE088E10FB6F894A8958093C2
:104BB00060000FBE90936000A8953AE0A32E31E00C
:104BC000B32E40E0842E40E0942E55E0352E6EE06A
:104BD000462EA8958091690380FF36C08E7F809312
:104BE00069038091DB0150E040E090E00197252FC0
:104BF00030E0281739073CF4F901E752FE4F2081D5
:104C0000420F5F5FF4CFFC01E752FE4F80814813F3
:104C100002C080E037C082E50E94F91F82E40E9452
:104C2000F91F87E00E94F91F8091DC010E94F91FA3
:104C30008091DD010E94F91F80E00E94F91F909190
:104C4000DC018091DD0139C081FF3BC08D7F809305
:104C500069038091A30250E040E090E00197252F86
:104C600030E0281739073CF4F901EF55FD4F20815A
:104C7000420F5F5FF4CFFC01EF55FD4F8081481379
:104C800004C081E00E94BC001CC082E50E94F91FA4
:104C900082E40E94F91F87E00E94F91F8091A4021C
:104CA0000E94F91F8091A5020E94F91F80E00E94D6
:104CB000F91F9091A4028091A502890F86560E9447
:104CC000F91F88E00E94B720019719F481E08093D2
:104CD0009F0388E00E94B720892B21F480919F03D5
:104CE000811173C280919E03882321F110929E034B
:104CF00080916A038823F1F082E50E94F91F82E423
:104D00000E94F91F88E00E94F91F80E00E94F91FAD
:104D100081E00E94F91F89EF0E94F91F81E00E9443
:104D2000F91F87E90E94F91F87E90E94F91F87E9A7
:104D30000E94F91F80919D03882309F469C0809126
:104D40006C0390916D03A0916E03B0916F03019677
:104D5000A11DB11D883E23E09207A105B10548F4CD
:104D600080936C0390936D03A0936E03B0936F03D5
:104D700047C010926C0310926D0310926E03109254
:104D80006F0385E10E94A11DBC0180E090E00E94BC
:104D9000312D20E030E040E75CE30E946F2E6B0194
:104DA0007C0120E030E040E050E40E94622E1816C2
:104DB0003CF52AE939E949ED50E4C701B6010E9402
:104DC000842C87FF1DC082E50E94F91F82E40E94A7
:104DD000F91F88E00E94F91F80E00E94F91F82E01D
:104DE0000E94F91F8DEF0E94F91F81E00E94F91FB8
:104DF0008CE90E94F91F80916B038F5F80936B0396
:104E000080916B038A3020F010926B0310929D0307
:104E100080919C038111D2C10E94171E0091AA03A8
:104E20001091AB032091AC033091AD03DC01CB01B9
:104E3000801B910BA20BB30B893E9340A105B105DA
:104E400008F4BCC186EAC82E83E0D82E92EAE92E87
:104E500093E0F92E08E111E0C0E0712C7394872DE6
:104E60000E940F21682ED6018D936D0181110BC018
:104E700060E0F80182810E94402160E0D801139631
:104E80008C910E944021D701EC916E1609F451C11A
:104E90008E2F90E0FC013297E831F10508F048C10F
:104EA000EC5CFF4F0C944D2F80919A0390919B03E3
:104EB000009731F00E94FF2F10929B0310929A03EB
:104EC0008091980390919903009731F00E94FF2FF1
:104ED00010929903109298038091960390919703F2
:104EE000009709F425C10E94FF2F1092970310929A
:104EF00096031EC18091940390919503009709F445
:104F000017C10E94FF2F109295031092940310C1B5
:104F10008091920390919303009709F409C10E9434
:104F2000FF2F109293031092920302C1809190037D
:104F300090919103009709F4FBC00E94FF2F1092FB
:104F4000910310929003F4C080918E0390918F038F
:104F5000009709F4EDC00E94FF2F10928F0310926A
:104F60008E03E6C080918C0390918D03009709F425
:104F7000DFC00E94FF2F10928D0310928C03D8C0C7
:104F800080918A0390918B03009731F00E94FF2F4C
:104F900010928B0310928A03C0918803D0918903E9
:104FA000209709F4C5C0CE010E94CD16B982A8820F
:104FB000CE010E94CD16CE010E94FF2F10928903D0
:104FC00010928803B5C08091A0039091A10300972F
:104FD00009F4AEC00E94FF2F1092A1031092A0030B
:104FE000A7C08091860390918703009709F4A0C021
:104FF0000E94FF2F109287031092860399C0809120
:10500000840390918503009709F492C00E94FF2FBA
:1050100010928503109284038BC0C0918203D091BB
:105020008303209709F484C08A859B850E94FF2F03
:10503000CE010E94FF2F109283031092820378C04A
:105040008091800390918103009709F471C00E94C0
:10505000FF2F10928103109280036AC080917E031B
:1050600090917F03009709F463C00E94FF2F109274
:105070007F0310927E035CC080917C0390917D033E
:10508000009709F455C00E94FF2F10927D031092E3
:105090007C034EC080917A0390917B03009709F4C2
:1050A00047C00E94FF2F10927B0310927A0340C0EA
:1050B00080917803909179030097D1F10E94FF2F9E
:1050C000109279031092780333C080917603909107
:1050D0007703009769F10E94FF2F109277031092D7
:1050E000760326C08091740390917503009701F1B7
:1050F0000E94FF2F109275031092740319C08091C3
:10510000720390917303009799F00E94FF2F109201
:105110007303109272030CC080917003909171031D
:10512000009731F00E94FF2F1092710310927003CC
:10513000C1E0F70161927F010E5F1F4FF4E07F1223
:105140008DCECC2389F182E58093C10382E48093E4
:10515000C2031092C4033092C5038091A2038093CE
:10516000C6038091A3038093C7038091A403809317
:10517000C8038091A5038093C9031092CA031092BB
:10518000CB031092CC031092CD034092C303E1EC09
:10519000F3E08191580E23E0EE3CF207D1F75092F4
:1051A000CE038EE00E9400200E94171E6093AA0387
:1051B0007093AB038093AC039093AD03811491047F
:1051C00009F407CD0E94000004CD81E080939E0386
:1051D00010929F0387CD4F925F926F927F928F9232
:1051E0009F92AF92BF92CF92DF92EF92FF920F9376
:1051F0001F93CF93DF9300D000D000D0CDB7DEB7A0
:105200009E838D8380E090E0A3E8B2E4ED81FE818F
:1052100086839783A087B1871286138614861586A6
:1052200016861786108A118A128A138A148A158A9A
:10523000168A178A108E118E128E138E148E158E6A
:10524000168E178E10A211A213A212A215A214A2DA
:1052500017A216A210A611A612A613A614A615A68A
:1052600016A617A610AA11AA12AA13AA64E670E03D
:1052700080E090E00E94DD1D40E06BE68D819E8124
:105280000E94562A6EE170E080E090E00E94DD1DF1
:1052900041E06AE18D819E810E94562A48E06BE1DF
:1052A0008D819E810E94562A62E370E080E090E04A
:1052B0000E94DD1D04EF11E019821A821B821C82FC
:1052C000812C912C5401412C512C3201ED80FE8017
:1052D000F4E3EF0EF11C26E0A70163E48D819E81CB
:1052E0000E94E422ED81FE8184A995A9982789274F
:1052F0009827092E000CAA0BBB0B480E591E6A1EDC
:105300007B1E86A997A9982789279827092E000C24
:10531000AA0BBB0B880E991EAA1EBB1E80AD91ADB9
:10532000982789279827092E000CAA0BBB0B2981E7
:105330003A814B815C81280F391F4A1F5B1F2983EB
:105340003A834B835C83A8950150110921F684EFC1
:10535000C82EDD24D394E12CF12CC301B201A701A6
:1053600096010E94422BCA01B9010E94332DED81A2
:10537000FE8160A771A782A793A7C501B401A70109
:1053800096010E94422BCA01B9010E94332DED8182
:10539000FE8164A775A786A797A769817A818B810B
:1053A0009C81A70196010E94422BCA01B9010E946B
:1053B000332DED81FE8160AB71AB82AB93AB269652
:1053C0000FB6F894DEBF0FBECDBFDF91CF911F9116
:1053D0000F91FF90EF90DF90CF90BF90AF909F9094
:1053E0008F907F906F905F904F9008950F931F93D1
:1053F000CF93DF93EC01162F0E94E91862E5CE01EE
:105400000E948018CE010E94EA17612F6068CE01C9
:105410000E948018CE010E94EA17CE010E94E9186E
:1054200063E5CE010E948018CE010E94EA17CE01EA
:105430000E943318182F60E0CE010E94A817CE01F9
:105440000E943318082F61E0CE010E94A817CE01F8
:105450000E946317812F90E0902BDF91CF911F91D5
:105460000F910895FF920F931F93CF93DF93EC0159
:10547000F62E042F122F60E50E94321963EACE0146
:105480000E94D2186F2DCE010E94D218602FCE013B
:105490000E94D218612FCE010E94D218CE01DF9156
:1054A000CF911F910F91FF900C9463170F931F934F
:1054B000CF93DF93EC01062F142F0E94E918FE0111
:1054C000EE5BFF4F6081660FCE010E948018CE0117
:1054D0000E94EA17602FCE010E948018CE010E9420
:1054E000EA17612FCE010E948018CE010E94EA17B0
:1054F000CE01DF91CF911F910F910C946317AF9262
:10550000BF92CF92DF92EF92FF920F931F93CF93B0
:10551000DF93EC015B016A0179018E81811103C087
:10552000CE010E946A2364E1CE010E94F629F801AF
:105530009183808366E1CE010E94F629F501918373
:10554000808368E1CE010E94F629F6019183808371
:105550006AE1CE010E94F629F70191838083898553
:105560009A85853D910519F150F4009729F1803C09
:10557000910591F56AE970E080E090E021C0863FF6
:10558000910581F08F3F910541F08B3E910521F50A
:1055900062E370E080E090E013C063E070E080E0E0
:1055A00090E00EC068E170E080E090E009C065E640
:1055B00070E080E090E004C06CEB72E080E090E08E
:1055C000DF91CF911F910F91FF90EF90DF90CF90DF
:1055D000BF90AF900C94DD1DDF91CF911F910F9183
:1055E000FF90EF90DF90CF90BF90AF9008958091A3
:1055F000D7019091D8010C94FF2FADECB1E01C9233
:1056000011961C92119712961C921297E8EFF0E0F7
:10561000E4911796EC931797E4EEF0E0E491F0E054
:10562000EE0FFF1FE053FF4F8591949114969C93CA
:105630008E93139761E080E00E94402162E08DEC40
:1056400091E00E94CE1F84E08093BF0360E084E17C
:105650000E94402161E08CE00E94402161E08DE0E9
:105660000E94402161E087E00E94402160E08CE0E0
:105670000E94E02060E08DE00E94E02060E087E092
:105680000C94E020052E97FB1EF400940E94592BE9
:1056900057FD07D00E94742B07FC03D04EF40C94E6
:1056A000592B50954095309521953F4F4F4F5F4F67
:1056B000089590958095709561957F4F8F4F9F4F7E
:1056C00008950E94962BA59F900DB49F900DA49FC6
:1056D000800D911D11240895B7FF0C94612B0E9439
:1056E000612B821B930B0895A1E21A2EAA1BBB1BF0
:1056F000FD010DC0AA1FBB1FEE1FFF1FA217B3079E
:10570000E407F50720F0A21BB30BE40BF50B661FB3
:10571000771F881F991F1A9469F760957095809577
:1057200090959B01AC01BD01CF010895A29FB001EE
:10573000B39FC001A39F700D811D1124911DB29FC5
:10574000700D811D1124911D08955058BB27AA2763
:105750000E94BD2B0C94102E0E94022E38F00E9445
:10576000092E20F039F49F3F19F426F40C94D82D1B
:105770000EF4E095E7FB0C94A92DE92F0E94212E51
:1057800058F3BA17620773078407950720F079F476
:10579000A6F50C945B2E0EF4E0950B2EBA2FA02DDF
:1057A0000B01B90190010C01CA01A0011124FF27CE
:1057B000591B99F0593F50F4503E68F11A16F040C9
:1057C000A22F232F342F4427585FF3CF46953795C8
:1057D0002795A795F0405395C9F77EF41F16BA0B8D
:1057E000620B730B840BBAF09150A1F0FF0FBB1F3B
:1057F000661F771F881FC2F70EC0BA0F621F731F84
:10580000841F48F4879577956795B795F7959E3FE0
:1058100008F0B0CF9395880F08F09927EE0F979571
:10582000879508950E94022E60F080E891E009F4C7
:105830009EEF0E94092E28F040E851E071F45EEFDF
:105840000CC00C94D82D0C945B2EE92FE0780E94AC
:10585000212E40F3092E052AB1F3261737074807F2
:10586000590738F00E2E07F8E02569F0E025E064CE
:105870000AC0EF6307F8009407FADB01B9019D0144
:10588000DC01CA01AD01EF930E94A02C0E94102EF2
:105890000E94552C5F91552339F02BED3FE049E4F0
:1058A00050FD49EC0C94A62B0895DF93DD27B92F0A
:1058B000BF7740E85FE31616170648075B0718F442
:1058C000D92F0E94672E9F938F937F936F930E948F
:1058D000222FE8E9F0E00E94DB2D0E94102E2F918C
:1058E0003F914F915F910E94822EDD2351F090589D
:1058F000A2EA2AED3FE049EC5FE3D0785D270E9401
:10590000BD2BDF910C94102E0E94852D08F481E0B0
:1059100008950E949D2C0C94102E0E94092E58F080
:105920000E94022E40F029F45F3F29F00C94A92D2B
:1059300051110C945C2E0C94D82D0E94212E68F3EA
:105940009923B1F3552391F3951B550BBB27AA2738
:1059500062177307840738F09F5F5F4F220F331F72
:10596000441FAA1FA9F335D00E2E3AF0E0E832D03A
:1059700091505040E695001CCAF72BD0FE2F29D03D
:10598000660F771F881FBB1F261737074807AB070F
:10599000B0E809F0BB0B802DBF01FF2793585F4F84
:1059A0003AF09E3F510578F00C94A92D0C945C2E92
:1059B0005F3FE4F3983ED4F3869577956795B79566
:1059C000F7959F5FC9F7880F911D9695879597F971
:1059D0000895E1E0660F771F881FBB1F62177307EA
:1059E0008407BA0720F0621B730B840BBA0BEE1FFF
:1059F00088F7E09508950E94022D6894B1110C94E7
:105A00005C2E08950E94292E88F09F5798F0B92F98
:105A10009927B751B0F0E1F0660F771F881F991FE3
:105A20001AF0BA95C9F714C0B13091F00E945B2EFC
:105A3000B1E008950C945B2E672F782F8827B85F0C
:105A400039F0B93FCCF3869577956795B395D9F73B
:105A50003EF490958095709561957F4F8F4F9F4F45
:105A60000895E89409C097FB3EF490958095709551
:105A700061957F4F8F4F9F4F9923A9F0F92F96E99A
:105A8000BB279395F695879577956795B795F1110F
:105A9000F8CFFAF4BB0F11F460FF1BC06F5F7F4FAC
:105AA0008F4F9F4F16C0882311F096E911C07723BE
:105AB00021F09EE8872F762F05C0662371F096E8C7
:105AC000862F70E060E02AF09A95660F771F881F96
:105AD000DAF7880F9695879597F908950E94432ED7
