:100000000C947A000C94A2000C94A2000C94C027CB
:100010000C94C0270C94C0270C94A2000C94A2004E
:100020000C94A2000C94A2000C94A2000C9438280A
:100030000C94A2000C94A2000C94A2000C94A200B8
:100040000C9476270C94A2000C949C280C94A2008B
:100050000C94A2000C94A2000C94A2000C94A20098
:100060000C94A2000C94A200084AD73B3BCE016E30
:1000700084BCBFFDC12F3D6C74319ABD56833DDAFF
:100080003D00C77F11BED9E4BB4C3E916BAAAABE0E
:10009000000000803F0000000000240027002A002C
:1000A00000000000230026002900000000080002D4
:1000B0000100000304070000000000000000000031
:1000C0000000250028002B00040404040404040498
:1000D00002020202020203030303030301020408F3
:1000E00010204080010204081020010204081020A2
:1000F000382F9F2F11241FBECFEFD8E0DEBFCDBF1A
:1001000011E0A0E0B1E0EEE3FAE602C005900D9246
:10011000AE37B107D9F726E0AEE7B1E001C01D92D6
:10012000A237B207E1F710E0C9E7D0E004C0219799
:10013000FE010E94A833C837D107C9F70E949A2B45
:100140000C9412350C9400009091C00095FFFCCFE8
:100150008093C60008950F931F93CF93C82F00EA92
:1001600015E0F80181918F010E94A400C150C9F7E8
:10017000CF911F910F9108952F923F924F925F92CE
:100180006F927F928F929F92AF92BF92CF92DF92A7
:10019000EF92FF920F931F93CF93DF93CDB7DEB70C
:1001A000C05AD1090FB6F894DEBF0FBECDBFFC0117
:1001B000C156DF4F79836883CF59D0404A014281CD
:1001C000538184819581E680E982F084FA825A0124
:1001D00023E0AA0CBB1C2A95E1F708E0A022BB246F
:1001E0006C0136E0CC0CDD1C3A95E1F710E4C1223D
:1001F000DD24AC28BD2860817181677077276A296A
:100200007B29BE2DBB0FA0E0AA27B2706A2B7B2BE7
:10021000F294A0EFFA22E12CEE2420E1F2226E29E2
:100220007F295A01B3E0AA0CBB1CBA95E1F730E173
:10023000A322BB246A297B295A0113E0AA0CBB1C08
:100240001A95E1F740E2A422BB24A62AB72AAC0102
:1002500006E0440F551F0A95E1F740785527A42A78
:10026000B52A26E0880F991F2A95E1F78827917013
:10027000A82AB92A1981110F00E000271470A02ABA
:10028000B12A3981330F20E022273870A22AB32AFD
:100290007A80729430EF7322612C662450E27522CA
:1002A000A628B7285A80529440EF5422412C442467
:1002B00060E45622A428B528C156DF4FA881B98131
:1002C000CF59D040AC921196BC9226853785808953
:1002D0009189A289B489B90153E0660F771F5A95B5
:1002E000E1F768707727AC0116E0440F551F1A95A7
:1002F000E1F740745527462B572B3A2E330C212C0F
:10030000222402E03022242A352A1B2F1295107F46
:100310001C831B824B815C8144275071242A352A1F
:10032000B90103E0660F771F0A95E1F7607177273F
:10033000262A372AB90123E0660F771F2A95E1F7AD
:1003400060727727622973291C0136E0220C331C66
:100350003A95E1F720E8222233246229732946E006
:10036000880F991F4A95E1F788279170682B792BA0
:100370003A2F330F3E831D822D803E80222444E09D
:1003800034226229732938871F822F8038842224DF
:1003900058E03522622973291A87198629843A84FC
:1003A000222490E23922622973291C871B862B8420
:1003B0003C842224A0E43A2262297329C156DF4FEB
:1003C000A881B981CF59D04012966C931297139699
:1003D0007C9344855585228D338D848D958DA68D96
:1003E000B285BA01660F771F6270772741FBEE2452
:1003F000E0F8ED861E860D851E85602B712B4470FE
:100400005527462B572BB90103E0660F771F0A9536
:10041000E1F768707727462B572BBC0116E0660F73
:10042000771F1A95E1F760747727462B572B1A2F01
:10043000110F188B1F866F85788966277270642B61
:10044000752B4B2F4295407F4A8B198A49895A89CF
:1004500044275071642B752B890143E0000F111F55
:100460004A95E1F700711127602B712B890153E048
:10047000000F111F5A95E1F700721127062B172B59
:10048000BC0126E0660F771F2A95E1F76078772791
:10049000062B172B36E0880F991F3A95E1F788272E
:1004A0009170082B192B5A2F550F5C8B1B8A6B8967
:1004B0007C8966277470062B172B5E8B1D8A6D89CD
:1004C0007E8966277870062B172B6B2F6295607FCD
:1004D000688F1F8A6F89788D66277072062B172B9D
:1004E000B295B07FBA8F198E698D7A8D6627707438
:1004F000062B172BC156DF4FA881B981CF59D040A9
:1005000014960C93149715961C93408D518D26A12B
:1005100037A180A591A502A51689DA01AA0FBB1FF4
:10052000A270BB27BA017695679576956795772770
:10053000669577956627A62BB72B690163E0CC0CEF
:10054000DD1C6A95E1F768E0C622DD24AC29BD29EF
:100550006C0176E0CC0CDD1C7A95E1F770E4C722E3
:10056000DD24AC29BD29E02EEE0CEC8E1B8ECB8C4D
:10057000DC8CCC2462E0D622AC29BD29712F729587
:10058000707F7E8F1D8ECD8CDE8CCC2460E1D622D8
:10059000BD016C297D29DA01AA0FBB1FA470BB27FE
:1005A000A62BB72BB90153E0660F771F5A95E1F7D9
:1005B000607177276A2B7B2BD90123E0AA0FBB1F21
:1005C0002A95E1F7A072BB27A62BB72BBC0136E01A
:1005D000660F771F3A95E1F7607877276A2B7B2BB8
:1005E00046E0880F991F4A95E1F788279170AB0183
:1005F000482B592BE8A21F8E6F8D78A16627747047
:10060000462B572BEAA219A269A17AA16627787016
:10061000462B572B812F8295807F8CA31BA26BA129
:100620007CA166277072462B572B8EA31DA26DA14D
:100630007EA166277074642B752BC156DF4FA8818D
:10064000B981CF59D04016966C93169717967C9324
:1006500024A135A184A995A9A0A1B2A1A901440F03
:10066000551F42705527BC0116E0660F771F1A957B
:10067000E1F760747727642B752BEA2EEE0CE8A661
:100680001FA24FA158A544275270462B572BFB2E73
:10069000F29400EFF022FAA619A669A57AA56627BA
:1006A0007071462B572B8901000F111F0470112701
:1006B000402B512B8901000F111F08701127042BAB
:1006C000152BAC0126E0440F551F2A95E1F7407821
:1006D0005527042B152B36E0880F991F3A95E1F723
:1006E00088279170082B192BECA61BA64BA55CA59F
:1006F00044275470042B152BEEA61DA64DA55EA510
:1007000044275870042B152BF8AA1FA64FA558A9EB
:1007100044275072042B152BFAAA19AA49A95AA9E1
:1007200044275074042B152BC156DF4FA881B98183
:10073000CF59D04018960C93189719961C9342A93C
:1007400053A920A931A9BF01605C7F4FDB018D91C6
:100750009C9104A516A5BA01A4E0660F771FAA957F
:10076000E1F76071772741FBBB27B0F9BBAB1CAA4F
:10077000EBA8FCA86E297F297901EE0CFF1CA2E0F2
:10078000EA22FF246E297F297C01A6E0EE0CFF1CE3
:10079000AA95E1F7B0E4EB22FF246E297F29E02E31
:1007A000EE0CEEAA1DAAEDA8FEA8EE24A2E0FA2205
:1007B0006E297F29B12FB295B07FB8AF1FAAEFA8DD
:1007C000F8ACEE24A0E1FA226E297F297A01B3E089
:1007D000EE0CFF1CBA95E1F7B0E2EB22FF24E62A0B
:1007E000F72AB901660F771F647077276E297F2972
:1007F000D901AA0FBB1FA870BB27A62BB72BBC0122
:1008000026E0660F771F2A95E1F7607877276A2B35
:100810007B2B36E0880F991F3A95E1F78827917076
:10082000AB01482B592BE02EEE0CEAAE19AE69ADA8
:100830007AAD66277470462B572BECAE1BAE6BADB2
:100840007CAD66277870462B572BF12EF29460EF23
:10085000F622FEAE1DAE6DAD7EAD66277072462BE4
:10086000572B2196FFAE21971FAE21966EAD7FAD1F
:10087000219766277074642B752BC156DF4FA881B2
:10088000B981CF59D0401A966C931A971B967C93D6
:1008900044AD55AD26AD37AD86A997A900AD12ADD3
:1008A000DA01AA0FBB1F7D0162E0E622FF24B90135
:1008B000A4E0660F771FAA95E1F7607177276E298C
:1008C0007F297901F694E794F694E794FF24E6945F
:1008D000F794EE246E297F297C01B6E0EE0CFF1C14
:1008E000BA95E1F7A0E4EA22FF246E297F29B02F10
:1008F000BB0F2396BFAF239722961FAE2297239656
:10090000EEACFFAC2397EE24A2E0FA22E62AF72A07
:10091000B12FB295B07F2596BFAF259724961FAE15
:10092000249725966EAD7FAD259766277071670178
:10093000C62AD72A7A01EE0CFF1C64E0E622FF24C7
:10094000EC28FD28440F551F48705527E42AF52A46
:10095000A4E0220F331FAA95E1F720723327E22A81
:10096000F32AAC0126E0440F551F2A95E1F74078A1
:1009700055274E295F2936E0880F991F3A95E1F7F0
:1009800088279170BA01682B792B802F880F2796C2
:100990008FAF279726961FAE269727964EAD5FAD51
:1009A000279744275470642B752B29968FAF29976E
:1009B00028961FAE289729964EAD5FAD29974427FC
:1009C0005870642B752B2B96BFAF2B972A961FAEB2
:1009D0002A972B964EAD5FAD2B9744275072642B10
:1009E000752B2D96BFAF2D972C961FAE2C972D965D
:1009F0004EAD5FAD2D9744275074462B572BC156F3
:100A0000DF4FA881B981CF59D0401C964C931C97D9
:100A10001D965C939F01285B3F4FD9012D913C911E
:100A2000AF01465B5F4FDA018D919C91BF016C5B1A
:100A30007F4FDB01FC9044505109DA01EC90A90191
:100A4000440F551F42705527BC01A4E0660F771F65
:100A5000AA95E1F760717727642B752BBF2DBB0F2B
:100A60002F96BFAF2F972E961FAE2E972F964EAD77
:100A70005FAD2F9744275270462B572B0E2D0295B2
:100A8000007F61960FAF619760961FAE6097619689
:100A90006EAD7FAD619766277071462B572B89012C
:100AA000000F111F04701127402B512B8901000FDB
:100AB000111F08701127042B152BAC01A4E0440F63
:100AC000551FAA95E1F740725527042B152B24E0FA
:100AD000880F991F2A95E1F780749927082B192B05
:100AE0006396BFAF639762961FAE629763964EADF3
:100AF0005FAD639744275470042B152B6596BFAFE9
:100B0000659764961FAE649765964EAD5FAD659729
:100B100044275870042B152B3E2D3295307F679655
:100B20003FAF679766961FAE669767964EAD5FAD0F
:100B3000679744275072042B152B69963FAF69972E
:100B400068961FAE689769964EAD5FAD699744276A
:100B50005074042B152BC156DF4FA881B981CF5992
:100B6000D0401E960C931E971F961C93DF01AC5A23
:100B7000BF4F4D915C91119712962D913C91119719
:100B800054978D919C9111971E96EC90EA82129643
:100B9000FC90F982DA01AA0FBB1FA270BB27B90132
:100BA00014E0660F771F1A95E1F7607177276A2BBB
:100BB0007B2BDC01B695BA2FAA27B795A795BB2743
:100BC0006A2B7B2B81FB002700F96A960FAF6A978F
:100BD0006B961FAE6B976B96AEADBFAD6B976A2BE6
:100BE0007B2BEE0C6D96EFAE6D976C961FAE6C97EF
:100BF0006D96AEADBFAD6D97AA27B2706A2B7B2BF9
:100C0000F294A0EFFA226F96FFAE6F976E961FAE2A
:100C10006E976F96AEADBFAD6F97AA27B0716A2B76
:100C20007B2B8A01000F111F04701127602B712B81
:100C30008A01000F111F08701127062B172BB9010D
:100C400054E0660F771F5A95E1F760727727062BFD
:100C5000172B64E0220F331F6A95E1F720743327C6
:100C6000022B132B76E0880F991F7A95E1F78827DE
:100C70009170082B192BA196EFAEA197A0961FAEED
:100C8000A097A1966EAD7FADA19766277470062BD5
:100C9000172BA396EFAEA397A2961FAEA297A3968B
:100CA0006EAD7FADA39766277870062B172BF98062
:100CB000F294A0EFFA22A596FFAEA597A4961FAED8
:100CC000A497A5966EAD7FADA59766277072602B31
:100CD000712BA796FFAEA797A6961FAEA697A796CD
:100CE0000EAD1FADA79700271074602B712BD40198
:100CF0006C9311967C93DF01A05ABF4F4D915C918C
:100D0000119712962D913C91119754978D919C912A
:100D100011971E96EC90EA821296FC90F982DA0105
:100D2000AA0FBB1FA270BB27B90104E0660F771F93
:100D30000A95E1F7607177276A2B7B2BDC01B6956A
:100D4000BA2FAA27B795A795BB276A2B7B2BDC0167
:100D5000B695A795B695A795BB27A695B795AA274B
:100D60006A2B7B2BEE0CA996EFAEA997A8961FAE27
:100D7000A897A996AEADBFADA997AA27B270A62B2A
:100D8000B72BF29400EFF022AB96FFAEAB97AA968A
:100D90001FAEAA97AB966EAD7FADAB97662770710D
:100DA000A62BB72B8A01000F111F04701127A02B4F
:100DB000B12B8A01000F111F087011270A2B1B2B62
:100DC000D90144E0AA0FBB1F4A95E1F7A072BB27E7
:100DD0000A2B1B2B54E0220F331F5A95E1F7207486
:100DE0003327022B132BDC01B695A795BA2FAA2720
:100DF000AA27B1700A2B1B2BAD96EFAEAD97AC9620
:100E00001FAEAC97AD96AEADBFADAD97AA27B4708F
:100E10000A2B1B2BAF96EFAEAF97AE961FAEAE97D9
:100E2000AF96AEADBFADAF97AA27B8700A2B1B2BFC
:100E3000E196FFAEE197E0961FAEE097E196AEAD8A
:100E4000BFADE197AA27B072A02BB12BE396FFAEFE
:100E5000E397E2961FAEE297E3960EAD1FADE397E0
:100E6000002710740A2B1B2BD40112960C93129797
:100E700013961C93DF01A459BF4F4D915C911197BC
:100E800090972D913C9111971E968D919C91119761
:100E900050961C917A01EE0CFF1CB7016270772707
:100EA000D90104E0AA0FBB1F0A95E1F7A071BB2787
:100EB0006A2B7B2B7C836B83BC017695762F662710
:100EC000779567957727AB81BC816A2B7B2BB12FF8
:100ED000B295B07FE596BFAFE597E4961FAEE49775
:100EE000E596AEADBFADE597AA27B0716A2B7B2B17
:100EF0007A01EE0CFF1CD701A470BB27A62BB72BE1
:100F0000A70148705527A42BB52BBC83AB8379016F
:100F100004E0EE0CFF1C0A95E1F7B0E2EB22FF249F
:100F20004B815C81E42AF52A44E0220F331F4A9565
:100F3000E1F720743327E22AF32A6C01D694C79490
:100F4000DC2CCC24CC2451E0D522EC28FD2896952D
:100F5000982F88279795879588279270E82AF92AED
:100F6000612F6295607FE7966FAFE797E6961FAEB9
:100F7000E697E7968EAD9FADE79788279072E82AAF
:100F8000F92AE9966FAFE997E8961FAEE897E996D8
:100F90008EAD9FADE99788279074E82AF92AD4018D
:100FA0001496EC9214971596FC92DF01A858BF4F47
:100FB0006D917C91119790974D915C9111971E9630
:100FC0002D913C91119712960C911E961C917B01CC
:100FD000EE0CFF1CC70182709927DA01A295B29529
:100FE000B07FBA27A07FBA27A071BB278A2B9B2B83
:100FF0009C838B83C9019695982F88279795879511
:101000009927AB81BC818A2B9B2BB02FBB0FBB0FC9
:10101000EB96BFAFEB97EA961FAEEA97EB96AEADB5
:10102000BFADEB97AA27B4708A2B9B2B01FBEE2454
:10103000E0F8EC96EFAEEC97ED961FAEED97ED96DF
:10104000AEADBFADED978A2B9B2BB12FB295B07F84
:10105000EF96BFAFEF97EE961FAEEE97EF96AEAD61
:10106000BFADEF97AA27B0718A2B9B2B7B01EE0CAB
:10107000FF1CD701A470BB27A82BB92BB701687040
:101080007727A62BB72BBC83AB837A0184E0EE0CC9
:10109000FF1C8A95E1F7B0E2EB22FF246B817C8193
:1010A000E62AF72A94E0440F551F9A95E1F7407419
:1010B0005527E42AF52A6901D694C794DC2CCC2460
:1010C000CC2471E0D722EC28FD283695322F222738
:1010D0003795279522273270E22AF32A000FC0584D
:1010E000DF4F0883C058D040C158DF4F1882CF5718
:1010F000D040C158DF4F28813981CF57D0402227B7
:101100003870E22AF32A812F8295807FCE57DF4FF5
:101110008883C258D040CF57DF4F1882C158D04083
:10112000CF57DF4F28813981C158D04022273072F4
:10113000E22AF32ACC57DF4F8883C458D040CD57DA
:10114000DF4F1882C358D040CD57DF4F28813981F7
:10115000C358D04022273074E22AF32AD4011696CD
:10116000EC9216971796FC92DF01AC57BF4FCD90CB
:10117000DC909F012C593F4FD9016D917C91225FEA
:101180003F4FD9012D913C91AF014C585F4FDA018F
:101190008D919C918F010E571F4FD8011C91D60144
:1011A000AA0FBB1F7D0102E0E022FF24AB01A4E0F7
:1011B000440F551FAA95E1F7407155274E295F2925
:1011C0007901F694FE2CEE24F794E794FF244E293F
:1011D0005F297C01FE2CEE24FF0CFF0CEE24A4E022
:1011E000FA224E295F297C01F694E794F694E7945D
:1011F000FF24E694F794EE24E42AF52AB12FB29561
:10120000B07FCA57DF4FB883C658D040CB57DF4FA7
:101210001882C558D040CB57DF4F48815981C558F7
:10122000D040442750715701A42AB52A7601EE0C0C
:10123000FF1C04E0E022FF24EA28FB28D601AA0FC5
:10124000BB1FA870BB27EA2AFB2A6B0154E0CC0C19
:10125000DD1C5A95E1F740E2C422DD24CE28DF28C8
:10126000A4E0660F771FAA95E1F760747727C62A76
:10127000D72A5901B694A794BA2CAA24AA2451E0DB
:10128000B522CA28DB283695322F22273795279595
:1012900022273270C22AD32A982F8827990F990FB4
:1012A00088279870C82AD92A612F6295607FC8570D
:1012B000DF4F6883C858D040C957DF4F1882C758DE
:1012C000D040C957DF4F88819981C758D0408827BF
:1012D0009072C82AD92AC657DF4F6883CA58D040AF
:1012E000C757DF4F1882C958D040C757DF4F888192
:1012F0009981C958D04088279074C82AD92AD40126
:101300001896CC9218971996DC92DF01A259BF4F1C
:101310004D915C91119712962D913C9111971E96CB
:101320008D919C91119712961C917A01EE0CFF1CE5
:10133000B70162707727D90104E0AA0FBB1F0A9595
:10134000E1F7A071BB276A2B7B2B7C836B83BC01ED
:101350007695762F6627779567957727AB81BC8141
:101360006A2B7B2BB12FBB0FBB0FC457DF4FB8834A
:10137000CC58D040C557DF4F1882CB58D040C55706
:10138000DF4FA881B981CB58D040AA27B4706A2B0F
:101390007B2B7A01EE0CFF1CD701A470BB27A62B78
:1013A000B72BA70148705527A42BB52BBC83AB8363
:1013B000790104E0EE0CFF1C0A95E1F7B0E2EB22A4
:1013C000FF244B815C81E42AF52A44E0220F331F7D
:1013D0004A95E1F720743327E22AF32A6C01D69468
:1013E000C794DC2CCC24CC2451E0D522EC28FD2859
:1013F0009695982F88279795879588279270E82A41
:10140000F92A612F660F660FC257DF4F6883CE58E7
:10141000D040C357DF4F1882CD58D040C357DF4F5D
:1014200088819981CD58D04088279870E82AF92A78
:10143000C057DF4F6883C059D040C157DF4F188273
:10144000CF58D040C157DF4F88819981CF58D040C5
:1014500088279071E82AF92AD4011A96EC921A97F3
:101460001B96FC92DF01A658BF4F2D913C9111971E
:1014700012968D919C9111971E964D915C911197AA
:1014800012960C9112961C917901EE0CFF1CB7017B
:1014900062707727DC01A295B295B07FBA27A07F52
:1014A000BA27A071BB276A2B7B2B7C836B83BA0185
:1014B0007695762F6627779567957727AB81BC81E0
:1014C0006A2B7B2BB02FBB0FBB0FCE56DF4FB883E1
:1014D000C259D040CF56DF4F1882C159D040CF56A5
:1014E000DF4FA881B981C159D040AA27B4706A2BB7
:1014F0007B2BE12EE294EE0CB0EEEB22CC56DF4FCC
:10150000E882C459D040CD56DF4F1882C359D0402D
:10151000CD56DF4FA881B981C359D040AA27B072F8
:10152000A62BB72B11FBFF24F0F8CB56DF4FF88228
:10153000C559D040CA56DF4F1882C659D040CB5645
:10154000DF4FE880F980C559D040AE29BF29B901E5
:10155000660F771F64707727A62BB72B7901EE0CE7
:10156000FF1C9701287033272A2B3B2BDC0164E0FA
:10157000AA0FBB1F6A95E1F7A072BB272A2B3B2B52
:1015800074E0880F991F7A95E1F780749927822B70
:10159000932BDA01B695A795BA2FAA27AA27B1707F
:1015A0008A2B9B2B5695542F4427579547954427B4
:1015B0005270482B592B302F330F330FC856DF4F43
:1015C0003883C859D040C956DF4F1882C759D04018
:1015D000C956DF4F88819981C759D04088279870B4
:1015E000482B592BC656DF4F3883CA59D040C756AF
:1015F000DF4F1882C959D040C756DF4F8881998183
:10160000C959D04088279071482B592B1295107FCB
:10161000C456DF4F1883CC59D040C556DF4F1882CF
:10162000CB59D040C556DF4F88819981CB59D040E6
:1016300088279074482B592BD4011C964C931C97E7
:101640001D965C93DF01AA57BF4F4D915C91E857FF
:10165000FF4F20813181CA01880F991F827099271D
:10166000B901E4E0660F771FEA95E1F7607177272B
:10167000862BBA01660F771F64707727862B440F7D
:10168000551F48705527842BA901B4E0440F551FFE
:10169000BA95E1F740725527842B14E0220F331FCF
:1016A0001A95E1F720743327822BF4018687178679
:1016B000C056DF4F0FB6F894DEBF0FBECDBFDF912F
:1016C000CF911F910F91FF90EF90DF90CF90BF903F
:1016D000AF909F908F907F906F905F904F903F90D2
:1016E0002F900895682F70E090E080E00E948C3188
:1016F0002CE53FE842EA5FE30E94E4300E945D315E
:10170000862F653B40F4611104C087E08093B300ED
:101710000895643B11F486E2F9CF66E00E948833B5
:10172000885FF4CF682F70E090E080E00E948C31F9
:101730002CE53FE842EA5FE30E94E4300E945D311D
:10174000862F653B40F4611104C087E08093B400AC
:101750000895643B11F486E2F9CF66E00E94883375
:10176000885FF4CF90E0F0E0E0E020915305309105
:101770005405E217F307F8F4E2171306C8F4292F0B
:1017800030E0A0915505B0915605A20FB31F6C93A0
:10179000A0915505B0915605A20FB31F11968C93D9
:1017A000A0915505B0915605A20FB31F12964C9308
:1017B00031969D5FDACF81E00895AF92BF92CF92CC
:1017C000DF92EF92FF920F931F93CF93DF936C0101
:1017D0007B018B01040F151FEB015E01AE18BF08E2
:1017E000C017D10759F06991D601ED91FC91019094
:1017F000F081E02DC6010995892B79F7C501DF91AC
:10180000CF911F910F91FF90EF90DF90CF90BF90FD
:10181000AF900895833081F028F4813099F08230C0
:10182000A9F008958730A9F08830C9F08430B1F468
:10183000809180008F7D03C0809180008F7780939E
:101840008000089584B58F7784BD089584B58F7D19
:10185000FBCF8091B0008F778093B0000895809186
:10186000B0008F7DF9CFCF93DF93282F30E0F901BF
:10187000E655FF4F8491F901E452FF4FD491F901ED
:10188000E853FF4FC491CC23A1F081110E940A0CB0
:10189000EC2FF0E0EE0FFF1FE056FF4FA591B49143
:1018A000EC91ED2381E090E009F480E0DF91CF91AD
:1018B000089580E090E0FACF1F93CF93DF93282F15
:1018C00030E0F901E655FF4F8491F901E452FF4FF2
:1018D000D491F901E853FF4FC491CC23A9F0162FFE
:1018E00081110E940A0CEC2FF0E0EE0FFF1FE25472
:1018F000FF4FA591B4918FB7F894EC91111108C0E6
:10190000D095DE23DC938FBFDF91CF911F91089597
:10191000DE2BF8CFCF93DF9390E0FC01E452FF4F32
:10192000249188539F4FFC0184918823C9F090E053
:10193000880F991FFC01EA56FF4FA591B491FC0155
:10194000E254FF4FC591D49161110DC09FB7F89437
:101950008C91209582238C938881282328839FBF94
:10196000DF91CF910895623051F49FB7F8943C9184
:10197000822F809583238C93E8812E2BEFCF8FB716
:10198000F894EC912E2B2C938FBFEACF4F925F925D
:101990006F927F928F929F92AF92BF92CF92DF927F
:1019A000EF92FF920F931F93CF93DF934A015B0156
:1019B0009C0150E040E060E472E48FE090E00E941F
:1019C000A52F690161E080915F050E948A0CA8EE55
:1019D000B3E0A50194010E94C42F2B013C01E60154
:1019E000D7FC2196D595C7958E01000F111F000FCA
:1019F000111F055011090D2C000CEE08FF08812C59
:101A0000912C540184149504A604B704E0F461E019
:101A100080915F050E945C0CC230D10518F0C801AE
:101A20000197F1F760E080915F050E945C0CC23085
:101A3000D10518F0C8010197F1F7A8958C0C9D1CF1
:101A4000AE1CBF1CDFCFDF91CF911F910F91FF9094
:101A5000EF90DF90CF90BF90AF909F908F907F904E
:101A60006F905F904F900895CF92DF92EF92FF9228
:101A70006C392FEF7207820792070CF443C0B62F20
:101A8000A72FF82FE92F653671058105910524F000
:101A9000B4E6A0E0F0E0E0E097FD38C02B2F3A2F4D
:101AA0004F2F5E2F57FF07C05095409530952195D9
:101AB0003F4F4F4F5F4FAFEFB0E00E94C42F24E67F
:101AC00030E040E050E00E94A52F69017A0160E01B
:101AD000C114D104E104F10409F061E089E00E943D
:101AE0008A0C60E08AE00E948A0CD0928900C09241
:101AF000880010928B0010928A00FF90EF90DF9088
:101B0000CF900895BCE9AFEFFFEFEFEF2B2F3A2F07
:101B10004F2F5E2F57FF07C0509540953095219568
:101B20003F4F4F4F5F4FAFEFB0E00E94C42F24E60E
:101B300030E040E050E00E94A52F69017A0160E0AA
:101B4000C114D104E104F10409F061E08AE00E94CB
:101B50008A0C60E089E00E948A0CD0928B00C092CF
:101B60008A001092890010928800C0925705D09286
:101B70005805E0925905F0925A05BFCF1F93CF93B5
:101B8000DF93182FEB0161E00E948A0C209739F453
:101B900060E0812FDF91CF911F910C945C0CCF3FBF
:101BA000D10511F461E0F5CFE12FF0E0E655FF4FEC
:101BB000E491E33031F140F4E130B1F0E230E1F0B2
:101BC000C038D1057CF7E4CFE73029F1E83059F18E
:101BD000E430B1F780918000806280938000D093E0
:101BE0008B00C0938A0004C084B5806884BDC7BDE3
:101BF000DF91CF911F91089584B5806284BDC8BDE7
:101C0000F7CF80918000806880938000D093890016
:101C1000C0938800EDCF8091B00080688093B000C1
:101C2000C093B300E5CF8091B00080628093B00094
:101C3000C093B400DDCFCF92DF92EF92FF920F936B
:101C40001F93CF93DF936C392FEF720782079207B0
:101C50000CF44EC0B62FA72FF82FE92F653671056B
:101C60008105910524F0B4E6A0E0F0E0E0E097FD06
:101C700043C02B2F3A2F4F2F5E2F57FF07C0509591
:101C80004095309521953F4F4F4F5F4FAFEFB0E0FC
:101C90000E94C42F24E630E040E050E00E94A52FCF
:101CA00069017A018901D42FCF2D60E0C114D104DC
:101CB000E104F10409F061E086E00E948A0C60E032
:101CC00085E00E948A0CB60186E00E94BE0D00935A
:101CD0005B0510935C05D0935D05C0935E05DF91B5
:101CE000CF911F910F91FF90EF90DF90CF900895CB
:101CF000BCE9AFEFFFEFEFEF2B2F3A2F4F2F5E2F07
:101D000057FF07C050954095309521953F4F4F4F55
:101D10005F4FAFEFB0E00E94C42F24E630E040E018
:101D200050E00E94A52F69017A018901D42FCF2D9F
:101D300060E0C114D104E104F10409F061E085E040
:101D40000E948A0C60E086E00E948A0CB60185E061
:101D5000BCCF8E3008F08E508770806480937C00FA
:101D600080917A00806480937A0080917A0086FD69
:101D7000FCCF80917800909179000895BF92CF9226
:101D8000DF92EF92FF920F931F93CF93DF933AE08E
:101D9000B32EC12CD12C7601CFEFD3E010E000E0C0
:101DA00084E10E94A90E0817190708F48C018C170A
:101DB0009D0708F4EC01C80ED91EE11CF11CBA9471
:101DC000B110EECFD701C601801B910BA109B1095B
:101DD0008C1B9D0BA109B10923E0B695A79597959A
:101DE00087952A95D1F7883F23E09207A105B10591
:101DF00008F0B1C08F3D23E09207A105B10508F0BE
:101E0000ADC08B3C23E09207A105B10508F0A9C045
:101E1000833A23E09207A105B10508F0A5C08538F3
:101E200023E09207A105B10508F0A1C08C3623E09C
:101E30009207A105B10508F09DC0813223E0920709
:101E4000A105B10508F099C08F3F22E09207A105D6
:101E5000B10508F095C0813D22E09207A105B105CA
:101E600008F091C08F3922E09207A105B10508F072
:101E70008DC08D3622E09207A105B10508F089C01A
:101E80008F3422E09207A105B10508F085C08331A7
:101E900022E09207A105B10508F081C0853F21E04D
:101EA0009207A105B10508F07DC0813E21E09207AF
:101EB000A105B10508F079C0833C21E09207A10596
:101EC000B10508F075C0873A21E09207A105B10578
:101ED00008F071C0863921E09207A105B10508F02C
:101EE0006DC08C3721E09207A105B10508F069C0EB
:101EF0008A3521E09207A105B10508F065C082335B
:101F000021E09207A105B10508F061C08F3021E002
:101F10009207A105B10508F05DC0803D9105A105BE
:101F2000B10508F05AC0853A9105A105B10508F040
:101F300057C08A379105A105B10508F054C08FEF4D
:101F400090E0DF91CF911F910F91FF90EF90DF9084
:101F5000CF90BF90089590E080E0F3CF8FE090E0C5
:101F6000F0CF83E190E0EDCF8CE090E0EACF8AE023
:101F700090E0E7CF85E090E0E4CF89E090E0E1CF2A
:101F80008BE090E0DECF8DE090E0DBCF82E090E070
:101F9000D8CF80E190E0D5CF8EE090E0D2CF88E03E
:101FA00090E0CFCF83E090E0CCCF84E190E0C9CF48
:101FB00081E190E0C6CF87E190E0C3CF85E190E07A
:101FC000C0CF87E090E0BDCF86E190E0BACF82E15C
:101FD00090E0B7CF86E090E0B4CF84E090E0B1CF5E
:101FE00089E190E0AECF88E190E0ABCF3FB7F894C5
:101FF0008091860390918703A0918803B091890313
:1020000026B5A89B05C02F3F19F00196A11DB11D53
:102010003FBFBA2FA92F982F8827BC01CD01620F8F
:10202000711D811D911D42E0660F771F881F991F4A
:102030004A95D1F708958F929F92AF92BF92CF9217
:10204000DF92EF92FF924B015C010E94F60F6B0151
:102050007C010E94F60F6C197D098E099F09683E6C
:10206000734081059105A8F321E0821A9108A10827
:10207000B10888EEC80E83E0D81EE11CF11C811463
:102080009104A104B10429F7FF90EF90DF90CF9065
:10209000BF90AF909F908F900895823039F120F4D7
:1020A00061E0813031F00895833061F060E0843088
:1020B000D1F787E00E945C0C60E08DE00E945C0C30
:1020C00060E009C060E087E00E945C0C60E08DE0A9
:1020D0000E945C0C61E08CE00E945C0C69E170E0A5
:1020E00080E090E00E941B100C94BE0E61E087E03F
:1020F0000E945C0C61E0E1CFA0914E05B0914F05CC
:10210000209152054091530550915405CA01880F02
:10211000991F840F951F70915505609156055FB703
:10212000F8944C91322F30953423242BE72FF62F3F
:102130008E0F9F1FE817F90781F0419168E02C93FB
:1021400000C047FF3C93440F00C000C000C008F42B
:102150003C9300C06A9599F7EDCF5FBF789461E03A
:1021600070E080E090E00C941B102FB7F894609121
:1021700082037091830380918403909185032FBF24
:10218000089520917F03309180032817390771F457
:1021900090917E0380917D03981741F0E0917E033A
:1021A000F0E0E35CFC4F808190E008958FEF9FEFBB
:1021B00008950895EF92FF920F931F93CF93DF93AB
:1021C000DC015C96ED90FC905D97E114F10479F4EC
:1021D00081E090E013969C938E93129790E080E0BC
:1021E000DF91CF911F910F91FF90EF90089551963D
:1021F000ED91FC91529750968C915097982F909515
:102200000FB75E962C915E97122F127021FD60958C
:10221000F8942081112319F1282B2083E7012197BD
:10222000F1F728E0462F50E0308160FF1AC0382BCC
:102230003083E7012197F1F7BA0175956795215031
:1022400089F7112381F08081892380830FBF5C96F9
:102250008D919C910197F1F781E090E0C1CF292306
:10226000DCCF3923E5CF9081892BEFCF20917F03FD
:10227000309180032817390771F480917D032091F4
:102280007E0390E0805C9F4F821B910960E470E0C8
:102290000E949433089590E080E0089520917F0398
:1022A0003091800328173907B9F490917E0380910B
:1022B0007D03981789F0E0917E03F0E0E35CFC4F2A
:1022C000808120917E0330E02F5F3F4F2F733327B3
:1022D00020937E0390E008958FEF9FEF0895E091A3
:1022E0007F03F0918003E817F90769F4A389B489A3
:1022F0009C918589809589238C93109280031092FC
:102300007F0381E0089580E00895AF92BF92CF925D
:10231000DF92EF92FF920F931F93CF93DF935C01B5
:102320000AE010E0C12CD12C7601D0E0C0E060E0E2
:10233000F50183810E948A0CF50183810E94A90E18
:10234000C817D90708F4EC01C80ED91EE11CF11C0E
:102350000150110961F7D701C6018C1B9D0BA10922
:10236000B10923E0B695A795979587952A95D1F75A
:10237000DF91CF911F910F91FF90EF90DF90CF9061
:10238000BF90AF900895FC01A62FB0E0AA0FBB1F2D
:10239000A85ABE4F8C91808311969C919183628341
:1023A0009383848315820895CF93DF93EC01E62F06
:1023B000F0E0EE0FFF1FE85AFE4F80818883918185
:1023C00099836A838B839C8361E00E948A0C61E01D
:1023D0008C81DF91CF910C948A0CCF93DF93EC0129
:1023E000E62FF0E0EE0FFF1FE85AFE4F8081888352
:1023F000918199836A839B838C838B8160E00E94A7
:102400008A0C8C8161E00E948A0C8C8160E0DF91F3
:10241000CF910C945C0C0F931F93CF93DF93EC013F
:10242000E62FF0E0EE0FFF1FE85AFE4F00810F8FFE
:10243000118118A369A31B821A8288EE93E0A0E0A1
:10244000B0E08C839D83AE83BF838AE491E099835F
:1024500088831F8A1E8A198E188E1B8E1A8E1D8ED7
:102460001C8E6E8D6E7F6D7F6E8F6695617081E0C4
:102470006827812F0E945C0C61E0812F0E948A0CEA
:10248000812F90E0FC01E452FF4FE491E88BFC01C6
:10249000E853FF4FE491F0E0EE0FFF1FE254FF4FCF
:1024A000859194919A8B898B60E0802F0E948A0C91
:1024B0008E8D81FD04C061E0802F0E945C0C0C8732
:1024C000802F90E0FC01E452FF4FE491ED87FC0186
:1024D000E853FF4FE491F0E0EE0FFF1FE056FF4F8F
:1024E000859194919F878E878AE491E09983888370
:1024F00083E08AA31B8E1A8E198E188E1F8A1E8A5D
:1025000085E690E09D8F8C8F0631E0F581E290E0CA
:102510009F8B8E8B83E690E0998F888F82E490E08A
:102520009B8F8A8F9091680084E0083048F021E00A
:102530000E3008F420E081E001C0880F2A95EAF708
:10254000892B809368009C852DE630E0983050F010
:102550002BE630E09E3030F02CE630E0963110F083
:1025600030E020E03C8B2B8B292F30E0983078F541
:1025700081E001C0880F9A95EAF78D8B8C8D9D8D37
:102580000197F1F78A8D9B8D892BE1F080917F0374
:1025900090918003C817D907A9F0009711F00E9405
:1025A0006F118E8D8E7F8E8F10927D0310927E0321
:1025B000D0938003C0937F03EB89FC8980819D8940
:1025C000892B8083DF91CF911F910F9108959E30C9
:1025D00040F42850310981E001C0880F2A95EAF7BC
:1025E000CCCF2E503109F7CFCF93DF93EC01E62FFC
:1025F000F0E0EE0FFF1FE85AFE4F90819883818133
:1026000089836A839B838C838B8160E00E948A0C20
:102610008C8160E0DF91CF910C948A0C8F929F9215
:10262000AF92BF92CF92DF92EF92FF920F931F93E0
:10263000CF93DF937C010AE010E0812C912C5401B0
:10264000D0E0C0E0CC24CA9433E0D32E60E0F701A0
:1026500083810E948A0CF70183810E94A90E960152
:10266000281B390BC901C217D30708F4E901880EEA
:10267000991EA11CB11C0150110941F7D501C401DB
:102680008C1B9D0BA109B10923E0B695A7959795E1
:1026900087952A95D1F7DF91CF911F910F91FF90E8
:1026A000EF90DF90CF90BF90AF909F908F90089564
:1026B00090E080E00895CF93DF93EC0161E08B819F
:1026C0000E948A0C8D818130C1F487E592E00197E8
:1026D000F1F700C0000060E08C810E945C0C60E0BB
:1026E0008B810E945C0C61E08C810E945C0C61E03B
:1026F0008B81DF91CF910C945C0C60E08C810E9407
:102700005C0C9AE19A95F1F700C060E08B810E9421
:102710005C0C8AE18A95F1F700C061E08C810E942F
:102720005C0C9AE19A95F1F700C061E08B810E9400
:102730005C0C8AE18A95F1F700C0DF91CF91089592
:102740001F93CF93DF93EC01162F61E08B810E94E2
:102750008A0C8D818130D9F487E592E00197F1F7F9
:1027600000C0000060E0111161E08B810E945C0CF0
:1027700061E08C810E945C0C60E08C810E945C0CAA
:1027800061E08B81DF91CF911F910C945C0C8B8168
:1027900060E0111161E00E945C0C61E08C810E949C
:1027A0005C0C9AE19A95F1F700C060E08C810E9480
:1027B0005C0C8AE18A95F1F700C0E2CF1F93CF93BA
:1027C000DF93EC0160E08B810E948A0C8D81813067
:1027D000F1F487E592E00197F1F700C0000061E0B5
:1027E0008B810E945C0C61E08C810E945C0C8B816F
:1027F0000E94330C11E0892B09F410E060E08C8119
:102800000E945C0C812FDF91CF911F91089561E0B0
:102810008B810E945C0C9AE19A95F1F700C061E00F
:102820008C810E945C0C8AE18A95F1F700C08B8153
:102830000E94330C11E0892B09F410E060E08C81D8
:102840000E945C0C9AE19A95F1F700C0DBCF0F93E0
:102850001F93CF93DF938C0160E0FC0183810E9482
:102860008A0CF8018581D8E0813009F587E592E08E
:102870000197F1F700C00000D8E061E0F801848121
:102880000E945C0CCC0FF80183810E94330C892BD1
:1028900009F0C16060E0F80184810E945C0CD150B5
:1028A00061F78C2FDF91CF911F910F91089561E017
:1028B000F80184810E945C0CCC0FF80183810E9496
:1028C000330C892B09F0C160FAE1FA95F1F700C0E9
:1028D00060E0F80184810E945C0CFAE1FA95F1F75E
:1028E00000C0D15021F7DDCF0F931F93CF93DF931B
:1028F000EC01162F61E08C810E948A0C61E08B81D3
:102900000E948A0C8D81813019F108E08B8161E091
:1029100017FF60E00E945C0C8AE18A95F1F700C025
:10292000110F61E08C810E945C0C9AE19A95F1F79D
:1029300000C060E08C810E945C0C8AE18A95F1F70E
:1029400000C0015019F7DF91CF911F910F910895A9
:1029500087E592E00197F1F700C0000008E08B8165
:1029600061E017FF60E00E945C0C110F61E08C8158
:102970000E945C0C60E08C810E945C0C015079F735
:10298000E2CFCF93DF93EC018FE193E00197F1F772
:1029900000C00000CE010E94741487EC90E0019703
:1029A000F1F700C00000CE01DF91CF910C94DE134F
:1029B000CF93DF93EC0161E08C810E948A0C61E08F
:1029C0008B810E948A0C8D818130C1F487E592E071
:1029D0000197F1F700C0000061E08B810E945C0C60
:1029E00061E08C810E945C0C60E08B810E945C0C39
:1029F00060E08C81DF91CF910C945C0C61E08B8165
:102A00000E945C0C9AE19A95F1F700C061E08C811C
:102A10000E945C0C8AE18A95F1F700C060E08B812E
:102A20000E945C0C9AE19A95F1F700C060E08C81FD
:102A30000E945C0C8AE18A95F1F700C0DF91CF918A
:102A400008950F931F93CF93DF93EC01162F0E94ED
:102A5000D81462E5CE010E947414CE010E94DE13E8
:102A6000612F6068CE010E947414CE010E94DE13B3
:102A7000CE010E94D81463E5CE010E947414CE01E9
:102A80000E94DE13CE010E942714182F60E0CE01B1
:102A90000E94A013CE010E942714082F61E0CE01EE
:102AA0000E94A013CE010E945B13902F812FDF9113
:102AB000CF911F910F9108950F931F93CF93DF93A1
:102AC000EC01162F042F0E94D81462E5CE010E945B
:102AD0007414CE010E94DE13612F6068CE010E9443
:102AE0007414CE010E94DE13602FCE010E94741474
:102AF000CE010E94DE13CE010E945B13802FDF9176
:102B0000CF911F910F9108951F93CF93DF93EC0105
:102B1000162F0E94D814612F660FCE010E947414E4
:102B200080EA8A95F1F7CE01DF91CF911F910C9445
:102B3000DE13FF920F931F93CF93DF93EC01F62EDA
:102B4000042F122F60E50E94841563EACE010E94D3
:102B5000C1146F2DCE010E94C114602FCE010E94BE
:102B6000C114612FCE010E94C114CE01DF91CF911B
:102B70001F910F91FF900C945B13CF92DF92FF9205
:102B80000F931F93CF93DF9300D000D0CDB7DEB764
:102B90008C0161E70E94841560EBC8010E94C1149A
:102BA000C8010E945B136AE070E080E090E00E9440
:102BB0001B10C8010E94D81463EEC8010E9474144F
:102BC000C8010E94DE1334E0F32ECE0101966C01A1
:102BD000FA94C801FF2051F00E942714F601819356
:102BE0006F0160E0C8010E94A013F2CF0E94271479
:102BF000F82E8C8361E0C8010E94A013C8010E94D6
:102C00005B1389818A3AD9F4FBEBFF1218C08A81E1
:102C100090E0982F88272B81820F911DF8019783D0
:102C20008683868197810F900F900F900F90DF9190
:102C3000CF911F910F91FF90DF90CF90089581E089
:102C400090E0ECCF0F931F93CF93DF93EC01042F11
:102C5000122F0E948415602FCE010E94C114612F93
:102C6000CE010E94C114CE01DF91CF911F910F912F
:102C70000C945B13CF92DF92EF92FF920F931F930E
:102C8000CF93DF93EC01D62EC42E79010E94D81485
:102C90006D2D660FCE010E947414CE010E94DE13CA
:102CA0006C2DCE010E947414CE010E94DE130E0D15
:102CB0001F1DE016F10651F0F70161917F01CE0171
:102CC0000E947414CE010E94DE13F3CFCE01DF9177
:102CD000CF911F910F91FF90EF90DF90CF900C94C8
:102CE0005B130F931F93CF93DF93EC0120E04DEF25
:102CF00067E70E94221600E110E020E735E040E09F
:102D000067E7CE010E943A1620E04DEF64E7CE015E
:102D10000E94221620E935E040E064E7CE010E94DF
:102D20003A1621E04DEF67E7CE010E94221620E619
:102D300035E040E067E7CE010E943A1621E04DEF12
:102D400064E7CE010E94221620E835E040E064E707
:102D5000CE010E943A16DF91CF911F910F910895F5
:102D6000CF93DF93EC010E94C31181E08D83CE01EC
:102D70000E94D81467EECE010E94C11460E8CE0113
:102D80000E94C11464EACE010E94C1146AE9CE0116
:102D90000E94C11461E8CE010E94C11463E8CE0113
:102DA0000E94C114CE01DF91CF910C945B130F935D
:102DB0001F93CF93DF93EC010E94D81462E5CE01FC
:102DC0000E947414CE010E94DE1362E9CE010E94BB
:102DD0007414CE010E94DE13CE010E94D81463E564
:102DE000CE010E947414CE010E94DE13CE010E9417
:102DF0002714182F61E0CE010E94A013CE010E947B
:102E00005B13143419F080E0103159F581E08E83A2
:102E100019850A85412F61E0CE010E945C15198752
:102E20000A871F8108858E81811103C0CE010E940F
:102E3000D716412F6FE0CE010E945C151F830887D3
:102E400041E060E0CE010E945C1563E070E080E04C
:102E500090E00E941B1043E060E0CE010E945C15F0
:102E600081E0DF91CF911F910F910895AF92BF92B2
:102E7000CF92DF92EF92FF920F931F93CF93DF9346
:102E8000EC015B016A0179018E81811103C0CE01E1
:102E90000E94D71664E1CE010E942115F8019183AA
:102EA000808366E1CE010E942115F5019183808324
:102EB00068E1CE010E942115F601918380836AE1C9
:102EC000CE010E942115F7019183808389859A851F
:102ED000853D9105A1F180F40097D9F1803C9105E1
:102EE00099F1DF91CF911F910F91FF90EF90DF90BB
:102EF000CF90BF90AF900895863F9105D9F08F3F56
:102F0000910541F08B3E910561F762E370E080E04E
:102F100090E004C063E070E080E090E0DF91CF914A
:102F20001F910F91FF90EF90DF90CF90BF90AF90E7
:102F30000C941B1068E170E080E090E0EFCF65E654
:102F400070E080E090E0EACF6AE970E080E090E035
:102F5000E5CF6CEB72E080E090E0E0CFCF92DF92C3
:102F6000EF92FF920F931F93CF93DF93EC01162FF5
:102F70007A01022F0E94D8146E0182E4C80ED11C7F
:102F8000F6016081660FCE010E947414CE010E948A
:102F9000DE13612FCE010E947414CE010E94DE1355
:102FA000CE010E945B13F0E5FA95F1F7CE010E9485
:102FB000D814F6016081660F6160CE010E9474141E
:102FC000CE010E94DE130150102F6701115058F0FE
:102FD000CE010E942714F60181936F0160E0CE01BB
:102FE0000E94A013F3CF0E0D1F2D111DCE010E94C4
:102FF0002714F801808361E0CE010E94A013CE0166
:10300000DF91CF911F910F91FF90EF90DF90CF90C4
:103010000C945B132F923F924F925F926F927F922C
:103020008F929F92AF92BF92CF92DF92EF92FF92D8
:103030000F931F93CF93DF93CDB7DEB7A6970FB64D
:10304000F894DEBF0FBECDBFE82EF12C28EC829F96
:103050008001112406571C4FD80114968C911497A7
:103060008A3109F491C508F041C1823109F461C483
:1030700008F065C0843009F47EC3F8F4813009F4A7
:1030800023C3823009F441C3A6960FB6F894DEBF7D
:103090000FBECDBFDF91CF911F910F91FF90EF90A9
:1030A000DF90CF90BF90AF909F908F907F906F9068
:1030B0005F904F903F902F900895803109F47AC32C
:1030C00008F0EAC3853001F782E58093A00582E429
:1030D0008093A1051092A205F80183818093A30536
:1030E00081E00E944D108093A40582E00E944D1063
:1030F0008093A50583E00E944D108093A60584E08F
:103100000E944D108093A7051092A8051092A90562
:103110001092AA051092AB058DE08093A205E0EA1B
:10312000F5E02CEA35E080E09191890F2E173F07FA
:10313000D9F78093AC058DE00E94AB00A5CF853117
:1031400009F456C408F0B5C0833109F468C4843169
:1031500009F09ACFF80185810E944D10039709F07C
:103160005DC38091390590913A05009709F079C4C3
:1031700086E090E00E94C2338C0188EC8E9DF001C5
:103180008F9DF00D1124E657FC4F6581C8010E9408
:10319000B01610933A0500933905C0903905D090C8
:1031A0003A0588EC8E9DF0018F9DF00D1124E057BB
:1031B000FC4F43E120818181322F282FC901969550
:1031C000879585759575220F331F2A7A3A7A822B57
:1031D000932B9C013695279536952795237333734A
:1031E000880F991F880F991F8C7C9C7C282B392B6A
:1031F000C90174E0969587957A95E1F78F709F7075
:10320000A4E0220F331FAA95E1F7207F307F822BA5
:10321000932B982789279827880F991F880F991F24
:103220005FEF540F21E030E02C0F3D1F240F311DC4
:10323000D9018C934250A1E0B0E0AC0FBD1FA50FA7
:10324000B11D9C9332964F3F09F0B4CFC6010E9446
:10325000D81467EEC6010E94C11460E0C6010E9446
:10326000C1148E010F5F1F4F5E01B5E1AB0EB11CA3
:10327000F80121918F0130E0C901959587959595C9
:1032800087958373220F331F220F331F2C7C822BD1
:1032900090E0BC01759567956575880F991F8A7ACE
:1032A000682BC6010E94C114A016B10609F7C60119
:1032B0008BC3883109F4FAC308F0FDC3863109F0E5
:1032C000E3CE15968C91893F09F0A8C288EC8E9DBB
:1032D000F0018F9DF00D1124E657FC4F8681882365
:1032E00009F483C381E080931B0598C2853A09F4F1
:1032F00066C708F02DC1813A09F4A2C508F0CBC019
:103300008B3109F4B5C48C3109F0BECEF80185814A
:103310000E944D100B9709F081C200912905109170
:103320002A050115110509F062C583E290E00E94AB
:10333000C2338C0188EC8E9DF0018F9DF00D11241D
:10334000E657FC4F6581C8010E940B1210932A05B5
:1033500000932905C0902905D0902A0588EC8E9D00
:10336000F0018F9DF00D1124E657FC4F1681F601F8
:1033700022A1812F012E000C990B2817190649F163
:1033800012A38AEA8093820182E08093830181E024
:10339000809384011093850186E5812780938601BF
:1033A00042E8A42E41E0B42E57E8852E51E0952E38
:1033B000D5016D915D01C6010E94DA108A149B044B
:1033C000B9F7F60112A362E370E080E090E00E949A
:1033D0001B1088EC8E9DF0018F9DF00D1124E65797
:1033E000FC4F808597812AEA209382019093830184
:1033F00021E02093840180938501892794E5892722
:103400008093860102E811E037E8A32E31E0B32E65
:10341000D8016D918D01C6010E94DA10A016B10687
:10342000B9F762E370E080E090E00E941B10C601F3
:103430000E946F11C114D10459F08AE491E0F601A1
:1034400091838083C6010E946F11C6010E945E3481
:1034500010922A051092290588EC8E9D80018F9D7F
:10346000100D112406571C4FD8011596EC91EE0F44
:10347000FF0BE85AFE4F60E080810E948A0CD80161
:103480001596EC91EE0FFF0BE85AFE4F60E081813C
:103490000E948A0CC3C1F801D580833A09F43DC665
:1034A00008F410C68091370590913805009709F00F
:1034B0006CC685E090E00E94C2338C016D2DC8017E
:1034C0000E94F412109338050093370582E580932B
:1034D000A00582E48093A1051092A20588EC8E9D40
:1034E000F0018F9DF00D1124E657FC4F83818093EE
:1034F000A30581E08093A40500913705109138055C
:10350000D80113968C910E94330C7C01F8018481C0
:103510000E94330CAC0121E030E0EF2811F430E0E0
:1035200020E0220F331F91E0452B09F490E0922B0D
:103530009093A50587E08093A205E0EAF5E026EAEE
:1035400035E080E09191890F2E173F07D9F72EC102
:10355000883A11F40C94DD2208F05DC0863A09F433
:103560008BC7873A09F090CD809131059091320553
:1035700015961C91009711F00C94B32284E090E012
:103580000E94C233DC01E12FF0E0EE0FFF1FE85A8A
:10359000FE4F80818C93818111968C9311971296A6
:1035A0001C93129713968C931397B0933205A093A4
:1035B000310582E58093A00582E48093A1051092F5
:1035C000A20588EC8E9DF0018F9DF00D1124E65729
:1035D000FC4F83818093A30581E08093A405009133
:1035E000310510913205C8010E9485119093A505FF
:1035F000C8010E9485118093A60588E08093A205EA
:10360000E0EAF5E027EA35E080E09191890F2E1796
:103610003F07D9F776C08A3A11F40C943B2310F493
:103620000C9441248B3A09F02FCD80919001909118
:10363000910115961C91009711F00C944D2788E08C
:1036400090E00E94C2336C01612F0E94C31181E09F
:10365000F601858317821682D0929101C092900163
:1036600082E58093A00582E48093A1051092A205D3
:1036700088EC8E9DF0018F9DF00D1124E657FC4FD4
:1036800083818093A30581E08093A40580919001BC
:10369000909191010E94BD159093A5058091900194
:1036A000909191010E94BD158093A60588E08093BA
:1036B000A205E0EAF5E027EA35E080E09191890F84
:1036C0002E173F07D9F71DC092E59093A00592E40D
:1036D0009093A10513969C919093A30596E09093E7
:1036E000A4058093A50588E08093A6058093A20594
:1036F000E0EAF5E080E09191890FB5E0E73AFB0759
:10370000D1F78093A70588E017CD82E58093A005C7
:1037100082E48093A1051092A205F8018381809331
:10372000A3058581823019F124F4813041F0E4E071
:103730000CC08330F1F08430D1F784E001C081E027
:103740000E944D108093A405E5E081E08E0F8093E8
:10375000A205A0EAB5E020E090E03D91930F2F5F35
:10376000E213FBCFF0E0E056FA4F9083E5CC82E025
:10377000E7CF83E0E5CF82E58093A00582E48093E4
:10378000A10513968C918093A30581E08093A405F5
:103790008093A50587E08093A205E0EAF5E080E04C
:1037A0009191890FB5E0E63AFB07D1F78093A60522
:1037B00087E0C2CC15968C9115978C3F09F44EC0CA
:1037C000882321F18B3F51F5809153059091540549
:1037D000029710F188EC8E9DF0018F9DF00D112461
:1037E000E657FC4F80859681A0915505B09156050E
:1037F000278113962C93E0915505F09156059483FB
:10380000E0915505F0915605858306C0F801408585
:10381000678186810E94B20B0E947C1082E58093B2
:10382000A00582E48093A10588EC8E9DF0018F9D18
:10383000F00D1124E657FC4F83818093A30591E09E
:103840009093A40596E09093A2059BE9980F90931E
:10385000A505882309F418CC86E06ECC8091530529
:1038600090915405892BC1F218968C911897169651
:103870009C911697E0915505F091560517962C915D
:103880002083E0915505F09156059183E09155050F
:10389000F09156058283C0CFF80185818F3F09F4EE
:1038A0003EC08823A1F08E3F09F0B8CF88EC8E9DF2
:1038B000F0018F9DF00D1124E657FC4F6681062E16
:1038C000000C770B880B990B0E94340DA7CF88EC66
:1038D0008E9D80018F9D100D112406571C4FD8011D
:1038E00017968C901797082C000C9908AA08BB080B
:1038F00016966C91062E000C770B880B990B0E9484
:103900001B0EC501B4010E94340DF801868181119E
:1039100085CF8781811182CF109249057FCF16967E
:103920006C91062E000C770B880B990B0E941B0ED6
:1039300075CFF80185810E944D10029709F06ECF76
:1039400080913B0590913C05009709F040C080E1D3
:1039500090E00E94C2336C01D80115961C91612F32
:103960000E94C311E12FF0E0EE0FFF1FE85AFE4F57
:103970008081F60186831582D0923C05C0923B057A
:1039800088EC8E9DF0018F9DF00D1124E657FC4FC1
:10399000D084C780B68000913B0510913C0560E45F
:1039A000C8010E94841561EAC8010E94C1146B2DF0
:1039B000C8010E94C1146C2DC8010E94C1146D2D54
:1039C000C8010E94C114C8010E945B1327CFDC010B
:1039D00012964C91F8012581022E000C330B4217F0
:1039E000130671F20E945E34B2CF10921B0516CFFF
:1039F000F8018681882369F0813071F010921F05EB
:103A000010922005109221051092220510921E0599
:103A100005CF10924A05F2CF80934A05EFCF159655
:103A20008C9115978A3F09F0F9CE18964C9118970A
:103A300019968C911997542F482F70E060E01696D4
:103A40009C91169717968C910E94C60C61E080910C
:103A50005F050E948A0C60E080915F050E945C0C0B
:103A6000DDCEDC0112964C9128EC2E9D80012F9D1D
:103A7000100D112406571C4FF8012581022E000C51
:103A8000330B4217130609F488CB0E945E3486E09C
:103A900090E00E94C2336C01D80115966C910E948F
:103AA000B016D0923A05C092390577CB16968C9114
:103AB00080934905B3CEF80185810E944D1005978A
:103AC00009F0ACCE80912D0590912E05009791F5CF
:103AD00085E090E00E94C2338C0188EC8E9DF0015D
:103AE0008F9DF00D1124E657FC4F6581C8010E949F
:103AF000D41110932E0500932D0583EA8093B00016
:103B000087E08093B10088EC8E9DF0018F9DF00DD1
:103B10001124E657FC4F8681813081F1823091F18A
:103B200081117CCE108587810E94920B812F0E948B
:103B3000720B74CEDC0112964C9128EC2E9D800104
:103B40002F9D100D112406571C4FF8012581022EC0
:103B5000000C330B42171306B1F20E945E3485E06D
:103B600090E00E94C2336C01D80115966C910E94BE
:103B7000D411D0922E05C0922D05BFCF87810E940F
:103B8000920B4CCE8781D3CFF80185810E944D10D6
:103B9000099709F043CE80912F0590913005009749
:103BA00009F046C086E090E00E94C2336C01D80163
:103BB00015966C910E94C311F6011582D0923005C2
:103BC000C0922F0588EC8E9DF0018F9DF00D112481
:103BD000E657FC4F86818130D1F18230D1F08111DE
:103BE0001DCE278180912F059091300540E027FF61
:103BF00005C0332721950CF4309541E061E00E9427
:103C0000991588EC8E9DF0018F9DF00D1124E657DB
:103C1000FC4F208580912F059091300540E027FFD3
:103C200005C0332721950CF4309541E062E01DC0BA
:103C3000DC0112964C91F8012581022E000C330B09
:103C40004217130609F4BECF0E945E34ABCF278122
:103C500080912F059091300540E027FF05C0332764
:103C600021950CF4309541E061E00E949915D6CD84
:103C700015968C910E944D100C9709F0CFCDC090F5
:103C80002705D0902805F8018581C114D10409F0D9
:103C900086C00E944D100C9751F586E090E00E947E
:103CA000C2338C0188EC8E9DF0018F9DF00D1124A4
:103CB000E657FC4F6581C8010E94C31181E0D8011D
:103CC00015968C93109328050093270567E7C80184
:103CD0000E94462964E780912705909128050E945B
:103CE000462980912705909128050E947116E2E2ED
:103CF000F2E088E4DF011D928A95E9F788EC8E9D59
:103D000090018F9D300D112426573C4F90E080E0AC
:103D1000FC01E25BFF4FE20FF31F4081042E000C19
:103D2000550BFC01EE0FFF1FEE5DFD4F51834083ED
:103D300001968834910561F7E2E9F1E088E4DF015A
:103D40001D928A95E9F790E080E0F901E80FF91FEC
:103D50004681042E000C550BFC01EE0FFF1FEE56A2
:103D6000FE4F5183408301968834910571F700918D
:103D700027051091280540E655E060E775E082E9E7
:103D800091E00E94BC0040E855E060E975E082E205
:103D900092E00E94BC00C8010E9471163FCDD6017E
:103DA00012969C91282F082E000C330B92171306A5
:103DB00009F49DCF0E944D100C9709F098CFC601D1
:103DC0000E945E3486E090E00E94C2338C0188EC51
:103DD0008E9DF0018F9DF00D1124E657FC4F6581FB
:103DE000C8010E94C31181E0F80185836BCFD8011F
:103DF00091962C91919738EC3E9DC0013F9D900D7E
:103E00001124FC01E657FC4F6F018581082E000C40
:103E1000990B2817190609F49DCA8AE491E08D933D
:103E20009C93C8010E946F11C8010E945E3483E216
:103E300090E00E94C2338C01D60115966C9183CA22
:103E4000F80185810E944D10029709F01DC98091EB
:103E50003B0590913C05009709F01CC180E190E082
:103E60000E94C2336C01D80115961C91612F0E94EB
:103E7000C311E12FF0E0EE0FFF1FE85AFE4F8081E3
:103E8000F60186831582D0923C05C0923B05C09016
:103E90003B05D0903C059E012F5F3F4F59014E01DD
:103EA00039E0830E911C332433940E94B510D6015F
:103EB00018960D911D912D913C911B97601B710BD4
:103EC000820B930B613171058105910510F01796F6
:103ED0003C92F6018781882309F4EBC00E94B5105B
:103EE000D60118966D937D938D939C931B9717968F
:103EF0001C9260E4C6010E94841562EAC6010E9419
:103F0000C11462EAC6010E94C11462EAC6010E949D
:103F1000C11461E0C6010E94C114C6010E945B1376
:103F2000F601868160E00E948A0CD60116968C917B
:103F300090E0FC01E452FF4F6491FC01E853FF4F15
:103F4000E491F0E0EE0FFF1FE056FF4F8591949152
:103F500000E712E620E030E040E00E940129412C19
:103F6000512C32016115710581059105B1F02B01CC
:103F70003C01BFEF4B1A5B0A6B0A7B0AEFE07E2223
:103F8000FCE24F16F1E05F066104710430F02CE2B0
:103F9000421A21E0520A61087108C301B2010E946D
:103FA0008E31D6011C966D937D938D939C931F97B4
:103FB000141415041604170434F084EA482E88E318
:103FC000582E612C712CC301B2010E948E3120E069
:103FD00030E048E652E40E94E430D5016D937D93D1
:103FE0008D939D935D0162E170E080E090E00E941E
:103FF0001B108A149B0409F058CF89809A80AB80EB
:10400000BC80CD80DE800F8118859601A801B401A7
:10401000C5010E94BD3287FD02C06401850120E018
:1040200030E040E251E4B601C8010E94CA320E9469
:1040300056319B0142E54093A00542E44093A1051F
:1040400048EC4E9DF0014F9DF00D1124E657FC4FBA
:1040500043814093A30541E04093A405AB0177FF62
:1040600002C041505F4F5093A505C90160E071E067
:104070000E9494338093A60588E08093A205E0EA2D
:10408000F5E027EA35E080E09191890F2E173F0790
:10409000D9F737CBDC0112964C91F8012581022E1D
:1040A000000C330B4217130609F4F1CE0E945E3464
:1040B000D5CE64857585868597850E9456312B01FE
:1040C0003C0176CFB9EFDB120C94441882E5809363
:1040D000A00582E48093A1051092A20583818093BC
:1040E000A30581E08093A40588E00E94330C01972A
:1040F00081F41092A50587E08093A205E0EAF5E03F
:1041000026EA35E080E09191890F2E173F07D9F715
:104110004DCB81E08093A505EECFFDEFDF120C942F
:10412000441885E10E94A90E22E3AC01249FC0013E
:10413000259F900D112422E52093A00522E42093D1
:10414000A105D80113962C912093A30521E020937B
:10415000A4056FEF73E00E949433CB0160E071E03F
:104160000E949433982F990F890F8093A50587E0BB
:104170008093A205E0EAF5E026EA35E080E091913F
:10418000890F2E173F07D9F711CBFC0122816D2D26
:10419000DD0C770B2617170609F498C90E945E34C8
:1041A00085E090E00E94C2338C0188EC8E9DF00186
:1041B0008F9DF00D1124E657FC4F658180C915963F
:1041C0008C910E944D10069711F00C944418809128
:1041D000350590913605009709F03DC186E090E0E5
:1041E0000E94C233DC01F8019581E92FF0E0EE0F67
:1041F000FF1FE85AFE4F80818C93818111968C932A
:10420000119712969C93129715968C931597B093CD
:104210003605A093350500913505109136059E01B0
:104220002F5F3F4F190185E0D9011D928A95E9F76B
:1042300061E0F80185810E948A0C61E0D801159641
:104240008C910E945C0C6AEF70E080E090E00E942C
:104250001B1060E0F80185810E945C0C64E170E055
:1042600080E090E00E941B1061E0D80115968C91CF
:104270000E945C0C8BE990E00197F1F760E0F80197
:1042800085810E945C0C83E290E00197F1F70E9427
:10429000B5104B015C0162E0D80115968C910E942B
:1042A0008A0CF80185810E94330C019789F00E94E5
:1042B000B510681979098A099B096530710581056E
:1042C000910578F3D80113961C92139714961C92BB
:1042D0000E94B5104B015C0162E0F80185810E94EB
:1042E0008A0CD80115968C910E94330C892B59F0B9
:1042F0000E94B510681979098A099B096530710512
:104300008105910570F3D12CC12C0E94B5104B0191
:104310005C0162E0F80185810E948A0CD801159643
:104320008C910E94330C892B59F40E94B5106819A6
:1043300079098A099B09653071058105910570F33A
:104340000E94F60F4B015C010E94B5102B013C014D
:1043500062E0F80185810E948A0CD80115968C9143
:104360000E94330C019759F40E94B5106419750925
:1043700086099709653071058105910570F30E94E2
:10438000F60FF601A3E0F595E795AA95E1F7E20DA2
:10439000F31D2081220FAB01BC01481959096A099C
:1043A0007B09493251056105710508F463C0822F0C
:1043B00081608083BFEFCB1ADB0AE8E2CE16D1041E
:1043C00009F0A3CF59814B816D818A81850F99278F
:1043D000991F9C01240F311D8C81820F932F911DF9
:1043E00099276817190631F4D80113965C9313972F
:1043F00014964C9382E58093A00582E48093A105F6
:1044000088EC8E9DF0018F9DF00D1124E657FC4F36
:1044100083818093A30581E08093A405F8018381C3
:104420008093A5051092A60584818093A70510921C
:10443000A8058AE08093A205E0EAF5E029EA35E0E4
:1044400080E09191890F2E173F07D9F78093A90536
:104450008AE00C949C18DC0112964C91F80125819D
:10446000022E000C330B4217130609F4D4CE0E941F
:104470005E34B4CE20839ECF809133059091340575
:104480001596DC90009709F04DC084E090E00E9402
:10449000C233DC01ED2DF0E0EE0FFF1FE85AFE4FB6
:1044A00080818C93818111968C9311971296DC9266
:1044B000129713968C931397B0933405A0933305FA
:1044C00082E58093A00582E48093A1051092A20565
:1044D00088EC8E9DF0018F9DF00D1124E657FC4F66
:1044E00083818093A30581E08093A4050091330527
:1044F00010913405C8010E940E139093A505C801C0
:104500000E940E138093A60588E08093A205E0EA3E
:10451000F5E027EA35E080E09191890F2E173F07FB
:10452000D9F7EFC8FC0142812D2DDD0C330B42176A
:10453000130631F20E945E3484E090E00E94C233A0
:10454000DC01F8019581E92FF0E0EE0FFF1FE85A3A
:10455000FE4F80818C93818111968C9311971296D6
:104560009C931297A6CFFC014281212F110F330B90
:104570004217130609F41DC80E945E3484E090E0DF
:104580000E94C233DC0188EC8E9DF0018F9DF00DFE
:104590001124E657FC4F9581E92FF0E0EE0FFF1F45
:1045A000E85AFE4F80818C93818111968C931197EC
:1045B00012969C9312970C94D21A80912B0590918D
:1045C0002C051596DC900097E9F585E090E00E94B7
:1045D000C2338C016D2D0E94ED1110932C050093B8
:1045E0002B0582E58093A00582E48093A1051092BB
:1045F000A20588EC8E9DF0018F9DF00D1124E657E9
:10460000FC4F83818093A30581E08093A405E09112
:104610002B05F0912C0583810E94330C21E0892B1E
:1046200009F020E02093A50587E08093A205E0EA49
:10463000F5E026EA35E080E09191890F2E173F07DB
:10464000D9F7B4C8FC0122816D2DDD0C770B26173C
:10465000170639F20E945E3485E090E00E94C23372
:104660006C01D80115966C910E94ED11D0922C0529
:10467000C0922B05B6CFF80185810E944D100D9791
:1046800011F00C944418C0902505D0902605D8014F
:1046900015968C91C114D10409F07EC00E944D1072
:1046A0000D9701F58BE090E00E94C2338C0188ECFD
:1046B0008E9DF0018F9DF00D1124E657FC4F658112
:1046C000C8010E94C311F80116828BEE90E0928718
:1046D0008187108617821093260500932505C8014F
:1046E0000E94D71628EC2E9DC0012F9D900D1124FD
:1046F0009C0126573C4F5901D9011696DC90B1E038
:10470000DB125EC08E010F5F1F4F9E01275E3F4F81
:10471000AE01495E5F4FBE016B5E7F4F8091250504
:10472000909126050E94361782E58093A00582E4C9
:104730008093A105F50183818093A305D092A40500
:10474000D092A5058D899E899093A6058093A70593
:104750008F89988D9093A8058093A905898D9A8D4E
:104760009093AA058093AB0589819A819093AC05BB
:104770008093AD058FE08093A205E0EAF5E02EEA94
:1047800035E080E09191890F2E173F07D9F780938C
:10479000AE058FE00C949C18D60112969C91282FA0
:1047A000082E000C330B9217130609F49BCF0E94BE
:1047B0004D100D9709F096CFC6010E945E3472CF5E
:1047C000F2E0DF120C9444186090250570902605E5
:1047D00096E0992ED12CC12CB12CA12C8E010F5F0B
:1047E0001F4F9E012B5E3F4FAE01495E5F4FBE01E2
:1047F000675E7F4FC3010E94361789819A81A81690
:10480000B90608F45C01C80ED91E9A949110E6CF3F
:10481000CA18DB08960136952795369527953A8F65
:10482000298F82E58093A00582E48093A10588EC1E
:104830008E9DF0018F9DF00D1124E657FC4F838172
:104840008093A30581E08093A40582E08093A50571
:104850008D2D869586958093A6052093A70589E0E2
:104860008093A205E0EAF5E028EA35E080E0919146
:10487000890F2E173F07D9F78093A80589E00C947C
:104880009C1815968C910E944D100E9711F00C9467
:104890004418009123051091240528EC2E9DC00199
:1048A0002F9D900D11240115110509F092C2FC01F4
:1048B000E657FC4F6F0185810E944D100E97D1F491
:1048C00084E490E00E94C2338C01D60115966C916D
:1048D0000E94C31181E0F8018583EE5BFF4F88E6FB
:1048E00090E0918380831093240500932305C801F1
:1048F0000E948F2A0091230510912405A8014C5C89
:104900005F4F2EE06BE3C8010E94AE17D801D4962A
:104910002D903C90D59732242324322493963C92B8
:104920002E929297D696AD90BC90D797BA24AB248E
:10493000BA249596BC92AE929497D896CD90DC907E
:10494000D997DC24CD24DC249796DC92CE929697DE
:1049500016964D905D906D907C901997DC966D91B8
:104960007C91762767277627072E000C880B990BFA
:104970000E948E31F80120A531A542A553A50E94C1
:104980000030A30192010E94E430D80156966D9345
:104990007D938D939C935997DE966D917C917627AC
:1049A00067277627072E000C880B990B0E948E3103
:1049B000F80124A535A546A557A50E940030A301FE
:1049C00092010E94E430D8015A966D937D938D93A5
:1049D0009C935D97F801E05CFF4F608171817627C1
:1049E00067277627072E000C880B990B0E948E31C3
:1049F000F80120A931A942A953A90E940030A301BE
:104A000092010E94E430D8015E966D937D938D9360
:104A10009C939197B501BB0C880B990B0E948E312A
:104A20004B015C01B601DD0C880B990B0E948E31A5
:104A30009B01AC010E94CA326B8F7C8F8D8F9E8F41
:104A4000A5019401C501B4010E94CA322B8D3C8D91
:104A50004D8D5E8D0E9401300E943D336F8F78A393
:104A600089A39AA3B101330C880B990B0E948E3154
:104A70002B013C012F8D38A149A15AA10E94803001
:104A800020E030E044E353E40E94CA322AED3FE0E4
:104A900049E450E40E94E4306F8F78A389A39AA37D
:104AA000A3019201C301B2010E94CA322B8D3C8D39
:104AB0004D8D5E8D0E9401300E943D339B01AC0103
:104AC000C501B4010E94803020E030E044E353E4AB
:104AD0000E94CA322AED3FE049E450E40E94E430EB
:104AE0006B8F7C8F8D8F9E8F0E94B51080908C0174
:104AF00090908D01A0908E01B0908F016819790976
:104B00008A099B090E948C3120E030E04AE754E496
:104B10000E94E4304B015C010E94B51060938C014F
:104B200070938D0180938E0190938F01F80186A17F
:104B300097A1181619060CF066C1228D338D448D8D
:104B4000558DC501B4010E94CA329B01AC01D80148
:104B50001A966D917D918D919C911D970E940030C8
:104B6000F801628773878487958726893789408D06
:104B7000518DC501B4010E94CA329B01AC01D8011C
:104B80001E966D917D918D919C9151970E9401305F
:104B9000F80166877787808B918BF801268D378D9A
:104BA00040A151A1C501B4010E94CA32D801529658
:104BB0002D913D914D915C9155970E9401302B01B3
:104BC0003C0120E030E044EB53E40E94E4300E94DA
:104BD000C93120E030E044EB53E40E94CA329B012B
:104BE000AC01C301B2010E940030F801628B738BEB
:104BF000848B958B20E030E040E05FE3C501B40199
:104C00000E9401309B01AC0160E070E080E09FE316
:104C10000E94E4304B015C01AC019B0160E070E05C
:104C200080E89FE30E9400302B013C01D8011A96D6
:104C30002D913D914D915C911D97C501B4010E944C
:104C4000CA326BA37CA38DA39EA3A30192016F8D97
:104C500078A189A19AA10E94CA329B01AC016BA1E3
:104C60007CA18DA19EA10E940130F801628773870B
:104C7000848795872685378540895189C501B40188
:104C80000E94CA324B015C01A30192016B8D7C8DA5
:104C90008D8D9E8D0E94CA329B01AC01C501B4016D
:104CA0000E940130D8011E966D937D938D939C9345
:104CB000519782E58093A00582E48093A10510922C
:104CC000A20588EC8E9DF0018F9DF00D1124E65712
:104CD000FC4F83818093A30581E08093A4057680B7
:104CE0007092A505E6E0781265C000912305109149
:104CF0002405F8016285738584859585905820E0A8
:104D000030E048EC52E40E94CA320E9456314B0116
:104D10005C01D8011E966D917D918D919C9151976A
:104D2000905820E030E048EC52E40E94CA320E94E1
:104D300056316B017C0120E030E048EC52E4F80190
:104D400062897389848995890E94CA320E9456318A
:104D5000181419041A041B040CF488C0B094A0940D
:104D600090948094811C911CA11CB11C1092A605EA
:104D70009092A7058092A8051C141D041E041F0410
:104D80000CF477C0F094E094D094C094C11CD11C72
:104D9000E11CF11C1092A905D092AA05C092AB05A6
:104DA00097FD6BC021E02093AC057093AD05609337
:104DB000AE05EFE081E08E0F8093A205A0EAB5E09A
:104DC00020E090E03D91930F2F5FE213FBCF0C9416
:104DD000B21B9C0126573C4F6901D90115968C9155
:104DE000F8019281282F082E000C330B921713061E
:104DF00009F480CD0E944D100E9709F07BCDC801BB
:104E00000E945E345DCD228D338D448D558DC5015C
:104E1000B4010E94CA329B01AC01F801628573851E
:104E2000848595850E940130D8011A966D937D93F3
:104E30008D939C931D9756962D913D914D915C912C
:104E40005997C501B4010E94CA329B01AC01F80117
:104E500066857785808991890E940030D8011E96E9
:104E60006D937D938D939C93519797CE7092A605E9
:104E70007FCF21E02093A9058FCF9B01AC0188272C
:104E80009927DC01821B930BA40BB50B1092AC0588
:104E90009093AD058093AE058CCFDC0112962C91DA
:104EA000612F110F770B2617170611F40C94301B86
:104EB0000E945E3488E090E00E94C2338C0188EC4E
:104EC0008E9DF0018F9DF00D1124E657FC4F6581FA
:104ED000C8010E94C31181E0F80185831782168200
:104EE00010939101009390010C94301B1F920F922C
:104EF0000FB60F9211242F933F938F939F93AF93ED
:104F0000BF938091820390918303A0918403B09119
:104F100085033091810323E0230F2D3758F5019647
:104F2000A11DB11D2093810380938203909383037D
:104F3000A0938403B09385038091860390918703A7
:104F4000A0918803B09189030196A11DB11D8093A2
:104F5000860390938703A0938803B0938903BF913E
:104F6000AF919F918F913F912F910F900FBE0F9016
:104F70001F90189526E8230F0296A11DB11DD2CFD0
:104F80001F920F920FB60F9211242F933F934F93BE
:104F90005F936F937F938F939F93AF93BF93EF93A1
:104FA000FF93E0917F03F0918003309749F0A6854D
:104FB000B7858585968D91FF14C09C918923A1F4B6
:104FC000FF91EF91BF91AF919F918F917F916F91E1
:104FD0005F914F913F912F910F900FBE0F901F90B7
:104FE00018959C91892361F7A389B4899C9185893F
:104FF000809589238C93868997890197F1F7608D35
:10500000718DA685B785558538E020E0CB010197E5
:10501000F1F7822F90E095958795282F4C914523A5
:1050200009F02068315091F7868D81FD209580919F
:105030007D0390E001968F73992730917E03381796
:1050400099F0A0917D03B0E0A35CBC4F2C938093BA
:105050007D03828D938D0197F1F7A389B4898C919B
:105060009589892B8C93ACCF868D8160868FF1CF0B
:105070001F920F920FB60F9211242F933F938F938D
:105080009F93EF93FF9380913C0387FF1FC0109283
:1050900085001092840080913C038F5F80933C03D5
:1050A00080913C0387FF04C080913C038C30ACF0BE
:1050B0008091840090918500049680349C4990F101
:1050C000809184009091850004962EC080913C03CD
:1050D00087FFE1CF80913C03DECF209184003091A7
:1050E0008500E0913C038E2FEE0F990BFC01EE0F33
:1050F000FF1FE80FF91FE85EFC4F81819281820F4C
:10510000931F909389008093880080913C03FF91C6
:10511000EF919F918F913F912F910F900FBE0F9024
:105120001F90189580E49CE99093890080938800F3
:105130008FEF80933C03EBCF1F920F920FB60F922D
:1051400011242F933F938F939F93AF93BF93EF932C
:10515000FF939091C6008091B30281111BC09235DC
:1051600061F4E091B20238ECE39FF0011124E657BC
:10517000FC4F908381E08093B302FF91EF91BF9148
:10518000AF919F918F913F912F910F900FBE0F90F4
:105190001F901895813081F4923459F4E091B20255
:1051A00088ECE89FF0011124E657FC4F918382E0E0
:1051B000E2CF1092B302E1CF2091B20238EC239FEC
:1051C000F0011124E657FC4FDF01A80FB11D9C939D
:1051D0008F5F8093B3029281891710F4883C68F244
:1051E0001092B30280911A05222331F01092B2027C
:1051F000826080931A05C1CF91E09093B2028160E2
:10520000F8CFCF92DF92EF92FF920F931F93E82F88
:10521000F92F05C0015011092109310961F190816F
:1052200096239417B9F305C00150110921093109DA
:1052300011F1908196239413F7CFC12CD12CE12C3E
:10524000F12C0AC08FEFC81AD80AE80AF80A0C1520
:105250001D052E053F0579F080818623841791F383
:105260006C2D7D2D8E2D9F2D1F910F91FF90EF9016
:10527000DF90CF90089560E070E080E090E01F91B3
:105280000F91FF90EF90DF90CF9008958F929F92B3
:10529000AF92BF92CF92DF92FF920F931F93CF9363
:1052A000DF93EC01F62E2BE04DEF0E94221620E05A
:1052B0004AE06F2DCE010E94221620E141E06F2DC1
:1052C000CE010E94221624EE4DE06F2DCE010E94E9
:1052D000221621E04EE06F2DCE010E94221624E41A
:1052E00044E16F2DCE010E94221624E845E16F2D86
:1052F000CE010E94221629E94FE06F2DCE010E94B7
:10530000221620E04DEF6F2DCE010E94221624EBD5
:10531000822E22E0922EF401119283E0E435F80708
:10532000D9F70FE910E024EB32E040E06F2DCE0119
:105330000E943A1621E04DEF6F2DCE010E942216F9
:10534000E4EBF2E0119293E0E435F907D9F70FE9C5
:1053500010E024EB32E040E06F2DCE010E943A16BF
:105360002DE04DEF6F2DCE010E942216E6E0F1E018
:10537000A4EBB2E081918D9381E0E634F807D1F798
:105380000FE310E024EB32E040E06F2DCE010E94ED
:105390003A162BE04DEF6F2DCE010E94221621E030
:1053A0004AE06F2DCE010E9422162BE04DEF6F2DAB
:1053B000CE010E94221620E04AE06F2DCE010E940D
:1053C000221620E04DEF6F2DCE010E94221694EBA5
:1053D000A92E92E0B92EF50111925F01F4ECAF16FF
:1053E000F2E0BF06C1F70FE010E024EB32E040E04E
:1053F0006F2DCE010E943A1684EBC82E82E0D82E83
:1054000085E5F60181936F01F4E3CF16F3E0DF0643
:10541000C1F70FE710E024EB32E040E26F2DCE0140
:105420000E943A162BE04DEF6F2DCE010E942216FE
:1054300021E04AE06F2DCE010E9422162BE04DEFB5
:105440006F2DCE010E94221620E04AE06F2DCE0182
:105450000E94221621E04DEF6F2DCE010E942216F0
:10546000E4EBF2E01192AE16BF06E1F70FE010E0B8
:1054700024EB32E040E06F2DCE010E943A1685E524
:10548000F40181934F01CE16DF06D1F70FE710E04C
:1054900024EB32E040E26F2DCE010E943A162BE061
:1054A0004DEF6F2DCE010E94221621E04AE06F2DB4
:1054B000CE01DF91CF911F910F91FF90DF90CF90A0
:1054C000BF90AF909F908F900C9422160F931F93D4
:1054D000CF93DF93EC01062F142F0E94D814FE0106
:1054E000EE5BFF4F6081660FCE010E947414CE0107
:1054F0000E94DE13602FCE010E947414CE010E9420
:10550000DE13612FCE010E947414CE010E94DE13BF
:10551000CE01DF91CF911F910F910C945B134F92AD
:105520005F926F927F928F929F92AF92BF92CF9233
:10553000DF92EF92FF920F931F93CF93DF9300D0F0
:1055400000D000D0CDB7DEB79E838D8380E090E0A1
:10555000A3E8B2E4ED81FE8186839783A087B187BB
:10556000128613861486158616861786108A118A67
:10557000128A138A148A158A168A178A108E118E37
:10558000128E138E148E158E168E178E10A211A2E7
:1055900013A212A215A214A217A216A210A611A657
:1055A00012A613A614A615A616A617A610AA11AA27
:1055B00012AA13AA64E670E080E090E00E941B103B
:1055C00040E06BE68D819E810E94662A6EE170E06C
:1055D00080E090E00E941B1041E06AE18D819E8195
:1055E0000E94662A48E06BE18D819E810E94662AB6
:1055F00062E370E080E090E00E941B1004EF11E095
:1056000019821A821B821C82812C912C5401412CFC
:10561000512C3201ED80FE80F4E3EF0EF11C26E008
:10562000A70163E48D819E810E94AE17ED81FE810A
:1056300084A995A9982789279827092E000CAA0BD9
:10564000BB0B480E591E6A1E7B1E86A997A9982778
:1056500089279827092E000CAA0BBB0B880E991ED0
:10566000AA1EBB1E80AD91AD982789279827092EC9
:10567000000CAA0BBB0B29813A814B815C81280F5E
:10568000391F4A1F5B1F29833A834B835C83A8958C
:105690000150110921F684EFC82EDD24D394E12CAA
:1056A000F12CC301B201A70196010E94A52FCA01E6
:1056B000B9010E948E31ED81FE8160A771A782A79A
:1056C00093A7C501B401A70196010E94A52FCA01A5
:1056D000B9010E948E31ED81FE8164A775A786A76E
:1056E00097A769817A818B819C81A70196010E948D
:1056F000A52FCA01B9010E948E31ED81FE8160ABF8
:1057000071AB82AB93AB26960FB6F894DEBF0FBE9B
:10571000CDBFDF91CF911F910F91FF90EF90DF9060
:10572000CF90BF90AF909F908F907F906F905F9041
:105730004F900895789484B5826084BD84B581606B
:1057400084BD85B5826085BD85B5816085BD80914C
:105750006E00816080936E001092810080918100C4
:1057600082608093810080918100816080938100BC
:10577000809180008160809380008091B10084607E
:105780008093B1008091B00081608093B0008091DF
:105790007A00846080937A0080917A00826080939E
:1057A0007A0080917A00816080937A0080917A00FB
:1057B000806880937A001092C10060E088E00E94C7
:1057C0008A0C8091C00082608093C0001092C50056
:1057D00080E18093C4008091C10080688093C10003
:1057E0008091C10080618093C1008091C100886078
:1057F0008093C1008091C20084608093C200809138
:10580000C20082608093C2006CE271E080E090E0B0
:105810000E941B1061E080915F050E948A0C60E08D
:1058200080915F050E945C0C40E060E080E00E9497
:10583000B20BEEEDF0E0E491E0935205EAECF0E01B
:10584000E491F0E0EE0FFF1FE254FF4F8591949139
:1058500090934F0580934E0561E082E00E948A0C90
:1058600040E060E080E00E94B20B0E947C106CE29D
:1058700071E080E090E00E941B1040E060E08EE16B
:105880000E94B20B0E947C106CE271E080E090E01C
:105890000E941B1040E06EE180E00E94B20B0E946B
:1058A0007C106CE271E080E090E00E941B104EE101
:1058B00060E080E00E94B20B0E947C106CE271E01C
:1058C00080E090E00E941B1044EF51E060E070E047
:1058D00084EF91E00E94C60C61E085E00E948A0C92
:1058E00061E086E00E948A0C61E089E00E948A0CF7
:1058F00061E08AE00E948A0C8DEA809380008BE050
:1059000080938100109289001092880010928B0081
:1059100010928A0064EF71E080E090E00E941B101A
:1059200082E50E94A40082E40E94A40086E00E9416
:10593000A40080E00E94A40083E00E94A4008DE9FE
:105940000E94A40088E19FE00FB6F894A895809388
:1059500060000FBE90936000A8953AE4A32E31E05A
:10596000B32E4DEA842E45E0942E50E0652E50E093
:10597000752E6EE0262EA89580911A05482F41704D
:1059800080FF2EC18E7F80931A0580918C0350E09A
:1059900040E08150990B252F30E0281739073CF45F
:1059A00026573C4FD9012C91420F5F5FF4CF8657A9
:1059B0009C4FFC0180814813F6C080E00E940A18C9
:1059C00088E00E94330C019719F481E080931D0553
:1059D00088E00E94330C892B49F480911D058823AF
:1059E00029F081E080931C0510921D0580911C0513
:1059F000882321F110921C0580911B058823F1F06A
:105A000082E50E94A40082E40E94A40088E00E9433
:105A1000A40080E00E94A40081E00E94A40089EF1D
:105A20000E94A40081E00E94A40087E90E94A400D3
:105A300087E90E94A40087E90E94A40080914A059A
:105A4000882309F468C080911F0590912005A091DA
:105A50002105B09122050196A11DB11D80931F055E
:105A600090932005A0932105B0932205883E934092
:105A7000A105B10508F447C0C0911E0510921F058D
:105A800010922005109221051092220585E10E94B6
:105A9000A90EBC0190E080E00E948C3120E030E053
:105AA00040E75CE30E94CA326B017C0120E030E0F9
:105AB00040E050E40E94BD3218162CF52AE939E97D
:105AC00049ED50E4C701B6010E94DF3087FF1BC0DB
:105AD00082E50E94A40082E40E94A40088E00E9463
