:100000000C9492000C94BA000C94BA000C941B1C33
:100010000C941B1C0C941B1C0C94BA000C94BA007E
:100020000C94BA000C94BA000C94BA000C94AB1C5B
:100030000C94BA000C94BA000C94BA000C94BA0058
:100040000C942E240C94BA000C9497230C94BA00B0
:100050000C94BA000C94BA000C94BA000C94BA0038
:100060000C94BA000C94BA006B2777278327C92712
:1000700091279F27AD27BB27D727E32702281028E2
:100080001E28C8285228B92844282C2860286E2801
:100090007D288C289B28AA28084AD73B3BCE016E96
:1000A00084BCBFFDC12F3D6C74319ABD56833DDACF
:1000B0003D00C77F11BED9E4BB4C3E916BAAAABEDE
:1000C000000000803F0000000000240027002A00FC
:1000D00000000000250028002B000000000800029E
:1000E0000100000304070000000000000000000001
:1000F000000023002600290004040404040404046E
:1001000002020202020203030303030301020408C2
:100110001020408001020408102001020408102071
:100120003E2D382D11241FBECFEFD8E0DEBFCDBF4E
:1001300011E0A0E0B1E0EAE5F7E602C005900D921B
:10014000A435B107D9F724E0A4E5B1E001C01D92C0
:10015000AF39B207E1F710E0C1E9D0E004C0219760
:10016000FE010E943032C039D107C9F70E94C02475
:100170000C94A0330C9400002F923F924F925F9208
:100180006F927F928F929F92AF92BF92CF92DF92A7
:10019000EF92FF920F931F93CF93DF93CDB7DEB70C
:1001A000A6970FB6F894DEBF0FBECDBFE82EF12C98
:1001B00028EC829F8001112408591E4FD801149603
:1001C0008C91803209F41EC608F063C0843109F4B2
:1001D0008FC2C0F5853009F401C118F5823009F4E9
:1001E000AAC0843009F4DDC0813011F00C942B15C5
:1001F00082E58093580382E480935903F801838158
:1002000080935B0386E080935C0382E080935D03D0
:1002100088E080935E0380935A03E8E5F3E090E082
:1002200082C0813109F452C128F4803109F410C12F
:100230000C942B15823109F499C1833109F42FC232
:100240000C942B15893109F412C390F4863109F40A
:10025000F9C108F40CC2883111F00C942B15F80187
:100260008581809335038681809338030C94D6145E
:100270008C3109F4FEC328F48A3109F460C30C946C
:100280002B158E3109F445C58F3109F4EAC40C945D
:100290002B15893A11F40C949A0CF0F4843A09F471
:1002A0001BC750F4823A09F4B5C608F0DFC6813A9C
:1002B00009F428C60C942B15863A11F40C944D0AB7
:1002C00008F476C7873A11F40C94AD0A883A11F411
:1002D0000C94210B0C942B158E3A11F40C944211B2
:1002E00088F48B3A11F40C94B90F10F40C94950B1C
:1002F0008C3A11F40C9417108D3A11F40C941514D7
:100300000C942B15803B11F40C94CC1210F40C942B
:100310003F12813B11F40C942B13823B11F40C948B
:100320009F130C942B158191980F23E0EF35F20762
:10033000D1F70C94111482E58093580382E48093E2
:10034000590310925A03D80113968C9113978093F6
:100350005B0315968C91823059F024F4813089F436
:1003600081E009C0833031F0843059F484E003C067
:1003700082E001C083E00E94231A80935C03E5E0E1
:1003800001C0E4E081E08E0F80935A03A8E5B3E05A
:1003900020E090E03D91930F2F5FE213FBCF0C9490
:1003A000B40F82E58093580382E480935903F801E7
:1003B000838180935B0381E080935C0380935D0382
:1003C00087E080935A03E8E5F3E090E08191980F8D
:1003D00023E0EE35F207D1F70C94900B82E5809381
:1003E000580382E48093590310925A03D80113965C
:1003F0008C9180935B0381E00E94231A80935C03BD
:1004000082E00E94231A80935D0383E00E94231AF6
:1004100080935E0384E00E94231A80935F0310920E
:1004200060031092610310926203109263038DE0E7
:1004300080935A03E8E5F3E090E08191980FB3E0F0
:10044000E436FB07D1F7909364038DE00C94FE141F
:10045000F80185818C3F21F1882389F08B3F11F0D1
:100460000C94D61488EC8E9DF0018F9DF00D112414
:10047000E859FE4F00852781468161E01DC088EC68
:100480008E9DF0018F9DF00D1124E859FE4F0085DF
:100490002781468160E089E293E00E94442010C0F9
:1004A00088EC8E9DF0018F9DF00D1124E859FE4FD0
:1004B00000852781468160E089E293E00E947220F6
:1004C00089E293E00E9411200C94D614D80115966D
:1004D0008C918F3F09F43FC08823B1F08E3F11F01B
:1004E0000C94D61488EC8E9DF0018F9DF00D112494
:1004F000E859FE4F6681062E000C770B880B990B8E
:100500000E9459170C94D614F8012781022E000C72
:10051000330B440B550B6681062E000C770B880BB2
:10052000990B0E948A18D80116968C9181110C940F
:10053000D61488EC8E9DF0018F9DF00D1124E859A2
:10054000FE4F878181110C94D614109235031092BE
:1005500038030C94D614F8016681062E000C770B34
:10056000880B990B0E941F180C94D614D80115966D
:100570008C910E94231A029711F00C94D61480914A
:100580003603909137030097B1F480E190E00E9428
:100590004A328C0188EC8E9DF0018F9DF00D112464
:1005A000E859FE4F6581C8010E94DC1F1093370394
:1005B0000093360323C0FC01428150E028EC2E9DBD
:1005C00080012F9D100D112408591E4FD80115963A
:1005D0002C91022E000C330B4217530779F00E9426
:1005E000E23280E190E00E944A326C01F8016581BC
:1005F0000E94DC1FD0923703C092360388EC8E9D98
:10060000F0018F9DF00D1124E859FE4FD084C78072
:10061000B680009136031091370360E4C8010E9450
:10062000461F61EAC8010E94E61E6B2DC8010E94A8
:10063000E61E6C2DC8010E94E61E6D2DC8010E94A9
:10064000E61E10C1D80115968C911597893F11F0BF
:100650000C94D61416968C91882329F081E080930F
:10066000F9020C94D6141092F9020C94D614F801E5
:100670008681882331F0813031F481E08093390321
:1006800002C0109239031092FB021092FC021092E9
:10069000FD021092FE021092FA020C94D61488EC1D
:1006A0008E9DF0018F9DF00D1124E859FE4F85813C
:1006B0008A3F11F00C94D614408550E0542F442703
:1006C0008185482B60E070E0868190E0982F882734
:1006D0002781822B0E94EA1661E0809156030E94D6
:1006E000AE1660E0809156030E947F160C94D614DB
:1006F000D80115968C910E94231A039711F00C943F
:10070000D6148091270390912803009741F486E046
:1007100090E00E944A326C01F801658116C0DC014C
:1007200012964C9150E0F8012581022E000C330BFB
:100730004217530789F00E94E23286E090E00E945F
:100740004A326C01D80115966C91C6010E948A222A
:10075000D0922803C0922703009127031091280309
:1007600088EC8E9DF0018F9DF00D1124E259FE4F13
:1007700063E1808190E0982F88272181822BAC0152
:100780004A7A5A7A5695479585759575880F991FB7
:10079000482B592B9A012C7C3C7C36952795369515
:1007A000279543735373440F551F440F551F242B34
:1007B000352BC901807F907F44E0969587954A95B7
:1007C000E1F72F703F7054E0220F331F5A95E1F785
:1007D000822B932B982789279827880F991F880F9A
:1007E000991F2FEF260FA1E0B0E0AC0FBD1FA60FA1
:1007F000B11D8C936250A1E0B0E0AC0FBD1FA20F01
:10080000B11D9C9332966F3F09F0B3CFC8010E948F
:10081000FD1E67EEC8010E94E61E60E0C8010E944E
:10082000E61EFE0131965F016E01F5E1CF0ED11C8F
:10083000D5019D915D01892F8C7C682F6695669509
:100840009373B4E09B9FC0011124862B682F6A7AB2
:1008500066958575880F682BC8010E94E61EAC144A
:10086000BD0431F7C8010E94771D0C94D614D8013D
:1008700015968C910E94231A059711F00C94D614AA
:1008800080911B0390911C03009741F485E090E058
:100890000E944A326C01F801658116C0DC01129693
:1008A0004C9150E0F8012581022E000C330B4217C9
:1008B0005307B9F00E94E23285E090E00E944A328C
:1008C0006C01D80115966C91C6010E94F11FD0925F
:1008D0001C03C0921B0383EA8093B00087E08093DF
:1008E000B10088EC8E9DF0018F9DF00D1124E85928
:1008F000FE4F8681813089F08230C1F081110C94E5
:10090000D614D08400911B0310911C036781C80189
:100910000E94782C6D2DC8010EC0678180911B0349
:1009200090911C030E94782C0C94D61467818091BE
:100930001B0390911C030E94592C0C94D614F801AF
:1009400085810E94231A099711F00C94D614809186
:100950001D0390911E030097C9F486E090E00E9469
:100960004A328C0188EC8E9DF0018F9DF00D112490
:10097000E859FE4F6581C8010E94C01FD801159635
:100980001C9210931E0300931D0326C0FC0142819C
:1009900050E028EC2E9D80012F9D100D1124085948
:1009A0001E4FD80115962C91022E000C330B4217C6
:1009B000530791F00E94E23286E090E00E944A32B2
:1009C0006C01F80165810E94C01FD60115961C922A
:1009D000D0921E03C0921D0388EC8E9DF0018F9D66
:1009E000F00D1124E859FE4F86818130F9F08230F4
:1009F00081F181110C94D614278180911D0390916F
:100A00001E0327FF06C0332721950CF4309541E0E3
:100A100001C040E061E00E942A2B88EC8E9DF0012D
:100A20008F9DF00D1124E859FE4F13C0278180914E
:100A30001D0390911E0327FF06C0332721950CF458
:100A4000309541E001C040E061E00E942A2B0C9407
:100A5000D614208580911D0390911E0327FD03C0AD
:100A600040E062E0F2CF332721950CF4309541E06D
:100A7000F8CFF80185810E94231A0B9711F00C948E
:100A8000D614C0901703D0901803C114D10479F480
:100A900083E290E00E944A326C01D80115966C9175
:100AA0000E942821D0921803C09217032BC0F60190
:100AB00021A130E0D80115968C91082E000C990BDD
:100AC00028173907F9F08EE091E091838083C60101
:100AD0000E94951CC6010E94E23283E290E00E94CF
:100AE0004A328C0188EC8E9DF0018F9DF00D11240F
:100AF000E859FE4F6581C8010E9428211093180310
:100B000000931703C0901703D090180388EC8E9DB4
:100B1000F0018F9DF00D1124E859FE4F1681F6016A
:100B200082A190E0212F012E000C330B8217930736
:100B300049F112A38AEA8093540182E0809355011F
:100B400081E0809356011093570186E581278093B9
:100B5000580194E5A92E91E0B92E29E5822E21E0D5
:100B6000922ED5016D915D01C6010E948F1B8A14E2
:100B70009B04B9F7F60112A362E370E080E090E015
:100B80000E94E91988EC8E9DF0018F9DF00D1124D3
:100B9000E859FE4F208587810091170310911803B3
:100BA0009AEA909354018093550191E090935601F5
:100BB000209357019BEA89278227809580935801CB
:100BC00084E5C82E81E0D82ED6016D916D01C80153
:100BD0000E948F1BB9E5CB16B1E0DB06A9F762E3F3
:100BE00070E080E090E00E94E919809117039091F5
:100BF00018030E94951C009117031091180301150A
:100C0000110559F08EE091E0F80191838083C801CD
:100C10000E94951CC8010E94E232109218031092A3
:100C2000170388EC8E9D80018F9D100D11240859AB
:100C30001E4FD8011596EC91EE0FFF0BE45EFE4FB0
:100C400060E080810E94AE16D8011596EC91EE0FFF
:100C5000FF0BE45EFE4F60E081810E94AE160C94B3
:100C6000D61488EC8E9D80018F9D100D112408599B
:100C70001E4FF80185810E94231A439711F00C94AE
:100C8000D614C0901103D0901203C114D10449F4BA
:100C90008CE090E00E944A326C01D80115966C916C
:100CA0001AC0F601228130E0D80115968C91082EE9
:100CB000000C990B28173907A9F0828593850E94AB
:100CC000E232C6010E94E2328CE090E00E944A3299
:100CD0006C01F8016581C6010E94A520D092120323
:100CE000C092110388EC8E9DF0018F9DF00D1124B0
:100CF000E859FE4F01852085478166818091110367
:100D0000909112030E94442080911103909112034C
:100D1000D9CBD80115968C910E94231A429711F0D5
:100D20000C94D61480910F0390911003009779F4DE
:100D300086E090E00E944A328C0188EC8E9DF001A2
:100D40008F9DF00D1124E859FE4F65811FC0DC0115
:100D500012964C9150E068EC6E9D90016F9D300DA5
:100D60001124F901E859FE4F6F012581022E000C74
:100D7000330B42175307B1F00E94E23286E090E055
:100D80000E944A328C01D60115966C91C8010E94CE
:100D9000C01FF80115821093100300930F03C801C0
:100DA0000E94411688EC8E9D80018F9D100D1124AC
:100DB00008591E4FD80116964C9161E080910F039F
:100DC000909110030E940D23F801478162E0809109
:100DD0000F03909110030E940D23D80118964C9197
:100DE00063E080910F03909110030E940D23F8019E
:100DF000418564E080910F03909110030E940D23C0
:100E00000C94D614D80115968C910E94231A4997F8
:100E100011F00C94D6148091010390910203009775
:100E2000B9F485E090E00E944A326C01F8016581D6
:100E30000E94F11FD0920203C092010361E0D6012B
:100E400013968C910E94AE1661E0F601848125C054
:100E5000DC0112964C9150E0F8012581022E000C25
:100E6000330B42175307D9F00E94E23285E090E03D
:100E70000E944A326C01D80115966C910E94F11FB4
:100E8000D0920203C092010361E0F60183810E94C7
:100E9000AE1661E0D60114968C910E94AE160091B8
:100EA00001031091020388EC8E9DF0018F9DF00DDF
:100EB0001124E859FE4FC680C0948781D12C61E08F
:100EC00081110EC0F80183810E94AE1660E0D80146
:100ED00014968C910E94AE16B601F80183810EC063
:100EE000D80114968C910E94AE1660E0F8018381BF
:100EF0000E94AE16B601D80114968C910E94C017BC
:100F00000C94D614F80185810E94231A029711F0DF
:100F10000C942B1580913603909137030097B1F410
:100F200080E190E00E944A328C0188EC8E9DF001B5
:100F30008F9DF00D1124E859FE4F6581C8010E9474
:100F4000DC1F109337030093360324C0DC01129694
:100F50004C9150E028EC2E9D80012F9D100D112406
:100F600008591E4FF8012581022E000C330B421741
:100F7000530781F00E94E23280E190E00E944A3201
:100F80006C01D80115966C910E94DC1FD09237033A
:100F9000C092360380913603909137030E94541A11
:100FA00020E030E040E251E40E9452310E94DE2F06
:100FB0009B0142E54093580342E44093590348ECB7
:100FC0004E9DF0014F9DF00D1124E859FE4F4381D5
:100FD00040935B0341E040935C03AB0177FF02C0A9
:100FE00041505F4F50935D03C90160E071E00E9482
:100FF0001C3280935E0388E080935A03E8E5F3E0B7
:101000002FE533E090E08191980F2E173F07D9F735
:101010000C941114F8018581893F11F00C942B1563
:1010200082E58093580382E48093590310925A0317
:10103000838180935B0311E010935C0388E00E943E
:101040005616019719F410925D0302C010935D03C8
:1010500087E080935A03E8E5F3E02EE533E090E083
:101060008191980F2E173F07D9F75AC3D8011596CB
:101070008C918D3F11F00C942B1585E10E949A18EC
:1010800022E3FC012E9FC0012F9F900D112422E529
:101090002093580322E420935903D80113962C91EE
:1010A00020935B0321E020935C036FEF73E00E94C9
:1010B0001C32862F880F680F60935D0387E0809352
:1010C0005A03E8E5F3E02EE533E090E08191980FD4
:1010D0002E173F07D9F724C380912503909126034B
:1010E000009741F485E090E00E944A326C01F801DB
:1010F000658116C0DC0112964C9150E0F801258103
:10110000022E000C330B4217530789F00E94E23283
:1011100085E090E00E944A326C01D80115966C91EE
:10112000C6010E942422D0922603C092250382E5A4
:101130008093580382E48093590310925A0388ECF9
:101140008E9DF0018F9DF00D1124E859FE4F838193
:1011500080935B0381E080935C03009125031091F1
:101160002603F80183810E9456167C01D80114964B
:101170008C910E945616AC0121E030E0EF2811F46A
:1011800020E030E0220F331F91E0452B09F490E07E
:10119000292B20935D0387E080935A03E8E5F3E071
:1011A00090E08191980FB3E0EE35FB07D1F7B8C21C
:1011B000F80185810E94231A069711F00C942B15D3
:1011C0008091230390912403009771F486E090E0CE
:1011D0000E944A326C0188EC8E9DF0018F9DF00DCB
:1011E0001124E859FE4F1CC0FC01428150E028EC5C
:1011F0002E9D80012F9D100D112408591E4FD801DE
:1012000015962C91022E000C330B42175307D9F080
:101210000E94E23286E090E00E944A326C01F801BE
:101220001581612FC6010E949520E12FF0E0EE0F9D
:10123000FF1FE45EFE4F8181D60115968C93D092FC
:101240002403C09223030091230310912403FE0181
:1012500031961F0185E0DF011D928A95E9F761E073
:10126000F80185810E94AE1661E0D80115968C9137
:101270000E947F166AEF70E080E090E00E94E9191A
:1012800060E0F80185810E947F1664E170E080E0F3
:1012900090E00E94E91961E0D80115968C910E94B6
:1012A0007F168BE990E00197F1F760E0F801858106
:1012B0000E947F1683E290E00197F1F70E942224BA
:1012C0004B015C0162E0D80115968C910E94AE162C
:1012D000F80185810E945616019791F00E94222400
:1012E000DC01CB0188199909AA09BB090597A10559
:1012F000B10570F3D80113961C92139714961C92A3
:101300000E9422244B015C0162E0F80185810E9469
:10131000AE16D80115968C910E945616892B19F499
:10132000C12CD12C53C00E942224DC01CB0188198E
:101330009909AA09BB090597A105B10550F3F0CF9A
:101340000E942224DC01CB0188199909AA09BB0952
:101350000597A105B10538F4D80115968C910E9426
:101360005616892B69F30E94FD234B015C010E94F4
:1013700022242B013C0162E0F80185810E94AE1617
:10138000D80115968C910E945616019749F10E943A
:10139000FD23DC01CB0188199909AA09BB09F601D3
:1013A00073E0F595E7957A95E1F78997A105B10581
:1013B00020F1E20DF31D8081880F81608083BFEFF3
:1013C000CB1ADB0AE8E2CE16D104E1F00E94222417
:1013D0004B015C0162E0F80185810E94AE16BCCF32
:1013E0000E942224DC01CB0184199509A609B709C2
:1013F0000597A105B10520F2CACFE20DF31D80814A
:10140000880FDCCF59814B812D8130E06A81852F97
:1014100090E0860F911D840F911D6C81860F911DA8
:1014200099272817390731F4D80113965C9313973D
:1014300014964C9382E58093580382E48093590379
:1014400088EC8E9DF0018F9DF00D1124E859FE4F20
:10145000838180935B0381E080935C03E0912303AD
:10146000F0912403838180935D0310925E03848155
:1014700080935F03109260038AE080935A03E8E54B
:10148000F3E090E08191980FB3E0E136FB07D1F7EC
:10149000909361038AE00C94FE1480912103909153
:1014A0002203009741F484E090E00E944A326C01EC
:1014B000F801658116C0DC0112964C9150E0F801EC
:1014C0002581022E000C330B4217530789F00E942E
:1014D000E23284E090E00E944A326C01D801159615
:1014E0006C91C6010E94631DD0922203C092210319
:1014F00082E58093580382E48093590310925A0343
:1015000088EC8E9DF0018F9DF00D1124E859FE4F5F
:10151000838180935B0381E080935C03809121034E
:10152000909122030E94402290935D0380912103B9
:10153000909122030E94402280935E0388E0809372
:101540005A03E8E5F3E02FE533E090E08191980F4E
:101550002E173F07D9F70C94111480911F03909117
:1015600020030097B1F484E090E00E944A328C019D
:1015700088EC8E9DF0018F9DF00D1124E859FE4FEF
:101580006581C8010E94631D1093200300931F030F
:1015900023C0FC01428150E028EC2E9D80012F9D4C
:1015A000100D112408591E4FD80115962C91022EAA
:1015B000000C330B4217530779F00E94E23284E0AB
:1015C00090E00E944A326C01F80165810E94631D1F
:1015D000D0922003C0921F0382E58093580382E4D7
:1015E0008093590310925A0388EC8E9DF0018F9DD1
:1015F000F00D1124E859FE4F838180935B0381E055
:1016000080935C0380911F03909120030E942B1D07
:1016100090935D0380911F03909120030E942B1DE6
:1016200080935E0388E080935A03E8E5F3E02FE5BA
:1016300033E090E08191980F2E173F07D9F70C9473
:1016400011148091190390911A030097B1F485E069
:1016500090E00E944A328C0188EC8E9DF0018F9DB3
:10166000F00D1124E859FE4F6581C8010E94D12078
:1016700010931A030093190324C0DC0112964C91B5
:1016800050E028EC2E9D80012F9D100D112408594B
:101690001E4FF8012581022E000C330B4217530711
:1016A00081F00E94E23285E090E00E944A326C01B3
:1016B000D80115966C910E94D120D0921A03C09245
:1016C000190382E58093580382E4809359031092B2
:1016D0005A0388EC8E9DF0018F9DF00D1124E8597E
:1016E000FE4F838180935B0381E080935C03E091F4
:1016F0001903F0911A0383810E94561621E0892B69
:1017000009F020E020935D0387E080935A03E8E529
:10171000F3E090E08191980FB3E0EE35FB07D1F74D
:1017200090935E0387E00C94FE14F80185810E947B
:10173000231A0D9711F00C942B15E0911503F091DD
:10174000160328EC2E9DC0012F9D900D11249C01A5
:1017500028593E4F6901D90115968C91309729F48B
:101760000E94231A0D9791F513C0228130E0482F73
:10177000082E000C550B2417350741F10E94231A3F
:101780000D9721F580911503909116030E94E23286
:101790008BE090E00E944A328C01F60165810E9444
:1017A000C01FD80116961C9216978BEE90E01A96E1
:1017B0009C938E93199718961C921E9217971093CC
:1017C000160300931503C8010E94372328EC2E9DB1
:1017D000C0012F9D900D1124FC01E859FE4F5F01BF
:1017E000D680F1E0DF124AC08E01075E1F4F9E01D6
:1017F0002F5F3F4FAE014B5E5F4FBE01695E7F4F73
:1018000080911503909116030E94C02C82E580936D
:10181000580382E480935903D50113968C918093E9
:101820005B03D0925C03D0925D038F89988D909377
:101830005E0380935F038D899E89909360038093FC
:10184000610389819A819093620380936303898DF8
:101850009A8D90936403809365038FE080935A037D
:10186000E8E5F3E090E08191980FB3E0E636FB07FE
:10187000D1F7909366038FE00C94FE14E2E0DE1241
:101880000C942B15609015037090160366E0962E4D
:10189000C12CD12CA12CB12C8E010F5F1F4F9E01AA
:1018A0002B5E3F4FAE01495E5F4FBE01675E7F4FCB
:1018B000C3010E94C02C89819A81A816B90608F438
:1018C0005C01C80ED91E9A949110E6CFCA18DB08A5
:1018D000C60196958795969587959A83898392E513
:1018E0009093580392E49093590398EC9E9DF001D5
:1018F0009F9DF00D1124E859FE4F938190935B0357
:1019000091E090935C0392E090935D039D2D9695FA
:10191000969590935E0380935F0389E080935A03CA
:10192000E8E5F3E090E08191980F23E0E036F207DC
:10193000D1F7A4C4D80115968C910E94231A0E9752
:1019400011F00C942B15E0911303F09114033097D0
:10195000A9F4F80185810E94231A0E9709F03FC06F
:1019600084E490E00E944A326C01D80115966C9193
:101970000E94C01F81E0F601858324C0D80115961E
:101980008C91228130E0482F082E000C550B241733
:10199000350729F10E94231A0E9709F58091130348
:1019A000909114030E94E23284E490E00E944A3253
:1019B0006C01F80165810E94C01F81E0D601159677
:1019C0008C93F601EE5BFF4F88E690E09183808375
:1019D000D0921403C0921303C6010E944E2B0091B3
:1019E000130310911403A8014C5C5F4F2EE06BE3CE
:1019F000C8010E94B122F80124A835A8322423246A
:101A0000322433A222A2A6A8B7A8BA24AB24BA24AF
:101A1000B5A2A4A2C0ACD1ACDC24CD24DC24D7A2D6
:101A2000C6A2468057806084718464AD75AD762708
:101A300067277627072E000C880B990B0E9416301B
:101A4000D80198962D913D914D915C919B970E9464
:101A5000882EA30192010E946C2FF801668B778B70
:101A6000808F918F66AD77AD762767277627072E13
:101A7000000C880B990B0E941630D8019C962D9172
:101A80003D914D915C919F970E94882EA3019201F8
:101A90000E946C2FF801628F738F848F958FE05CAA
:101AA000FF4F60817181762767277627072E000C0C
:101AB000880B990B0E941630D801D0962D913D913C
:101AC0004D915C91D3970E94882EA30192010E94B0
:101AD0006C2FF801668F778F80A391A3B501BB0CA3
:101AE000880B990B0E9416304B015C01B601DD0C8E
:101AF000880B990B0E9416309B01AC010E94523159
:101B00006B8F7C8F8D8F9E8FA5019401C501B401D1
:101B10000E9452312B8D3C8D4D8D5E8D0E94892E01
:101B20000E94C5316F8F78A389A39AA3B101330CAA
:101B3000880B990B0E9416302B013C012F8D38A188
:101B400049A15AA10E94082F20E030E044E353E469
:101B50000E9452312AED3FE049E450E40E946C2F8C
:101B60006F8F78A389A39AA3A3019201C301B20145
:101B70000E9452312B8D3C8D4D8D5E8D0E94892EA1
:101B80000E94C5319B01AC01C501B4010E94082F20
:101B900020E030E044E353E40E9452312AED3FE07C
:101BA00049E450E40E946C2F6B8F7C8F8D8F9E8F49
:101BB0000E94222480905E0190905F01A0906001BD
:101BC000B0906101681979098A099B090E94143053
:101BD00020E030E04AE754E40E946C2F4B015C01A6
:101BE0000E94222460935E0170935F0180936001E4
:101BF00090936101D80196968D919C9197971816B4
:101C00001906ACF55A962D913D914D915C915D97D9
:101C1000C501B4010E9452319B01AC01F8016285FB
:101C20007385848595850E94882ED8011A966D93B8
:101C30007D938D939C931D9756962D913D914D913B
:101C40005C915997C501B4010E9452319B01AC01CE
:101C5000F80166857785808991890E94892ED8014F
:101C60001E966D937D938D939C93519731C0F8018F
:101C7000228D338D448D558DC501B4010E945231A2
:101C80009B01AC01D8011A966D917D918D919C912B
:101C90001D970E94892EF801628773878487958734
:101CA00026893789408D518DC501B4010E9452317A
:101CB0009B01AC01D8011E966D917D918D919C91F7
:101CC00051970E94882EF80166877787808B918BC9
:101CD000D8015E962D913D914D915C919197C501F2
:101CE000B4010E945231F80122893389448955890F
:101CF0000E94892E2B013C0120E030E044EB53E4AC
:101D00000E946C2F0E94513020E030E044EB53E4FD
:101D10000E9452319B01AC01C301B2010E94882E86
:101D2000D80152966D937D938D939C93559720E0A7
:101D300030E040E05FE3C501B4010E94892E9B01C1
:101D4000AC0160E070E080E09FE30E946C2F4B01EB
:101D50005C019B01AC0160E070E080E89FE30E94C1
:101D6000882E2B013C01F801228533854485558559
:101D7000C501B4010E9452316BA37CA38DA39EA325
:101D8000A30192016F8D78A189A19AA10E9452317D
:101D90009B01AC016BA17CA18DA19EA10E94892E0B
:101DA000D8011A966D937D938D939C931D971E96E3
:101DB0002D913D914D915C915197C501B4010E94C7
:101DC00052314B015C01A30192016B8D7C8D8D8D95
:101DD0009E8D0E9452319B01AC01C501B4010E944D
:101DE000892EF80166877787808B918B82E58093B7
:101DF000580382E48093590310925A0388EC8E9D15
:101E0000F0018F9DF00D1124E859FE4F83818093DE
:101E10005B0381E080935C03868180935D03813066
:101E200009F094C00091130310911403F801828506
:101E30009385A485B585BC01CD01905820E030E0A4
:101E400048EC52E40E9452310E94DE2F4B015C01AB
:101E5000F80186859785A089B189BC01CD0190588C
:101E600020E030E048EC52E40E9452310E94DE2F24
:101E70006B017C0120E030E048EC52E4D80152963E
:101E80006D917D918D919C9155970E9452310E9448
:101E9000DE2F9401181419041A041B044CF097FE49
:101EA00004C0222733272819390910925E0309C07C
:101EB00097FE04C0222733272819390941E04093AF
:101EC0005E034901330FAA08BB0890925F03209379
:101ED000600396011C141D041E041F044CF0D7FE61
:101EE00004C0222733272C193D091092610309C031
:101EF000D7FE04C0222733272C193D0941E0409327
:101F000061036901330FEE08FF08D092620320934A
:101F1000630397FD08C021E0209364037093650379
:101F20006093660311C09B0177FF04C0222733270B
:101F3000261B370B10926403C901330FAA0BBB0B8E
:101F40009093650320936603EFE001C0E6E081E033
:101F50008E0F80935A03A8E5B3E020E090E03D9116
:101F6000930F2F5FE213FBCFF0E0E85AFC4F908312
:101F700045C58091660190916701009771F0FC0161
:101F8000428150E0D80115962C91022E000C330BA3
:101F900042175307C1F00E94E23288E090E00E94AD
:101FA0004A326C01F80165810E94C01F81E0D601B0
:101FB00015968C93159717961C921E921697D09291
:101FC0006701C092660182E58093580382E48093A2
:101FD000590310925A0388EC8E9DF0018F9DF00DED
:101FE0001124E859FE4F838180935B0381E0809345
:101FF0005C0380916601909167010E945B1F909342
:102000005D0380916601909167010E945B1F809340
:102010005E0388E080935A03E8E5F3E02FE533E0C0
:1020200090E08191980F2E173F07D9F7FAC380915E
:102030000D0390910E03009771F489E090E00E94E7
:102040004A326C0188EC8E9DF0018F9DF00D1124B9
:10205000E859FE4F1CC0FC01428150E028EC2E9D47
:1020600080012F9D100D112408591E4FD80115967F
:102070002C91022E000C330B42175307F9F00E94EB
:10208000E23289E090E00E944A326C01F801158149
:10209000612FC6010E949520E12FF0E0EE0FFF1F97
:1020A000E45EFE4F8081D60115968C931597818151
:1020B00014968C93D0920E03C0920D0388EC8E9DE3
:1020C000F0018F9DF00D1124E859FE4F868100919B
:1020D0000D0310910E03813019F4F801648105C0DD
:1020E000823031F4D80115966C91C8010E940F1D01
:1020F0006801B6E0CB0ED11CC6010E94F1208823F6
:1021000009F491C46CECC6010E94B21564E4C601E6
:102110000E94B2150E9422242B013C0133E2A32E1F
:10212000B12CF80126810780F085E02D9181822F66
:10213000809598239183C5010197F1F780818223CF
:1021400009F45FC4C6010E94F1206CECC6010E9434
:10215000B2156EEBC6010E94B2159E012F5F3F4F74
:1021600029016E0136E0C30ED11C67E070E043E246
:1021700050E08FECA82EB12C88E090E0812C7724E1
:102180007394D80116966C9016971796ED91FC9162
:102190001897F8942181262921832281962C9094E6
:1021A00029212283DB011197F1F72181922291826B
:1021B000DA011197F1F720817894F5013197F1F761
:1021C000622209F08728770C0197D9F6F2018192F3
:1021D0002F01EC15FD0581F669817A81072E000C2F
:1021E000880B990B0E94163020E030E040E85DE358
:1021F0000E94523120E030E048EC52E40E9452311B
:102200004B015C0182E58093580382E4809359037B
:1022100088EC8E9DF0018F9DF00D1124E859FE4F42
:10222000838180935B0381E080935C0320E030E056
:10223000A901C501B4010E94453187FDF1C381E0C8
:1022400080935D03C501B4010E94DE2F9B0177FFDF
:1022500004C022273327261B370B30935E032093BD
:102260005F0389E080935A03E8E5F3E020E633E07A
:1022700090E08191980F2E173F07D9F79093600354
:1022800089E0BCC380910B0390910C03009749F443
:1022900085E090E00E944A326C01D80115961C91AD
:1022A00015C0FC01428150E0D80115962C91022EF8
:1022B000000C330B42175307F9F00E94E23285E01D
:1022C00090E00E944A326C01F8011581612FC6012D
:1022D0000E949520E12FF0E0EE0FFF1FE45EFE4F1D
:1022E0008181D60113968C931397808114968C93D9
:1022F000D0920C03C0920B0300910B0310910C03BE
:1023000060E0F80183810E94AE16D80113968C918B
:102310000E949A189C01205D3240121613064CF45C
:102320004BE0429FC001439F900D112466E070E096
:1023300008C047E0429FC001439F900D11246AE00E
:1023400070E00E941C320091620110916301060F3F
:10235000171F013EB1E01B0764F40032EEEF1E07C9
:102360005CF0C801C1968336910540F400E010E0AE
:1023700005C000EE11E002C000E21EEFC0900B03AA
:10238000D0900C0360E0D60114968C910E94AE169A
:10239000F60184810E949A189C01205D3240121639
:1023A00013064CF445EF4203C001439F900D1124E6
:1023B00066E070E008C049EF4203C001439F900D02
:1023C00011246AE070E00E941C32809164019091B7
:1023D0006501680F791F613EF1E07F0764F46032A8
:1023E0002EEF72075CF0CB01C1968336910540F465
:1023F00060E070E005C060EE71E002C060E27EEF78
:1024000082E58093580382E48093590388EC8E9D83
:10241000F0018F9DF00D1124E859FE4F83818093C8
:102420005B0381E080935C0317FD82E080935D0392
:1024300017FF03C011950195110910935E030093D6
:102440005F0377FD02C081E001C082E080936003FA
:1024500077FF03C071956195710970936103609373
:1024600062038CE080935A03E8E5F3E023E633E06F
:1024700090E08191980F2E173F07D9F793C2809172
:10248000090390910A03009749F485E090E00E94C7
:102490004A326C01D80115961C911CC0FC01428186
:1024A00050E0D80115962C91022E000C330B4217E8
:1024B000530731F10E94E23285E090E00E944A32F7
:1024C0006C0188EC8E9DF0018F9DF00D1124E85970
:1024D000FE4F1581612FC6010E949520E12FF0E08B
:1024E000EE0FFF1FE45EFE4F8081D60113968C93A2
:1024F0001397818114968C93D0920A03C09209039A
:1025000082E58093580382E48093590310925A0322
:1025100088EC8E9DF0018F9DF00D1124E859FE4F3F
:10252000838180935B0381E080935C0300910903C6
:1025300010910A0360E0F80184810E94AE16D80170
:1025400014968C910E949A180FEF13E0F801E81B83
:10255000F90BCF0190935D03E0900903F0900A031B
:1025600060E0D70114968C910E94AE16F701848129
:102570000E949A18081B190B00935E0388E0809351
:102580005A03E8E5F3E02FE533E090E08191980FFE
:102590002E173F07D9F745C1809107039091080393
:1025A000009749F484E090E00E944A326C01D8011F
:1025B00015966C9115C0FC01428150E0D80115962A
:1025C0002C91022E000C330B4217530781F00E940E
:1025D000E23284E090E00E944A326C01F8016581A9
:1025E000C6010E94631DD0920803C092070382E5D2
:1025F0008093580382E48093590310925A0388EC25
:102600008E9DF0018F9DF00D1124E859FE4F8381BE
:1026100080935B0381E080935C038091070390913A
:1026200008030E94182290935D0380910703909104
:1026300008030E94182280935E0388E080935A0367
:10264000E8E5F3E02FE533E090E08191980F2E1755
:102650003F07D9F7E6C080910503909106030097E4
:10266000B1F484E090E00E944A328C0188EC8E9DA7
:10267000F0018F9DF00D1124E859FE4F6581C801CE
:102680000E94631D109306030093050324C0DC0120
:1026900012964C9150E028EC2E9D80012F9D100D3C
:1026A000112408591E4FF8012581022E000C330B0E
:1026B0004217530781F00E94E23284E090E00E94CA
:1026C0004A326C01D80115966C910E94631DD0921C
:1026D0000603C092050382E58093580382E4809349
:1026E000590310925A0388EC8E9DF0018F9DF00DD6
:1026F0001124E859FE4F838180935B0381E080932E
:102700005C0380910503909106030E942B1D90931A
:102710005D0380910503909106030E942B1D809319
:102720005E0388E080935A03E8E5F3E02FE533E0A9
:1027300090E08191980F2E173F07D9F772C08091D2
:102740000303909104030097B1F484E090E00E94A9
:102750004A328C0188EC8E9DF0018F9DF00D112482
:10276000E859FE4F6581C8010E94631D1093040360
:102770000093030323C0FC01428150E028EC2E9D0E
:1027800080012F9D100D112408591E4FD801159658
:102790002C91022E000C330B4217530779F00E9444
:1027A000E23284E090E00E944A326C01F8016581D7
:1027B0000E94631DD0920403C092030382E58093BC
:1027C000580382E48093590310925A0388EC8E9D3B
:1027D000F0018F9DF00D1124E859FE4F8381809305
:1027E0005B0381E080935C03809103039091040379
:1027F0000E942B1D90935D0380910303909104032D
:102800000E942B1D80935E0388E080935A03E8E5C5
:10281000F3E02FE533E090E08191980F2E173F070A
:10282000D9F790935F0388E0E9C08091FF0290910F
:102830000003009771F487E090E00E944A328C0117
:1028400088EC8E9DF0018F9DF00D1124E859FE4F0C
:102850001EC0FC01428150E068EC6E9D90016F9DAE
:10286000300D1124B90168597E4F6B01DB011596BB
:102870002C91022E000C330B42175307B9F00E9423
:10288000E23287E090E00E944A328C01F6016581D5
:10289000C8010E94C01F81E0D80115968C9315973E
:1028A00016961C92109300030093FF020091FF0202
:1028B0001091000360E7C8010E94461F60EBC80149
:1028C0000E94E61EC8010E94771DC8010E94FD1EDD
:1028D00061EEC8010E94941EC8010E94FE1DC8013D
:1028E0000E94471EB82E60E0C8010E94BC1DC801AE
:1028F0000E94471ED82E60E0C8010E94BC1DC8017E
:102900000E94471EC82E61E0C8010E94BC1DC8017C
:102910000E94771DBAEABB1207C0EBEBCE1204C0CF
:10292000D8011696DC9201C0D12C82E58093580321
:1029300082E48093590388EC8E9DF0018F9DF00D09
:102940001124E859FE4F838180935B0381E08093DB
:102950005C03D5FA882780F980935D03D4FA882731
:1029600080F980935E03D3FA882780F980935F0310
:10297000D2FA882780F980936003D1FA882780F9FA
:10298000809361038D2D8170809362038CE080932E
:102990005A03E8E5F3E090E08191980FB3E0E33665
:1029A000FB07D1F7909363038CE028C090E082E5A9
:1029B0008093580382E48093590388EC8E9DF00144
:1029C0008F9DF00D1124E859FE4F838180935B03A6
:1029D00025E081E080935C0386E080935A03E8E57C
:1029E000F3E080E03191930F8F5F8217D8F39093DB
:1029F0005D0380915B03882371F186E00E949F153F
:102A00002AC00E942224DC01CB0184199509A60961
:102A1000B70981399140A105B10508F482CB03C003
:102A200010925D030FCC82E58093580382E480937B
:102A3000590388EC8E9DF0018F9DF00D1124E8590B
:102A4000FE4F838180935B0381E080935C03812C44
:102A5000912C5401F4CBA6960FB6F894DEBF0FBEAE
:102A6000CDBFDF91CF911F910F91FF90EF90DF903D
:102A7000CF90BF90AF909F908F907F906F905F901E
:102A80004F903F902F900895833081F028F481304B
:102A900099F08230A1F008958730A9F08830B9F01C
:102AA0008430D1F4809180008F7D03C080918000BC
:102AB0008F7780938000089584B58F7702C084B5A6
:102AC0008F7D84BD08958091B0008F7703C0809181
:102AD000B0008F7D8093B0000895CF93DF93EC0119
:102AE000862F90E09987888723E0629FC001112498
:102AF0000E944A329B878A87892B21F487E391E0E1
:102B00000E94703380E090E028853985A901440F48
:102B1000551F240F351F8217930738F4EA85FB856C
:102B2000E80FF91F10820196EFCFDF91CF91089542
:102B30009091C00095FFFCCF8093C60008950F933D
:102B40001F93CF93C82F08E513E0CC2339F0F80189
:102B500081918F010E949815C150F7CFCF911F919D
:102B60000F910895AF92BF92CF92DF92EF92FF92B2
:102B70000F931F93CF93DF93DC0128E030E091E0C7
:102B8000AA24AA94B12C0FE010E043E2E42EF12C29
:102B900057EDC52ED12C8C911196ED91FC91129789
:102BA000482F4095562F592381F0F89452814523A0
:102BB00042834181482B4183E7012197F1F742810C
:102BC000842B82837894F6010FC0F89452814523B8
:102BD00042834181482B4183E5012197F1F74281EE
:102BE000842B82837894F8013197F1F7990F215063
:102BF000310989F6F8941196ED91FC911297918123
:102C00008C918095892381831196ED91FC91129787
:102C100092818C918095892382837894DF91CF91E2
:102C20001F910F91FF90EF90DF90CF90BF90AF90EA
:102C300008950F931F93CF93DF93EC01162F042F6A
:102C40000E94FD1E62E5CE010E94941ECE010E94EC
:102C5000FE1D612F6068CE010E94941ECE010E946D
:102C6000FE1D602FCE010E94941ECE010E94FE1D0B
:102C7000CE010E94771D802FDF91CF911F910F9180
:102C80000895CF93DF93EC010E94FD1E68E4CE010E
:102C90000E94941ECE010E94FE1D61E3CE010E949F
:102CA000941ECE01DF91CF910C94771DCF93DF93CB
:102CB000282F30E0F901E652FF4F8491F901E45FDB
:102CC000FE4FD491F901E850FF4FC491CC2391F00D
:102CD00081110E944415EC2FF0E0EE0FFF1FE2512E
:102CE000FF4FA591B491EC91ED2381E090E021F4A8
:102CF00080E002C080E090E0DF91CF9108951F93C3
:102D0000CF93DF93282F30E0F901E652FF4F8491F3
:102D1000F901E45FFE4FD491F901E850FF4FC491EF
:102D2000CC23C1F0162F81110E944415EC2FF0E046
:102D3000EE0FFF1FE053FF4FA591B4919FB7F8949A
:102D4000111104C08C91D095D82302C0EC91DE2BD8
:102D5000DC939FBFDF91CF911F910895CF93DF93B5
:102D600090E0FC01E45FFE4F2491FC01E850FF4F2E
:102D70008491882361F190E0880F991FFC01EA5348
:102D8000FF4FC591D491FC01E053FF4FA591B49141
:102D9000611109C09FB7F8948881209582238883A8
:102DA000EC912E230BC0623061F49FB7F8948881B8
:102DB000322F309583238883EC912E2B2C939FBF49
:102DC00006C08FB7F894E8812E2B28838FBFDF9140
:102DD000CF9108954F925F926F927F928F929F92C0
:102DE000AF92BF92CF92DF92EF92FF920F931F9319
:102DF000CF93DF934A015B019C0140E050E060E427
:102E000072E48FE090E00E94252E69017A0161E072
:102E1000809156030E94AE16A8EEB3E0A50194017E
:102E20000E94442E2B013C01E601D7FC2196D5954A
:102E3000C7958E01000F111F000F111F05501109BA
:102E40000D2C000CEE08FF08812C912C54018414E9
:102E50009504A604B704E0F461E0809156030E9453
:102E60007F16C230D10518F0C8010197F1F760E074
:102E7000809156030E947F16C230D10518F0C80118
:102E80000197F1F7A8958C0C9D1CAE1CBF1CDFCFE1
:102E9000DF91CF911F910F91FF90EF90DF90CF9036
:102EA000BF90AF909F908F907F906F905F904F906A
:102EB0000895CF92DF92EF92FF926C392FEF720755
:102EC0008207920784F19B01AC016536710581058B
:102ED000910524F024E630E040E050E057FD27C0A3
:102EE000AFEFB0E00E94442E24E630E040E050E036
:102EF0000E94252E69017A01232B242B252B11F406
:102F000060E001C061E089E00E94AE1660E08AE006
:102F10000E94AE16D0928900C092880010928B0059
:102F200010928A0028C02CE93FEF4FEF5FEFA1E03D
:102F3000BFEF0E94522E24E630E040E050E00E94B5
:102F4000252E69017A0161E08AE00E94AE1660E0F8
:102F500089E00E94AE16D0928B00C0928A00109237
:102F6000890010928800C0924E03D0924F03E092E5
:102F70005003F0925103FF90EF90DF90CF900895AF
:102F80001F93CF93DF93182FEB0161E00E94AE16E1
:102F9000209711F460E004C0CF3FD10539F461E01F
:102FA000812FDF91CF911F910C947F16E12FF0E0DC
:102FB000E652FF4FE491E330F9F048F4E130B9F024
:102FC000E230A1F584B5806284BDC8BD34C0E7306D
:102FD000E9F0E83019F1E43049F580918000806231
:102FE00080938000D0938B00C0938A0024C084B566
:102FF000806884BDC7BD1FC08091800080688093B9
:103000008000D0938900C093880015C08091B000E3
:1030100080688093B000C093B3000DC08091B00071
:1030200080628093B000C093B40005C0C038D10561
:103030000CF0B5CFAFCFDF91CF911F910895CF9214
:10304000DF92EF92FF920F931F93CF93DF936C3930
:103050002FEF7207820792070CF43FC09B01AC016F
:10306000653671058105910524F024E630E040E0E5
:1030700050E057FD36C0AFEFB0E00E94442E24E68A
:1030800030E040E050E00E94252E69017A01D22F05
:10309000CD2D8701232B242B252B11F460E001C0BB
:1030A00061E086E00E94AE1660E085E00E94AE1608
:1030B000B60186E00E94C017D0935203C093530319
:1030C0000093540310935503DF91CF911F910F91FB
:1030D000FF90EF90DF90CF9008952CE93FEF4FEFF6
:1030E0005FEFA1E0BFEF0E94522E24E630E040E007
:1030F00050E00E94252ED22FC32F8A0161E085E087
:103100000E94AE1660E086E00E94AE166D2F7C2F06
:1031100085E0D0CFCF92DF92EF92FF9269017A01E2
:103120000E941F18C701B601FF90EF90DF90CF906B
:103130000C9459178E3008F08E50877080648093FD
:103140007C0080917A00806480937A0080917A007C
:1031500086FDFCCF809178002091790090E0922B41
:103160000895BF92CF92DF92EF92FF920F931F9339
:10317000CF93DF933AE0B32EC12CD12C7601CFEF61
:10318000D3E000E010E084E10E949A1808171907C4
:1031900008F48C018C179D0708F4EC01C80ED91EA9
:1031A000E11CF11CBA94B110EECFD701C601801B0F
:1031B000910BA109B1098C1B9D0BA109B10923E059
:1031C000B695A795979587952A95D1F7883F23E0DF
:1031D0009207A105B10508F0A8C08F3D23E0920732
:1031E000A105B10508F0A4C08B3C23E09207A1051E
:1031F000B10508F0A0C0833A23E09207A105B1050C
:1032000008F09CC0853823E09207A105B10508F0BD
:1032100098C08C3623E09207A105B10508F094C050
:10322000813223E09207A105B10508F090C08F3FDD
:1032300022E09207A105B10508F08CC0813D22E093
:103240009207A105B10508F088C08F3922E09207E6
:10325000A105B10508F084C08D3622E09207A105D2
:10326000B10508F080C08F3422E09207A105B105B6
:1032700008F07CC0833122E09207A105B10508F077
:1032800078C0853F21E09207A105B10508F074C020
:10329000813E21E09207A105B10508F070C0833C92
:1032A00021E09207A105B10508F06CC0873A21E042
:1032B0009207A105B10508F068C0863921E09207A0
:1032C000A105B10508F064C08C3721E09207A10583
:1032D000B10508F060C08A3521E09207A105B1056B
:1032E00008F05CC0823321E09207A105B10508F027
:1032F00058C08F3021E09207A105B10508F054C0F5
:10330000803D9105A105B10508F051C0853A9105B0
:10331000A105B10508F04EC08A379105A105B10598
:1033200008F04BC08FEF90E04AC080E090E047C0CB
:103330008FE090E044C083E190E041C08CE090E0F9
:103340003EC08AE090E03BC085E090E038C089E074
:1033500090E035C08BE090E032C08DE090E02FC06F
:1033600082E090E02CC080E190E029C08EE090E007
:1033700026C088E090E023C083E090E020C084E194
:1033800090E01DC081E190E01AC087E190E017C095
:1033900085E190E014C087E090E011C086E190E004
:1033A0000EC082E190E00BC086E090E008C084E0AF
:1033B00090E005C089E190E002C088E190E0DF91F3
:1033C000CF911F910F91FF90EF90DF90CF90BF9022
:1033D00008958F929F92AF92BF92CF92DF92EF9219
:1033E000FF926B017C010E94FD234B015C01C11423
:1033F000D104E104F104F1F00E94FD23DC01CB01D2
:1034000088199909AA09BB09883E9340A105B1050D
:1034100070F321E0C21AD108E108F10888EE880EA5
:1034200083E0981EA11CB11CC114D104E104F10475
:1034300019F7DDCFFF90EF90DF90CF90BF90AF9066
:103440009F908F9008958230D1F018F4813089F0E8
:103450000895833021F0843031F560E00BC060E0E6
:1034600087E00E947F1660E08DE00E947F1661E099
:103470000FC061E087E00E947F1660E005C061E058
:1034800087E00E947F1661E08DE00E947F1660E079
:103490008CE00E947F1669E170E080E090E00E947D
:1034A000E9190C94B11808954F925F926F927F9230
:1034B0009F92AF92BF92CF92DF92EF92FF920F93C3
:1034C0001F93CF93DF93CDB7DEB728970FB6F8944D
:1034D000DEBF0FBECDBF7C01CE0101966C015E0147
:1034E00099E0A90EB11C992493940E942224F7011B
:1034F0004084518462847384DC01CB018419950972
:10350000A609B7094197A105B10508F09782F7010F
:103510008781882309F466C00E942224F70160870E
:10352000718782879387178260E4C7010E94461FD4
:1035300062EAC7010E94E61E62EAC7010E94E61E17
:1035400062EAC7010E94E61E61E0C7010E94E61E12
:10355000C7010E94771DF701868160E00E94AE16C8
:10356000F701868190E0FC01E45FFE4F6491FC016D
:10357000E850FF4FE491F0E0EE0FFF1FE251FF4FE4
:103580008591949100E712E620E030E040E00E944F
:103590007B24611571058105910551F02B013C01DA
:1035A000FFEF4F1A5F0A6F0A7F0A2FE0722203C0F3
:1035B000412C512C32018CE2481681E058066104FE
:1035C000710430F09CE2491A91E0590A61087108CF
:1035D000C301B2010E941630F701648775878687A0
:1035E000978709C0F70164857585868597850E9450
:1035F000DE2F2B013C01141415041604170434F0BB
:1036000084EA482E88E3582E612C712CC301B20144
:103610000E94163020E030E048E652E40E946C2F11
:10362000F60161937193819391936F0162E170E070
:1036300080E090E00E94E919AC14BD0409F055CF78
:10364000C980DA80EB80FC807D809E80AF80B8846A
:10365000272D392DA501B601C7010E94453187FFED
:1036600003C0C72CD92C7501B601C70128960FB627
:10367000F894DEBF0FBECDBFDF91CF911F910F91A8
:10368000FF90EF90DF90CF90BF90AF909F907F9092
:103690006F905F904F900895CF92DF92EF92FF92DC
:1036A0000F931F93CF93DF936C017A018B01C0E0DE
:1036B000D0E0CE15DF0581F0D8016D918D01D601E6
:1036C000ED91FC910190F081E02DC6010995892BC7
:1036D00011F02196EECF7E01C701DF91CF911F91AE
:1036E0000F91FF90EF90DF90CF90089520912304E9
:1036F000309124042817390771F4909122048091A5
:103700002104981741F0E0912204F0E0E65BFB4FC2
:10371000808190E008958FEF9FEF089508951F93A3
:10372000CF93DF93DC015C968D919C915D97009720
:1037300039F421E030E013963C932E9312973BC06E
:103740005196ED91FC91529750962C915097322FB3
:1037500030951FB75E964C915E97742F727041FD45
:103760006095F8944081772311F0422B01C04323E8
:103770004083EC012197F1F748E0508160FF02C0DF
:10378000522B01C053235083EC012197F1F766952A
:10379000415099F78081772319F08323808302C0F9
:1037A000282B20831FBF5C968D919C915D9701977C
:1037B000F1F781E090E0DF91CF911F910895209182
:1037C0002304309124042817390771F480912104CF
:1037D0002091220490E0805C9F4F821B910960E45D
:1037E00070E00E941C32089580E090E008952091DE
:1037F00023043091240428173907B9F49091220446
:1038000080912104981789F0E0912204F0E0E65BB2
:10381000FB4F80812091220430E02F5F3F4F2F73B8
:1038200033272093220490E008958FEF9FEF0895AF
:1038300008950E946B331F920F920FB60F921124BE
:103840002F933F934F935F936F937F938F939F93A8
:10385000AF93BF93EF93FF93E0912304F09124047F
:10386000309709F451C0968DA685B785858591FF5F
:1038700004C09C91892329F447C09C91892309F0B5
:1038800043C0A389B4899C918589809589238C93B1
:10389000868997890197F1F7608D718DA685B78527
:1038A000558538E020E0CB010197F1F7822F90E0B9
:1038B00095958795282F4C91452309F02068315024
:1038C00091F7868D81FD20958091210490E00196ED
:1038D0008F73992730912204381749F0A091210461
:1038E000B0E0A65BBB4F2C938093210403C0868D70
:1038F0008160868F828D938D0197F1F7A389B489BA
:103900009C918589892B8C93FF91EF91BF91AF9109
:103910009F918F917F916F915F914F913F912F91E7
:103920000F900FBE0F901F901895E0912304F09117
:103930002404E817F90769F4A389B4899C9185895F
:10394000809589238C93109224041092230481E0A3
:10395000089580E008951F920F920FB60F921124E0
:103960002F933F938F939F93EF93FF9380914904FD
:1039700087FF05C0109285001092840005C08091D9
:10398000490487FD80914904809149048F5F8093A9
:1039900049048091490487FF20C0809149048C30FC
:1039A000E4F4209184003091850080914904082E30
:1039B000000C990BFC01EE0FFF1F8E0F9F1FFC01E7
:1039C000EB5DFB4F81819281820F931F9093890061
:1039D000809388008091490417C080918400909161
:1039E0008500049680349C4918F480E49CE905C065
:1039F0008091840090918500049690938900809333
:103A000088008FEF80934904FF91EF919F918F91F0
:103A10003F912F910F900FBE0F901F901895DC01D2
:103A200013966C93139770E0FB01E45FFE4FE491F3
:103A30001696EC931697FB01E850FF4FE491F0E0E7
:103A4000EE0FFF1FE251FF4F8591949118969C93C2
:103A50008E9317970895AF92BF92CF92DF92EF9215
:103A6000FF920F931F93CF93DF935C010AE010E066
:103A7000C12CD12C7601C0E0D0E0C5010E941822F3
:103A8000C817D90708F4EC01C80ED91EE11CF11CB7
:103A90000150110991F7D701C6018C1B9D0BA1099B
:103AA000B10923E0B695A795979587952A95D1F703
:103AB000DF91CF911F910F91FF90EF90DF90CF900A
:103AC000BF90AF9008950F931F93CF938C01C62F93
:103AD0000E949520EC2FF0E0EE0FFF1FE45EFE4FFA
:103AE0008181F8018383CF911F910F910895CF9326
:103AF000DF93EC0161E08B810E94AE168D818130F5
:103B0000C1F487E592E00197F1F700C0000060E0A2
:103B10008C810E947F1660E08B810E947F1661E09D
:103B20008C810E947F1661E08B81DF91CF910C9494
:103B30007F1660E08C810E947F169AE19A95F1F7DA
:103B400000C060E08B810E947F168AE18A95F1F7C0
:103B500000C061E08C810E947F169AE19A95F1F78E
:103B600000C061E08B810E947F168AE18A95F1F79F
:103B700000C0DF91CF9108951F93CF93DF93EC01A5
:103B8000162F61E08B810E94AE168D818130B9F4D1
:103B900087E592E00197F1F700C00000111102C023
:103BA00060E001C061E08B810E947F1661E08C8142
:103BB0000E947F1660E08C810E947F1618C0111150
:103BC00002C060E001C061E08B810E947F1661E06D
:103BD0008C810E947F169AE19A95F1F700C060E00F
:103BE0008C810E947F168AE18A95F1F700C061E01E
:103BF0008B81DF91CF911F910C947F161F93CF93F0
:103C0000DF93EC0160E08B810E94AE168D818130E4
:103C1000D1F487E592E00197F1F700C0000061E080
:103C20008B810E947F1661E08C810E947F168B81C0
:103C30000E94561611E0892B09F410E060E08C8197
:103C40000E947F161FC061E08B810E947F169AE15F
:103C50009A95F1F700C061E08C810E947F168AE19D
:103C60008A95F1F700C08B810E94561611E0892BCE
:103C700009F410E060E08C810E947F169AE19A9529
:103C8000F1F700C0812FDF91CF911F9108950F931D
:103C90001F93CF93DF938C0160E0FC0183810E942E
:103CA000AE16F80185818130E1F487E592E0019755
:103CB000F1F700C00000D8E061E0F80184810E94C3
:103CC0007F16CC0FF80183810E945616892B09F0CC
:103CD000C16060E0F80184810E947F16D15061F7D5
:103CE0001DC0D8E061E0F80184810E947F16CC0FEE
:103CF000F80183810E945616892B09F0C160FAE110
:103D0000FA95F1F700C060E0F80184810E947F1607
:103D1000FAE1FA95F1F700C0D15021F78C2FDF912D
:103D2000CF911F910F9108950F931F93CF93DF931E
:103D3000EC01162F61E08C810E94AE1661E08B8150
:103D40000E94AE168D818130D9F487E592E001970B
:103D5000F1F700C0000008E017FF02C061E001C0F9
:103D600060E08B810E947F16110F61E08C810E94C0
:103D70007F1660E08C810E947F16015069F720C099
:103D800008E017FF02C061E001C060E08B810E9483
:103D90007F169AE19A95F1F700C0110F61E08C81CE
:103DA0000E947F168AE18A95F1F700C060E08C815D
:103DB0000E947F169AE19A95F1F700C0015009F729
:103DC00080E0DF91CF911F910F910895CF93DF9302
:103DD000EC018FE193E00197F1F700C00000CE0104
:103DE0000E94941E87EC90E00197F1F700C000005C
:103DF000CE01DF91CF910C94FE1DCF93DF93EC01A8
:103E000061E08C810E94AE1661E08B810E94AE164B
:103E10008D818130C1F487E592E00197F1F700C010
:103E2000000061E08B810E947F1661E08C810E941E
:103E30007F1660E08B810E947F1660E08C81DF91AD
:103E4000CF910C947F1661E08B810E947F169AE1DE
:103E50009A95F1F700C061E08C810E947F168AE19B
:103E60008A95F1F700C060E08B810E947F169AE18D
:103E70009A95F1F700C060E08C810E947F168AE17C
:103E80008A95F1F700C0DF91CF9108951F93CF93EA
:103E9000DF93EC01162F0E94FD1E612F660FCE01ED
:103EA0000E94941E80EA8A95F1F7CE01DF91CF91AE
:103EB0001F910C94FE1DCF92DF92FF920F931F93E0
:103EC000CF93DF9300D000D0CDB7DEB78C0161E790
:103ED0000E94461F60EBC8010E94E61EC8010E94B6
:103EE000771D6AE070E080E090E00E94E919C80167
:103EF0000E94FD1E63EEC8010E94941EC8010E942C
:103F0000FE1D34E0F32ECE0101966C01FA94C80137
:103F1000FF2051F00E94471EF60181936F0160E07F
:103F2000C8010E94BC1DF2CF0E94471E8C8361E035
:103F3000C8010E94BC1DC8010E94771D89818A3A70
:103F400059F48C818B3B41F48A8190E0982F88272B
:103F50002B81820F911D02C081E090E0F8019783D0
:103F60008683F801868197810F900F900F900F90B4
:103F7000DF91CF911F910F91FF90DF90CF90089527
:103F80000F931F93CF938C01C62F0E949520EC2F87
:103F9000F0E0EE0FFF1FE45EFE4F8181D801139623
:103FA0008C931397808114968C93149715961C927A
:103FB000CF911F910F9108950F931F93CF938C0171
:103FC000C62F0E94C01FEC2FF0E0EE0FFF1FE45E33
:103FD000FE4F8081F80186831582CF911F910F914A
:103FE00008950F931F93CF938C01C62F0E949520A5
:103FF000EC2FF0E0EE0FFF1FE45EFE4F8081D80152
:1040000013968C931397918114969C9361E00E9470
:10401000AE1661E0F8018481CF911F910F910C944D
:10402000AE16FC01A381B481478120853185C90189
:10403000880F991F280F391F728563855FB7F89421
:104040008C91942F90959823842BE72FF62F2E0F89
:104050003F1FE217F30781F0419168E08C9300C0A5
:1040600047FF9C93440F00C000C000C008F49C931D
:1040700000C06A9599F7EDCF5FBF789461E070E07A
:1040800080E090E00C94E919CF92DF92EF92FF92DA
:104090000F931F93CF93DF937C01142FD22EC02E4A
:1040A000611111C0C0E0D0E0F70180859185C8178B
:1040B000D90770F40C2D2D2D412F6C2FC7010E94B4
:1040C00072202196F1CF61500E94722080E001C0E1
:1040D00081E0DF91CF911F910F91FF90EF90DF90E2
:1040E000CF9008950F93FC01A62FB0E080859185B5
:1040F000A817B907B8F4862F880F680F70E0A2855B
:10410000B385A60FB71F2C93A285B385A60FB71F43
:1041100011964C9382859385FC01E60FF71F02836D
:1041200081E001C080E00F910895DC01E62FF0E00E
:10413000EE0FFF1FE45EFE4F80818C93818111960C
:104140008C93119712966C9308951F93CF93DF93DE
:10415000EC01162F0E949520E12FF0E0EE0FFF1FDB
:10416000E45EFE4F8181282F30E0F901E45FFE4FCD
:10417000E491EF83F901E850FF4FE491F0E0EE0F96
:10418000FF1FE053FF4F259134913C832B8361E067
:104190000E94AE1664E0CE01DF91CF911F910C9486
:1041A0006D151F93CF93DF93EC01162F0E9495207E
:1041B000E12FF0E0EE0FFF1FE45EFE4F81818B8365
:1041C00080818C838B8160E00E94AE168C8161E0DF
:1041D0000E94AE168C8160E0DF91CF911F910C940C
:1041E0007F16DC012C911196ED91FC911297F894B9
:1041F0008181922F90958923818378948DE743E084
:1042000050E0815021F1DA011197F1F7308132232A
:10421000C1F3F8948281892382838181822B8183F7
:104220007894ABE7B7E01197F1F7F8948181982380
:10423000918383E191E00197F1F78081282381E068
:1042400009F080E07894E3E6F6E03197F1F708951D
:104250000F931F93CF93DF93EC01162F4F960E947D
:104260009520E12FF0E0EE0FFF1FE45EFE4F11817D
:1042700000811B821A8288EE93E0A0E0B0E08C837C
:104280009D83AE83BF838EE091E0998388831F8AEC
:104290001E8A198E188E1B8E1A8E1D8E1C8E6E8D88
:1042A0006E7F6D7F6E8F6695617081E06827812FCC
:1042B0000E947F1661E0812F0E94AE16812F90E050
:1042C000FC01E45FFE4FE491E88BFC01E850FF4FF6
:1042D000E491F0E0EE0FFF1FE053FF4F85919491C2
:1042E0009A8B898B60E0802F0E94AE168E8D81FDA7
:1042F00004C061E0802F0E947F160C87802F90E021
:10430000FC01E45FFE4FE491ED87FC01E850FF4FB4
:10431000E491F0E0EE0FFF1FE251FF4F8591949181
:104320009F878E878EE091E09983888383E08AA3BC
:104330001B8E1A8E198E188E1F8A1E8A85E690E0B3
:104340009D8F8C8F063108F04EC081E290E09F8BEC
:104350008E8B83E690E0998F888F82E490E09B8F2C
:104360008A8F30916800083058F021E00E3008F450
:1043700020E091E0892F01C0880F2A95EAF701C05B
:1043800084E0832B809368009C85983038F09E30C1
:1043900040F0963148F020E030E008C02DE630E0F3
:1043A00005C02BE630E002C02CE630E03C8B2B8BC6
:1043B000983030F481E001C0880F9A95EAF70EC07A
:1043C000292F30E09E3018F42850310902C02E50B9
:1043D000310981E001C0880F2A95EAF78D8B8C8D19
:1043E0009D8D0197F1F78A8D9B8D892BE1F080914E
:1043F000230490912404C817D907A9F0009711F05D
:104400000E94951C8E8D8E7F8E8F109221041092AB
:104410002204D0932404C0932304EB89FC89908167
:104420008D89892B8083DF91CF911F910F91089502
:10443000CF93DF93EC0160E08B810E94AE168B81FD
:10444000DF91CF910C949A181F93CF93DF93EC01D7
:10445000162F0E949520E12FF0E0EE0FFF1FE45E83
:10446000FE4F80818B8381818C838B8160E00E94F1
:10447000AE168C8160E0DF91CF911F910C94AE1647
:104480008F929F92AF92BF92CF92DF92EF92FF9264
:104490000F931F93CF93DF937C010AE010E0812CF0
:1044A000912C5401C0E0D0E0CC24CA9433E0D32E48
:1044B00060E0F70183810E94AE16F70183810E94BC
:1044C0009A189601281B390BC901C217D30708F4A3
:1044D000E901880E991EA11CB11C0150110941F778
:1044E000D501C4018C1B9D0BA109B10923E0B69530
:1044F000A795979587952A95D1F7DF91CF911F9131
:104500000F91FF90EF90DF90CF90BF90AF909F9072
:104510008F900895CF93DF93EC010E94C01F81E03C
:104520008D83CE010E94FD1E67EECE010E94E61E25
:1045300060E8CE010E94E61E64EACE010E94E61EFB
:104540006AE9CE010E94E61E61E8CE010E94E61EE5
:1045500063E8CE010E94E61ECE01DF91CF910C945C
:10456000771DCF92DF92EF92FF920F931F93CF931D
:10457000DF93EC01E62E8A01F22E0E94FD1E6E01F1
:1045800082E4C80ED11CF6016081660FCE010E9444
:10459000941ECE010E94FE1D6E2DCE010E94941E1F
:1045A000CE010E94FE1DCE010E94771DF0E5FA9516
:1045B000F1F7CE010E94FD1EF6016081660F616079
:1045C000CE010E94941ECE010E94FE1DFA94EF2C93
:1045D0006801EE2061F0CE010E94471EF601819332
:1045E0006F0160E0CE010E94BC1DEA94F2CF0F0D76
:1045F000111DCE010E94471EF801808361E0CE01AB
:104600000E94BC1DCE01DF91CF911F910F91FF90B1
:10461000EF90DF90CF900C94771D0F931F93CF9363
:10462000DF938C01D62FC42F0E94FD1E6D2F660FC5
:104630006A59C8010E94941EC8010E94FE1DEC2FF9
:10464000C7FF07C0EF77F0E0EA5DFE4F608160686A
:1046500004C0F0E0EA5DFE4F6081C8010E94941E34
:10466000C801DF91CF911F910F910C94771D0F938B
:104670001F93CF93DF93EC010E94FD1E62E5CE01F4
:104680000E94941ECE010E94FE1D62E9CE010E948E
:10469000941ECE010E94FE1DCE010E94FD1E63E508
:1046A000CE010E94941ECE010E94FE1DCE010E94EA
:1046B000471E182F61E0CE010E94BC1DCE010E9452
:1046C000771D143411F0103161F581E08E83198566
:1046D0000A85412F61E0CE010E94191619870A87C9
:1046E0001F8108858E81811103C0CE010E9437236E
:1046F000412F6FE0CE010E9419161F83088741E009
:1047000060E0CE010E94191663E070E080E090E066
:104710000E94E91943E060E0CE010E94191681E091
:1047200001C080E0DF91CF911F910F9108951F92FA
:104730000F920FB60F9211242F933F938F939F9355
:10474000AF93BF93EF93FF939091C60080918B043A
:1047500081110EC0923509F043C0E0918A0438EC13
:10476000E39FF0011124E859FE4F908381E00EC0D1
:10477000813091F4923469F4E0918A0488ECE89FE6
:10478000F0011124E859FE4F918382E080938B045D
:1047900027C010928B0424C020918A0438EC239FF8
:1047A000F0011124E859FE4FDF01A80FB11D9C93C1
:1047B0008F5F80938B049281891710F4883C80F07E
:1047C00010928B048091F802222321F010928A0427
:1047D000826004C091E090938A0481608093F80223
:1047E000FF91EF91BF91AF919F918F913F912F9149
:1047F0000F900FBE0F901F9018953FB7F8948091BF
:10480000910490919204A0919304B091940426B5E0
:10481000A89B05C02F3F19F00196A11DB11D3FBFF8
:10482000BA2FA92F982F8827820F911DA11DB11D86
:10483000BC01CD0142E0660F771F881F991F4A9582
:10484000D1F708952FB7F89460918D0470918E047C
:1048500080918F04909190042FBF08951F920F9222
:104860000FB60F9211242F933F938F939F93AF9383
:10487000BF9380918D0490918E04A0918F04B0918C
:10488000900430918C0423E0230F2D3720F40196FF
:10489000A11DB11D05C026E8230F0296A11DB11D63
:1048A00020938C0480938D0490938E04A0938F04A6
:1048B000B09390048091910490919204A0919304FC
:1048C000B09194040196A11DB11D80939104909321
:1048D0009204A0939304B0939404BF91AF919F91DD
:1048E0008F913F912F910F900FBE0F901F901895B1
:1048F00080E090E00895CF92DF92EF92FF920F93C5
:104900001F93E82FF92F05C0015011092109310922
:1049100061F1908196239417B9F305C001501109F4
:104920002109310911F1908196239413F7CFC12CFD
:10493000D12CE12CF12C0AC08FEFC81AD80AE80A52
:10494000F80A0C151D052E053F0579F08081862398
:10495000841791F36C2D7D2D8E2D9F2D1F910F911E
:10496000FF90EF90DF90CF90089560E070E080E0DE
:1049700090E01F910F91FF90EF90DF90CF900895FE
:10498000CF93DF9300D01F92CDB7DEB7789484B574
:10499000826084BD84B5816084BD85B5826085BD3B
:1049A00085B5816085BD80916E00816080936E00C9
:1049B00010928100809181008260809381008091BB
:1049C000810081608093810080918000816080936C
:1049D00080008091B10084608093B1008091B0002C
:1049E00081608093B00080917A00846080937A0027
:1049F00080917A00826080937A0080917A00816051
:104A000080937A0080917A00806880937A00109277
:104A1000C10060E088E00E94AE168091C000826014
:104A20008093C0001092C50080E18093C400809103
:104A3000C10080688093C1008091C1008061809333
:104A4000C1008091C10088608093C1008091C20044
:104A500084608093C2008091C20082608093C20013
:104A60006CE271E080E090E00E94E91961E08091E1
:104A700056030E94AE1660E0809156030E947F1696
:104A800000E020E040E060E089E293E00E94442002
:104A9000EEE0F1E0E491E0933003EAEFF0E0E4913E
:104AA000F0E0EE0FFF1FE053FF4F8591949190933C
:104AB0002D0380932C0361E082E00E94AE1620E07B
:104AC00040E060E089E293E00E94442089E293E0C4
:104AD0000E9411206CE271E080E090E00E94E919F0
:104AE00020E04EE160E089E293E00E94442089E208
:104AF00093E00E9411206CE271E080E090E00E945F
:104B0000E9192EE140E060E089E293E00E94442050
:104B100089E293E00E9411206CE271E080E090E075
:104B20000E94E9190EE120E040E060E089E293E0B4
:104B30000E94442089E293E00E9411206CE271E01F
:104B400080E090E00E94E91944EF51E060E070E0FD
:104B500084EF91E00E94EA1661E085E00E94AE16C3
:104B600061E086E00E94AE1661E089E00E94AE1628
:104B700061E08AE00E94AE168DEA809380008BE0AF
:104B800080938100109289001092880010928B000F
:104B900010928A0064EF71E080E090E00E94E919D1
:104BA00082E50E94981582E40E94981586E00E9492
:104BB000981580E00E94981583E00E9498158DE971
:104BC0000E9498159FE088E10FB6F894A89580930D
:104BD00060000FBE90936000A89538EC832E912C56
:104BE000A12CB12C45E6242E43E0342E50E0652E56
:104BF00050E0752EA8958091F80280FF36C08E7F18
:104C00008093F80280916A0130E020E090E0019703
:104C1000432F50E0481759073CF4FA01E859FE4F7A
:104C20004081240F3F5FF4CFFC01E859FE4F8081A3
:104C3000281302C080E037C082E50E94981582E404
:104C40000E94981587E00E94981580916B010E9440
:104C5000981580916C010E94981580E00E9498152B
:104C600090916B0180916C0139C081FF3BC08D7FB9
:104C70008093F8028091320230E020E090E00197CA
:104C8000432F50E0481759073CF4FA01E05DFD4F0F
:104C90004081240F3F5FF4CFFC01E05DFD4F808138
:104CA000281304C081E00E94BC001CC082E50E9461
:104CB000981582E40E94981587E00E9498158091CB
:104CC00033020E949815809134020E94981580E06A
:104CD0000E9498159091330280913402890F865674
:104CE0000E94981588E00E945616019719F481E0F9
:104CF00080933B0388E00E945616892B21F4809113
:104D00003B03811165C480913A03882321F11092FD
:104D10003A038091F9028823F1F082E50E94981508
:104D200082E40E94981588E00E94981580E00E9415
:104D3000981581E00E94981589EF0E94981581E0EE
:104D40000E94981587E90E94981587E90E94981596
:104D500087E90E94981580913903882309F469C076
:104D60008091FB029091FC02A091FD02B091FE02A5
:104D70000196A11DB11D883E23E09207A105B10552
:104D800048F48093FB029093FC02A093FD02B09341
:104D9000FE0247C01092FB021092FC021092FD022C
:104DA0001092FE0285E10E949A18BC0180E090E01A
:104DB0000E94143020E030E040E75CE30E94523172
:104DC0006B017C0120E030E040E050E40E9445317E
:104DD00018163CF52AE939E949ED50E4C701B60156
:104DE0000E94672F87FF1DC082E50E94981582E40C
:104DF0000E94981588E00E94981580E00E949815FE
:104E000082E00E9498158DEF0E94981581E00E9423
:104E100098158CE90E9498158091FA028F5F809313
:104E2000FA028091FA028A3020F01092FA0210926F
:104E3000390380913803833009F4D5C2843009F4F2
:104E4000F3C18111BEC30E94222400914603109138
:104E500047032091480330914903DC01CB01801BBB
:104E6000910BA20BB30B893E9340A105B10508F449
:104E7000A8C382E4C82E83E0D82E9EE3E92E93E0F7
:104E8000F92E0CE111E01A82512C5394852D0E94C9
:104E9000231A482ED6018D936D0181110BC060E05D
:104EA000F80182810E94AE1660E0D80113968C91C1
:104EB0000E94AE16D701EC914E1609F46BC18E2FED
:104EC00090E0FC013297E831F10508F061C1EC5C3B
:104ED000FF4F0C9430328091360390913703009746
:104EE00031F00E94E2321092370310923603809123
:104EF000270390912803009731F00E94E23210922C
:104F00002803109227038091250390912603009790
:104F100009F41DC10E94E23210922603109225036B
:104F200025C18091230390912403009709F40FC1B8
:104F30000E94E232109224031092230326C1809132
:104F4000210390912203009709F401C10E94E232EB
:104F500010922203109221031BC180911F03909194
:104F60002003009709F4F3C00E94E232109220035C
:104F700010921F03BFC080911D0390911E030097E4
:104F800009F4E5C00E94E23210921E0310921D0344
:104F9000C0C080911B0390911C03009709F4D7C0F7
:104FA0000E94E23210921C0310921B03C1C0809138
:104FB000190390911A03009731F00E94E232109287
:104FC0001A0310921903E0911703F0911803FB8361
:104FD000EA83309709F4BBC0CF010E94951CEEE034
:104FE000F1E0AA81BB811196FC93EE93CD010E9462
:104FF000951C8A819B810E94E232109218031092C4
:105000001703C3C080913C0390913D03009709F4BE
:105010009EC00E94E23210923D0310923C03B8C041
:105020008091150390911603009709F490C00E9497
:10503000E23210921603109215035CC080911303A4
:1050400090911403009709F482C00E94E2321092FA
:105050001403109213035DC0A0911103B0911203C9
:10506000BB83AA83109709F472C01A968D919C9104
:105070001B970E94E2328A819B810E94E232109249
:1050800012031092110363C080910F0390911003DB
:10509000009709F45CC00E94E23210921003109253
:1050A0000F0364C080910D0390910E03009709F4E3
:1050B0004EC00E94E23210920E0310920D0365C0A2
:1050C00080910B0390910C03009709F440C00E945B
:1050D000E23210920C0310920B035AC08091090324
:1050E00090910A03009799F10E94E23210920A030C
:1050F0001092090381E08A834DC08091070390914B
:105100000803009721F10E94E232109208031092E6
:10511000070391E09A833EC08091050390910603B6
:105120000097A9F00E94E232109206031092050344
:10513000A1E0AA832FC080910303909104030097FC
:1051400031F00E94E2321092040310920303B1E0A6
:10515000BA8320C080910103909102030097B9F3B4
:105160000E94E2321092020310920103E1E0EA830E
:1051700011C08091FF0290910003009741F30E94BB
:10518000E232109200031092FF02F1E0FA8302C0B3
:1051900021E02A83D7014D927D010E5F1F4FB4E0BD
:1051A0005B1273CEEA81EE23A1F182E5809358036E
:1051B00082E48093590310925B03F5E0F0935C0363
:1051C00080913E0380935D0380913F0380935E0353
:1051D0008091400380935F0380914103809360033B
:1051E00010926103109262031092630310926403A1
:1051F0002EE020935A03E8E5F3E081919981980F1E
:1052000099832E163F06C9F7909365038EE00E949E
:105210009F150E9422246093460370934703809356
:10522000480390934903CDC1809136039091370391
:10523000009789F480E190E00E944A329B838A8340
:10524000609135030E94DC1FAA81BB81B0933703B4
:10525000A09336031DC0FC01428150E0209135032C
:10526000022E000C330B4217530791F00E94E232DA
:1052700080E190E00E944A329B838A8360913503EB
:105280000E94DC1F8A819B819093370380933603B1
:1052900080913603909137030E94541A6B017C0170
:1052A00020E030E048E452E40E94453118162CF426
:1052B00010924B0310924A0328C020E030E048EBE4
:1052C00051E4C701B6010E94453190914B039A8386
:1052D00087FD11C020E030E048E452E4C701B60188
:1052E0000E94672F18163CF0AA81A11102C081E02C
:1052F0000AC081E006C0BA81BB23C9F382E0B130A5
:1053000011F080934A0380934B0380914A038130CC
:1053100069F018F0823081F154C127E330E040E0B9
:1053200050E067E370E080E090E0D1C000E020E072
:1053300042E360E089E293E00E94442089E293E046
:105340000E9411200E94CE2DA50194010E94252EBD
:10535000653648F022E630E040E050E06EE97FEF4D
:105360008FEF9FEFE8C02EE93FEF4FEF5FEF62E670
:1053700070E080E090E0DFC000E022E340E060E029
:1053800089E293E00E94442089E293E00E94112088
:1053900026EA3FEF4FEF5FEF66EA7FEF8FEF9FEF79
:1053A0000E948A1860E971E080E090E00E94E919AB
:1053B000A8950E94CE2DA50194010E94252E653648
:1053C00048F022E630E040E050E06EE97FEF8FEFFA
:1053D0009FEFEEC02EE93FEF4FEF5FEF62E670E028
:1053E00080E090E0E5C0809136039091370300970C
:1053F00071F0DC0112964C9150E020913503022EA1
:10540000000C330B4217530791F00E94E23280E107
:1054100090E00E944A329B838A83609135030E9408
:10542000DC1FEA81FB81F0933703E0933603809120
:105430003603909137030E94541A6B017C0120E0DF
:1054400030E048E452E40E94453118162CF41092E2
:105450004D0310924C032AC020E030E048EB51E4A9
:10546000C701B6010E944531F0914D03FA8387FDD3
:1054700011C020E030E048E452E4C701B6010E94C8
:10548000672F18163CF02A81211102C081E00CC060
:1054900081E008C08A818823C9F3813011F482E059
:1054A00003C082E080934C0380934D0380914C03B2
:1054B0008130E1F020F0823009F444C082C029EC50
:1054C0003FEF4FEF5FEF69EC7FEF8FEF9FEF0E94B1
:1054D0008A1802E320E040E060E089E293E00E9465
:1054E000442089E293E00E9411206BC000E020E09C
:1054F00042E360E089E293E00E94442089E293E085
:105500000E9411200E94CE2DA50194010E94252EFB
:10551000653648F021E430E040E050E06FEB7FEF8B
:105520008FEF9FEF08C02FEB3FEF4FEF5FEF61E48E
:1055300070E080E090E00E948A1868EC70E080E003
:1055400090E03CC000E022E340E060E089E293E0CC
:105550000E94442089E293E00E94112021E430E07F
:1055600040E050E061E470E080E090E00E948A1842
:105570006EEE72E080E090E00E94E919A8950E942A
:10558000CE2DA50194010E94252E653648F027E313
:1055900030E040E050E069EC7FEF8FEF9FEF08C014
:1055A00029EC3FEF4FEF5FEF67E370E080E090E0C2
:1055B0000E948A186AE872E080E090E00E94E9198F
:1055C000A8956114710409F415CB0E94000012CB58
:1055D00081E080933A0310923B0395CB0F931F9386
:1055E000CF93DF93EC01162F0E94FD1E62E5CE01E2
:1055F0000E94941ECE010E94FE1D612F6068CE01A4
:105600000E94941ECE010E94FE1DCE010E94FD1E2E
:1056100063E5CE010E94941ECE010E94FE1DCE01C4
:105620000E94471E182F60E0CE010E94BC1DCE01D3
:105630000E94471E082F61E0CE010E94BC1DCE01D2
:105640000E94771D812F90E0902BDF91CF911F91C9
:105650000F910895FF920F931F93CF93DF93EC0167
:10566000F62E042F122F60E50E94461F63EACE013A
:105670000E94E61E6F2DCE010E94E61E602FCE0115
:105680000E94E61E612FCE010E94E61ECE01DF9130
:10569000CF911F910F91FF900C94771D4F925F92C5
:1056A0006F927F928F929F92AF92BF92CF92DF9232
:1056B000EF92FF920F931F93CF93DF9300D000D010
:1056C00000D0CDB7DEB79E838D8380E090E0A3E865
:1056D000B2E4ED81FE8186839783A087B18712862D
:1056E00013861486158616861786108A118A128AE2
:1056F000138A148A158A168A178A108E118E128EB2
:10570000138E148E158E168E178E10A211A213A250
:1057100012A215A214A217A216A210A611A612A6D2
:1057200013A614A615A616A617A610AA11AA12AAA1
:1057300013AA64E670E080E090E00E94E91940E07E
:105740006BE68D819E810E94972C6EE170E080E077
:1057500090E00E94E91941E06AE18D819E810E94FA
:10576000972C48E06BE18D819E810E94972C62E32B
:1057700070E080E090E00E94E91904EF11E01982E6
:105780001A821B821C82812C912C5401412C512C99
:105790003201ED80FE80F4E3EF0EF11C26E0A7015C
:1057A00063E48D819E810E94B122ED81FE8184A9F6
:1057B00095A9982789279827092E000CAA0BBB0BBF
:1057C000480E591E6A1E7B1E86A997A9982789270D
:1057D0009827092E000CAA0BBB0B880E991EAA1E37
:1057E000BB1E80AD91AD982789279827092E000C04
:1057F000AA0BBB0B29813A814B815C81280F391F91
:105800004A1F5B1F29833A834B835C83A895015011
:10581000110921F684EFC82EDD24D394E12CF12C5C
:10582000C301B201A70196010E94252ECA01B90148
:105830000E941630ED81FE8160A771A782A793A711
:10584000C501B401A70196010E94252ECA01B90124
:105850000E941630ED81FE8164A775A786A797A7E1
:1058600069817A818B819C81A70196010E94252EF6
:10587000CA01B9010E941630ED81FE8160AB71ABA7
:1058800082AB93AB26960FB6F894DEBF0FBECDBFAA
:10589000DF91CF911F910F91FF90EF90DF90CF900C
:1058A000BF90AF909F908F907F906F905F904F9040
:1058B000089570E080E090E00E9414302CE53FE80D
:1058C00042EA5FE30E946C2F0E94E52F862F653B22
:1058D00030F4611102C087E008C0643B11F486E235
:1058E00004C066E00E941032885F8093B300089580
:1058F00070E080E090E00E9414302CE53FE842EA3E
:105900005FE30E946C2F0E94E52F862F653B30F4E9
:10591000611102C087E008C0643B11F486E204C054
:1059200066E00E941032885F8093B40008950F9360
:105930001F93CF93DF93EC01062F142F0E94FD1EBF
:10594000FE01EE5BFF4F6081660FCE010E94941E48
:10595000CE010E94FE1D602FCE010E94941ECE013A
:105960000E94FE1D612FCE010E94941ECE010E9456
:10597000FE1DCE01DF91CF911F910F910C94771DE9
:10598000AF92BF92CF92DF92EF92FF920F931F934D
:10599000CF93DF93EC015B016A0179018E81811164
:1059A00003C0CE010E94372364E1CE010E94EE2A9B
:1059B000F8019183808366E1CE010E94EE2AF50111
:1059C0009183808368E1CE010E94EE2AF6019183E3
:1059D00080836AE1CE010E94EE2AF70191838083E1
:1059E00089859A85853D910519F150F4009729F133
:1059F000803C910591F56AE970E080E090E021C07B
:105A0000863F910581F08F3F910541F08B3E9105D6
:105A100021F562E370E080E090E013C063E070E0A5
:105A200080E090E00EC068E170E080E090E009C0A6
:105A300065E670E080E090E004C06CEB72E080E02E
:105A400090E0DF91CF911F910F91FF90EF90DF9049
:105A5000CF90BF90AF900C94E919DF91CF911F9137
:105A60000F91FF90EF90DF90CF90BF90AF9008958F
:105A700080913303909134030C94E232A9E2B3E0B5
:105A80001C9211961C92119712961C921297ECE0A0
:105A9000F1E0E4911796EC931797E8EFF0E0E491CA
:105AA000F0E0EE0FFF1FE053FF4F859194911496A5
:105AB0009C938E93139761E080E00E94AE1662E0A3
:105AC00089E293E00E946D1584E08093560360E0C4
:105AD00084E10E94AE1661E08CE00E94AE1661E0A7
